{
  "contractName": "ApplicationHandler",
  "abi": [
    {
      "inputs": [],
      "stateMutability": "nonpayable",
      "type": "constructor"
    },
    {
      "anonymous": false,
      "inputs": [
        {
          "indexed": true,
          "internalType": "uint64",
          "name": "id",
          "type": "uint64"
        }
      ],
      "name": "SupportIdEvent",
      "type": "event"
    },
    {
      "inputs": [
        {
          "internalType": "uint64",
          "name": "",
          "type": "uint64"
        }
      ],
      "name": "items",
      "outputs": [
        {
          "internalType": "uint64",
          "name": "id",
          "type": "uint64"
        },
        {
          "internalType": "bytes",
          "name": "title",
          "type": "bytes"
        },
        {
          "internalType": "bytes",
          "name": "imgPath",
          "type": "bytes"
        },
        {
          "internalType": "bytes",
          "name": "description",
          "type": "bytes"
        },
        {
          "internalType": "uint256",
          "name": "price",
          "type": "uint256"
        },
        {
          "internalType": "uint64",
          "name": "salesCount",
          "type": "uint64"
        },
        {
          "internalType": "bytes",
          "name": "message",
          "type": "bytes"
        },
        {
          "internalType": "bytes",
          "name": "filePath",
          "type": "bytes"
        },
        {
          "internalType": "bool",
          "name": "isDeleted",
          "type": "bool"
        },
        {
          "internalType": "address",
          "name": "seller",
          "type": "address"
        }
      ],
      "stateMutability": "view",
      "type": "function"
    },
    {
      "inputs": [
        {
          "internalType": "address",
          "name": "",
          "type": "address"
        },
        {
          "internalType": "uint256",
          "name": "",
          "type": "uint256"
        }
      ],
      "name": "myItems",
      "outputs": [
        {
          "internalType": "uint64",
          "name": "",
          "type": "uint64"
        }
      ],
      "stateMutability": "view",
      "type": "function"
    },
    {
      "inputs": [
        {
          "internalType": "address",
          "name": "",
          "type": "address"
        },
        {
          "internalType": "uint256",
          "name": "",
          "type": "uint256"
        }
      ],
      "name": "myWishlists",
      "outputs": [
        {
          "internalType": "uint64",
          "name": "",
          "type": "uint64"
        }
      ],
      "stateMutability": "view",
      "type": "function"
    },
    {
      "inputs": [],
      "name": "owner",
      "outputs": [
        {
          "internalType": "address payable",
          "name": "",
          "type": "address"
        }
      ],
      "stateMutability": "view",
      "type": "function"
    },
    {
      "inputs": [
        {
          "internalType": "address",
          "name": "",
          "type": "address"
        },
        {
          "internalType": "uint64",
          "name": "",
          "type": "uint64"
        }
      ],
      "name": "purchasedItems",
      "outputs": [
        {
          "internalType": "bool",
          "name": "",
          "type": "bool"
        }
      ],
      "stateMutability": "view",
      "type": "function"
    },
    {
      "inputs": [
        {
          "internalType": "address",
          "name": "",
          "type": "address"
        }
      ],
      "name": "supportCount",
      "outputs": [
        {
          "internalType": "uint64",
          "name": "",
          "type": "uint64"
        }
      ],
      "stateMutability": "view",
      "type": "function"
    },
    {
      "inputs": [
        {
          "internalType": "address",
          "name": "",
          "type": "address"
        },
        {
          "internalType": "uint64",
          "name": "",
          "type": "uint64"
        }
      ],
      "name": "supportList",
      "outputs": [
        {
          "internalType": "uint64",
          "name": "id",
          "type": "uint64"
        },
        {
          "internalType": "address",
          "name": "from",
          "type": "address"
        },
        {
          "internalType": "address",
          "name": "to",
          "type": "address"
        },
        {
          "internalType": "uint256",
          "name": "amount",
          "type": "uint256"
        },
        {
          "internalType": "uint256",
          "name": "arriveTime",
          "type": "uint256"
        },
        {
          "internalType": "enum SupportHistory.SupportType",
          "name": "supportType",
          "type": "uint8"
        }
      ],
      "stateMutability": "view",
      "type": "function"
    },
    {
      "inputs": [
        {
          "internalType": "uint256",
          "name": "",
          "type": "uint256"
        }
      ],
      "name": "wishlists",
      "outputs": [
        {
          "internalType": "uint64",
          "name": "id",
          "type": "uint64"
        },
        {
          "internalType": "bytes",
          "name": "imgPath",
          "type": "bytes"
        },
        {
          "internalType": "bytes",
          "name": "title",
          "type": "bytes"
        },
        {
          "internalType": "bytes",
          "name": "description",
          "type": "bytes"
        },
        {
          "internalType": "uint256",
          "name": "collectedAmount",
          "type": "uint256"
        },
        {
          "internalType": "uint256",
          "name": "targetAmount",
          "type": "uint256"
        },
        {
          "internalType": "bytes",
          "name": "message",
          "type": "bytes"
        },
        {
          "internalType": "bool",
          "name": "isClosed",
          "type": "bool"
        },
        {
          "internalType": "address",
          "name": "seller",
          "type": "address"
        }
      ],
      "stateMutability": "view",
      "type": "function"
    },
    {
      "inputs": [
        {
          "internalType": "address payable",
          "name": "_to",
          "type": "address"
        }
      ],
      "name": "callBasicDonation",
      "outputs": [
        {
          "internalType": "uint64",
          "name": "",
          "type": "uint64"
        }
      ],
      "stateMutability": "payable",
      "type": "function"
    },
    {
      "inputs": [
        {
          "internalType": "address payable",
          "name": "_to",
          "type": "address"
        },
        {
          "internalType": "uint64",
          "name": "_itemId",
          "type": "uint64"
        }
      ],
      "name": "buyItemDonation",
      "outputs": [
        {
          "internalType": "uint64",
          "name": "",
          "type": "uint64"
        }
      ],
      "stateMutability": "payable",
      "type": "function"
    },
    {
      "inputs": [
        {
          "internalType": "address payable",
          "name": "_to",
          "type": "address"
        },
        {
          "internalType": "uint64",
          "name": "_wishlistId",
          "type": "uint64"
        }
      ],
      "name": "buyWishlistDonation",
      "outputs": [
        {
          "internalType": "uint64",
          "name": "",
          "type": "uint64"
        }
      ],
      "stateMutability": "payable",
      "type": "function"
    },
    {
      "inputs": [
        {
          "internalType": "address",
          "name": "_address",
          "type": "address"
        }
      ],
      "name": "getMemberItemList",
      "outputs": [
        {
          "components": [
            {
              "internalType": "uint64",
              "name": "id",
              "type": "uint64"
            },
            {
              "internalType": "bytes",
              "name": "title",
              "type": "bytes"
            },
            {
              "internalType": "bytes",
              "name": "imgPath",
              "type": "bytes"
            },
            {
              "internalType": "bytes",
              "name": "description",
              "type": "bytes"
            },
            {
              "internalType": "uint256",
              "name": "price",
              "type": "uint256"
            },
            {
              "internalType": "uint64",
              "name": "salesCount",
              "type": "uint64"
            },
            {
              "internalType": "bytes",
              "name": "message",
              "type": "bytes"
            },
            {
              "internalType": "bytes",
              "name": "filePath",
              "type": "bytes"
            },
            {
              "internalType": "bool",
              "name": "isDeleted",
              "type": "bool"
            },
            {
              "internalType": "address",
              "name": "seller",
              "type": "address"
            }
          ],
          "internalType": "struct ItemDonation.ItemSol[]",
          "name": "",
          "type": "tuple[]"
        }
      ],
      "stateMutability": "view",
      "type": "function"
    },
    {
      "inputs": [
        {
          "internalType": "uint64",
          "name": "_id",
          "type": "uint64"
        }
      ],
      "name": "getItemDetail",
      "outputs": [
        {
          "components": [
            {
              "internalType": "uint64",
              "name": "id",
              "type": "uint64"
            },
            {
              "internalType": "bytes",
              "name": "title",
              "type": "bytes"
            },
            {
              "internalType": "bytes",
              "name": "imgPath",
              "type": "bytes"
            },
            {
              "internalType": "bytes",
              "name": "description",
              "type": "bytes"
            },
            {
              "internalType": "uint256",
              "name": "price",
              "type": "uint256"
            },
            {
              "internalType": "uint64",
              "name": "salesCount",
              "type": "uint64"
            },
            {
              "internalType": "bytes",
              "name": "message",
              "type": "bytes"
            },
            {
              "internalType": "bytes",
              "name": "filePath",
              "type": "bytes"
            },
            {
              "internalType": "bool",
              "name": "isDeleted",
              "type": "bool"
            },
            {
              "internalType": "address",
              "name": "seller",
              "type": "address"
            }
          ],
          "internalType": "struct ItemDonation.ItemSol",
          "name": "",
          "type": "tuple"
        }
      ],
      "stateMutability": "view",
      "type": "function"
    },
    {
      "inputs": [
        {
          "components": [
            {
              "internalType": "uint64",
              "name": "id",
              "type": "uint64"
            },
            {
              "internalType": "bytes",
              "name": "title",
              "type": "bytes"
            },
            {
              "internalType": "bytes",
              "name": "imgPath",
              "type": "bytes"
            },
            {
              "internalType": "bytes",
              "name": "description",
              "type": "bytes"
            },
            {
              "internalType": "uint256",
              "name": "price",
              "type": "uint256"
            },
            {
              "internalType": "uint64",
              "name": "salesCount",
              "type": "uint64"
            },
            {
              "internalType": "bytes",
              "name": "message",
              "type": "bytes"
            },
            {
              "internalType": "bytes",
              "name": "filePath",
              "type": "bytes"
            },
            {
              "internalType": "bool",
              "name": "isDeleted",
              "type": "bool"
            },
            {
              "internalType": "address",
              "name": "seller",
              "type": "address"
            }
          ],
          "internalType": "struct ItemDonation.ItemSol",
          "name": "_item",
          "type": "tuple"
        }
      ],
      "name": "addMemberItem",
      "outputs": [],
      "stateMutability": "nonpayable",
      "type": "function"
    },
    {
      "inputs": [
        {
          "internalType": "address",
          "name": "_address",
          "type": "address"
        },
        {
          "internalType": "uint64",
          "name": "_id",
          "type": "uint64"
        }
      ],
      "name": "deleteMemberItem",
      "outputs": [],
      "stateMutability": "nonpayable",
      "type": "function"
    },
    {
      "inputs": [
        {
          "components": [
            {
              "internalType": "uint64",
              "name": "id",
              "type": "uint64"
            },
            {
              "internalType": "bytes",
              "name": "title",
              "type": "bytes"
            },
            {
              "internalType": "bytes",
              "name": "imgPath",
              "type": "bytes"
            },
            {
              "internalType": "bytes",
              "name": "description",
              "type": "bytes"
            },
            {
              "internalType": "uint256",
              "name": "price",
              "type": "uint256"
            },
            {
              "internalType": "uint64",
              "name": "salesCount",
              "type": "uint64"
            },
            {
              "internalType": "bytes",
              "name": "message",
              "type": "bytes"
            },
            {
              "internalType": "bytes",
              "name": "filePath",
              "type": "bytes"
            },
            {
              "internalType": "bool",
              "name": "isDeleted",
              "type": "bool"
            },
            {
              "internalType": "address",
              "name": "seller",
              "type": "address"
            }
          ],
          "internalType": "struct ItemDonation.ItemSol",
          "name": "_item",
          "type": "tuple"
        }
      ],
      "name": "updateMemberItem",
      "outputs": [],
      "stateMutability": "nonpayable",
      "type": "function"
    },
    {
      "inputs": [
        {
          "internalType": "address",
          "name": "_address",
          "type": "address"
        }
      ],
      "name": "getMemberWishLists",
      "outputs": [
        {
          "components": [
            {
              "internalType": "uint64",
              "name": "id",
              "type": "uint64"
            },
            {
              "internalType": "bytes",
              "name": "imgPath",
              "type": "bytes"
            },
            {
              "internalType": "bytes",
              "name": "title",
              "type": "bytes"
            },
            {
              "internalType": "bytes",
              "name": "description",
              "type": "bytes"
            },
            {
              "internalType": "uint256",
              "name": "collectedAmount",
              "type": "uint256"
            },
            {
              "internalType": "uint256",
              "name": "targetAmount",
              "type": "uint256"
            },
            {
              "internalType": "bytes",
              "name": "message",
              "type": "bytes"
            },
            {
              "internalType": "bool",
              "name": "isClosed",
              "type": "bool"
            },
            {
              "internalType": "address",
              "name": "seller",
              "type": "address"
            }
          ],
          "internalType": "struct WishlistDonation.WishlistSol[]",
          "name": "",
          "type": "tuple[]"
        }
      ],
      "stateMutability": "view",
      "type": "function"
    },
    {
      "inputs": [
        {
          "internalType": "uint64",
          "name": "_id",
          "type": "uint64"
        }
      ],
      "name": "getMemberWishListDetail",
      "outputs": [
        {
          "components": [
            {
              "internalType": "uint64",
              "name": "id",
              "type": "uint64"
            },
            {
              "internalType": "bytes",
              "name": "imgPath",
              "type": "bytes"
            },
            {
              "internalType": "bytes",
              "name": "title",
              "type": "bytes"
            },
            {
              "internalType": "bytes",
              "name": "description",
              "type": "bytes"
            },
            {
              "internalType": "uint256",
              "name": "collectedAmount",
              "type": "uint256"
            },
            {
              "internalType": "uint256",
              "name": "targetAmount",
              "type": "uint256"
            },
            {
              "internalType": "bytes",
              "name": "message",
              "type": "bytes"
            },
            {
              "internalType": "bool",
              "name": "isClosed",
              "type": "bool"
            },
            {
              "internalType": "address",
              "name": "seller",
              "type": "address"
            }
          ],
          "internalType": "struct WishlistDonation.WishlistSol",
          "name": "",
          "type": "tuple"
        }
      ],
      "stateMutability": "view",
      "type": "function"
    },
    {
      "inputs": [
        {
          "components": [
            {
              "internalType": "uint64",
              "name": "id",
              "type": "uint64"
            },
            {
              "internalType": "bytes",
              "name": "imgPath",
              "type": "bytes"
            },
            {
              "internalType": "bytes",
              "name": "title",
              "type": "bytes"
            },
            {
              "internalType": "bytes",
              "name": "description",
              "type": "bytes"
            },
            {
              "internalType": "uint256",
              "name": "collectedAmount",
              "type": "uint256"
            },
            {
              "internalType": "uint256",
              "name": "targetAmount",
              "type": "uint256"
            },
            {
              "internalType": "bytes",
              "name": "message",
              "type": "bytes"
            },
            {
              "internalType": "bool",
              "name": "isClosed",
              "type": "bool"
            },
            {
              "internalType": "address",
              "name": "seller",
              "type": "address"
            }
          ],
          "internalType": "struct WishlistDonation.WishlistSol",
          "name": "_wishlist",
          "type": "tuple"
        }
      ],
      "name": "addMemberWishList",
      "outputs": [],
      "stateMutability": "nonpayable",
      "type": "function"
    },
    {
      "inputs": [
        {
          "internalType": "address",
          "name": "_address",
          "type": "address"
        },
        {
          "internalType": "uint64",
          "name": "_id",
          "type": "uint64"
        }
      ],
      "name": "deleteMemberWishlist",
      "outputs": [],
      "stateMutability": "nonpayable",
      "type": "function"
    },
    {
      "inputs": [
        {
          "components": [
            {
              "internalType": "uint64",
              "name": "id",
              "type": "uint64"
            },
            {
              "internalType": "bytes",
              "name": "imgPath",
              "type": "bytes"
            },
            {
              "internalType": "bytes",
              "name": "title",
              "type": "bytes"
            },
            {
              "internalType": "bytes",
              "name": "description",
              "type": "bytes"
            },
            {
              "internalType": "uint256",
              "name": "collectedAmount",
              "type": "uint256"
            },
            {
              "internalType": "uint256",
              "name": "targetAmount",
              "type": "uint256"
            },
            {
              "internalType": "bytes",
              "name": "message",
              "type": "bytes"
            },
            {
              "internalType": "bool",
              "name": "isClosed",
              "type": "bool"
            },
            {
              "internalType": "address",
              "name": "seller",
              "type": "address"
            }
          ],
          "internalType": "struct WishlistDonation.WishlistSol",
          "name": "_wishlist",
          "type": "tuple"
        }
      ],
      "name": "updateMemberWishlist",
      "outputs": [],
      "stateMutability": "nonpayable",
      "type": "function"
    },
    {
      "inputs": [
        {
          "internalType": "address",
          "name": "_address",
          "type": "address"
        },
        {
          "internalType": "uint64",
          "name": "_id",
          "type": "uint64"
        }
      ],
      "name": "getSupportDetail",
      "outputs": [
        {
          "components": [
            {
              "internalType": "uint64",
              "name": "id",
              "type": "uint64"
            },
            {
              "internalType": "address",
              "name": "from",
              "type": "address"
            },
            {
              "internalType": "address",
              "name": "to",
              "type": "address"
            },
            {
              "internalType": "uint256",
              "name": "amount",
              "type": "uint256"
            },
            {
              "internalType": "uint256",
              "name": "arriveTime",
              "type": "uint256"
            },
            {
              "internalType": "enum SupportHistory.SupportType",
              "name": "supportType",
              "type": "uint8"
            }
          ],
          "internalType": "struct SupportHistory.SupportSol",
          "name": "",
          "type": "tuple"
        }
      ],
      "stateMutability": "view",
      "type": "function"
    },
    {
      "inputs": [
        {
          "internalType": "address",
          "name": "_address",
          "type": "address"
        }
      ],
      "name": "getSupportList",
      "outputs": [
        {
          "components": [
            {
              "internalType": "uint64",
              "name": "id",
              "type": "uint64"
            },
            {
              "internalType": "address",
              "name": "from",
              "type": "address"
            },
            {
              "internalType": "address",
              "name": "to",
              "type": "address"
            },
            {
              "internalType": "uint256",
              "name": "amount",
              "type": "uint256"
            },
            {
              "internalType": "uint256",
              "name": "arriveTime",
              "type": "uint256"
            },
            {
              "internalType": "enum SupportHistory.SupportType",
              "name": "supportType",
              "type": "uint8"
            }
          ],
          "internalType": "struct SupportHistory.SupportSol[]",
          "name": "",
          "type": "tuple[]"
        }
      ],
      "stateMutability": "view",
      "type": "function"
    },
    {
      "inputs": [
        {
          "internalType": "address",
          "name": "_address",
          "type": "address"
        },
        {
          "internalType": "uint64",
          "name": "_id",
          "type": "uint64"
        }
      ],
      "name": "getSupportArriveTime",
      "outputs": [
        {
          "internalType": "uint256",
          "name": "",
          "type": "uint256"
        }
      ],
      "stateMutability": "view",
      "type": "function"
    }
  ],
  "bytecode": "0x608060405234801561001057600080fd5b50336008806101000a81548173ffffffffffffffffffffffffffffffffffffffff021916908373ffffffffffffffffffffffffffffffffffffffff160217905550616a1b80620000616000396000f3fe60806040526004361061014b5760003560e01c806389da115a116100b6578063a9afa55b1161006f578063a9afa55b1461050b578063aed3b4a614610550578063b9a44c2e1461058d578063be7dfa04146105ca578063dc83f47c14610607578063f3a037c0146106445761014b565b806389da115a146103eb5780638da5cb5b1461041457806396e685cf1461043f5780639d27b3571461047c578063a52c5dca146104b9578063a8f5e3c9146104e25761014b565b806341368a071161010857806341368a07146102a25780635be5bc15146102cb57806367bfa8301461031157806368b7e0ae14610341578063746ef1091461037e5780637a29813b146103bb5761014b565b806308c914ef14610150578063098ed1b0146101795780630c1fa1ef146101b657806321f3d128146101f3578063234c921814610230578063271df4c114610272575b600080fd5b34801561015c57600080fd5b5061017760048036038101906101729190614d9d565b61066d565b005b34801561018557600080fd5b506101a0600480360381019061019b9190614ddd565b610685565b6040516101ad9190614fc6565b60405180910390f35b3480156101c257600080fd5b506101dd60048036038101906101d89190614fe8565b61069d565b6040516101ea9190615024565b60405180910390f35b3480156101ff57600080fd5b5061021a60048036038101906102159190614d9d565b6106c4565b604051610227919061504e565b60405180910390f35b34801561023c57600080fd5b5061025760048036038101906102529190614d9d565b6106f3565b604051610269969594939291906150fe565b60405180910390f35b61028c6004803603810190610287919061519d565b61079d565b6040516102999190615024565b60405180910390f35b3480156102ae57600080fd5b506102c960048036038101906102c491906154b1565b61080f565b005b3480156102d757600080fd5b506102f260048036038101906102ed9190614ddd565b61081b565b6040516103089a99989796959493929190615544565b60405180910390f35b61032b60048036038101906103269190615603565b610b6c565b6040516103389190615024565b60405180910390f35b34801561034d57600080fd5b5061036860048036038101906103639190614d9d565b610bde565b6040516103759190615643565b60405180910390f35b34801561038a57600080fd5b506103a560048036038101906103a09190614ddd565b610bf6565b6040516103b29190615754565b60405180910390f35b6103d560048036038101906103d09190615603565b610c0e565b6040516103e29190615024565b60405180910390f35b3480156103f757600080fd5b50610412600480360381019061040d9190614d9d565b610c80565b005b34801561042057600080fd5b50610429610c8e565b6040516104369190615785565b60405180910390f35b34801561044b57600080fd5b5061046660048036038101906104619190614fe8565b610cb2565b6040516104739190615958565b60405180910390f35b34801561048857600080fd5b506104a3600480360381019061049e9190614fe8565b610d85565b6040516104b09190615ab3565b60405180910390f35b3480156104c557600080fd5b506104e060048036038101906104db91906154b1565b610d97565b005b3480156104ee57600080fd5b5061050960048036038101906105049190615c57565b610da3565b005b34801561051757600080fd5b50610532600480360381019061052d9190615ca0565b610daf565b60405161054799989796959493929190615ccd565b60405180910390f35b34801561055c57600080fd5b5061057760048036038101906105729190614d9d565b61105e565b6040516105849190615df1565b60405180910390f35b34801561059957600080fd5b506105b460048036038101906105af9190615e0c565b611078565b6040516105c19190615024565b60405180910390f35b3480156105d657600080fd5b506105f160048036038101906105ec9190615e0c565b6110c5565b6040516105fe9190615024565b60405180910390f35b34801561061357600080fd5b5061062e60048036038101906106299190614fe8565b611112565b60405161063b9190615fe8565b60405180910390f35b34801561065057600080fd5b5061066b60048036038101906106669190615c57565b6111e5565b005b610681828267ffffffffffffffff166111f1565b5050565b61068d614b80565b61069682611662565b9050919050565b60016020528060005260406000206000915054906101000a900467ffffffffffffffff1681565b60056020528160005260406000206020528060005260406000206000915091509054906101000a900460ff1681565b6000602052816000526040600020602052806000526040600020600091509150508060000160009054906101000a900467ffffffffffffffff16908060000160089054906101000a900473ffffffffffffffffffffffffffffffffffffffff16908060010160009054906101000a900473ffffffffffffffffffffffffffffffffffffffff16908060020154908060030154908060040160009054906101000a900460ff16905086565b6000806107cd8334600060088054906101000a900473ffffffffffffffffffffffffffffffffffffffff16611a59565b90508067ffffffffffffffff167f475106278bc7a0f08f0d2835c61bf24ec9b3d467275c8d96de554a99dd083f5660405160405180910390a280915050919050565b61081881611b78565b50565b60026020528060005260406000206000915090508060000160009054906101000a900467ffffffffffffffff169080600101805461085890616039565b80601f016020809104026020016040519081016040528092919081815260200182805461088490616039565b80156108d15780601f106108a6576101008083540402835291602001916108d1565b820191906000526020600020905b8154815290600101906020018083116108b457829003601f168201915b5050505050908060020180546108e690616039565b80601f016020809104026020016040519081016040528092919081815260200182805461091290616039565b801561095f5780601f106109345761010080835404028352916020019161095f565b820191906000526020600020905b81548152906001019060200180831161094257829003601f168201915b50505050509080600301805461097490616039565b80601f01602080910402602001604051908101604052809291908181526020018280546109a090616039565b80156109ed5780601f106109c2576101008083540402835291602001916109ed565b820191906000526020600020905b8154815290600101906020018083116109d057829003601f168201915b5050505050908060040154908060050160009054906101000a900467ffffffffffffffff1690806006018054610a2290616039565b80601f0160208091040260200160405190810160405280929190818152602001828054610a4e90616039565b8015610a9b5780601f10610a7057610100808354040283529160200191610a9b565b820191906000526020600020905b815481529060010190602001808311610a7e57829003601f168201915b505050505090806007018054610ab090616039565b80601f0160208091040260200160405190810160405280929190818152602001828054610adc90616039565b8015610b295780601f10610afe57610100808354040283529160200191610b29565b820191906000526020600020905b815481529060010190602001808311610b0c57829003601f168201915b5050505050908060080160009054906101000a900460ff16908060080160019054906101000a900473ffffffffffffffffffffffffffffffffffffffff1690508a565b600080610b9b84843460088054906101000a900473ffffffffffffffffffffffffffffffffffffffff16611de6565b90508067ffffffffffffffff167f475106278bc7a0f08f0d2835c61bf24ec9b3d467275c8d96de554a99dd083f5660405160405180910390a28091505092915050565b6000610bea8383612272565b60800151905092915050565b610bfe614bee565b610c078261251a565b9050919050565b600080610c3d84843460088054906101000a900473ffffffffffffffffffffffffffffffffffffffff16612a1b565b90508067ffffffffffffffff167f475106278bc7a0f08f0d2835c61bf24ec9b3d467275c8d96de554a99dd083f5660405160405180910390a28091505092915050565b610c8a8282613111565b5050565b60088054906101000a900473ffffffffffffffffffffffffffffffffffffffff1681565b6060610d7e600360008473ffffffffffffffffffffffffffffffffffffffff1673ffffffffffffffffffffffffffffffffffffffff168152602001908152602001600020805480602002602001604051908101604052809291908181526020018280548015610d7457602002820191906000526020600020906000905b82829054906101000a900467ffffffffffffffff1667ffffffffffffffff1681526020019060080190602082600701049283019260010382029150808411610d2f5790505b505050505061366f565b9050919050565b6060610d9082613ba4565b9050919050565b610da081613e6c565b50565b610dac81614008565b50565b60066020528060005260406000206000915090508060000160009054906101000a900467ffffffffffffffff1690806001018054610dec90616039565b80601f0160208091040260200160405190810160405280929190818152602001828054610e1890616039565b8015610e655780601f10610e3a57610100808354040283529160200191610e65565b820191906000526020600020905b815481529060010190602001808311610e4857829003601f168201915b505050505090806002018054610e7a90616039565b80601f0160208091040260200160405190810160405280929190818152602001828054610ea690616039565b8015610ef35780601f10610ec857610100808354040283529160200191610ef3565b820191906000526020600020905b815481529060010190602001808311610ed657829003601f168201915b505050505090806003018054610f0890616039565b80601f0160208091040260200160405190810160405280929190818152602001828054610f3490616039565b8015610f815780601f10610f5657610100808354040283529160200191610f81565b820191906000526020600020905b815481529060010190602001808311610f6457829003601f168201915b505050505090806004015490806005015490806006018054610fa290616039565b80601f0160208091040260200160405190810160405280929190818152602001828054610fce90616039565b801561101b5780601f10610ff05761010080835404028352916020019161101b565b820191906000526020600020905b815481529060010190602001808311610ffe57829003601f168201915b5050505050908060070160009054906101000a900460ff16908060070160019054906101000a900473ffffffffffffffffffffffffffffffffffffffff16905089565b611066614c6d565b6110708383612272565b905092915050565b6007602052816000526040600020818154811061109457600080fd5b9060005260206000209060049182820401919006600802915091509054906101000a900467ffffffffffffffff1681565b600360205281600052604060002081815481106110e157600080fd5b9060005260206000209060049182820401919006600802915091509054906101000a900467ffffffffffffffff1681565b60606111de600760008473ffffffffffffffffffffffffffffffffffffffff1673ffffffffffffffffffffffffffffffffffffffff1681526020019081526020016000208054806020026020016040519081016040528092919081815260200182805480156111d457602002820191906000526020600020906000905b82829054906101000a900467ffffffffffffffff1667ffffffffffffffff168152602001906008019060208260070104928301926001038202915080841161118f5790505b50505050506141ea565b9050919050565b6111ee8161465b565b50565b600860009054906101000a900467ffffffffffffffff1667ffffffffffffffff16811115611254576040517f08c379a000000000000000000000000000000000000000000000000000000000815260040161124b906160c7565b60405180910390fd5b600060066000838152602001908152602001600020604051806101200160405290816000820160009054906101000a900467ffffffffffffffff1667ffffffffffffffff1667ffffffffffffffff1681526020016001820180546112b790616039565b80601f01602080910402602001604051908101604052809291908181526020018280546112e390616039565b80156113305780601f1061130557610100808354040283529160200191611330565b820191906000526020600020905b81548152906001019060200180831161131357829003601f168201915b5050505050815260200160028201805461134990616039565b80601f016020809104026020016040519081016040528092919081815260200182805461137590616039565b80156113c25780601f10611397576101008083540402835291602001916113c2565b820191906000526020600020905b8154815290600101906020018083116113a557829003601f168201915b505050505081526020016003820180546113db90616039565b80601f016020809104026020016040519081016040528092919081815260200182805461140790616039565b80156114545780601f1061142957610100808354040283529160200191611454565b820191906000526020600020905b81548152906001019060200180831161143757829003601f168201915b50505050508152602001600482015481526020016005820154815260200160068201805461148190616039565b80601f01602080910402602001604051908101604052809291908181526020018280546114ad90616039565b80156114fa5780601f106114cf576101008083540402835291602001916114fa565b820191906000526020600020905b8154815290600101906020018083116114dd57829003601f168201915b505050505081526020016007820160009054906101000a900460ff161515151581526020016007820160019054906101000a900473ffffffffffffffffffffffffffffffffffffffff1673ffffffffffffffffffffffffffffffffffffffff1673ffffffffffffffffffffffffffffffffffffffff168152505090508060e00151156115bb576040517f08c379a00000000000000000000000000000000000000000000000000000000081526004016115b290616133565b60405180910390fd5b8273ffffffffffffffffffffffffffffffffffffffff1681610100015173ffffffffffffffffffffffffffffffffffffffff161461162e576040517f08c379a0000000000000000000000000000000000000000000000000000000008152600401611625906161c5565b60405180910390fd5b60016006600084815260200190815260200160002060070160006101000a81548160ff021916908315150217905550505050565b61166a614b80565b600860009054906101000a900467ffffffffffffffff1667ffffffffffffffff168267ffffffffffffffff1611156116d7576040517f08c379a00000000000000000000000000000000000000000000000000000000081526004016116ce906160c7565b60405180910390fd5b60008267ffffffffffffffff1603611724576040517f08c379a000000000000000000000000000000000000000000000000000000000815260040161171b906160c7565b60405180910390fd5b6000600660008467ffffffffffffffff168152602001908152602001600020604051806101200160405290816000820160009054906101000a900467ffffffffffffffff1667ffffffffffffffff1667ffffffffffffffff16815260200160018201805461179190616039565b80601f01602080910402602001604051908101604052809291908181526020018280546117bd90616039565b801561180a5780601f106117df5761010080835404028352916020019161180a565b820191906000526020600020905b8154815290600101906020018083116117ed57829003601f168201915b5050505050815260200160028201805461182390616039565b80601f016020809104026020016040519081016040528092919081815260200182805461184f90616039565b801561189c5780601f106118715761010080835404028352916020019161189c565b820191906000526020600020905b81548152906001019060200180831161187f57829003601f168201915b505050505081526020016003820180546118b590616039565b80601f01602080910402602001604051908101604052809291908181526020018280546118e190616039565b801561192e5780601f106119035761010080835404028352916020019161192e565b820191906000526020600020905b81548152906001019060200180831161191157829003601f168201915b50505050508152602001600482015481526020016005820154815260200160068201805461195b90616039565b80601f016020809104026020016040519081016040528092919081815260200182805461198790616039565b80156119d45780601f106119a9576101008083540402835291602001916119d4565b820191906000526020600020905b8154815290600101906020018083116119b757829003601f168201915b505050505081526020016007820160009054906101000a900460ff161515151581526020016007820160019054906101000a900473ffffffffffffffffffffffffffffffffffffffff1673ffffffffffffffffffffffffffffffffffffffff1673ffffffffffffffffffffffffffffffffffffffff1681525050905080915050919050565b600047841115611a9e576040517f08c379a0000000000000000000000000000000000000000000000000000000008152600401611a9590616231565b60405180910390fd5b6000611aac3387878761490f565b905060006103e8600587611ac09190616280565b611aca91906162f1565b905060008187611ada9190616322565b90508473ffffffffffffffffffffffffffffffffffffffff166108fc839081150290604051600060405180830381858888f19350505050158015611b22573d6000803e3d6000fd5b508773ffffffffffffffffffffffffffffffffffffffff166108fc829081150290604051600060405180830381858888f19350505050158015611b69573d6000803e3d6000fd5b50829350505050949350505050565b6008600081819054906101000a900467ffffffffffffffff1680929190611b9e90616356565b91906101000a81548167ffffffffffffffff021916908367ffffffffffffffff16021790555050600860009054906101000a900467ffffffffffffffff16816000019067ffffffffffffffff16908167ffffffffffffffff16815250508060066000600860009054906101000a900467ffffffffffffffff1667ffffffffffffffff16815260200190815260200160002060008201518160000160006101000a81548167ffffffffffffffff021916908367ffffffffffffffff1602179055506020820151816001019081611c739190616532565b506040820151816002019081611c899190616532565b506060820151816003019081611c9f9190616532565b506080820151816004015560a0820151816005015560c0820151816006019081611cc99190616532565b5060e08201518160070160006101000a81548160ff0219169083151502179055506101008201518160070160016101000a81548173ffffffffffffffffffffffffffffffffffffffff021916908373ffffffffffffffffffffffffffffffffffffffff1602179055509050506007600082610100015173ffffffffffffffffffffffffffffffffffffffff1673ffffffffffffffffffffffffffffffffffffffff168152602001908152602001600020600860009054906101000a900467ffffffffffffffff1690806001815401808255809150506001900390600052602060002090600491828204019190066008029091909190916101000a81548167ffffffffffffffff021916908367ffffffffffffffff16021790555050565b600047831115611e2b576040517f08c379a0000000000000000000000000000000000000000000000000000000008152600401611e2290616231565b60405180910390fd5b6000600660008667ffffffffffffffff168152602001908152602001600020604051806101200160405290816000820160009054906101000a900467ffffffffffffffff1667ffffffffffffffff1667ffffffffffffffff168152602001600182018054611e9890616039565b80601f0160208091040260200160405190810160405280929190818152602001828054611ec490616039565b8015611f115780601f10611ee657610100808354040283529160200191611f11565b820191906000526020600020905b815481529060010190602001808311611ef457829003601f168201915b50505050508152602001600282018054611f2a90616039565b80601f0160208091040260200160405190810160405280929190818152602001828054611f5690616039565b8015611fa35780601f10611f7857610100808354040283529160200191611fa3565b820191906000526020600020905b815481529060010190602001808311611f8657829003601f168201915b50505050508152602001600382018054611fbc90616039565b80601f0160208091040260200160405190810160405280929190818152602001828054611fe890616039565b80156120355780601f1061200a57610100808354040283529160200191612035565b820191906000526020600020905b81548152906001019060200180831161201857829003601f168201915b50505050508152602001600482015481526020016005820154815260200160068201805461206290616039565b80601f016020809104026020016040519081016040528092919081815260200182805461208e90616039565b80156120db5780601f106120b0576101008083540402835291602001916120db565b820191906000526020600020905b8154815290600101906020018083116120be57829003601f168201915b505050505081526020016007820160009054906101000a900460ff161515151581526020016007820160019054906101000a900473ffffffffffffffffffffffffffffffffffffffff1673ffffffffffffffffffffffffffffffffffffffff1673ffffffffffffffffffffffffffffffffffffffff168152505090508060e001511561219c576040517f08c379a000000000000000000000000000000000000000000000000000000000815260040161219390616676565b60405180910390fd5b60006121ab8786600287611a59565b905084600660008867ffffffffffffffff16815260200190815260200160002060040160008282546121dd9190616696565b92505081905550600660008767ffffffffffffffff16815260200190815260200160002060050154600660008867ffffffffffffffff1681526020019081526020016000206004015410612265576001600660008867ffffffffffffffff16815260200190815260200160002060070160006101000a81548160ff0219169083151502179055505b8092505050949350505050565b61227a614c6d565b6000600160008573ffffffffffffffffffffffffffffffffffffffff1673ffffffffffffffffffffffffffffffffffffffff16815260200190815260200160002060009054906101000a900467ffffffffffffffff16905060008367ffffffffffffffff160361231f576040517f08c379a0000000000000000000000000000000000000000000000000000000008152600401612316906160c7565b60405180910390fd5b8067ffffffffffffffff168367ffffffffffffffff161115612376576040517f08c379a000000000000000000000000000000000000000000000000000000000815260040161236d906160c7565b60405180910390fd5b6000808573ffffffffffffffffffffffffffffffffffffffff1673ffffffffffffffffffffffffffffffffffffffff16815260200190815260200160002060008467ffffffffffffffff1667ffffffffffffffff1681526020019081526020016000206040518060c00160405290816000820160009054906101000a900467ffffffffffffffff1667ffffffffffffffff1667ffffffffffffffff1681526020016000820160089054906101000a900473ffffffffffffffffffffffffffffffffffffffff1673ffffffffffffffffffffffffffffffffffffffff1673ffffffffffffffffffffffffffffffffffffffff1681526020016001820160009054906101000a900473ffffffffffffffffffffffffffffffffffffffff1673ffffffffffffffffffffffffffffffffffffffff1673ffffffffffffffffffffffffffffffffffffffff16815260200160028201548152602001600382015481526020016004820160009054906101000a900460ff1660028111156124fb576124fa615087565b5b600281111561250d5761250c615087565b5b8152505091505092915050565b612522614bee565b600460009054906101000a900467ffffffffffffffff1667ffffffffffffffff168267ffffffffffffffff16111561258f576040517f08c379a0000000000000000000000000000000000000000000000000000000008152600401612586906160c7565b60405180910390fd5b60008267ffffffffffffffff16036125dc576040517f08c379a00000000000000000000000000000000000000000000000000000000081526004016125d3906160c7565b60405180910390fd5b6000600260008467ffffffffffffffff1667ffffffffffffffff168152602001908152602001600020604051806101400160405290816000820160009054906101000a900467ffffffffffffffff1667ffffffffffffffff1667ffffffffffffffff16815260200160018201805461265390616039565b80601f016020809104026020016040519081016040528092919081815260200182805461267f90616039565b80156126cc5780601f106126a1576101008083540402835291602001916126cc565b820191906000526020600020905b8154815290600101906020018083116126af57829003601f168201915b505050505081526020016002820180546126e590616039565b80601f016020809104026020016040519081016040528092919081815260200182805461271190616039565b801561275e5780601f106127335761010080835404028352916020019161275e565b820191906000526020600020905b81548152906001019060200180831161274157829003601f168201915b5050505050815260200160038201805461277790616039565b80601f01602080910402602001604051908101604052809291908181526020018280546127a390616039565b80156127f05780601f106127c5576101008083540402835291602001916127f0565b820191906000526020600020905b8154815290600101906020018083116127d357829003601f168201915b50505050508152602001600482015481526020016005820160009054906101000a900467ffffffffffffffff1667ffffffffffffffff1667ffffffffffffffff16815260200160068201805461284590616039565b80601f016020809104026020016040519081016040528092919081815260200182805461287190616039565b80156128be5780601f10612893576101008083540402835291602001916128be565b820191906000526020600020905b8154815290600101906020018083116128a157829003601f168201915b505050505081526020016007820180546128d790616039565b80601f016020809104026020016040519081016040528092919081815260200182805461290390616039565b80156129505780601f1061292557610100808354040283529160200191612950565b820191906000526020600020905b81548152906001019060200180831161293357829003601f168201915b505050505081526020016008820160009054906101000a900460ff161515151581526020016008820160019054906101000a900473ffffffffffffffffffffffffffffffffffffffff1673ffffffffffffffffffffffffffffffffffffffff1673ffffffffffffffffffffffffffffffffffffffff1681525050905080610100015115612a12576040517f08c379a0000000000000000000000000000000000000000000000000000000008152600401612a0990616716565b60405180910390fd5b80915050919050565b600047831115612a60576040517f08c379a0000000000000000000000000000000000000000000000000000000008152600401612a5790616231565b60405180910390fd5b6000600260008667ffffffffffffffff1667ffffffffffffffff168152602001908152602001600020604051806101400160405290816000820160009054906101000a900467ffffffffffffffff1667ffffffffffffffff1667ffffffffffffffff168152602001600182018054612ad790616039565b80601f0160208091040260200160405190810160405280929190818152602001828054612b0390616039565b8015612b505780601f10612b2557610100808354040283529160200191612b50565b820191906000526020600020905b815481529060010190602001808311612b3357829003601f168201915b50505050508152602001600282018054612b6990616039565b80601f0160208091040260200160405190810160405280929190818152602001828054612b9590616039565b8015612be25780601f10612bb757610100808354040283529160200191612be2565b820191906000526020600020905b815481529060010190602001808311612bc557829003601f168201915b50505050508152602001600382018054612bfb90616039565b80601f0160208091040260200160405190810160405280929190818152602001828054612c2790616039565b8015612c745780601f10612c4957610100808354040283529160200191612c74565b820191906000526020600020905b815481529060010190602001808311612c5757829003601f168201915b50505050508152602001600482015481526020016005820160009054906101000a900467ffffffffffffffff1667ffffffffffffffff1667ffffffffffffffff168152602001600682018054612cc990616039565b80601f0160208091040260200160405190810160405280929190818152602001828054612cf590616039565b8015612d425780601f10612d1757610100808354040283529160200191612d42565b820191906000526020600020905b815481529060010190602001808311612d2557829003601f168201915b50505050508152602001600782018054612d5b90616039565b80601f0160208091040260200160405190810160405280929190818152602001828054612d8790616039565b8015612dd45780601f10612da957610100808354040283529160200191612dd4565b820191906000526020600020905b815481529060010190602001808311612db757829003601f168201915b505050505081526020016008820160009054906101000a900460ff161515151581526020016008820160019054906101000a900473ffffffffffffffffffffffffffffffffffffffff1673ffffffffffffffffffffffffffffffffffffffff1673ffffffffffffffffffffffffffffffffffffffff168152505090508060800151841015612e97576040517f08c379a0000000000000000000000000000000000000000000000000000000008152600401612e8e90616782565b60405180910390fd5b80610100015115612edd576040517f08c379a0000000000000000000000000000000000000000000000000000000008152600401612ed490616782565b60405180910390fd5b8573ffffffffffffffffffffffffffffffffffffffff1681610120015173ffffffffffffffffffffffffffffffffffffffff1614612f50576040517f08c379a0000000000000000000000000000000000000000000000000000000008152600401612f4790616814565b60405180910390fd5b600560003373ffffffffffffffffffffffffffffffffffffffff1673ffffffffffffffffffffffffffffffffffffffff16815260200190815260200160002060008667ffffffffffffffff1667ffffffffffffffff16815260200190815260200160002060009054906101000a900460ff1615613002576040517f08c379a0000000000000000000000000000000000000000000000000000000008152600401612ff9906168a6565b60405180910390fd5b60006130118786600187611a59565b90506001600560003373ffffffffffffffffffffffffffffffffffffffff1673ffffffffffffffffffffffffffffffffffffffff16815260200190815260200160002060008867ffffffffffffffff1667ffffffffffffffff16815260200190815260200160002060006101000a81548160ff0219169083151502179055506001600260008867ffffffffffffffff1667ffffffffffffffff16815260200190815260200160002060050160008282829054906101000a900467ffffffffffffffff166130de91906168c6565b92506101000a81548167ffffffffffffffff021916908367ffffffffffffffff1602179055508092505050949350505050565b600460009054906101000a900467ffffffffffffffff1667ffffffffffffffff168167ffffffffffffffff16111561317e576040517f08c379a0000000000000000000000000000000000000000000000000000000008152600401613175906160c7565b60405180910390fd5b6000600260008367ffffffffffffffff1667ffffffffffffffff168152602001908152602001600020604051806101400160405290816000820160009054906101000a900467ffffffffffffffff1667ffffffffffffffff1667ffffffffffffffff1681526020016001820180546131f590616039565b80601f016020809104026020016040519081016040528092919081815260200182805461322190616039565b801561326e5780601f106132435761010080835404028352916020019161326e565b820191906000526020600020905b81548152906001019060200180831161325157829003601f168201915b5050505050815260200160028201805461328790616039565b80601f01602080910402602001604051908101604052809291908181526020018280546132b390616039565b80156133005780601f106132d557610100808354040283529160200191613300565b820191906000526020600020905b8154815290600101906020018083116132e357829003601f168201915b5050505050815260200160038201805461331990616039565b80601f016020809104026020016040519081016040528092919081815260200182805461334590616039565b80156133925780601f1061336757610100808354040283529160200191613392565b820191906000526020600020905b81548152906001019060200180831161337557829003601f168201915b50505050508152602001600482015481526020016005820160009054906101000a900467ffffffffffffffff1667ffffffffffffffff1667ffffffffffffffff1681526020016006820180546133e790616039565b80601f016020809104026020016040519081016040528092919081815260200182805461341390616039565b80156134605780601f1061343557610100808354040283529160200191613460565b820191906000526020600020905b81548152906001019060200180831161344357829003601f168201915b5050505050815260200160078201805461347990616039565b80601f01602080910402602001604051908101604052809291908181526020018280546134a590616039565b80156134f25780601f106134c7576101008083540402835291602001916134f2565b820191906000526020600020905b8154815290600101906020018083116134d557829003601f168201915b505050505081526020016008820160009054906101000a900460ff161515151581526020016008820160019054906101000a900473ffffffffffffffffffffffffffffffffffffffff1673ffffffffffffffffffffffffffffffffffffffff1673ffffffffffffffffffffffffffffffffffffffff16815250509050806101000151156135b4576040517f08c379a00000000000000000000000000000000000000000000000000000000081526004016135ab90616716565b60405180910390fd5b8273ffffffffffffffffffffffffffffffffffffffff1681610120015173ffffffffffffffffffffffffffffffffffffffff1614613627576040517f08c379a000000000000000000000000000000000000000000000000000000000815260040161361e9061694e565b60405180910390fd5b6001600260008467ffffffffffffffff1667ffffffffffffffff16815260200190815260200160002060080160006101000a81548160ff021916908315150217905550505050565b60606000825167ffffffffffffffff81111561368e5761368d6151cf565b5b6040519080825280602002602001820160405280156136c757816020015b6136b4614bee565b8152602001906001900390816136ac5790505b50905060005b8351811015613b9a57600460009054906101000a900467ffffffffffffffff1667ffffffffffffffff1684828151811061370a5761370961696e565b5b602002602001015167ffffffffffffffff16111561375d576040517f08c379a0000000000000000000000000000000000000000000000000000000008152600401613754906160c7565b60405180910390fd5b6000600260008684815181106137765761377561696e565b5b602002602001015167ffffffffffffffff1667ffffffffffffffff168152602001908152602001600020905080604051806101400160405290816000820160009054906101000a900467ffffffffffffffff1667ffffffffffffffff1667ffffffffffffffff1681526020016001820180546137f190616039565b80601f016020809104026020016040519081016040528092919081815260200182805461381d90616039565b801561386a5780601f1061383f5761010080835404028352916020019161386a565b820191906000526020600020905b81548152906001019060200180831161384d57829003601f168201915b5050505050815260200160028201805461388390616039565b80601f01602080910402602001604051908101604052809291908181526020018280546138af90616039565b80156138fc5780601f106138d1576101008083540402835291602001916138fc565b820191906000526020600020905b8154815290600101906020018083116138df57829003601f168201915b5050505050815260200160038201805461391590616039565b80601f016020809104026020016040519081016040528092919081815260200182805461394190616039565b801561398e5780601f106139635761010080835404028352916020019161398e565b820191906000526020600020905b81548152906001019060200180831161397157829003601f168201915b50505050508152602001600482015481526020016005820160009054906101000a900467ffffffffffffffff1667ffffffffffffffff1667ffffffffffffffff1681526020016006820180546139e390616039565b80601f0160208091040260200160405190810160405280929190818152602001828054613a0f90616039565b8015613a5c5780601f10613a3157610100808354040283529160200191613a5c565b820191906000526020600020905b815481529060010190602001808311613a3f57829003601f168201915b50505050508152602001600782018054613a7590616039565b80601f0160208091040260200160405190810160405280929190818152602001828054613aa190616039565b8015613aee5780601f10613ac357610100808354040283529160200191613aee565b820191906000526020600020905b815481529060010190602001808311613ad157829003601f168201915b505050505081526020016008820160009054906101000a900460ff161515151581526020016008820160019054906101000a900473ffffffffffffffffffffffffffffffffffffffff1673ffffffffffffffffffffffffffffffffffffffff1673ffffffffffffffffffffffffffffffffffffffff1681525050838381518110613b7b57613b7a61696e565b5b6020026020010181905250508080613b929061699d565b9150506136cd565b5080915050919050565b60606000600160008473ffffffffffffffffffffffffffffffffffffffff1673ffffffffffffffffffffffffffffffffffffffff16815260200190815260200160002060009054906101000a900467ffffffffffffffff16905060008167ffffffffffffffff1667ffffffffffffffff811115613c2457613c236151cf565b5b604051908082528060200260200182016040528015613c5d57816020015b613c4a614c6d565b815260200190600190039081613c425790505b50905060005b8267ffffffffffffffff168167ffffffffffffffff161015613e61576000808673ffffffffffffffffffffffffffffffffffffffff1673ffffffffffffffffffffffffffffffffffffffff1681526020019081526020016000206000600183613ccc91906168c6565b67ffffffffffffffff1667ffffffffffffffff1681526020019081526020016000206040518060c00160405290816000820160009054906101000a900467ffffffffffffffff1667ffffffffffffffff1667ffffffffffffffff1681526020016000820160089054906101000a900473ffffffffffffffffffffffffffffffffffffffff1673ffffffffffffffffffffffffffffffffffffffff1673ffffffffffffffffffffffffffffffffffffffff1681526020016001820160009054906101000a900473ffffffffffffffffffffffffffffffffffffffff1673ffffffffffffffffffffffffffffffffffffffff1673ffffffffffffffffffffffffffffffffffffffff16815260200160028201548152602001600382015481526020016004820160009054906101000a900460ff166002811115613e1057613e0f615087565b5b6002811115613e2257613e21615087565b5b81525050828267ffffffffffffffff1681518110613e4357613e4261696e565b5b60200260200101819052508080613e5990616356565b915050613c63565b508092505050919050565b600860009054906101000a900467ffffffffffffffff1667ffffffffffffffff16816000015167ffffffffffffffff161115613edd576040517f08c379a0000000000000000000000000000000000000000000000000000000008152600401613ed4906160c7565b60405180910390fd5b8060066000836000015167ffffffffffffffff16815260200190815260200160002060008201518160000160006101000a81548167ffffffffffffffff021916908367ffffffffffffffff1602179055506020820151816001019081613f439190616532565b506040820151816002019081613f599190616532565b506060820151816003019081613f6f9190616532565b506080820151816004015560a0820151816005015560c0820151816006019081613f999190616532565b5060e08201518160070160006101000a81548160ff0219169083151502179055506101008201518160070160016101000a81548173ffffffffffffffffffffffffffffffffffffffff021916908373ffffffffffffffffffffffffffffffffffffffff16021790555090505050565b600460009054906101000a900467ffffffffffffffff1667ffffffffffffffff16816000015167ffffffffffffffff161115614079576040517f08c379a0000000000000000000000000000000000000000000000000000000008152600401614070906160c7565b60405180910390fd5b8060026000836000015167ffffffffffffffff1667ffffffffffffffff16815260200190815260200160002060008201518160000160006101000a81548167ffffffffffffffff021916908367ffffffffffffffff16021790555060208201518160010190816140e99190616532565b5060408201518160020190816140ff9190616532565b5060608201518160030190816141159190616532565b506080820151816004015560a08201518160050160006101000a81548167ffffffffffffffff021916908367ffffffffffffffff16021790555060c08201518160060190816141649190616532565b5060e082015181600701908161417a9190616532565b506101008201518160080160006101000a81548160ff0219169083151502179055506101208201518160080160016101000a81548173ffffffffffffffffffffffffffffffffffffffff021916908373ffffffffffffffffffffffffffffffffffffffff16021790555090505050565b60606000825167ffffffffffffffff811115614209576142086151cf565b5b60405190808252806020026020018201604052801561424257816020015b61422f614b80565b8152602001906001900390816142275790505b50905060005b835181101561465157600860009054906101000a900467ffffffffffffffff1667ffffffffffffffff168482815181106142855761428461696e565b5b602002602001015167ffffffffffffffff1611156142d8576040517f08c379a00000000000000000000000000000000000000000000000000000000081526004016142cf906160c7565b60405180910390fd5b6000600660008684815181106142f1576142f061696e565b5b602002602001015167ffffffffffffffff168152602001908152602001600020604051806101200160405290816000820160009054906101000a900467ffffffffffffffff1667ffffffffffffffff1667ffffffffffffffff16815260200160018201805461435f90616039565b80601f016020809104026020016040519081016040528092919081815260200182805461438b90616039565b80156143d85780601f106143ad576101008083540402835291602001916143d8565b820191906000526020600020905b8154815290600101906020018083116143bb57829003601f168201915b505050505081526020016002820180546143f190616039565b80601f016020809104026020016040519081016040528092919081815260200182805461441d90616039565b801561446a5780601f1061443f5761010080835404028352916020019161446a565b820191906000526020600020905b81548152906001019060200180831161444d57829003601f168201915b5050505050815260200160038201805461448390616039565b80601f01602080910402602001604051908101604052809291908181526020018280546144af90616039565b80156144fc5780601f106144d1576101008083540402835291602001916144fc565b820191906000526020600020905b8154815290600101906020018083116144df57829003601f168201915b50505050508152602001600482015481526020016005820154815260200160068201805461452990616039565b80601f016020809104026020016040519081016040528092919081815260200182805461455590616039565b80156145a25780601f10614577576101008083540402835291602001916145a2565b820191906000526020600020905b81548152906001019060200180831161458557829003601f168201915b505050505081526020016007820160009054906101000a900460ff161515151581526020016007820160019054906101000a900473ffffffffffffffffffffffffffffffffffffffff1673ffffffffffffffffffffffffffffffffffffffff1673ffffffffffffffffffffffffffffffffffffffff16815250509050808383815181106146325761463161696e565b5b60200260200101819052505080806146499061699d565b915050614248565b5080915050919050565b6004600081819054906101000a900467ffffffffffffffff168092919061468190616356565b91906101000a81548167ffffffffffffffff021916908367ffffffffffffffff16021790555050600460009054906101000a900467ffffffffffffffff16816000019067ffffffffffffffff16908167ffffffffffffffff16815250508060026000600460009054906101000a900467ffffffffffffffff1667ffffffffffffffff1667ffffffffffffffff16815260200190815260200160002060008201518160000160006101000a81548167ffffffffffffffff021916908367ffffffffffffffff16021790555060208201518160010190816147609190616532565b5060408201518160020190816147769190616532565b50606082015181600301908161478c9190616532565b506080820151816004015560a08201518160050160006101000a81548167ffffffffffffffff021916908367ffffffffffffffff16021790555060c08201518160060190816147db9190616532565b5060e08201518160070190816147f19190616532565b506101008201518160080160006101000a81548160ff0219169083151502179055506101208201518160080160016101000a81548173ffffffffffffffffffffffffffffffffffffffff021916908373ffffffffffffffffffffffffffffffffffffffff1602179055509050506003600082610120015173ffffffffffffffffffffffffffffffffffffffff1673ffffffffffffffffffffffffffffffffffffffff168152602001908152602001600020600460009054906101000a900467ffffffffffffffff1690806001815401808255809150506001900390600052602060002090600491828204019190066008029091909190916101000a81548167ffffffffffffffff021916908367ffffffffffffffff16021790555050565b600080600160008673ffffffffffffffffffffffffffffffffffffffff1673ffffffffffffffffffffffffffffffffffffffff168152602001908152602001600020600081819054906101000a900467ffffffffffffffff1661497190616356565b91906101000a81548167ffffffffffffffff021916908367ffffffffffffffff160217905590506040518060c001604052808267ffffffffffffffff1681526020018773ffffffffffffffffffffffffffffffffffffffff1681526020018673ffffffffffffffffffffffffffffffffffffffff168152602001858152602001428152602001846002811115614a0a57614a09615087565b5b8152506000808773ffffffffffffffffffffffffffffffffffffffff1673ffffffffffffffffffffffffffffffffffffffff16815260200190815260200160002060008367ffffffffffffffff1667ffffffffffffffff16815260200190815260200160002060008201518160000160006101000a81548167ffffffffffffffff021916908367ffffffffffffffff16021790555060208201518160000160086101000a81548173ffffffffffffffffffffffffffffffffffffffff021916908373ffffffffffffffffffffffffffffffffffffffff16021790555060408201518160010160006101000a81548173ffffffffffffffffffffffffffffffffffffffff021916908373ffffffffffffffffffffffffffffffffffffffff160217905550606082015181600201556080820151816003015560a08201518160040160006101000a81548160ff02191690836002811115614b6c57614b6b615087565b5b021790555090505080915050949350505050565b604051806101200160405280600067ffffffffffffffff168152602001606081526020016060815260200160608152602001600081526020016000815260200160608152602001600015158152602001600073ffffffffffffffffffffffffffffffffffffffff1681525090565b604051806101400160405280600067ffffffffffffffff16815260200160608152602001606081526020016060815260200160008152602001600067ffffffffffffffff1681526020016060815260200160608152602001600015158152602001600073ffffffffffffffffffffffffffffffffffffffff1681525090565b6040518060c00160405280600067ffffffffffffffff168152602001600073ffffffffffffffffffffffffffffffffffffffff168152602001600073ffffffffffffffffffffffffffffffffffffffff168152602001600081526020016000815260200160006002811115614ce557614ce4615087565b5b81525090565b6000604051905090565b600080fd5b600080fd5b600073ffffffffffffffffffffffffffffffffffffffff82169050919050565b6000614d2a82614cff565b9050919050565b614d3a81614d1f565b8114614d4557600080fd5b50565b600081359050614d5781614d31565b92915050565b600067ffffffffffffffff82169050919050565b614d7a81614d5d565b8114614d8557600080fd5b50565b600081359050614d9781614d71565b92915050565b60008060408385031215614db457614db3614cf5565b5b6000614dc285828601614d48565b9250506020614dd385828601614d88565b9150509250929050565b600060208284031215614df357614df2614cf5565b5b6000614e0184828501614d88565b91505092915050565b614e1381614d5d565b82525050565b600081519050919050565b600082825260208201905092915050565b60005b83811015614e53578082015181840152602081019050614e38565b60008484015250505050565b6000601f19601f8301169050919050565b6000614e7b82614e19565b614e858185614e24565b9350614e95818560208601614e35565b614e9e81614e5f565b840191505092915050565b6000819050919050565b614ebc81614ea9565b82525050565b60008115159050919050565b614ed781614ec2565b82525050565b614ee681614d1f565b82525050565b600061012083016000830151614f056000860182614e0a565b5060208301518482036020860152614f1d8282614e70565b91505060408301518482036040860152614f378282614e70565b91505060608301518482036060860152614f518282614e70565b9150506080830151614f666080860182614eb3565b5060a0830151614f7960a0860182614eb3565b5060c083015184820360c0860152614f918282614e70565b91505060e0830151614fa660e0860182614ece565b50610100830151614fbb610100860182614edd565b508091505092915050565b60006020820190508181036000830152614fe08184614eec565b905092915050565b600060208284031215614ffe57614ffd614cf5565b5b600061500c84828501614d48565b91505092915050565b61501e81614d5d565b82525050565b60006020820190506150396000830184615015565b92915050565b61504881614ec2565b82525050565b6000602082019050615063600083018461503f565b92915050565b61507281614d1f565b82525050565b61508181614ea9565b82525050565b7f4e487b7100000000000000000000000000000000000000000000000000000000600052602160045260246000fd5b600381106150c7576150c6615087565b5b50565b60008190506150d8826150b6565b919050565b60006150e8826150ca565b9050919050565b6150f8816150dd565b82525050565b600060c0820190506151136000830189615015565b6151206020830188615069565b61512d6040830187615069565b61513a6060830186615078565b6151476080830185615078565b61515460a08301846150ef565b979650505050505050565b600061516a82614cff565b9050919050565b61517a8161515f565b811461518557600080fd5b50565b60008135905061519781615171565b92915050565b6000602082840312156151b3576151b2614cf5565b5b60006151c184828501615188565b91505092915050565b600080fd5b7f4e487b7100000000000000000000000000000000000000000000000000000000600052604160045260246000fd5b61520782614e5f565b810181811067ffffffffffffffff82111715615226576152256151cf565b5b80604052505050565b6000615239614ceb565b905061524582826151fe565b919050565b600080fd5b600080fd5b600080fd5b600067ffffffffffffffff821115615274576152736151cf565b5b61527d82614e5f565b9050602081019050919050565b82818337600083830152505050565b60006152ac6152a784615259565b61522f565b9050828152602081018484840111156152c8576152c7615254565b5b6152d384828561528a565b509392505050565b600082601f8301126152f0576152ef61524f565b5b8135615300848260208601615299565b91505092915050565b61531281614ea9565b811461531d57600080fd5b50565b60008135905061532f81615309565b92915050565b61533e81614ec2565b811461534957600080fd5b50565b60008135905061535b81615335565b92915050565b60006101208284031215615378576153776151ca565b5b61538361012061522f565b9050600061539384828501614d88565b600083015250602082013567ffffffffffffffff8111156153b7576153b661524a565b5b6153c3848285016152db565b602083015250604082013567ffffffffffffffff8111156153e7576153e661524a565b5b6153f3848285016152db565b604083015250606082013567ffffffffffffffff8111156154175761541661524a565b5b615423848285016152db565b606083015250608061543784828501615320565b60808301525060a061544b84828501615320565b60a08301525060c082013567ffffffffffffffff81111561546f5761546e61524a565b5b61547b848285016152db565b60c08301525060e061548f8482850161534c565b60e0830152506101006154a484828501614d48565b6101008301525092915050565b6000602082840312156154c7576154c6614cf5565b5b600082013567ffffffffffffffff8111156154e5576154e4614cfa565b5b6154f184828501615361565b91505092915050565b600082825260208201905092915050565b600061551682614e19565b61552081856154fa565b9350615530818560208601614e35565b61553981614e5f565b840191505092915050565b60006101408201905061555a600083018d615015565b818103602083015261556c818c61550b565b90508181036040830152615580818b61550b565b90508181036060830152615594818a61550b565b90506155a36080830189615078565b6155b060a0830188615015565b81810360c08301526155c2818761550b565b905081810360e08301526155d6818661550b565b90506155e661010083018561503f565b6155f4610120830184615069565b9b9a5050505050505050505050565b6000806040838503121561561a57615619614cf5565b5b600061562885828601615188565b925050602061563985828601614d88565b9150509250929050565b60006020820190506156586000830184615078565b92915050565b6000610140830160008301516156776000860182614e0a565b506020830151848203602086015261568f8282614e70565b915050604083015184820360408601526156a98282614e70565b915050606083015184820360608601526156c38282614e70565b91505060808301516156d86080860182614eb3565b5060a08301516156eb60a0860182614e0a565b5060c083015184820360c08601526157038282614e70565b91505060e083015184820360e086015261571d8282614e70565b915050610100830151615734610100860182614ece565b50610120830151615749610120860182614edd565b508091505092915050565b6000602082019050818103600083015261576e818461565e565b905092915050565b61577f8161515f565b82525050565b600060208201905061579a6000830184615776565b92915050565b600081519050919050565b600082825260208201905092915050565b6000819050602082019050919050565b6000610140830160008301516157e56000860182614e0a565b50602083015184820360208601526157fd8282614e70565b915050604083015184820360408601526158178282614e70565b915050606083015184820360608601526158318282614e70565b91505060808301516158466080860182614eb3565b5060a083015161585960a0860182614e0a565b5060c083015184820360c08601526158718282614e70565b91505060e083015184820360e086015261588b8282614e70565b9150506101008301516158a2610100860182614ece565b506101208301516158b7610120860182614edd565b508091505092915050565b60006158ce83836157cc565b905092915050565b6000602082019050919050565b60006158ee826157a0565b6158f881856157ab565b93508360208202850161590a856157bc565b8060005b85811015615946578484038952815161592785826158c2565b9450615932836158d6565b925060208a0199505060018101905061590e565b50829750879550505050505092915050565b6000602082019050818103600083015261597281846158e3565b905092915050565b600081519050919050565b600082825260208201905092915050565b6000819050602082019050919050565b6159af816150dd565b82525050565b60c0820160008201516159cb6000850182614e0a565b5060208201516159de6020850182614edd565b5060408201516159f16040850182614edd565b506060820151615a046060850182614eb3565b506080820151615a176080850182614eb3565b5060a0820151615a2a60a08501826159a6565b50505050565b6000615a3c83836159b5565b60c08301905092915050565b6000602082019050919050565b6000615a608261597a565b615a6a8185615985565b9350615a7583615996565b8060005b83811015615aa6578151615a8d8882615a30565b9750615a9883615a48565b925050600181019050615a79565b5085935050505092915050565b60006020820190508181036000830152615acd8184615a55565b905092915050565b60006101408284031215615aec57615aeb6151ca565b5b615af761014061522f565b90506000615b0784828501614d88565b600083015250602082013567ffffffffffffffff811115615b2b57615b2a61524a565b5b615b37848285016152db565b602083015250604082013567ffffffffffffffff811115615b5b57615b5a61524a565b5b615b67848285016152db565b604083015250606082013567ffffffffffffffff811115615b8b57615b8a61524a565b5b615b97848285016152db565b6060830152506080615bab84828501615320565b60808301525060a0615bbf84828501614d88565b60a08301525060c082013567ffffffffffffffff811115615be357615be261524a565b5b615bef848285016152db565b60c08301525060e082013567ffffffffffffffff811115615c1357615c1261524a565b5b615c1f848285016152db565b60e083015250610100615c348482850161534c565b61010083015250610120615c4a84828501614d48565b6101208301525092915050565b600060208284031215615c6d57615c6c614cf5565b5b600082013567ffffffffffffffff811115615c8b57615c8a614cfa565b5b615c9784828501615ad5565b91505092915050565b600060208284031215615cb657615cb5614cf5565b5b6000615cc484828501615320565b91505092915050565b600061012082019050615ce3600083018c615015565b8181036020830152615cf5818b61550b565b90508181036040830152615d09818a61550b565b90508181036060830152615d1d818961550b565b9050615d2c6080830188615078565b615d3960a0830187615078565b81810360c0830152615d4b818661550b565b9050615d5a60e083018561503f565b615d68610100830184615069565b9a9950505050505050505050565b60c082016000820151615d8c6000850182614e0a565b506020820151615d9f6020850182614edd565b506040820151615db26040850182614edd565b506060820151615dc56060850182614eb3565b506080820151615dd86080850182614eb3565b5060a0820151615deb60a08501826159a6565b50505050565b600060c082019050615e066000830184615d76565b92915050565b60008060408385031215615e2357615e22614cf5565b5b6000615e3185828601614d48565b9250506020615e4285828601615320565b9150509250929050565b600081519050919050565b600082825260208201905092915050565b6000819050602082019050919050565b600061012083016000830151615e916000860182614e0a565b5060208301518482036020860152615ea98282614e70565b91505060408301518482036040860152615ec38282614e70565b91505060608301518482036060860152615edd8282614e70565b9150506080830151615ef26080860182614eb3565b5060a0830151615f0560a0860182614eb3565b5060c083015184820360c0860152615f1d8282614e70565b91505060e0830151615f3260e0860182614ece565b50610100830151615f47610100860182614edd565b508091505092915050565b6000615f5e8383615e78565b905092915050565b6000602082019050919050565b6000615f7e82615e4c565b615f888185615e57565b935083602082028501615f9a85615e68565b8060005b85811015615fd65784840389528151615fb78582615f52565b9450615fc283615f66565b925060208a01995050600181019050615f9e565b50829750879550505050505092915050565b600060208201905081810360008301526160028184615f73565b905092915050565b7f4e487b7100000000000000000000000000000000000000000000000000000000600052602260045260246000fd5b6000600282049050600182168061605157607f821691505b6020821081036160645761606361600a565b5b50919050565b600082825260208201905092915050565b7f496e76616c696420696e64657800000000000000000000000000000000000000600082015250565b60006160b1600d8361606a565b91506160bc8261607b565b602082019050919050565b600060208201905081810360008301526160e0816160a4565b9050919050565b7f54686520776973686c6973742068617320616c726561647920636c6f73656400600082015250565b600061611d601f8361606a565b9150616128826160e7565b602082019050919050565b6000602082019050818103600083015261614c81616110565b9050919050565b7f596f7520646f206e6f7420686176652074686520617574686f7269747920746f60008201527f20636c6f73652074686520776973686c69737400000000000000000000000000602082015250565b60006161af60338361606a565b91506161ba82616153565b604082019050919050565b600060208201905081810360008301526161de816161a2565b9050919050565b7f496e73756666696369656e742062616c616e6365000000000000000000000000600082015250565b600061621b60148361606a565b9150616226826161e5565b602082019050919050565b6000602082019050818103600083015261624a8161620e565b9050919050565b7f4e487b7100000000000000000000000000000000000000000000000000000000600052601160045260246000fd5b600061628b82614ea9565b915061629683614ea9565b92508282026162a481614ea9565b915082820484148315176162bb576162ba616251565b5b5092915050565b7f4e487b7100000000000000000000000000000000000000000000000000000000600052601260045260246000fd5b60006162fc82614ea9565b915061630783614ea9565b925082616317576163166162c2565b5b828204905092915050565b600061632d82614ea9565b915061633883614ea9565b92508282039050818111156163505761634f616251565b5b92915050565b600061636182614d5d565b915067ffffffffffffffff820361637b5761637a616251565b5b600182019050919050565b60008190508160005260206000209050919050565b60006020601f8301049050919050565b600082821b905092915050565b6000600883026163e87fffffffffffffffffffffffffffffffffffffffffffffffffffffffffffffffff826163ab565b6163f286836163ab565b95508019841693508086168417925050509392505050565b6000819050919050565b600061642f61642a61642584614ea9565b61640a565b614ea9565b9050919050565b6000819050919050565b61644983616414565b61645d61645582616436565b8484546163b8565b825550505050565b600090565b616472616465565b61647d818484616440565b505050565b5b818110156164a15761649660008261646a565b600181019050616483565b5050565b601f8211156164e6576164b781616386565b6164c08461639b565b810160208510156164cf578190505b6164e36164db8561639b565b830182616482565b50505b505050565b600082821c905092915050565b6000616509600019846008026164eb565b1980831691505092915050565b600061652283836164f8565b9150826002028217905092915050565b61653b82614e19565b67ffffffffffffffff811115616554576165536151cf565b5b61655e8254616039565b6165698282856164a5565b600060209050601f83116001811461659c576000841561658a578287015190505b6165948582616516565b8655506165fc565b601f1984166165aa86616386565b60005b828110156165d2578489015182556001820191506020850194506020810190506165ad565b868310156165ef57848901516165eb601f8916826164f8565b8355505b6001600288020188555050505b505050505050565b7f546869732066756e6472616973696e672063616d706169676e20666f7220746860008201527f6520776973686c6973742068617320636c6f7365642e00000000000000000000602082015250565b600061666060368361606a565b915061666b82616604565b604082019050919050565b6000602082019050818103600083015261668f81616653565b9050919050565b60006166a182614ea9565b91506166ac83614ea9565b92508282019050808211156166c4576166c3616251565b5b92915050565b7f4974656d20646f6573206e6f7420657869737400000000000000000000000000600082015250565b600061670060138361606a565b915061670b826166ca565b602082019050919050565b6000602082019050818103600083015261672f816166f3565b9050919050565b7f496e73756666696369656e74207061796d656e74000000000000000000000000600082015250565b600061676c60148361606a565b915061677782616736565b602082019050919050565b6000602082019050818103600083015261679b8161675f565b9050919050565b7f546869732061646472657373206973206e6f7420746865206974656d2773207360008201527f656c6c65722e0000000000000000000000000000000000000000000000000000602082015250565b60006167fe60268361606a565b9150616809826167a2565b604082019050919050565b6000602082019050818103600083015261682d816167f1565b9050919050565b7f54686973206974656d2068617320616c7265616479206265656e20707572636860008201527f617365642e000000000000000000000000000000000000000000000000000000602082015250565b600061689060258361606a565b915061689b82616834565b604082019050919050565b600060208201905081810360008301526168bf81616883565b9050919050565b60006168d182614d5d565b91506168dc83614d5d565b9250828201905067ffffffffffffffff8111156168fc576168fb616251565b5b92915050565b7f596f7520617265206e6f742073656c6c65720000000000000000000000000000600082015250565b600061693860128361606a565b915061694382616902565b602082019050919050565b600060208201905081810360008301526169678161692b565b9050919050565b7f4e487b7100000000000000000000000000000000000000000000000000000000600052603260045260246000fd5b60006169a882614ea9565b91507fffffffffffffffffffffffffffffffffffffffffffffffffffffffffffffffff82036169da576169d9616251565b5b60018201905091905056fea26469706673582212203beaa4430eb8033d9ea85015f69fdfb2d2dc6eee39fd1f3acdcf1ca7d752bab764736f6c63430008120033",
  "immutableReferences": {},
  "source": "// SPDX-License-Identifier: MIT\r\npragma solidity >= 0.6.0 <0.9.0;\r\n\r\nimport \"./ItemDonation.sol\";\r\nimport \"./WishlistDonation.sol\";\r\n\r\ncontract ApplicationHandler is ItemDonation, WishlistDonation {\r\n  address payable public owner;\r\n\r\n  event SupportIdEvent(uint64 indexed id);\r\n  constructor(){\r\n    owner = payable(msg.sender);\r\n  }\r\n\r\n  // ================= Frontend Call =================\r\n  //   \r\n  function callBasicDonation(address payable _to) external payable returns(uint64) {\r\n    uint64 id = _transfer(_to, msg.value, SupportType.Donation, owner);\r\n    emit SupportIdEvent(id);\r\n    return id;\r\n  }\r\n  //  \r\n  function buyItemDonation(address payable _to, uint64 _itemId) external payable returns(uint64) {\r\n    uint64 id = _buyItem(_to, _itemId, msg.value, owner);\r\n    emit SupportIdEvent(id);\r\n    return id;\r\n  }\r\n  //   \r\n  function buyWishlistDonation(address payable _to, uint64 _wishlistId) external payable returns(uint64) {\r\n    uint64 id = _buyWishlist(_to, _wishlistId, msg.value, owner);\r\n    emit SupportIdEvent(id);\r\n    return id;\r\n  }\r\n\r\n  // ================= Backend Call =================\r\n  //      \r\n  function getMemberItemList(address _address) external view returns(ItemSol[] memory){\r\n    return _getItemList(myItems[_address]);\r\n  }\r\n\r\n  //    \r\n  function getItemDetail(uint64 _id) external view returns(ItemSol memory){\r\n    return _getItemDetail(_id);\r\n  }\r\n\r\n  //   \r\n  function addMemberItem(ItemSol memory _item) external{\r\n    _createItem(_item);\r\n  }\r\n\r\n  //   \r\n  function deleteMemberItem(address _address, uint64 _id) external {\r\n    _deleteItem(_address, _id);\r\n  }\r\n\r\n  //   \r\n  function updateMemberItem(ItemSol memory _item) external {\r\n    _updateItem(_item);\r\n  }\r\n\r\n  //    \r\n  function getMemberWishLists(address _address) external view returns(WishlistSol[] memory){\r\n    return _getWishlists(myWishlists[_address]);\r\n  }\r\n\r\n  //    \r\n  function getMemberWishListDetail(uint64 _id) external view returns(WishlistSol memory){\r\n    return _getWishlistDetail(_id);\r\n  }\r\n\r\n  //   \r\n  function addMemberWishList(WishlistSol memory _wishlist) external{\r\n    _createWishlist(_wishlist);\r\n  }\r\n\r\n  //   \r\n  function deleteMemberWishlist(address _address, uint64 _id) external {\r\n    _deleteWishlist(_address, _id);\r\n  }\r\n\r\n  //   \r\n  function updateMemberWishlist(WishlistSol memory _wishlist) external {\r\n    _updateWishlist(_wishlist);\r\n  }\r\n\r\n  //    \r\n  function getSupportDetail(address _address, uint64 _id) external view returns(SupportSol memory){\r\n    return _getSupportDetail(_address, _id);\r\n  }\r\n\r\n  //    \r\n  function getSupportList(address _address) external view returns(SupportSol[] memory){\r\n    return _getSupportList(_address);\r\n  }\r\n\r\n  //    \r\n  function getSupportArriveTime(address _address, uint64 _id) external view returns(uint256){\r\n    return _getSupportDetail(_address, _id).arriveTime;\r\n  }\r\n}",
  "sourcePath": "C:\\Users\\SSAFY\\Desktop\\S08P22A209\\contract\\contracts\\ApplicationHandler.sol",
  "compiler": {
    "name": "solc",
    "version": "0.8.18+commit.87f61d96.Emscripten.clang"
  },
  "schemaVersion": "3.4.13",
  "updatedAt": "2023-04-04T07:54:13.784Z",
  "devdoc": {
    "kind": "dev",
    "methods": {},
    "version": 1
  },
  "userdoc": {
    "kind": "user",
    "methods": {},
    "version": 1
  }
}