{
  "contractName": "ApplicationHandler",
  "abi": [
    {
      "inputs": [],
      "stateMutability": "nonpayable",
      "type": "constructor"
    },
    {
      "inputs": [
        {
          "internalType": "uint64",
          "name": "",
          "type": "uint64"
        }
      ],
      "name": "items",
      "outputs": [
        {
          "internalType": "uint64",
          "name": "id",
          "type": "uint64"
        },
        {
          "internalType": "bytes",
          "name": "title",
          "type": "bytes"
        },
        {
          "internalType": "bytes",
          "name": "imgPath",
          "type": "bytes"
        },
        {
          "internalType": "bytes",
          "name": "description",
          "type": "bytes"
        },
        {
          "internalType": "uint256",
          "name": "price",
          "type": "uint256"
        },
        {
          "internalType": "uint64",
          "name": "salesCount",
          "type": "uint64"
        },
        {
          "internalType": "bytes",
          "name": "message",
          "type": "bytes"
        },
        {
          "internalType": "bytes",
          "name": "filePath",
          "type": "bytes"
        },
        {
          "internalType": "bool",
          "name": "isDeleted",
          "type": "bool"
        },
        {
          "internalType": "address",
          "name": "seller",
          "type": "address"
        }
      ],
      "stateMutability": "view",
      "type": "function"
    },
    {
      "inputs": [
        {
          "internalType": "address",
          "name": "",
          "type": "address"
        },
        {
          "internalType": "uint256",
          "name": "",
          "type": "uint256"
        }
      ],
      "name": "myItems",
      "outputs": [
        {
          "internalType": "uint64",
          "name": "",
          "type": "uint64"
        }
      ],
      "stateMutability": "view",
      "type": "function"
    },
    {
      "inputs": [
        {
          "internalType": "address",
          "name": "",
          "type": "address"
        },
        {
          "internalType": "uint256",
          "name": "",
          "type": "uint256"
        }
      ],
      "name": "myWishlists",
      "outputs": [
        {
          "internalType": "uint64",
          "name": "",
          "type": "uint64"
        }
      ],
      "stateMutability": "view",
      "type": "function"
    },
    {
      "inputs": [],
      "name": "owner",
      "outputs": [
        {
          "internalType": "address payable",
          "name": "",
          "type": "address"
        }
      ],
      "stateMutability": "view",
      "type": "function"
    },
    {
      "inputs": [
        {
          "internalType": "address",
          "name": "",
          "type": "address"
        },
        {
          "internalType": "uint64",
          "name": "",
          "type": "uint64"
        }
      ],
      "name": "purchasedItems",
      "outputs": [
        {
          "internalType": "bool",
          "name": "",
          "type": "bool"
        }
      ],
      "stateMutability": "view",
      "type": "function"
    },
    {
      "inputs": [
        {
          "internalType": "address",
          "name": "",
          "type": "address"
        }
      ],
      "name": "supportCount",
      "outputs": [
        {
          "internalType": "uint64",
          "name": "",
          "type": "uint64"
        }
      ],
      "stateMutability": "view",
      "type": "function"
    },
    {
      "inputs": [
        {
          "internalType": "address",
          "name": "",
          "type": "address"
        },
        {
          "internalType": "uint64",
          "name": "",
          "type": "uint64"
        }
      ],
      "name": "supportList",
      "outputs": [
        {
          "internalType": "uint64",
          "name": "id",
          "type": "uint64"
        },
        {
          "internalType": "address",
          "name": "from",
          "type": "address"
        },
        {
          "internalType": "address",
          "name": "to",
          "type": "address"
        },
        {
          "internalType": "uint256",
          "name": "amount",
          "type": "uint256"
        },
        {
          "internalType": "uint256",
          "name": "sendTimestamp",
          "type": "uint256"
        },
        {
          "internalType": "enum SupportHistory.SupportType",
          "name": "supportType",
          "type": "uint8"
        }
      ],
      "stateMutability": "view",
      "type": "function"
    },
    {
      "inputs": [
        {
          "internalType": "uint256",
          "name": "",
          "type": "uint256"
        }
      ],
      "name": "wishlists",
      "outputs": [
        {
          "internalType": "uint64",
          "name": "id",
          "type": "uint64"
        },
        {
          "internalType": "bytes",
          "name": "imgPath",
          "type": "bytes"
        },
        {
          "internalType": "bytes",
          "name": "title",
          "type": "bytes"
        },
        {
          "internalType": "bytes",
          "name": "description",
          "type": "bytes"
        },
        {
          "internalType": "uint256",
          "name": "collectedAmount",
          "type": "uint256"
        },
        {
          "internalType": "uint256",
          "name": "targetAmount",
          "type": "uint256"
        },
        {
          "internalType": "bytes",
          "name": "message",
          "type": "bytes"
        },
        {
          "internalType": "bool",
          "name": "isClosed",
          "type": "bool"
        },
        {
          "internalType": "address",
          "name": "seller",
          "type": "address"
        }
      ],
      "stateMutability": "view",
      "type": "function"
    },
    {
      "inputs": [
        {
          "internalType": "address payable",
          "name": "_to",
          "type": "address"
        }
      ],
      "name": "callBasicDonation",
      "outputs": [
        {
          "internalType": "uint64",
          "name": "",
          "type": "uint64"
        }
      ],
      "stateMutability": "payable",
      "type": "function"
    },
    {
      "inputs": [
        {
          "internalType": "address payable",
          "name": "_to",
          "type": "address"
        },
        {
          "internalType": "uint64",
          "name": "_itemId",
          "type": "uint64"
        }
      ],
      "name": "buyItemDonation",
      "outputs": [
        {
          "internalType": "uint64",
          "name": "",
          "type": "uint64"
        }
      ],
      "stateMutability": "payable",
      "type": "function"
    },
    {
      "inputs": [
        {
          "internalType": "address payable",
          "name": "_to",
          "type": "address"
        },
        {
          "internalType": "uint64",
          "name": "_wishlistId",
          "type": "uint64"
        }
      ],
      "name": "buyWishlistDonation",
      "outputs": [
        {
          "internalType": "uint64",
          "name": "",
          "type": "uint64"
        }
      ],
      "stateMutability": "payable",
      "type": "function"
    },
    {
      "inputs": [
        {
          "internalType": "address",
          "name": "_address",
          "type": "address"
        }
      ],
      "name": "getMemberItemList",
      "outputs": [
        {
          "components": [
            {
              "internalType": "uint64",
              "name": "id",
              "type": "uint64"
            },
            {
              "internalType": "bytes",
              "name": "title",
              "type": "bytes"
            },
            {
              "internalType": "bytes",
              "name": "imgPath",
              "type": "bytes"
            },
            {
              "internalType": "bytes",
              "name": "description",
              "type": "bytes"
            },
            {
              "internalType": "uint256",
              "name": "price",
              "type": "uint256"
            },
            {
              "internalType": "uint64",
              "name": "salesCount",
              "type": "uint64"
            },
            {
              "internalType": "bytes",
              "name": "message",
              "type": "bytes"
            },
            {
              "internalType": "bytes",
              "name": "filePath",
              "type": "bytes"
            },
            {
              "internalType": "bool",
              "name": "isDeleted",
              "type": "bool"
            },
            {
              "internalType": "address",
              "name": "seller",
              "type": "address"
            }
          ],
          "internalType": "struct ItemDonation.ItemSol[]",
          "name": "",
          "type": "tuple[]"
        }
      ],
      "stateMutability": "view",
      "type": "function"
    },
    {
      "inputs": [
        {
          "internalType": "uint64",
          "name": "_id",
          "type": "uint64"
        }
      ],
      "name": "getItemDetail",
      "outputs": [
        {
          "components": [
            {
              "internalType": "uint64",
              "name": "id",
              "type": "uint64"
            },
            {
              "internalType": "bytes",
              "name": "title",
              "type": "bytes"
            },
            {
              "internalType": "bytes",
              "name": "imgPath",
              "type": "bytes"
            },
            {
              "internalType": "bytes",
              "name": "description",
              "type": "bytes"
            },
            {
              "internalType": "uint256",
              "name": "price",
              "type": "uint256"
            },
            {
              "internalType": "uint64",
              "name": "salesCount",
              "type": "uint64"
            },
            {
              "internalType": "bytes",
              "name": "message",
              "type": "bytes"
            },
            {
              "internalType": "bytes",
              "name": "filePath",
              "type": "bytes"
            },
            {
              "internalType": "bool",
              "name": "isDeleted",
              "type": "bool"
            },
            {
              "internalType": "address",
              "name": "seller",
              "type": "address"
            }
          ],
          "internalType": "struct ItemDonation.ItemSol",
          "name": "",
          "type": "tuple"
        }
      ],
      "stateMutability": "view",
      "type": "function"
    },
    {
      "inputs": [
        {
          "components": [
            {
              "internalType": "uint64",
              "name": "id",
              "type": "uint64"
            },
            {
              "internalType": "bytes",
              "name": "title",
              "type": "bytes"
            },
            {
              "internalType": "bytes",
              "name": "imgPath",
              "type": "bytes"
            },
            {
              "internalType": "bytes",
              "name": "description",
              "type": "bytes"
            },
            {
              "internalType": "uint256",
              "name": "price",
              "type": "uint256"
            },
            {
              "internalType": "uint64",
              "name": "salesCount",
              "type": "uint64"
            },
            {
              "internalType": "bytes",
              "name": "message",
              "type": "bytes"
            },
            {
              "internalType": "bytes",
              "name": "filePath",
              "type": "bytes"
            },
            {
              "internalType": "bool",
              "name": "isDeleted",
              "type": "bool"
            },
            {
              "internalType": "address",
              "name": "seller",
              "type": "address"
            }
          ],
          "internalType": "struct ItemDonation.ItemSol",
          "name": "_item",
          "type": "tuple"
        }
      ],
      "name": "addMemberItem",
      "outputs": [],
      "stateMutability": "nonpayable",
      "type": "function"
    },
    {
      "inputs": [
        {
          "internalType": "address",
          "name": "_address",
          "type": "address"
        },
        {
          "internalType": "uint64",
          "name": "_id",
          "type": "uint64"
        }
      ],
      "name": "deleteMemberItem",
      "outputs": [],
      "stateMutability": "nonpayable",
      "type": "function"
    },
    {
      "inputs": [
        {
          "components": [
            {
              "internalType": "uint64",
              "name": "id",
              "type": "uint64"
            },
            {
              "internalType": "bytes",
              "name": "title",
              "type": "bytes"
            },
            {
              "internalType": "bytes",
              "name": "imgPath",
              "type": "bytes"
            },
            {
              "internalType": "bytes",
              "name": "description",
              "type": "bytes"
            },
            {
              "internalType": "uint256",
              "name": "price",
              "type": "uint256"
            },
            {
              "internalType": "uint64",
              "name": "salesCount",
              "type": "uint64"
            },
            {
              "internalType": "bytes",
              "name": "message",
              "type": "bytes"
            },
            {
              "internalType": "bytes",
              "name": "filePath",
              "type": "bytes"
            },
            {
              "internalType": "bool",
              "name": "isDeleted",
              "type": "bool"
            },
            {
              "internalType": "address",
              "name": "seller",
              "type": "address"
            }
          ],
          "internalType": "struct ItemDonation.ItemSol",
          "name": "_item",
          "type": "tuple"
        }
      ],
      "name": "updateMemberItem",
      "outputs": [],
      "stateMutability": "nonpayable",
      "type": "function"
    },
    {
      "inputs": [
        {
          "internalType": "address",
          "name": "_address",
          "type": "address"
        }
      ],
      "name": "getMemberWishLists",
      "outputs": [
        {
          "components": [
            {
              "internalType": "uint64",
              "name": "id",
              "type": "uint64"
            },
            {
              "internalType": "bytes",
              "name": "imgPath",
              "type": "bytes"
            },
            {
              "internalType": "bytes",
              "name": "title",
              "type": "bytes"
            },
            {
              "internalType": "bytes",
              "name": "description",
              "type": "bytes"
            },
            {
              "internalType": "uint256",
              "name": "collectedAmount",
              "type": "uint256"
            },
            {
              "internalType": "uint256",
              "name": "targetAmount",
              "type": "uint256"
            },
            {
              "internalType": "bytes",
              "name": "message",
              "type": "bytes"
            },
            {
              "internalType": "bool",
              "name": "isClosed",
              "type": "bool"
            },
            {
              "internalType": "address",
              "name": "seller",
              "type": "address"
            }
          ],
          "internalType": "struct WishlistDonation.WishlistSol[]",
          "name": "",
          "type": "tuple[]"
        }
      ],
      "stateMutability": "view",
      "type": "function"
    },
    {
      "inputs": [
        {
          "internalType": "uint64",
          "name": "_id",
          "type": "uint64"
        }
      ],
      "name": "getMemberWishListDetail",
      "outputs": [
        {
          "components": [
            {
              "internalType": "uint64",
              "name": "id",
              "type": "uint64"
            },
            {
              "internalType": "bytes",
              "name": "imgPath",
              "type": "bytes"
            },
            {
              "internalType": "bytes",
              "name": "title",
              "type": "bytes"
            },
            {
              "internalType": "bytes",
              "name": "description",
              "type": "bytes"
            },
            {
              "internalType": "uint256",
              "name": "collectedAmount",
              "type": "uint256"
            },
            {
              "internalType": "uint256",
              "name": "targetAmount",
              "type": "uint256"
            },
            {
              "internalType": "bytes",
              "name": "message",
              "type": "bytes"
            },
            {
              "internalType": "bool",
              "name": "isClosed",
              "type": "bool"
            },
            {
              "internalType": "address",
              "name": "seller",
              "type": "address"
            }
          ],
          "internalType": "struct WishlistDonation.WishlistSol",
          "name": "",
          "type": "tuple"
        }
      ],
      "stateMutability": "view",
      "type": "function"
    },
    {
      "inputs": [
        {
          "components": [
            {
              "internalType": "uint64",
              "name": "id",
              "type": "uint64"
            },
            {
              "internalType": "bytes",
              "name": "imgPath",
              "type": "bytes"
            },
            {
              "internalType": "bytes",
              "name": "title",
              "type": "bytes"
            },
            {
              "internalType": "bytes",
              "name": "description",
              "type": "bytes"
            },
            {
              "internalType": "uint256",
              "name": "collectedAmount",
              "type": "uint256"
            },
            {
              "internalType": "uint256",
              "name": "targetAmount",
              "type": "uint256"
            },
            {
              "internalType": "bytes",
              "name": "message",
              "type": "bytes"
            },
            {
              "internalType": "bool",
              "name": "isClosed",
              "type": "bool"
            },
            {
              "internalType": "address",
              "name": "seller",
              "type": "address"
            }
          ],
          "internalType": "struct WishlistDonation.WishlistSol",
          "name": "_wishlist",
          "type": "tuple"
        }
      ],
      "name": "addMemberWishList",
      "outputs": [],
      "stateMutability": "nonpayable",
      "type": "function"
    },
    {
      "inputs": [
        {
          "internalType": "address",
          "name": "_address",
          "type": "address"
        },
        {
          "internalType": "uint64",
          "name": "_id",
          "type": "uint64"
        }
      ],
      "name": "deleteMemberWishlist",
      "outputs": [],
      "stateMutability": "nonpayable",
      "type": "function"
    },
    {
      "inputs": [
        {
          "components": [
            {
              "internalType": "uint64",
              "name": "id",
              "type": "uint64"
            },
            {
              "internalType": "bytes",
              "name": "imgPath",
              "type": "bytes"
            },
            {
              "internalType": "bytes",
              "name": "title",
              "type": "bytes"
            },
            {
              "internalType": "bytes",
              "name": "description",
              "type": "bytes"
            },
            {
              "internalType": "uint256",
              "name": "collectedAmount",
              "type": "uint256"
            },
            {
              "internalType": "uint256",
              "name": "targetAmount",
              "type": "uint256"
            },
            {
              "internalType": "bytes",
              "name": "message",
              "type": "bytes"
            },
            {
              "internalType": "bool",
              "name": "isClosed",
              "type": "bool"
            },
            {
              "internalType": "address",
              "name": "seller",
              "type": "address"
            }
          ],
          "internalType": "struct WishlistDonation.WishlistSol",
          "name": "_wishlist",
          "type": "tuple"
        }
      ],
      "name": "updateMemberWishlist",
      "outputs": [],
      "stateMutability": "nonpayable",
      "type": "function"
    },
    {
      "inputs": [
        {
          "internalType": "address",
          "name": "_address",
          "type": "address"
        },
        {
          "internalType": "uint64",
          "name": "_id",
          "type": "uint64"
        }
      ],
      "name": "getSupportDetail",
      "outputs": [
        {
          "components": [
            {
              "internalType": "uint64",
              "name": "id",
              "type": "uint64"
            },
            {
              "internalType": "address",
              "name": "from",
              "type": "address"
            },
            {
              "internalType": "address",
              "name": "to",
              "type": "address"
            },
            {
              "internalType": "uint256",
              "name": "amount",
              "type": "uint256"
            },
            {
              "internalType": "uint256",
              "name": "sendTimestamp",
              "type": "uint256"
            },
            {
              "internalType": "enum SupportHistory.SupportType",
              "name": "supportType",
              "type": "uint8"
            }
          ],
          "internalType": "struct SupportHistory.SupportSol",
          "name": "",
          "type": "tuple"
        }
      ],
      "stateMutability": "view",
      "type": "function"
    },
    {
      "inputs": [
        {
          "internalType": "address",
          "name": "_address",
          "type": "address"
        }
      ],
      "name": "getSupportList",
      "outputs": [
        {
          "components": [
            {
              "internalType": "uint64",
              "name": "id",
              "type": "uint64"
            },
            {
              "internalType": "address",
              "name": "from",
              "type": "address"
            },
            {
              "internalType": "address",
              "name": "to",
              "type": "address"
            },
            {
              "internalType": "uint256",
              "name": "amount",
              "type": "uint256"
            },
            {
              "internalType": "uint256",
              "name": "sendTimestamp",
              "type": "uint256"
            },
            {
              "internalType": "enum SupportHistory.SupportType",
              "name": "supportType",
              "type": "uint8"
            }
          ],
          "internalType": "struct SupportHistory.SupportSol[]",
          "name": "",
          "type": "tuple[]"
        }
      ],
      "stateMutability": "view",
      "type": "function"
    },
    {
      "inputs": [
        {
          "internalType": "address",
          "name": "_address",
          "type": "address"
        },
        {
          "internalType": "uint64",
          "name": "_id",
          "type": "uint64"
        }
      ],
      "name": "getSupportSendTime",
      "outputs": [
        {
          "internalType": "uint256",
          "name": "",
          "type": "uint256"
        }
      ],
      "stateMutability": "view",
      "type": "function"
    }
  ],
  "bytecode": "0x608060405234801561001057600080fd5b50336008806101000a81548173ffffffffffffffffffffffffffffffffffffffff021916908373ffffffffffffffffffffffffffffffffffffffff16021790555061681d80620000616000396000f3fe60806040526004361061014b5760003560e01c80638da5cb5b116100b6578063aed3b4a61161006f578063aed3b4a614610513578063b9a44c2e14610550578063be7dfa041461058d578063cb0fce8d146105ca578063dc83f47c14610607578063f3a037c0146106445761014b565b80638da5cb5b146103d757806396e685cf146104025780639d27b3571461043f578063a52c5dca1461047c578063a8f5e3c9146104a5578063a9afa55b146104ce5761014b565b806341368a071161010857806341368a07146102a25780635be5bc15146102cb57806367bfa83014610311578063746ef109146103415780637a29813b1461037e57806389da115a146103ae5761014b565b806308c914ef14610150578063098ed1b0146101795780630c1fa1ef146101b657806321f3d128146101f3578063234c921814610230578063271df4c114610272575b600080fd5b34801561015c57600080fd5b5061017760048036038101906101729190614bd3565b61066d565b005b34801561018557600080fd5b506101a0600480360381019061019b9190614c13565b610685565b6040516101ad9190614dfc565b60405180910390f35b3480156101c257600080fd5b506101dd60048036038101906101d89190614e1e565b61069d565b6040516101ea9190614e5a565b60405180910390f35b3480156101ff57600080fd5b5061021a60048036038101906102159190614bd3565b6106c4565b6040516102279190614e84565b60405180910390f35b34801561023c57600080fd5b5061025760048036038101906102529190614bd3565b6106f3565b60405161026996959493929190614f34565b60405180910390f35b61028c60048036038101906102879190614fd3565b61079d565b6040516102999190614e5a565b60405180910390f35b3480156102ae57600080fd5b506102c960048036038101906102c491906152e7565b6107d3565b005b3480156102d757600080fd5b506102f260048036038101906102ed9190614c13565b6107df565b6040516103089a9998979695949392919061537a565b60405180910390f35b61032b60048036038101906103269190615439565b610b30565b6040516103389190614e5a565b60405180910390f35b34801561034d57600080fd5b5061036860048036038101906103639190614c13565b610b66565b604051610375919061556f565b60405180910390f35b61039860048036038101906103939190615439565b610b7e565b6040516103a59190614e5a565b60405180910390f35b3480156103ba57600080fd5b506103d560048036038101906103d09190614bd3565b610bb4565b005b3480156103e357600080fd5b506103ec610bc2565b6040516103f991906155a0565b60405180910390f35b34801561040e57600080fd5b5061042960048036038101906104249190614e1e565b610be6565b6040516104369190615773565b60405180910390f35b34801561044b57600080fd5b5061046660048036038101906104619190614e1e565b610cb9565b60405161047391906158ce565b60405180910390f35b34801561048857600080fd5b506104a3600480360381019061049e91906152e7565b610ccb565b005b3480156104b157600080fd5b506104cc60048036038101906104c79190615a72565b610cd7565b005b3480156104da57600080fd5b506104f560048036038101906104f09190615abb565b610ce3565b60405161050a99989796959493929190615ae8565b60405180910390f35b34801561051f57600080fd5b5061053a60048036038101906105359190614bd3565b610f92565b6040516105479190615c0c565b60405180910390f35b34801561055c57600080fd5b5061057760048036038101906105729190615c27565b610fac565b6040516105849190614e5a565b60405180910390f35b34801561059957600080fd5b506105b460048036038101906105af9190615c27565b610ff9565b6040516105c19190614e5a565b60405180910390f35b3480156105d657600080fd5b506105f160048036038101906105ec9190614bd3565b611046565b6040516105fe9190615c67565b60405180910390f35b34801561061357600080fd5b5061062e60048036038101906106299190614e1e565b61105e565b60405161063b9190615e1e565b60405180910390f35b34801561065057600080fd5b5061066b60048036038101906106669190615a72565b611131565b005b610681828267ffffffffffffffff1661113d565b5050565b61068d6149b6565b610696826115ae565b9050919050565b60016020528060005260406000206000915054906101000a900467ffffffffffffffff1681565b60056020528160005260406000206020528060005260406000206000915091509054906101000a900460ff1681565b6000602052816000526040600020602052806000526040600020600091509150508060000160009054906101000a900467ffffffffffffffff16908060000160089054906101000a900473ffffffffffffffffffffffffffffffffffffffff16908060010160009054906101000a900473ffffffffffffffffffffffffffffffffffffffff16908060020154908060030154908060040160009054906101000a900460ff16905086565b60006107cc8234600060088054906101000a900473ffffffffffffffffffffffffffffffffffffffff166119a5565b9050919050565b6107dc81611ac4565b50565b60026020528060005260406000206000915090508060000160009054906101000a900467ffffffffffffffff169080600101805461081c90615e6f565b80601f016020809104026020016040519081016040528092919081815260200182805461084890615e6f565b80156108955780601f1061086a57610100808354040283529160200191610895565b820191906000526020600020905b81548152906001019060200180831161087857829003601f168201915b5050505050908060020180546108aa90615e6f565b80601f01602080910402602001604051908101604052809291908181526020018280546108d690615e6f565b80156109235780601f106108f857610100808354040283529160200191610923565b820191906000526020600020905b81548152906001019060200180831161090657829003601f168201915b50505050509080600301805461093890615e6f565b80601f016020809104026020016040519081016040528092919081815260200182805461096490615e6f565b80156109b15780601f10610986576101008083540402835291602001916109b1565b820191906000526020600020905b81548152906001019060200180831161099457829003601f168201915b5050505050908060040154908060050160009054906101000a900467ffffffffffffffff16908060060180546109e690615e6f565b80601f0160208091040260200160405190810160405280929190818152602001828054610a1290615e6f565b8015610a5f5780601f10610a3457610100808354040283529160200191610a5f565b820191906000526020600020905b815481529060010190602001808311610a4257829003601f168201915b505050505090806007018054610a7490615e6f565b80601f0160208091040260200160405190810160405280929190818152602001828054610aa090615e6f565b8015610aed5780601f10610ac257610100808354040283529160200191610aed565b820191906000526020600020905b815481529060010190602001808311610ad057829003601f168201915b5050505050908060080160009054906101000a900460ff16908060080160019054906101000a900473ffffffffffffffffffffffffffffffffffffffff1690508a565b6000610b5e83833460088054906101000a900473ffffffffffffffffffffffffffffffffffffffff16611d32565b905092915050565b610b6e614a24565b610b7782612106565b9050919050565b6000610bac83833460088054906101000a900473ffffffffffffffffffffffffffffffffffffffff16612607565b905092915050565b610bbe8282612cfd565b5050565b60088054906101000a900473ffffffffffffffffffffffffffffffffffffffff1681565b6060610cb2600360008473ffffffffffffffffffffffffffffffffffffffff1673ffffffffffffffffffffffffffffffffffffffff168152602001908152602001600020805480602002602001604051908101604052809291908181526020018280548015610ca857602002820191906000526020600020906000905b82829054906101000a900467ffffffffffffffff1667ffffffffffffffff1681526020019060080190602082600701049283019260010382029150808411610c635790505b505050505061325b565b9050919050565b6060610cc482613790565b9050919050565b610cd481613a42565b50565b610ce081613bde565b50565b60066020528060005260406000206000915090508060000160009054906101000a900467ffffffffffffffff1690806001018054610d2090615e6f565b80601f0160208091040260200160405190810160405280929190818152602001828054610d4c90615e6f565b8015610d995780601f10610d6e57610100808354040283529160200191610d99565b820191906000526020600020905b815481529060010190602001808311610d7c57829003601f168201915b505050505090806002018054610dae90615e6f565b80601f0160208091040260200160405190810160405280929190818152602001828054610dda90615e6f565b8015610e275780601f10610dfc57610100808354040283529160200191610e27565b820191906000526020600020905b815481529060010190602001808311610e0a57829003601f168201915b505050505090806003018054610e3c90615e6f565b80601f0160208091040260200160405190810160405280929190818152602001828054610e6890615e6f565b8015610eb55780601f10610e8a57610100808354040283529160200191610eb5565b820191906000526020600020905b815481529060010190602001808311610e9857829003601f168201915b505050505090806004015490806005015490806006018054610ed690615e6f565b80601f0160208091040260200160405190810160405280929190818152602001828054610f0290615e6f565b8015610f4f5780601f10610f2457610100808354040283529160200191610f4f565b820191906000526020600020905b815481529060010190602001808311610f3257829003601f168201915b5050505050908060070160009054906101000a900460ff16908060070160019054906101000a900473ffffffffffffffffffffffffffffffffffffffff16905089565b610f9a614aa3565b610fa48383613dc0565b905092915050565b60076020528160005260406000208181548110610fc857600080fd5b9060005260206000209060049182820401919006600802915091509054906101000a900467ffffffffffffffff1681565b6003602052816000526040600020818154811061101557600080fd5b9060005260206000209060049182820401919006600802915091509054906101000a900467ffffffffffffffff1681565b60006110528383613dc0565b60800151905092915050565b606061112a600760008473ffffffffffffffffffffffffffffffffffffffff1673ffffffffffffffffffffffffffffffffffffffff16815260200190815260200160002080548060200260200160405190810160405280929190818152602001828054801561112057602002820191906000526020600020906000905b82829054906101000a900467ffffffffffffffff1667ffffffffffffffff16815260200190600801906020826007010492830192600103820291508084116110db5790505b505050505061401b565b9050919050565b61113a8161448c565b50565b600860009054906101000a900467ffffffffffffffff1667ffffffffffffffff168111156111a0576040517f08c379a000000000000000000000000000000000000000000000000000000000815260040161119790615efd565b60405180910390fd5b600060066000838152602001908152602001600020604051806101200160405290816000820160009054906101000a900467ffffffffffffffff1667ffffffffffffffff1667ffffffffffffffff16815260200160018201805461120390615e6f565b80601f016020809104026020016040519081016040528092919081815260200182805461122f90615e6f565b801561127c5780601f106112515761010080835404028352916020019161127c565b820191906000526020600020905b81548152906001019060200180831161125f57829003601f168201915b5050505050815260200160028201805461129590615e6f565b80601f01602080910402602001604051908101604052809291908181526020018280546112c190615e6f565b801561130e5780601f106112e35761010080835404028352916020019161130e565b820191906000526020600020905b8154815290600101906020018083116112f157829003601f168201915b5050505050815260200160038201805461132790615e6f565b80601f016020809104026020016040519081016040528092919081815260200182805461135390615e6f565b80156113a05780601f10611375576101008083540402835291602001916113a0565b820191906000526020600020905b81548152906001019060200180831161138357829003601f168201915b5050505050815260200160048201548152602001600582015481526020016006820180546113cd90615e6f565b80601f01602080910402602001604051908101604052809291908181526020018280546113f990615e6f565b80156114465780601f1061141b57610100808354040283529160200191611446565b820191906000526020600020905b81548152906001019060200180831161142957829003601f168201915b505050505081526020016007820160009054906101000a900460ff161515151581526020016007820160019054906101000a900473ffffffffffffffffffffffffffffffffffffffff1673ffffffffffffffffffffffffffffffffffffffff1673ffffffffffffffffffffffffffffffffffffffff168152505090508060e0015115611507576040517f08c379a00000000000000000000000000000000000000000000000000000000081526004016114fe90615f69565b60405180910390fd5b8273ffffffffffffffffffffffffffffffffffffffff1681610100015173ffffffffffffffffffffffffffffffffffffffff161461157a576040517f08c379a000000000000000000000000000000000000000000000000000000000815260040161157190615ffb565b60405180910390fd5b60016006600084815260200190815260200160002060070160006101000a81548160ff021916908315150217905550505050565b6115b66149b6565b600860009054906101000a900467ffffffffffffffff1667ffffffffffffffff168267ffffffffffffffff161115611623576040517f08c379a000000000000000000000000000000000000000000000000000000000815260040161161a90615efd565b60405180910390fd5b60008267ffffffffffffffff1603611670576040517f08c379a000000000000000000000000000000000000000000000000000000000815260040161166790615efd565b60405180910390fd5b6000600660008467ffffffffffffffff168152602001908152602001600020604051806101200160405290816000820160009054906101000a900467ffffffffffffffff1667ffffffffffffffff1667ffffffffffffffff1681526020016001820180546116dd90615e6f565b80601f016020809104026020016040519081016040528092919081815260200182805461170990615e6f565b80156117565780601f1061172b57610100808354040283529160200191611756565b820191906000526020600020905b81548152906001019060200180831161173957829003601f168201915b5050505050815260200160028201805461176f90615e6f565b80601f016020809104026020016040519081016040528092919081815260200182805461179b90615e6f565b80156117e85780601f106117bd576101008083540402835291602001916117e8565b820191906000526020600020905b8154815290600101906020018083116117cb57829003601f168201915b5050505050815260200160038201805461180190615e6f565b80601f016020809104026020016040519081016040528092919081815260200182805461182d90615e6f565b801561187a5780601f1061184f5761010080835404028352916020019161187a565b820191906000526020600020905b81548152906001019060200180831161185d57829003601f168201915b5050505050815260200160048201548152602001600582015481526020016006820180546118a790615e6f565b80601f01602080910402602001604051908101604052809291908181526020018280546118d390615e6f565b80156119205780601f106118f557610100808354040283529160200191611920565b820191906000526020600020905b81548152906001019060200180831161190357829003601f168201915b505050505081526020016007820160009054906101000a900460ff161515151581526020016007820160019054906101000a900473ffffffffffffffffffffffffffffffffffffffff1673ffffffffffffffffffffffffffffffffffffffff1673ffffffffffffffffffffffffffffffffffffffff1681525050905080915050919050565b6000478411156119ea576040517f08c379a00000000000000000000000000000000000000000000000000000000081526004016119e190616067565b60405180910390fd5b60006119f833878787614740565b905060006103e8600587611a0c91906160b6565b611a169190616127565b905060008187611a269190616158565b90508473ffffffffffffffffffffffffffffffffffffffff166108fc839081150290604051600060405180830381858888f19350505050158015611a6e573d6000803e3d6000fd5b508773ffffffffffffffffffffffffffffffffffffffff166108fc829081150290604051600060405180830381858888f19350505050158015611ab5573d6000803e3d6000fd5b50829350505050949350505050565b6008600081819054906101000a900467ffffffffffffffff1680929190611aea9061618c565b91906101000a81548167ffffffffffffffff021916908367ffffffffffffffff16021790555050600860009054906101000a900467ffffffffffffffff16816000019067ffffffffffffffff16908167ffffffffffffffff16815250508060066000600860009054906101000a900467ffffffffffffffff1667ffffffffffffffff16815260200190815260200160002060008201518160000160006101000a81548167ffffffffffffffff021916908367ffffffffffffffff1602179055506020820151816001019081611bbf9190616368565b506040820151816002019081611bd59190616368565b506060820151816003019081611beb9190616368565b506080820151816004015560a0820151816005015560c0820151816006019081611c159190616368565b5060e08201518160070160006101000a81548160ff0219169083151502179055506101008201518160070160016101000a81548173ffffffffffffffffffffffffffffffffffffffff021916908373ffffffffffffffffffffffffffffffffffffffff1602179055509050506007600082610100015173ffffffffffffffffffffffffffffffffffffffff1673ffffffffffffffffffffffffffffffffffffffff168152602001908152602001600020600860009054906101000a900467ffffffffffffffff1690806001815401808255809150506001900390600052602060002090600491828204019190066008029091909190916101000a81548167ffffffffffffffff021916908367ffffffffffffffff16021790555050565b600047831115611d77576040517f08c379a0000000000000000000000000000000000000000000000000000000008152600401611d6e90616067565b60405180910390fd5b6000600660008667ffffffffffffffff168152602001908152602001600020604051806101200160405290816000820160009054906101000a900467ffffffffffffffff1667ffffffffffffffff1667ffffffffffffffff168152602001600182018054611de490615e6f565b80601f0160208091040260200160405190810160405280929190818152602001828054611e1090615e6f565b8015611e5d5780601f10611e3257610100808354040283529160200191611e5d565b820191906000526020600020905b815481529060010190602001808311611e4057829003601f168201915b50505050508152602001600282018054611e7690615e6f565b80601f0160208091040260200160405190810160405280929190818152602001828054611ea290615e6f565b8015611eef5780601f10611ec457610100808354040283529160200191611eef565b820191906000526020600020905b815481529060010190602001808311611ed257829003601f168201915b50505050508152602001600382018054611f0890615e6f565b80601f0160208091040260200160405190810160405280929190818152602001828054611f3490615e6f565b8015611f815780601f10611f5657610100808354040283529160200191611f81565b820191906000526020600020905b815481529060010190602001808311611f6457829003601f168201915b505050505081526020016004820154815260200160058201548152602001600682018054611fae90615e6f565b80601f0160208091040260200160405190810160405280929190818152602001828054611fda90615e6f565b80156120275780601f10611ffc57610100808354040283529160200191612027565b820191906000526020600020905b81548152906001019060200180831161200a57829003601f168201915b505050505081526020016007820160009054906101000a900460ff161515151581526020016007820160019054906101000a900473ffffffffffffffffffffffffffffffffffffffff1673ffffffffffffffffffffffffffffffffffffffff1673ffffffffffffffffffffffffffffffffffffffff168152505090508060e00151156120e8576040517f08c379a00000000000000000000000000000000000000000000000000000000081526004016120df906164ac565b60405180910390fd5b60006120f787866002876119a5565b90508092505050949350505050565b61210e614a24565b600460009054906101000a900467ffffffffffffffff1667ffffffffffffffff168267ffffffffffffffff16111561217b576040517f08c379a000000000000000000000000000000000000000000000000000000000815260040161217290615efd565b60405180910390fd5b60008267ffffffffffffffff16036121c8576040517f08c379a00000000000000000000000000000000000000000000000000000000081526004016121bf90615efd565b60405180910390fd5b6000600260008467ffffffffffffffff1667ffffffffffffffff168152602001908152602001600020604051806101400160405290816000820160009054906101000a900467ffffffffffffffff1667ffffffffffffffff1667ffffffffffffffff16815260200160018201805461223f90615e6f565b80601f016020809104026020016040519081016040528092919081815260200182805461226b90615e6f565b80156122b85780601f1061228d576101008083540402835291602001916122b8565b820191906000526020600020905b81548152906001019060200180831161229b57829003601f168201915b505050505081526020016002820180546122d190615e6f565b80601f01602080910402602001604051908101604052809291908181526020018280546122fd90615e6f565b801561234a5780601f1061231f5761010080835404028352916020019161234a565b820191906000526020600020905b81548152906001019060200180831161232d57829003601f168201915b5050505050815260200160038201805461236390615e6f565b80601f016020809104026020016040519081016040528092919081815260200182805461238f90615e6f565b80156123dc5780601f106123b1576101008083540402835291602001916123dc565b820191906000526020600020905b8154815290600101906020018083116123bf57829003601f168201915b50505050508152602001600482015481526020016005820160009054906101000a900467ffffffffffffffff1667ffffffffffffffff1667ffffffffffffffff16815260200160068201805461243190615e6f565b80601f016020809104026020016040519081016040528092919081815260200182805461245d90615e6f565b80156124aa5780601f1061247f576101008083540402835291602001916124aa565b820191906000526020600020905b81548152906001019060200180831161248d57829003601f168201915b505050505081526020016007820180546124c390615e6f565b80601f01602080910402602001604051908101604052809291908181526020018280546124ef90615e6f565b801561253c5780601f106125115761010080835404028352916020019161253c565b820191906000526020600020905b81548152906001019060200180831161251f57829003601f168201915b505050505081526020016008820160009054906101000a900460ff161515151581526020016008820160019054906101000a900473ffffffffffffffffffffffffffffffffffffffff1673ffffffffffffffffffffffffffffffffffffffff1673ffffffffffffffffffffffffffffffffffffffff16815250509050806101000151156125fe576040517f08c379a00000000000000000000000000000000000000000000000000000000081526004016125f590616518565b60405180910390fd5b80915050919050565b60004783111561264c576040517f08c379a000000000000000000000000000000000000000000000000000000000815260040161264390616067565b60405180910390fd5b6000600260008667ffffffffffffffff1667ffffffffffffffff168152602001908152602001600020604051806101400160405290816000820160009054906101000a900467ffffffffffffffff1667ffffffffffffffff1667ffffffffffffffff1681526020016001820180546126c390615e6f565b80601f01602080910402602001604051908101604052809291908181526020018280546126ef90615e6f565b801561273c5780601f106127115761010080835404028352916020019161273c565b820191906000526020600020905b81548152906001019060200180831161271f57829003601f168201915b5050505050815260200160028201805461275590615e6f565b80601f016020809104026020016040519081016040528092919081815260200182805461278190615e6f565b80156127ce5780601f106127a3576101008083540402835291602001916127ce565b820191906000526020600020905b8154815290600101906020018083116127b157829003601f168201915b505050505081526020016003820180546127e790615e6f565b80601f016020809104026020016040519081016040528092919081815260200182805461281390615e6f565b80156128605780601f1061283557610100808354040283529160200191612860565b820191906000526020600020905b81548152906001019060200180831161284357829003601f168201915b50505050508152602001600482015481526020016005820160009054906101000a900467ffffffffffffffff1667ffffffffffffffff1667ffffffffffffffff1681526020016006820180546128b590615e6f565b80601f01602080910402602001604051908101604052809291908181526020018280546128e190615e6f565b801561292e5780601f106129035761010080835404028352916020019161292e565b820191906000526020600020905b81548152906001019060200180831161291157829003601f168201915b5050505050815260200160078201805461294790615e6f565b80601f016020809104026020016040519081016040528092919081815260200182805461297390615e6f565b80156129c05780601f10612995576101008083540402835291602001916129c0565b820191906000526020600020905b8154815290600101906020018083116129a357829003601f168201915b505050505081526020016008820160009054906101000a900460ff161515151581526020016008820160019054906101000a900473ffffffffffffffffffffffffffffffffffffffff1673ffffffffffffffffffffffffffffffffffffffff1673ffffffffffffffffffffffffffffffffffffffff168152505090508060800151841015612a83576040517f08c379a0000000000000000000000000000000000000000000000000000000008152600401612a7a90616584565b60405180910390fd5b80610100015115612ac9576040517f08c379a0000000000000000000000000000000000000000000000000000000008152600401612ac090616584565b60405180910390fd5b8573ffffffffffffffffffffffffffffffffffffffff1681610120015173ffffffffffffffffffffffffffffffffffffffff1614612b3c576040517f08c379a0000000000000000000000000000000000000000000000000000000008152600401612b3390616616565b60405180910390fd5b600560003373ffffffffffffffffffffffffffffffffffffffff1673ffffffffffffffffffffffffffffffffffffffff16815260200190815260200160002060008667ffffffffffffffff1667ffffffffffffffff16815260200190815260200160002060009054906101000a900460ff1615612bee576040517f08c379a0000000000000000000000000000000000000000000000000000000008152600401612be5906166a8565b60405180910390fd5b6000612bfd87866001876119a5565b90506001600560003373ffffffffffffffffffffffffffffffffffffffff1673ffffffffffffffffffffffffffffffffffffffff16815260200190815260200160002060008867ffffffffffffffff1667ffffffffffffffff16815260200190815260200160002060006101000a81548160ff0219169083151502179055506001600260008867ffffffffffffffff1667ffffffffffffffff16815260200190815260200160002060050160008282829054906101000a900467ffffffffffffffff16612cca91906166c8565b92506101000a81548167ffffffffffffffff021916908367ffffffffffffffff1602179055508092505050949350505050565b600460009054906101000a900467ffffffffffffffff1667ffffffffffffffff168167ffffffffffffffff161115612d6a576040517f08c379a0000000000000000000000000000000000000000000000000000000008152600401612d6190615efd565b60405180910390fd5b6000600260008367ffffffffffffffff1667ffffffffffffffff168152602001908152602001600020604051806101400160405290816000820160009054906101000a900467ffffffffffffffff1667ffffffffffffffff1667ffffffffffffffff168152602001600182018054612de190615e6f565b80601f0160208091040260200160405190810160405280929190818152602001828054612e0d90615e6f565b8015612e5a5780601f10612e2f57610100808354040283529160200191612e5a565b820191906000526020600020905b815481529060010190602001808311612e3d57829003601f168201915b50505050508152602001600282018054612e7390615e6f565b80601f0160208091040260200160405190810160405280929190818152602001828054612e9f90615e6f565b8015612eec5780601f10612ec157610100808354040283529160200191612eec565b820191906000526020600020905b815481529060010190602001808311612ecf57829003601f168201915b50505050508152602001600382018054612f0590615e6f565b80601f0160208091040260200160405190810160405280929190818152602001828054612f3190615e6f565b8015612f7e5780601f10612f5357610100808354040283529160200191612f7e565b820191906000526020600020905b815481529060010190602001808311612f6157829003601f168201915b50505050508152602001600482015481526020016005820160009054906101000a900467ffffffffffffffff1667ffffffffffffffff1667ffffffffffffffff168152602001600682018054612fd390615e6f565b80601f0160208091040260200160405190810160405280929190818152602001828054612fff90615e6f565b801561304c5780601f106130215761010080835404028352916020019161304c565b820191906000526020600020905b81548152906001019060200180831161302f57829003601f168201915b5050505050815260200160078201805461306590615e6f565b80601f016020809104026020016040519081016040528092919081815260200182805461309190615e6f565b80156130de5780601f106130b3576101008083540402835291602001916130de565b820191906000526020600020905b8154815290600101906020018083116130c157829003601f168201915b505050505081526020016008820160009054906101000a900460ff161515151581526020016008820160019054906101000a900473ffffffffffffffffffffffffffffffffffffffff1673ffffffffffffffffffffffffffffffffffffffff1673ffffffffffffffffffffffffffffffffffffffff16815250509050806101000151156131a0576040517f08c379a000000000000000000000000000000000000000000000000000000000815260040161319790616518565b60405180910390fd5b8273ffffffffffffffffffffffffffffffffffffffff1681610120015173ffffffffffffffffffffffffffffffffffffffff1614613213576040517f08c379a000000000000000000000000000000000000000000000000000000000815260040161320a90616750565b60405180910390fd5b6001600260008467ffffffffffffffff1667ffffffffffffffff16815260200190815260200160002060080160006101000a81548160ff021916908315150217905550505050565b60606000825167ffffffffffffffff81111561327a57613279615005565b5b6040519080825280602002602001820160405280156132b357816020015b6132a0614a24565b8152602001906001900390816132985790505b50905060005b835181101561378657600460009054906101000a900467ffffffffffffffff1667ffffffffffffffff168482815181106132f6576132f5616770565b5b602002602001015167ffffffffffffffff161115613349576040517f08c379a000000000000000000000000000000000000000000000000000000000815260040161334090615efd565b60405180910390fd5b60006002600086848151811061336257613361616770565b5b602002602001015167ffffffffffffffff1667ffffffffffffffff168152602001908152602001600020905080604051806101400160405290816000820160009054906101000a900467ffffffffffffffff1667ffffffffffffffff1667ffffffffffffffff1681526020016001820180546133dd90615e6f565b80601f016020809104026020016040519081016040528092919081815260200182805461340990615e6f565b80156134565780601f1061342b57610100808354040283529160200191613456565b820191906000526020600020905b81548152906001019060200180831161343957829003601f168201915b5050505050815260200160028201805461346f90615e6f565b80601f016020809104026020016040519081016040528092919081815260200182805461349b90615e6f565b80156134e85780601f106134bd576101008083540402835291602001916134e8565b820191906000526020600020905b8154815290600101906020018083116134cb57829003601f168201915b5050505050815260200160038201805461350190615e6f565b80601f016020809104026020016040519081016040528092919081815260200182805461352d90615e6f565b801561357a5780601f1061354f5761010080835404028352916020019161357a565b820191906000526020600020905b81548152906001019060200180831161355d57829003601f168201915b50505050508152602001600482015481526020016005820160009054906101000a900467ffffffffffffffff1667ffffffffffffffff1667ffffffffffffffff1681526020016006820180546135cf90615e6f565b80601f01602080910402602001604051908101604052809291908181526020018280546135fb90615e6f565b80156136485780601f1061361d57610100808354040283529160200191613648565b820191906000526020600020905b81548152906001019060200180831161362b57829003601f168201915b5050505050815260200160078201805461366190615e6f565b80601f016020809104026020016040519081016040528092919081815260200182805461368d90615e6f565b80156136da5780601f106136af576101008083540402835291602001916136da565b820191906000526020600020905b8154815290600101906020018083116136bd57829003601f168201915b505050505081526020016008820160009054906101000a900460ff161515151581526020016008820160019054906101000a900473ffffffffffffffffffffffffffffffffffffffff1673ffffffffffffffffffffffffffffffffffffffff1673ffffffffffffffffffffffffffffffffffffffff168152505083838151811061376757613766616770565b5b602002602001018190525050808061377e9061679f565b9150506132b9565b5080915050919050565b60606000600160008473ffffffffffffffffffffffffffffffffffffffff1673ffffffffffffffffffffffffffffffffffffffff16815260200190815260200160002060009054906101000a900467ffffffffffffffff1667ffffffffffffffff16905060008167ffffffffffffffff8111156138105761380f615005565b5b60405190808252806020026020018201604052801561384957816020015b613836614aa3565b81526020019060019003908161382e5790505b50905060005b828167ffffffffffffffff161015613a37576000808673ffffffffffffffffffffffffffffffffffffffff1673ffffffffffffffffffffffffffffffffffffffff16815260200190815260200160002060008267ffffffffffffffff1667ffffffffffffffff1681526020019081526020016000206040518060c00160405290816000820160009054906101000a900467ffffffffffffffff1667ffffffffffffffff1667ffffffffffffffff1681526020016000820160089054906101000a900473ffffffffffffffffffffffffffffffffffffffff1673ffffffffffffffffffffffffffffffffffffffff1673ffffffffffffffffffffffffffffffffffffffff1681526020016001820160009054906101000a900473ffffffffffffffffffffffffffffffffffffffff1673ffffffffffffffffffffffffffffffffffffffff1673ffffffffffffffffffffffffffffffffffffffff16815260200160028201548152602001600382015481526020016004820160009054906101000a900460ff1660028111156139e6576139e5614ebd565b5b60028111156139f8576139f7614ebd565b5b81525050828267ffffffffffffffff1681518110613a1957613a18616770565b5b60200260200101819052508080613a2f9061618c565b91505061384f565b508092505050919050565b600860009054906101000a900467ffffffffffffffff1667ffffffffffffffff16816000015167ffffffffffffffff161115613ab3576040517f08c379a0000000000000000000000000000000000000000000000000000000008152600401613aaa90615efd565b60405180910390fd5b8060066000836000015167ffffffffffffffff16815260200190815260200160002060008201518160000160006101000a81548167ffffffffffffffff021916908367ffffffffffffffff1602179055506020820151816001019081613b199190616368565b506040820151816002019081613b2f9190616368565b506060820151816003019081613b459190616368565b506080820151816004015560a0820151816005015560c0820151816006019081613b6f9190616368565b5060e08201518160070160006101000a81548160ff0219169083151502179055506101008201518160070160016101000a81548173ffffffffffffffffffffffffffffffffffffffff021916908373ffffffffffffffffffffffffffffffffffffffff16021790555090505050565b600460009054906101000a900467ffffffffffffffff1667ffffffffffffffff16816000015167ffffffffffffffff161115613c4f576040517f08c379a0000000000000000000000000000000000000000000000000000000008152600401613c4690615efd565b60405180910390fd5b8060026000836000015167ffffffffffffffff1667ffffffffffffffff16815260200190815260200160002060008201518160000160006101000a81548167ffffffffffffffff021916908367ffffffffffffffff1602179055506020820151816001019081613cbf9190616368565b506040820151816002019081613cd59190616368565b506060820151816003019081613ceb9190616368565b506080820151816004015560a08201518160050160006101000a81548167ffffffffffffffff021916908367ffffffffffffffff16021790555060c0820151816006019081613d3a9190616368565b5060e0820151816007019081613d509190616368565b506101008201518160080160006101000a81548160ff0219169083151502179055506101208201518160080160016101000a81548173ffffffffffffffffffffffffffffffffffffffff021916908373ffffffffffffffffffffffffffffffffffffffff16021790555090505050565b613dc8614aa3565b6000600160008573ffffffffffffffffffffffffffffffffffffffff1673ffffffffffffffffffffffffffffffffffffffff16815260200190815260200160002060009054906101000a900467ffffffffffffffff1690508067ffffffffffffffff168367ffffffffffffffff161115613e77576040517f08c379a0000000000000000000000000000000000000000000000000000000008152600401613e6e90615efd565b60405180910390fd5b6000808573ffffffffffffffffffffffffffffffffffffffff1673ffffffffffffffffffffffffffffffffffffffff16815260200190815260200160002060008467ffffffffffffffff1667ffffffffffffffff1681526020019081526020016000206040518060c00160405290816000820160009054906101000a900467ffffffffffffffff1667ffffffffffffffff1667ffffffffffffffff1681526020016000820160089054906101000a900473ffffffffffffffffffffffffffffffffffffffff1673ffffffffffffffffffffffffffffffffffffffff1673ffffffffffffffffffffffffffffffffffffffff1681526020016001820160009054906101000a900473ffffffffffffffffffffffffffffffffffffffff1673ffffffffffffffffffffffffffffffffffffffff1673ffffffffffffffffffffffffffffffffffffffff16815260200160028201548152602001600382015481526020016004820160009054906101000a900460ff166002811115613ffc57613ffb614ebd565b5b600281111561400e5761400d614ebd565b5b8152505091505092915050565b60606000825167ffffffffffffffff81111561403a57614039615005565b5b60405190808252806020026020018201604052801561407357816020015b6140606149b6565b8152602001906001900390816140585790505b50905060005b835181101561448257600860009054906101000a900467ffffffffffffffff1667ffffffffffffffff168482815181106140b6576140b5616770565b5b602002602001015167ffffffffffffffff161115614109576040517f08c379a000000000000000000000000000000000000000000000000000000000815260040161410090615efd565b60405180910390fd5b60006006600086848151811061412257614121616770565b5b602002602001015167ffffffffffffffff168152602001908152602001600020604051806101200160405290816000820160009054906101000a900467ffffffffffffffff1667ffffffffffffffff1667ffffffffffffffff16815260200160018201805461419090615e6f565b80601f01602080910402602001604051908101604052809291908181526020018280546141bc90615e6f565b80156142095780601f106141de57610100808354040283529160200191614209565b820191906000526020600020905b8154815290600101906020018083116141ec57829003601f168201915b5050505050815260200160028201805461422290615e6f565b80601f016020809104026020016040519081016040528092919081815260200182805461424e90615e6f565b801561429b5780601f106142705761010080835404028352916020019161429b565b820191906000526020600020905b81548152906001019060200180831161427e57829003601f168201915b505050505081526020016003820180546142b490615e6f565b80601f01602080910402602001604051908101604052809291908181526020018280546142e090615e6f565b801561432d5780601f106143025761010080835404028352916020019161432d565b820191906000526020600020905b81548152906001019060200180831161431057829003601f168201915b50505050508152602001600482015481526020016005820154815260200160068201805461435a90615e6f565b80601f016020809104026020016040519081016040528092919081815260200182805461438690615e6f565b80156143d35780601f106143a8576101008083540402835291602001916143d3565b820191906000526020600020905b8154815290600101906020018083116143b657829003601f168201915b505050505081526020016007820160009054906101000a900460ff161515151581526020016007820160019054906101000a900473ffffffffffffffffffffffffffffffffffffffff1673ffffffffffffffffffffffffffffffffffffffff1673ffffffffffffffffffffffffffffffffffffffff168152505090508083838151811061446357614462616770565b5b602002602001018190525050808061447a9061679f565b915050614079565b5080915050919050565b6004600081819054906101000a900467ffffffffffffffff16809291906144b29061618c565b91906101000a81548167ffffffffffffffff021916908367ffffffffffffffff16021790555050600460009054906101000a900467ffffffffffffffff16816000019067ffffffffffffffff16908167ffffffffffffffff16815250508060026000600460009054906101000a900467ffffffffffffffff1667ffffffffffffffff1667ffffffffffffffff16815260200190815260200160002060008201518160000160006101000a81548167ffffffffffffffff021916908367ffffffffffffffff16021790555060208201518160010190816145919190616368565b5060408201518160020190816145a79190616368565b5060608201518160030190816145bd9190616368565b506080820151816004015560a08201518160050160006101000a81548167ffffffffffffffff021916908367ffffffffffffffff16021790555060c082015181600601908161460c9190616368565b5060e08201518160070190816146229190616368565b506101008201518160080160006101000a81548160ff0219169083151502179055506101208201518160080160016101000a81548173ffffffffffffffffffffffffffffffffffffffff021916908373ffffffffffffffffffffffffffffffffffffffff1602179055509050506003600082610120015173ffffffffffffffffffffffffffffffffffffffff1673ffffffffffffffffffffffffffffffffffffffff168152602001908152602001600020600460009054906101000a900467ffffffffffffffff1690806001815401808255809150506001900390600052602060002090600491828204019190066008029091909190916101000a81548167ffffffffffffffff021916908367ffffffffffffffff16021790555050565b600080600160008673ffffffffffffffffffffffffffffffffffffffff1673ffffffffffffffffffffffffffffffffffffffff168152602001908152602001600020600081819054906101000a900467ffffffffffffffff16809291906147a69061618c565b91906101000a81548167ffffffffffffffff021916908367ffffffffffffffff16021790555090506040518060c001604052808267ffffffffffffffff1681526020018773ffffffffffffffffffffffffffffffffffffffff1681526020018673ffffffffffffffffffffffffffffffffffffffff1681526020018581526020014281526020018460028111156148405761483f614ebd565b5b8152506000808773ffffffffffffffffffffffffffffffffffffffff1673ffffffffffffffffffffffffffffffffffffffff16815260200190815260200160002060008367ffffffffffffffff1667ffffffffffffffff16815260200190815260200160002060008201518160000160006101000a81548167ffffffffffffffff021916908367ffffffffffffffff16021790555060208201518160000160086101000a81548173ffffffffffffffffffffffffffffffffffffffff021916908373ffffffffffffffffffffffffffffffffffffffff16021790555060408201518160010160006101000a81548173ffffffffffffffffffffffffffffffffffffffff021916908373ffffffffffffffffffffffffffffffffffffffff160217905550606082015181600201556080820151816003015560a08201518160040160006101000a81548160ff021916908360028111156149a2576149a1614ebd565b5b021790555090505080915050949350505050565b604051806101200160405280600067ffffffffffffffff168152602001606081526020016060815260200160608152602001600081526020016000815260200160608152602001600015158152602001600073ffffffffffffffffffffffffffffffffffffffff1681525090565b604051806101400160405280600067ffffffffffffffff16815260200160608152602001606081526020016060815260200160008152602001600067ffffffffffffffff1681526020016060815260200160608152602001600015158152602001600073ffffffffffffffffffffffffffffffffffffffff1681525090565b6040518060c00160405280600067ffffffffffffffff168152602001600073ffffffffffffffffffffffffffffffffffffffff168152602001600073ffffffffffffffffffffffffffffffffffffffff168152602001600081526020016000815260200160006002811115614b1b57614b1a614ebd565b5b81525090565b6000604051905090565b600080fd5b600080fd5b600073ffffffffffffffffffffffffffffffffffffffff82169050919050565b6000614b6082614b35565b9050919050565b614b7081614b55565b8114614b7b57600080fd5b50565b600081359050614b8d81614b67565b92915050565b600067ffffffffffffffff82169050919050565b614bb081614b93565b8114614bbb57600080fd5b50565b600081359050614bcd81614ba7565b92915050565b60008060408385031215614bea57614be9614b2b565b5b6000614bf885828601614b7e565b9250506020614c0985828601614bbe565b9150509250929050565b600060208284031215614c2957614c28614b2b565b5b6000614c3784828501614bbe565b91505092915050565b614c4981614b93565b82525050565b600081519050919050565b600082825260208201905092915050565b60005b83811015614c89578082015181840152602081019050614c6e565b60008484015250505050565b6000601f19601f8301169050919050565b6000614cb182614c4f565b614cbb8185614c5a565b9350614ccb818560208601614c6b565b614cd481614c95565b840191505092915050565b6000819050919050565b614cf281614cdf565b82525050565b60008115159050919050565b614d0d81614cf8565b82525050565b614d1c81614b55565b82525050565b600061012083016000830151614d3b6000860182614c40565b5060208301518482036020860152614d538282614ca6565b91505060408301518482036040860152614d6d8282614ca6565b91505060608301518482036060860152614d878282614ca6565b9150506080830151614d9c6080860182614ce9565b5060a0830151614daf60a0860182614ce9565b5060c083015184820360c0860152614dc78282614ca6565b91505060e0830151614ddc60e0860182614d04565b50610100830151614df1610100860182614d13565b508091505092915050565b60006020820190508181036000830152614e168184614d22565b905092915050565b600060208284031215614e3457614e33614b2b565b5b6000614e4284828501614b7e565b91505092915050565b614e5481614b93565b82525050565b6000602082019050614e6f6000830184614e4b565b92915050565b614e7e81614cf8565b82525050565b6000602082019050614e996000830184614e75565b92915050565b614ea881614b55565b82525050565b614eb781614cdf565b82525050565b7f4e487b7100000000000000000000000000000000000000000000000000000000600052602160045260246000fd5b60038110614efd57614efc614ebd565b5b50565b6000819050614f0e82614eec565b919050565b6000614f1e82614f00565b9050919050565b614f2e81614f13565b82525050565b600060c082019050614f496000830189614e4b565b614f566020830188614e9f565b614f636040830187614e9f565b614f706060830186614eae565b614f7d6080830185614eae565b614f8a60a0830184614f25565b979650505050505050565b6000614fa082614b35565b9050919050565b614fb081614f95565b8114614fbb57600080fd5b50565b600081359050614fcd81614fa7565b92915050565b600060208284031215614fe957614fe8614b2b565b5b6000614ff784828501614fbe565b91505092915050565b600080fd5b7f4e487b7100000000000000000000000000000000000000000000000000000000600052604160045260246000fd5b61503d82614c95565b810181811067ffffffffffffffff8211171561505c5761505b615005565b5b80604052505050565b600061506f614b21565b905061507b8282615034565b919050565b600080fd5b600080fd5b600080fd5b600067ffffffffffffffff8211156150aa576150a9615005565b5b6150b382614c95565b9050602081019050919050565b82818337600083830152505050565b60006150e26150dd8461508f565b615065565b9050828152602081018484840111156150fe576150fd61508a565b5b6151098482856150c0565b509392505050565b600082601f83011261512657615125615085565b5b81356151368482602086016150cf565b91505092915050565b61514881614cdf565b811461515357600080fd5b50565b6000813590506151658161513f565b92915050565b61517481614cf8565b811461517f57600080fd5b50565b6000813590506151918161516b565b92915050565b600061012082840312156151ae576151ad615000565b5b6151b9610120615065565b905060006151c984828501614bbe565b600083015250602082013567ffffffffffffffff8111156151ed576151ec615080565b5b6151f984828501615111565b602083015250604082013567ffffffffffffffff81111561521d5761521c615080565b5b61522984828501615111565b604083015250606082013567ffffffffffffffff81111561524d5761524c615080565b5b61525984828501615111565b606083015250608061526d84828501615156565b60808301525060a061528184828501615156565b60a08301525060c082013567ffffffffffffffff8111156152a5576152a4615080565b5b6152b184828501615111565b60c08301525060e06152c584828501615182565b60e0830152506101006152da84828501614b7e565b6101008301525092915050565b6000602082840312156152fd576152fc614b2b565b5b600082013567ffffffffffffffff81111561531b5761531a614b30565b5b61532784828501615197565b91505092915050565b600082825260208201905092915050565b600061534c82614c4f565b6153568185615330565b9350615366818560208601614c6b565b61536f81614c95565b840191505092915050565b600061014082019050615390600083018d614e4b565b81810360208301526153a2818c615341565b905081810360408301526153b6818b615341565b905081810360608301526153ca818a615341565b90506153d96080830189614eae565b6153e660a0830188614e4b565b81810360c08301526153f88187615341565b905081810360e083015261540c8186615341565b905061541c610100830185614e75565b61542a610120830184614e9f565b9b9a5050505050505050505050565b600080604083850312156154505761544f614b2b565b5b600061545e85828601614fbe565b925050602061546f85828601614bbe565b9150509250929050565b6000610140830160008301516154926000860182614c40565b50602083015184820360208601526154aa8282614ca6565b915050604083015184820360408601526154c48282614ca6565b915050606083015184820360608601526154de8282614ca6565b91505060808301516154f36080860182614ce9565b5060a083015161550660a0860182614c40565b5060c083015184820360c086015261551e8282614ca6565b91505060e083015184820360e08601526155388282614ca6565b91505061010083015161554f610100860182614d04565b50610120830151615564610120860182614d13565b508091505092915050565b600060208201905081810360008301526155898184615479565b905092915050565b61559a81614f95565b82525050565b60006020820190506155b56000830184615591565b92915050565b600081519050919050565b600082825260208201905092915050565b6000819050602082019050919050565b6000610140830160008301516156006000860182614c40565b50602083015184820360208601526156188282614ca6565b915050604083015184820360408601526156328282614ca6565b9150506060830151848203606086015261564c8282614ca6565b91505060808301516156616080860182614ce9565b5060a083015161567460a0860182614c40565b5060c083015184820360c086015261568c8282614ca6565b91505060e083015184820360e08601526156a68282614ca6565b9150506101008301516156bd610100860182614d04565b506101208301516156d2610120860182614d13565b508091505092915050565b60006156e983836155e7565b905092915050565b6000602082019050919050565b6000615709826155bb565b61571381856155c6565b935083602082028501615725856155d7565b8060005b85811015615761578484038952815161574285826156dd565b945061574d836156f1565b925060208a01995050600181019050615729565b50829750879550505050505092915050565b6000602082019050818103600083015261578d81846156fe565b905092915050565b600081519050919050565b600082825260208201905092915050565b6000819050602082019050919050565b6157ca81614f13565b82525050565b60c0820160008201516157e66000850182614c40565b5060208201516157f96020850182614d13565b50604082015161580c6040850182614d13565b50606082015161581f6060850182614ce9565b5060808201516158326080850182614ce9565b5060a082015161584560a08501826157c1565b50505050565b600061585783836157d0565b60c08301905092915050565b6000602082019050919050565b600061587b82615795565b61588581856157a0565b9350615890836157b1565b8060005b838110156158c15781516158a8888261584b565b97506158b383615863565b925050600181019050615894565b5085935050505092915050565b600060208201905081810360008301526158e88184615870565b905092915050565b6000610140828403121561590757615906615000565b5b615912610140615065565b9050600061592284828501614bbe565b600083015250602082013567ffffffffffffffff81111561594657615945615080565b5b61595284828501615111565b602083015250604082013567ffffffffffffffff81111561597657615975615080565b5b61598284828501615111565b604083015250606082013567ffffffffffffffff8111156159a6576159a5615080565b5b6159b284828501615111565b60608301525060806159c684828501615156565b60808301525060a06159da84828501614bbe565b60a08301525060c082013567ffffffffffffffff8111156159fe576159fd615080565b5b615a0a84828501615111565b60c08301525060e082013567ffffffffffffffff811115615a2e57615a2d615080565b5b615a3a84828501615111565b60e083015250610100615a4f84828501615182565b61010083015250610120615a6584828501614b7e565b6101208301525092915050565b600060208284031215615a8857615a87614b2b565b5b600082013567ffffffffffffffff811115615aa657615aa5614b30565b5b615ab2848285016158f0565b91505092915050565b600060208284031215615ad157615ad0614b2b565b5b6000615adf84828501615156565b91505092915050565b600061012082019050615afe600083018c614e4b565b8181036020830152615b10818b615341565b90508181036040830152615b24818a615341565b90508181036060830152615b388189615341565b9050615b476080830188614eae565b615b5460a0830187614eae565b81810360c0830152615b668186615341565b9050615b7560e0830185614e75565b615b83610100830184614e9f565b9a9950505050505050505050565b60c082016000820151615ba76000850182614c40565b506020820151615bba6020850182614d13565b506040820151615bcd6040850182614d13565b506060820151615be06060850182614ce9565b506080820151615bf36080850182614ce9565b5060a0820151615c0660a08501826157c1565b50505050565b600060c082019050615c216000830184615b91565b92915050565b60008060408385031215615c3e57615c3d614b2b565b5b6000615c4c85828601614b7e565b9250506020615c5d85828601615156565b9150509250929050565b6000602082019050615c7c6000830184614eae565b92915050565b600081519050919050565b600082825260208201905092915050565b6000819050602082019050919050565b600061012083016000830151615cc76000860182614c40565b5060208301518482036020860152615cdf8282614ca6565b91505060408301518482036040860152615cf98282614ca6565b91505060608301518482036060860152615d138282614ca6565b9150506080830151615d286080860182614ce9565b5060a0830151615d3b60a0860182614ce9565b5060c083015184820360c0860152615d538282614ca6565b91505060e0830151615d6860e0860182614d04565b50610100830151615d7d610100860182614d13565b508091505092915050565b6000615d948383615cae565b905092915050565b6000602082019050919050565b6000615db482615c82565b615dbe8185615c8d565b935083602082028501615dd085615c9e565b8060005b85811015615e0c5784840389528151615ded8582615d88565b9450615df883615d9c565b925060208a01995050600181019050615dd4565b50829750879550505050505092915050565b60006020820190508181036000830152615e388184615da9565b905092915050565b7f4e487b7100000000000000000000000000000000000000000000000000000000600052602260045260246000fd5b60006002820490506001821680615e8757607f821691505b602082108103615e9a57615e99615e40565b5b50919050565b600082825260208201905092915050565b7f496e76616c696420696e64657800000000000000000000000000000000000000600082015250565b6000615ee7600d83615ea0565b9150615ef282615eb1565b602082019050919050565b60006020820190508181036000830152615f1681615eda565b9050919050565b7f54686520776973686c6973742068617320616c726561647920636c6f73656400600082015250565b6000615f53601f83615ea0565b9150615f5e82615f1d565b602082019050919050565b60006020820190508181036000830152615f8281615f46565b9050919050565b7f596f7520646f206e6f7420686176652074686520617574686f7269747920746f60008201527f20636c6f73652074686520776973686c69737400000000000000000000000000602082015250565b6000615fe5603383615ea0565b9150615ff082615f89565b604082019050919050565b6000602082019050818103600083015261601481615fd8565b9050919050565b7f496e73756666696369656e742062616c616e6365000000000000000000000000600082015250565b6000616051601483615ea0565b915061605c8261601b565b602082019050919050565b6000602082019050818103600083015261608081616044565b9050919050565b7f4e487b7100000000000000000000000000000000000000000000000000000000600052601160045260246000fd5b60006160c182614cdf565b91506160cc83614cdf565b92508282026160da81614cdf565b915082820484148315176160f1576160f0616087565b5b5092915050565b7f4e487b7100000000000000000000000000000000000000000000000000000000600052601260045260246000fd5b600061613282614cdf565b915061613d83614cdf565b92508261614d5761614c6160f8565b5b828204905092915050565b600061616382614cdf565b915061616e83614cdf565b925082820390508181111561618657616185616087565b5b92915050565b600061619782614b93565b915067ffffffffffffffff82036161b1576161b0616087565b5b600182019050919050565b60008190508160005260206000209050919050565b60006020601f8301049050919050565b600082821b905092915050565b60006008830261621e7fffffffffffffffffffffffffffffffffffffffffffffffffffffffffffffffff826161e1565b61622886836161e1565b95508019841693508086168417925050509392505050565b6000819050919050565b600061626561626061625b84614cdf565b616240565b614cdf565b9050919050565b6000819050919050565b61627f8361624a565b61629361628b8261626c565b8484546161ee565b825550505050565b600090565b6162a861629b565b6162b3818484616276565b505050565b5b818110156162d7576162cc6000826162a0565b6001810190506162b9565b5050565b601f82111561631c576162ed816161bc565b6162f6846161d1565b81016020851015616305578190505b616319616311856161d1565b8301826162b8565b50505b505050565b600082821c905092915050565b600061633f60001984600802616321565b1980831691505092915050565b6000616358838361632e565b9150826002028217905092915050565b61637182614c4f565b67ffffffffffffffff81111561638a57616389615005565b5b6163948254615e6f565b61639f8282856162db565b600060209050601f8311600181146163d257600084156163c0578287015190505b6163ca858261634c565b865550616432565b601f1984166163e0866161bc565b60005b82811015616408578489015182556001820191506020850194506020810190506163e3565b868310156164255784890151616421601f89168261632e565b8355505b6001600288020188555050505b505050505050565b7f546869732066756e6472616973696e672063616d706169676e20666f7220746860008201527f6520776973686c6973742068617320636c6f7365642e00000000000000000000602082015250565b6000616496603683615ea0565b91506164a18261643a565b604082019050919050565b600060208201905081810360008301526164c581616489565b9050919050565b7f4974656d20646f6573206e6f7420657869737400000000000000000000000000600082015250565b6000616502601383615ea0565b915061650d826164cc565b602082019050919050565b60006020820190508181036000830152616531816164f5565b9050919050565b7f496e73756666696369656e74207061796d656e74000000000000000000000000600082015250565b600061656e601483615ea0565b915061657982616538565b602082019050919050565b6000602082019050818103600083015261659d81616561565b9050919050565b7f546869732061646472657373206973206e6f7420746865206974656d2773207360008201527f656c6c65722e0000000000000000000000000000000000000000000000000000602082015250565b6000616600602683615ea0565b915061660b826165a4565b604082019050919050565b6000602082019050818103600083015261662f816165f3565b9050919050565b7f54686973206974656d2068617320616c7265616479206265656e20707572636860008201527f617365642e000000000000000000000000000000000000000000000000000000602082015250565b6000616692602583615ea0565b915061669d82616636565b604082019050919050565b600060208201905081810360008301526166c181616685565b9050919050565b60006166d382614b93565b91506166de83614b93565b9250828201905067ffffffffffffffff8111156166fe576166fd616087565b5b92915050565b7f596f7520617265206e6f742073656c6c65720000000000000000000000000000600082015250565b600061673a601283615ea0565b915061674582616704565b602082019050919050565b600060208201905081810360008301526167698161672d565b9050919050565b7f4e487b7100000000000000000000000000000000000000000000000000000000600052603260045260246000fd5b60006167aa82614cdf565b91507fffffffffffffffffffffffffffffffffffffffffffffffffffffffffffffffff82036167dc576167db616087565b5b60018201905091905056fea264697066735822122038550a4b9f18c9795afab65b0812429c92e0a3706031cb22517faee97adbe7da64736f6c63430008120033",
  "immutableReferences": {},
  "source": "// SPDX-License-Identifier: MIT\r\npragma solidity >= 0.6.0 <0.9.0;\r\n\r\nimport \"./ItemDonation.sol\";\r\nimport \"./WishlistDonation.sol\";\r\n\r\ncontract ApplicationHandler is ItemDonation, WishlistDonation {\r\n  address payable public owner;\r\n\r\n  constructor(){\r\n    owner = payable(msg.sender);\r\n  }\r\n\r\n  // ================= Frontend Call =================\r\n  //   \r\n  function callBasicDonation(address payable _to) external payable returns(uint64) {\r\n    return _transfer(_to, msg.value, SupportType.Donation, owner);\r\n  }\r\n  //  \r\n  function buyItemDonation(address payable _to, uint64 _itemId) external payable returns(uint64) {\r\n    return _buyItem(_to, _itemId, msg.value, owner);\r\n  }\r\n  //   \r\n  function buyWishlistDonation(address payable _to, uint64 _wishlistId) external payable returns(uint64) {\r\n    return _buyWishlist(_to, _wishlistId, msg.value, owner);\r\n  }\r\n\r\n  // ================= Backend Call =================\r\n  //      \r\n  function getMemberItemList(address _address) external view returns(ItemSol[] memory){\r\n    return _getItemList(myItems[_address]);\r\n  }\r\n\r\n  //    \r\n  function getItemDetail(uint64 _id) external view returns(ItemSol memory){\r\n    return _getItemDetail(_id);\r\n  }\r\n\r\n  //   \r\n  function addMemberItem(ItemSol memory _item) external{\r\n    _createItem(_item);\r\n  }\r\n\r\n  //   \r\n  function deleteMemberItem(address _address, uint64 _id) external {\r\n    _deleteItem(_address, _id);\r\n  }\r\n\r\n  //   \r\n  function updateMemberItem(ItemSol memory _item) external {\r\n    _updateItem(_item);\r\n  }\r\n\r\n  //    \r\n  function getMemberWishLists(address _address) external view returns(WishlistSol[] memory){\r\n    return _getWishlists(myWishlists[_address]);\r\n  }\r\n\r\n  //    \r\n  function getMemberWishListDetail(uint64 _id) external view returns(WishlistSol memory){\r\n    return _getWishlistDetail(_id);\r\n  }\r\n\r\n  //   \r\n  function addMemberWishList(WishlistSol memory _wishlist) external{\r\n    _createWishlist(_wishlist);\r\n  }\r\n\r\n  //   \r\n  function deleteMemberWishlist(address _address, uint64 _id) external {\r\n    _deleteWishlist(_address, _id);\r\n  }\r\n\r\n  //   \r\n  function updateMemberWishlist(WishlistSol memory _wishlist) external {\r\n    _updateWishlist(_wishlist);\r\n  }\r\n\r\n  //    \r\n  function getSupportDetail(address _address, uint64 _id) external view returns(SupportSol memory){\r\n    return _getSupportDetail(_address, _id);\r\n  }\r\n\r\n  //    \r\n  function getSupportList(address _address) external view returns(SupportSol[] memory){\r\n    return _getSupportList(_address);\r\n  }\r\n\r\n  //    \r\n  function getSupportSendTime(address _address, uint64 _id) external view returns(uint256){\r\n    return _getSupportDetail(_address, _id).sendTimestamp;\r\n  }\r\n}",
  "sourcePath": "C:\\Users\\SSAFY\\Desktop\\S08P22A209\\contract\\contracts\\ApplicationHandler.sol",
  "compiler": {
    "name": "solc",
    "version": "0.8.18+commit.87f61d96.Emscripten.clang"
  },
  "schemaVersion": "3.4.13",
  "updatedAt": "2023-03-29T04:30:52.425Z",
  "devdoc": {
    "kind": "dev",
    "methods": {},
    "version": 1
  },
  "userdoc": {
    "kind": "user",
    "methods": {},
    "version": 1
  }
}