{
  "contractName": "ApplicationHandler",
  "abi": [
    {
      "inputs": [],
      "stateMutability": "nonpayable",
      "type": "constructor"
    },
    {
      "inputs": [
        {
          "internalType": "uint256",
          "name": "",
          "type": "uint256"
        }
      ],
      "name": "items",
      "outputs": [
        {
          "internalType": "uint256",
          "name": "id",
          "type": "uint256"
        },
        {
          "internalType": "bytes",
          "name": "title",
          "type": "bytes"
        },
        {
          "internalType": "bytes",
          "name": "imgPath",
          "type": "bytes"
        },
        {
          "internalType": "bytes",
          "name": "description",
          "type": "bytes"
        },
        {
          "internalType": "uint256",
          "name": "price",
          "type": "uint256"
        },
        {
          "internalType": "bytes",
          "name": "message",
          "type": "bytes"
        },
        {
          "internalType": "bytes",
          "name": "filePath",
          "type": "bytes"
        },
        {
          "internalType": "bool",
          "name": "isDeleted",
          "type": "bool"
        },
        {
          "internalType": "address",
          "name": "seller",
          "type": "address"
        }
      ],
      "stateMutability": "view",
      "type": "function"
    },
    {
      "inputs": [
        {
          "internalType": "address",
          "name": "",
          "type": "address"
        },
        {
          "internalType": "uint256",
          "name": "",
          "type": "uint256"
        }
      ],
      "name": "myItems",
      "outputs": [
        {
          "internalType": "uint256",
          "name": "",
          "type": "uint256"
        }
      ],
      "stateMutability": "view",
      "type": "function"
    },
    {
      "inputs": [
        {
          "internalType": "address",
          "name": "",
          "type": "address"
        },
        {
          "internalType": "uint256",
          "name": "",
          "type": "uint256"
        }
      ],
      "name": "myWishlists",
      "outputs": [
        {
          "internalType": "uint256",
          "name": "",
          "type": "uint256"
        }
      ],
      "stateMutability": "view",
      "type": "function"
    },
    {
      "inputs": [
        {
          "internalType": "address",
          "name": "",
          "type": "address"
        },
        {
          "internalType": "uint256",
          "name": "",
          "type": "uint256"
        }
      ],
      "name": "purchasedItems",
      "outputs": [
        {
          "internalType": "bool",
          "name": "",
          "type": "bool"
        }
      ],
      "stateMutability": "view",
      "type": "function"
    },
    {
      "inputs": [
        {
          "internalType": "address",
          "name": "",
          "type": "address"
        }
      ],
      "name": "supportCount",
      "outputs": [
        {
          "internalType": "uint256",
          "name": "",
          "type": "uint256"
        }
      ],
      "stateMutability": "view",
      "type": "function"
    },
    {
      "inputs": [
        {
          "internalType": "address",
          "name": "",
          "type": "address"
        },
        {
          "internalType": "uint256",
          "name": "",
          "type": "uint256"
        }
      ],
      "name": "supportList",
      "outputs": [
        {
          "internalType": "uint256",
          "name": "id",
          "type": "uint256"
        },
        {
          "internalType": "address",
          "name": "from",
          "type": "address"
        },
        {
          "internalType": "address",
          "name": "to",
          "type": "address"
        },
        {
          "internalType": "uint256",
          "name": "amount",
          "type": "uint256"
        },
        {
          "internalType": "uint256",
          "name": "sendTimestamp",
          "type": "uint256"
        },
        {
          "internalType": "enum SupportHistory.SupportType",
          "name": "supportType",
          "type": "uint8"
        },
        {
          "internalType": "enum SupportHistory.SupportStatus",
          "name": "supportStatus",
          "type": "uint8"
        }
      ],
      "stateMutability": "view",
      "type": "function"
    },
    {
      "inputs": [
        {
          "internalType": "uint256",
          "name": "",
          "type": "uint256"
        }
      ],
      "name": "wishlists",
      "outputs": [
        {
          "internalType": "uint256",
          "name": "id",
          "type": "uint256"
        },
        {
          "internalType": "bytes",
          "name": "imgPath",
          "type": "bytes"
        },
        {
          "internalType": "bytes",
          "name": "title",
          "type": "bytes"
        },
        {
          "internalType": "bytes",
          "name": "description",
          "type": "bytes"
        },
        {
          "internalType": "uint256",
          "name": "collectedAmount",
          "type": "uint256"
        },
        {
          "internalType": "uint256",
          "name": "targetAmount",
          "type": "uint256"
        },
        {
          "internalType": "bytes",
          "name": "message",
          "type": "bytes"
        },
        {
          "internalType": "bool",
          "name": "isClosed",
          "type": "bool"
        },
        {
          "internalType": "address",
          "name": "seller",
          "type": "address"
        }
      ],
      "stateMutability": "view",
      "type": "function"
    },
    {
      "inputs": [
        {
          "internalType": "address payable",
          "name": "_to",
          "type": "address"
        }
      ],
      "name": "callBasicDonation",
      "outputs": [
        {
          "internalType": "uint256",
          "name": "",
          "type": "uint256"
        }
      ],
      "stateMutability": "payable",
      "type": "function"
    },
    {
      "inputs": [
        {
          "internalType": "address payable",
          "name": "_to",
          "type": "address"
        },
        {
          "internalType": "uint256",
          "name": "_itemId",
          "type": "uint256"
        }
      ],
      "name": "buyItemDonation",
      "outputs": [
        {
          "internalType": "uint256",
          "name": "",
          "type": "uint256"
        }
      ],
      "stateMutability": "payable",
      "type": "function"
    },
    {
      "inputs": [
        {
          "internalType": "address payable",
          "name": "_to",
          "type": "address"
        },
        {
          "internalType": "uint256",
          "name": "_wishlistId",
          "type": "uint256"
        }
      ],
      "name": "buyWishilistDonation",
      "outputs": [
        {
          "internalType": "uint256",
          "name": "",
          "type": "uint256"
        }
      ],
      "stateMutability": "payable",
      "type": "function"
    },
    {
      "inputs": [
        {
          "internalType": "address",
          "name": "_address",
          "type": "address"
        }
      ],
      "name": "getMemberItemList",
      "outputs": [
        {
          "components": [
            {
              "internalType": "uint256",
              "name": "id",
              "type": "uint256"
            },
            {
              "internalType": "bytes",
              "name": "title",
              "type": "bytes"
            },
            {
              "internalType": "bytes",
              "name": "imgPath",
              "type": "bytes"
            },
            {
              "internalType": "bytes",
              "name": "description",
              "type": "bytes"
            },
            {
              "internalType": "uint256",
              "name": "price",
              "type": "uint256"
            },
            {
              "internalType": "bytes",
              "name": "message",
              "type": "bytes"
            },
            {
              "internalType": "bytes",
              "name": "filePath",
              "type": "bytes"
            },
            {
              "internalType": "bool",
              "name": "isDeleted",
              "type": "bool"
            },
            {
              "internalType": "address",
              "name": "seller",
              "type": "address"
            }
          ],
          "internalType": "struct ItemDonation.Item[]",
          "name": "",
          "type": "tuple[]"
        }
      ],
      "stateMutability": "view",
      "type": "function"
    },
    {
      "inputs": [
        {
          "internalType": "uint256",
          "name": "_id",
          "type": "uint256"
        }
      ],
      "name": "getItemDetail",
      "outputs": [
        {
          "components": [
            {
              "internalType": "uint256",
              "name": "id",
              "type": "uint256"
            },
            {
              "internalType": "bytes",
              "name": "title",
              "type": "bytes"
            },
            {
              "internalType": "bytes",
              "name": "imgPath",
              "type": "bytes"
            },
            {
              "internalType": "bytes",
              "name": "description",
              "type": "bytes"
            },
            {
              "internalType": "uint256",
              "name": "price",
              "type": "uint256"
            },
            {
              "internalType": "bytes",
              "name": "message",
              "type": "bytes"
            },
            {
              "internalType": "bytes",
              "name": "filePath",
              "type": "bytes"
            },
            {
              "internalType": "bool",
              "name": "isDeleted",
              "type": "bool"
            },
            {
              "internalType": "address",
              "name": "seller",
              "type": "address"
            }
          ],
          "internalType": "struct ItemDonation.Item",
          "name": "",
          "type": "tuple"
        }
      ],
      "stateMutability": "view",
      "type": "function"
    },
    {
      "inputs": [
        {
          "components": [
            {
              "internalType": "uint256",
              "name": "id",
              "type": "uint256"
            },
            {
              "internalType": "bytes",
              "name": "title",
              "type": "bytes"
            },
            {
              "internalType": "bytes",
              "name": "imgPath",
              "type": "bytes"
            },
            {
              "internalType": "bytes",
              "name": "description",
              "type": "bytes"
            },
            {
              "internalType": "uint256",
              "name": "price",
              "type": "uint256"
            },
            {
              "internalType": "bytes",
              "name": "message",
              "type": "bytes"
            },
            {
              "internalType": "bytes",
              "name": "filePath",
              "type": "bytes"
            },
            {
              "internalType": "bool",
              "name": "isDeleted",
              "type": "bool"
            },
            {
              "internalType": "address",
              "name": "seller",
              "type": "address"
            }
          ],
          "internalType": "struct ItemDonation.Item",
          "name": "_item",
          "type": "tuple"
        }
      ],
      "name": "addMemberItem",
      "outputs": [],
      "stateMutability": "nonpayable",
      "type": "function"
    },
    {
      "inputs": [
        {
          "internalType": "address",
          "name": "_address",
          "type": "address"
        },
        {
          "internalType": "uint256",
          "name": "_id",
          "type": "uint256"
        }
      ],
      "name": "deleteMemberItem",
      "outputs": [],
      "stateMutability": "nonpayable",
      "type": "function"
    },
    {
      "inputs": [
        {
          "components": [
            {
              "internalType": "uint256",
              "name": "id",
              "type": "uint256"
            },
            {
              "internalType": "bytes",
              "name": "title",
              "type": "bytes"
            },
            {
              "internalType": "bytes",
              "name": "imgPath",
              "type": "bytes"
            },
            {
              "internalType": "bytes",
              "name": "description",
              "type": "bytes"
            },
            {
              "internalType": "uint256",
              "name": "price",
              "type": "uint256"
            },
            {
              "internalType": "bytes",
              "name": "message",
              "type": "bytes"
            },
            {
              "internalType": "bytes",
              "name": "filePath",
              "type": "bytes"
            },
            {
              "internalType": "bool",
              "name": "isDeleted",
              "type": "bool"
            },
            {
              "internalType": "address",
              "name": "seller",
              "type": "address"
            }
          ],
          "internalType": "struct ItemDonation.Item",
          "name": "_item",
          "type": "tuple"
        }
      ],
      "name": "updateMemberItem",
      "outputs": [],
      "stateMutability": "nonpayable",
      "type": "function"
    },
    {
      "inputs": [
        {
          "internalType": "address",
          "name": "_address",
          "type": "address"
        }
      ],
      "name": "getMemberWishLists",
      "outputs": [
        {
          "components": [
            {
              "internalType": "uint256",
              "name": "id",
              "type": "uint256"
            },
            {
              "internalType": "bytes",
              "name": "imgPath",
              "type": "bytes"
            },
            {
              "internalType": "bytes",
              "name": "title",
              "type": "bytes"
            },
            {
              "internalType": "bytes",
              "name": "description",
              "type": "bytes"
            },
            {
              "internalType": "uint256",
              "name": "collectedAmount",
              "type": "uint256"
            },
            {
              "internalType": "uint256",
              "name": "targetAmount",
              "type": "uint256"
            },
            {
              "internalType": "bytes",
              "name": "message",
              "type": "bytes"
            },
            {
              "internalType": "bool",
              "name": "isClosed",
              "type": "bool"
            },
            {
              "internalType": "address",
              "name": "seller",
              "type": "address"
            }
          ],
          "internalType": "struct WishlistDonation.Wishlist[]",
          "name": "",
          "type": "tuple[]"
        }
      ],
      "stateMutability": "view",
      "type": "function"
    },
    {
      "inputs": [
        {
          "internalType": "uint256",
          "name": "_id",
          "type": "uint256"
        }
      ],
      "name": "getMemberWishListDetail",
      "outputs": [
        {
          "components": [
            {
              "internalType": "uint256",
              "name": "id",
              "type": "uint256"
            },
            {
              "internalType": "bytes",
              "name": "imgPath",
              "type": "bytes"
            },
            {
              "internalType": "bytes",
              "name": "title",
              "type": "bytes"
            },
            {
              "internalType": "bytes",
              "name": "description",
              "type": "bytes"
            },
            {
              "internalType": "uint256",
              "name": "collectedAmount",
              "type": "uint256"
            },
            {
              "internalType": "uint256",
              "name": "targetAmount",
              "type": "uint256"
            },
            {
              "internalType": "bytes",
              "name": "message",
              "type": "bytes"
            },
            {
              "internalType": "bool",
              "name": "isClosed",
              "type": "bool"
            },
            {
              "internalType": "address",
              "name": "seller",
              "type": "address"
            }
          ],
          "internalType": "struct WishlistDonation.Wishlist",
          "name": "",
          "type": "tuple"
        }
      ],
      "stateMutability": "view",
      "type": "function"
    },
    {
      "inputs": [
        {
          "components": [
            {
              "internalType": "uint256",
              "name": "id",
              "type": "uint256"
            },
            {
              "internalType": "bytes",
              "name": "imgPath",
              "type": "bytes"
            },
            {
              "internalType": "bytes",
              "name": "title",
              "type": "bytes"
            },
            {
              "internalType": "bytes",
              "name": "description",
              "type": "bytes"
            },
            {
              "internalType": "uint256",
              "name": "collectedAmount",
              "type": "uint256"
            },
            {
              "internalType": "uint256",
              "name": "targetAmount",
              "type": "uint256"
            },
            {
              "internalType": "bytes",
              "name": "message",
              "type": "bytes"
            },
            {
              "internalType": "bool",
              "name": "isClosed",
              "type": "bool"
            },
            {
              "internalType": "address",
              "name": "seller",
              "type": "address"
            }
          ],
          "internalType": "struct WishlistDonation.Wishlist",
          "name": "_wishlist",
          "type": "tuple"
        }
      ],
      "name": "addMemberWishList",
      "outputs": [],
      "stateMutability": "nonpayable",
      "type": "function"
    },
    {
      "inputs": [
        {
          "internalType": "address",
          "name": "_address",
          "type": "address"
        },
        {
          "internalType": "uint256",
          "name": "_id",
          "type": "uint256"
        }
      ],
      "name": "deleteMemberWishlist",
      "outputs": [],
      "stateMutability": "nonpayable",
      "type": "function"
    },
    {
      "inputs": [
        {
          "internalType": "address",
          "name": "_address",
          "type": "address"
        },
        {
          "components": [
            {
              "internalType": "uint256",
              "name": "id",
              "type": "uint256"
            },
            {
              "internalType": "bytes",
              "name": "imgPath",
              "type": "bytes"
            },
            {
              "internalType": "bytes",
              "name": "title",
              "type": "bytes"
            },
            {
              "internalType": "bytes",
              "name": "description",
              "type": "bytes"
            },
            {
              "internalType": "uint256",
              "name": "collectedAmount",
              "type": "uint256"
            },
            {
              "internalType": "uint256",
              "name": "targetAmount",
              "type": "uint256"
            },
            {
              "internalType": "bytes",
              "name": "message",
              "type": "bytes"
            },
            {
              "internalType": "bool",
              "name": "isClosed",
              "type": "bool"
            },
            {
              "internalType": "address",
              "name": "seller",
              "type": "address"
            }
          ],
          "internalType": "struct WishlistDonation.Wishlist",
          "name": "_wishlist",
          "type": "tuple"
        }
      ],
      "name": "updateMemberWishlist",
      "outputs": [],
      "stateMutability": "nonpayable",
      "type": "function"
    },
    {
      "inputs": [
        {
          "internalType": "address",
          "name": "_address",
          "type": "address"
        },
        {
          "internalType": "uint256",
          "name": "_id",
          "type": "uint256"
        }
      ],
      "name": "getSupportDetail",
      "outputs": [
        {
          "components": [
            {
              "internalType": "uint256",
              "name": "id",
              "type": "uint256"
            },
            {
              "internalType": "address",
              "name": "from",
              "type": "address"
            },
            {
              "internalType": "address",
              "name": "to",
              "type": "address"
            },
            {
              "internalType": "uint256",
              "name": "amount",
              "type": "uint256"
            },
            {
              "internalType": "uint256",
              "name": "sendTimestamp",
              "type": "uint256"
            },
            {
              "internalType": "enum SupportHistory.SupportType",
              "name": "supportType",
              "type": "uint8"
            },
            {
              "internalType": "enum SupportHistory.SupportStatus",
              "name": "supportStatus",
              "type": "uint8"
            }
          ],
          "internalType": "struct SupportHistory.Support",
          "name": "",
          "type": "tuple"
        }
      ],
      "stateMutability": "view",
      "type": "function"
    },
    {
      "inputs": [
        {
          "internalType": "address",
          "name": "_address",
          "type": "address"
        }
      ],
      "name": "getSupportList",
      "outputs": [
        {
          "components": [
            {
              "internalType": "uint256",
              "name": "id",
              "type": "uint256"
            },
            {
              "internalType": "address",
              "name": "from",
              "type": "address"
            },
            {
              "internalType": "address",
              "name": "to",
              "type": "address"
            },
            {
              "internalType": "uint256",
              "name": "amount",
              "type": "uint256"
            },
            {
              "internalType": "uint256",
              "name": "sendTimestamp",
              "type": "uint256"
            },
            {
              "internalType": "enum SupportHistory.SupportType",
              "name": "supportType",
              "type": "uint8"
            },
            {
              "internalType": "enum SupportHistory.SupportStatus",
              "name": "supportStatus",
              "type": "uint8"
            }
          ],
          "internalType": "struct SupportHistory.Support[]",
          "name": "",
          "type": "tuple[]"
        }
      ],
      "stateMutability": "view",
      "type": "function"
    }
  ],
  "bytecode": "0x608060405234801561001057600080fd5b5033600960006101000a81548173ffffffffffffffffffffffffffffffffffffffff021916908373ffffffffffffffffffffffffffffffffffffffff1602179055506160ae80620000626000396000f3fe6080604052600436106101355760003560e01c8063ace4bf1b116100ab578063c15c82121161006f578063c15c82121461049c578063ccc933f9146104cc578063d18ef25914610509578063d83b8fd214610546578063dc83f47c14610589578063f84f8ea3146105c657610135565b8063ace4bf1b14610377578063b9a44c2e146103a0578063bde4472a146103dd578063be7dfa041461041a578063bfb231d21461045757610135565b8063408a6b06116100fd578063408a6b06146102295780635164b3b814610252578063692c95891461028f57806396e685cf146102b85780639d27b357146102f5578063a9afa55b1461033257610135565b80630c1fa1ef1461013a5780630d08685a14610177578063271df4c1146101a05780632ad17189146101d057806334435c8f14610200575b600080fd5b34801561014657600080fd5b50610161600480360381019061015c91906144c0565b6105ef565b60405161016e9190614506565b60405180910390f35b34801561018357600080fd5b5061019e60048036038101906101999190614825565b610607565b005b6101ba60048036038101906101b591906148ac565b610613565b6040516101c79190614506565b60405180910390f35b6101ea60048036038101906101e591906148d9565b610626565b6040516101f79190614506565b60405180910390f35b34801561020c57600080fd5b5061022760048036038101906102229190614a85565b61063b565b005b34801561023557600080fd5b50610250600480360381019061024b9190614ace565b610647565b005b34801561025e57600080fd5b5061027960048036038101906102749190614b2a565b610655565b6040516102869190614ce4565b60405180910390f35b34801561029b57600080fd5b506102b660048036038101906102b19190614d06565b61066d565b005b3480156102c457600080fd5b506102df60048036038101906102da91906144c0565b61067b565b6040516102ec9190614ee9565b60405180910390f35b34801561030157600080fd5b5061031c600480360381019061031791906144c0565b61071a565b6040516103299190615107565b60405180910390f35b34801561033e57600080fd5b5061035960048036038101906103549190614b2a565b61072c565b60405161036e99989796959493929190615191565b60405180910390f35b34801561038357600080fd5b5061039e60048036038101906103999190614a85565b6109c7565b005b3480156103ac57600080fd5b506103c760048036038101906103c29190614d06565b6109d3565b6040516103d49190614506565b60405180910390f35b3480156103e957600080fd5b5061040460048036038101906103ff9190614d06565b610a04565b60405161041191906152c8565b60405180910390f35b34801561042657600080fd5b50610441600480360381019061043c9190614d06565b610a1e565b60405161044e9190614506565b60405180910390f35b34801561046357600080fd5b5061047e60048036038101906104799190614b2a565b610a4f565b604051610493999897969594939291906152e3565b60405180910390f35b6104b660048036038101906104b191906148d9565b610d72565b6040516104c39190614506565b60405180910390f35b3480156104d857600080fd5b506104f360048036038101906104ee9190614d06565b610d87565b6040516105009190615393565b60405180910390f35b34801561051557600080fd5b50610530600480360381019061052b9190614b2a565b610db6565b60405161053d9190615488565b60405180910390f35b34801561055257600080fd5b5061056d60048036038101906105689190614d06565b610dce565b60405161058097969594939291906154c8565b60405180910390f35b34801561059557600080fd5b506105b060048036038101906105ab91906144c0565b610e77565b6040516105bd91906156d3565b60405180910390f35b3480156105d257600080fd5b506105ed60048036038101906105e89190614d06565b610f16565b005b60016020528060005260406000206000915090505481565b61061081610f24565b50565b600061061f82346110a3565b9050919050565b60006106338383346111ca565b905092915050565b61064481611632565b50565b61065182826117bd565b5050565b61065d6142f9565b61066682611976565b9050919050565b6106778282611d4e565b5050565b6060610713600360008473ffffffffffffffffffffffffffffffffffffffff1673ffffffffffffffffffffffffffffffffffffffff16815260200190815260200160002080548060200260200160405190810160405280929190818152602001828054801561070957602002820191906000526020600020905b8154815260200190600101908083116106f5575b5050505050612201565b9050919050565b6060610725826126a0565b9050919050565b600660205280600052604060002060009150905080600001549080600101805461075590615724565b80601f016020809104026020016040519081016040528092919081815260200182805461078190615724565b80156107ce5780601f106107a3576101008083540402835291602001916107ce565b820191906000526020600020905b8154815290600101906020018083116107b157829003601f168201915b5050505050908060020180546107e390615724565b80601f016020809104026020016040519081016040528092919081815260200182805461080f90615724565b801561085c5780601f106108315761010080835404028352916020019161085c565b820191906000526020600020905b81548152906001019060200180831161083f57829003601f168201915b50505050509080600301805461087190615724565b80601f016020809104026020016040519081016040528092919081815260200182805461089d90615724565b80156108ea5780601f106108bf576101008083540402835291602001916108ea565b820191906000526020600020905b8154815290600101906020018083116108cd57829003601f168201915b50505050509080600401549080600501549080600601805461090b90615724565b80601f016020809104026020016040519081016040528092919081815260200182805461093790615724565b80156109845780601f1061095957610100808354040283529160200191610984565b820191906000526020600020905b81548152906001019060200180831161096757829003601f168201915b5050505050908060070160009054906101000a900460ff16908060070160019054906101000a900473ffffffffffffffffffffffffffffffffffffffff16905089565b6109d08161291f565b50565b600760205281600052604060002081815481106109ef57600080fd5b90600052602060002001600091509150505481565b610a0c61435d565b610a168383612add565b905092915050565b60036020528160005260406000208181548110610a3a57600080fd5b90600052602060002001600091509150505481565b6002602052806000526040600020600091509050806000015490806001018054610a7890615724565b80601f0160208091040260200160405190810160405280929190818152602001828054610aa490615724565b8015610af15780601f10610ac657610100808354040283529160200191610af1565b820191906000526020600020905b815481529060010190602001808311610ad457829003601f168201915b505050505090806002018054610b0690615724565b80601f0160208091040260200160405190810160405280929190818152602001828054610b3290615724565b8015610b7f5780601f10610b5457610100808354040283529160200191610b7f565b820191906000526020600020905b815481529060010190602001808311610b6257829003601f168201915b505050505090806003018054610b9490615724565b80601f0160208091040260200160405190810160405280929190818152602001828054610bc090615724565b8015610c0d5780601f10610be257610100808354040283529160200191610c0d565b820191906000526020600020905b815481529060010190602001808311610bf057829003601f168201915b505050505090806004015490806005018054610c2890615724565b80601f0160208091040260200160405190810160405280929190818152602001828054610c5490615724565b8015610ca15780601f10610c7657610100808354040283529160200191610ca1565b820191906000526020600020905b815481529060010190602001808311610c8457829003601f168201915b505050505090806006018054610cb690615724565b80601f0160208091040260200160405190810160405280929190818152602001828054610ce290615724565b8015610d2f5780601f10610d0457610100808354040283529160200191610d2f565b820191906000526020600020905b815481529060010190602001808311610d1257829003601f168201915b5050505050908060070160009054906101000a900460ff16908060070160019054906101000a900473ffffffffffffffffffffffffffffffffffffffff16905089565b6000610d7f838334612d0f565b905092915050565b60056020528160005260406000206020528060005260406000206000915091509054906101000a900460ff1681565b610dbe6143ea565b610dc7826133c0565b9050919050565b6000602052816000526040600020602052806000526040600020600091509150508060000154908060010160009054906101000a900473ffffffffffffffffffffffffffffffffffffffff16908060020160009054906101000a900473ffffffffffffffffffffffffffffffffffffffff16908060030154908060040154908060050160009054906101000a900460ff16908060050160019054906101000a900460ff16905087565b6060610f0f600760008473ffffffffffffffffffffffffffffffffffffffff1673ffffffffffffffffffffffffffffffffffffffff168152602001908152602001600020805480602002602001604051908101604052809291908181526020018280548015610f0557602002820191906000526020600020905b815481526020019060010190808311610ef1575b5050505050613710565b9050919050565b610f208282613b27565b5050565b60086000815480929190610f3790615784565b919050555080600660006008548152602001908152602001600020600082015181600001556020820151816001019081610f719190615978565b506040820151816002019081610f879190615978565b506060820151816003019081610f9d9190615978565b506080820151816004015560a0820151816005015560c0820151816006019081610fc79190615978565b5060e08201518160070160006101000a81548160ff0219169083151502179055506101008201518160070160016101000a81548173ffffffffffffffffffffffffffffffffffffffff021916908373ffffffffffffffffffffffffffffffffffffffff1602179055509050506007600082610100015173ffffffffffffffffffffffffffffffffffffffff1673ffffffffffffffffffffffffffffffffffffffff168152602001908152602001600020600854908060018154018082558091505060019003906000526020600020016000909190919091505550565b6000478211156110e8576040517f08c379a00000000000000000000000000000000000000000000000000000000081526004016110df90615aa7565b60405180910390fd5b60006110f73385856000613f52565b905060008473ffffffffffffffffffffffffffffffffffffffff168460405161111f90615af8565b60006040518083038185875af1925050503d806000811461115c576040519150601f19603f3d011682016040523d82523d6000602084013e611161565b606091505b50509050806111b2576111773386846001614199565b6040517f08c379a00000000000000000000000000000000000000000000000000000000081526004016111a990615b59565b60405180910390fd5b6111bf3386846002614199565b819250505092915050565b60004782111561120f576040517f08c379a000000000000000000000000000000000000000000000000000000000815260040161120690615aa7565b60405180910390fd5b600061121e3386856002613f52565b9050600060066000868152602001908152602001600020604051806101200160405290816000820154815260200160018201805461125b90615724565b80601f016020809104026020016040519081016040528092919081815260200182805461128790615724565b80156112d45780601f106112a9576101008083540402835291602001916112d4565b820191906000526020600020905b8154815290600101906020018083116112b757829003601f168201915b505050505081526020016002820180546112ed90615724565b80601f016020809104026020016040519081016040528092919081815260200182805461131990615724565b80156113665780601f1061133b57610100808354040283529160200191611366565b820191906000526020600020905b81548152906001019060200180831161134957829003601f168201915b5050505050815260200160038201805461137f90615724565b80601f01602080910402602001604051908101604052809291908181526020018280546113ab90615724565b80156113f85780601f106113cd576101008083540402835291602001916113f8565b820191906000526020600020905b8154815290600101906020018083116113db57829003601f168201915b50505050508152602001600482015481526020016005820154815260200160068201805461142590615724565b80601f016020809104026020016040519081016040528092919081815260200182805461145190615724565b801561149e5780601f106114735761010080835404028352916020019161149e565b820191906000526020600020905b81548152906001019060200180831161148157829003601f168201915b505050505081526020016007820160009054906101000a900460ff161515151581526020016007820160019054906101000a900473ffffffffffffffffffffffffffffffffffffffff1673ffffffffffffffffffffffffffffffffffffffff1673ffffffffffffffffffffffffffffffffffffffff168152505090508060e001511561155f576040517f08c379a000000000000000000000000000000000000000000000000000000000815260040161155690615beb565b60405180910390fd5b60008673ffffffffffffffffffffffffffffffffffffffff168560405161158590615af8565b60006040518083038185875af1925050503d80600081146115c2576040519150601f19603f3d011682016040523d82523d6000602084013e6115c7565b606091505b5050905080611618576115dd3388856001614199565b6040517f08c379a000000000000000000000000000000000000000000000000000000000815260040161160f90615b59565b60405180910390fd5b6116253388856002614199565b8293505050509392505050565b6004600081548092919061164590615784565b91905055508060026000600454815260200190815260200160002060008201518160000155602082015181600101908161167f9190615978565b5060408201518160020190816116959190615978565b5060608201518160030190816116ab9190615978565b506080820151816004015560a08201518160050190816116cb9190615978565b5060c08201518160060190816116e19190615978565b5060e08201518160070160006101000a81548160ff0219169083151502179055506101008201518160070160016101000a81548173ffffffffffffffffffffffffffffffffffffffff021916908373ffffffffffffffffffffffffffffffffffffffff1602179055509050506003600082610100015173ffffffffffffffffffffffffffffffffffffffff1673ffffffffffffffffffffffffffffffffffffffff168152602001908152602001600020600454908060018154018082558091505060019003906000526020600020016000909190919091505550565b60085481600001511115611806576040517f08c379a00000000000000000000000000000000000000000000000000000000081526004016117fd90615c57565b60405180910390fd5b8173ffffffffffffffffffffffffffffffffffffffff1681610100015173ffffffffffffffffffffffffffffffffffffffff1614611879576040517f08c379a000000000000000000000000000000000000000000000000000000000815260040161187090615ce9565b60405180910390fd5b8060066000836000015181526020019081526020016000206000820151816000015560208201518160010190816118b09190615978565b5060408201518160020190816118c69190615978565b5060608201518160030190816118dc9190615978565b506080820151816004015560a0820151816005015560c08201518160060190816119069190615978565b5060e08201518160070160006101000a81548160ff0219169083151502179055506101008201518160070160016101000a81548173ffffffffffffffffffffffffffffffffffffffff021916908373ffffffffffffffffffffffffffffffffffffffff1602179055509050505050565b61197e6142f9565b6004548211156119c3576040517f08c379a00000000000000000000000000000000000000000000000000000000081526004016119ba90615c57565b60405180910390fd5b6000600260008481526020019081526020016000209050806040518061012001604052908160008201548152602001600182018054611a0190615724565b80601f0160208091040260200160405190810160405280929190818152602001828054611a2d90615724565b8015611a7a5780601f10611a4f57610100808354040283529160200191611a7a565b820191906000526020600020905b815481529060010190602001808311611a5d57829003601f168201915b50505050508152602001600282018054611a9390615724565b80601f0160208091040260200160405190810160405280929190818152602001828054611abf90615724565b8015611b0c5780601f10611ae157610100808354040283529160200191611b0c565b820191906000526020600020905b815481529060010190602001808311611aef57829003601f168201915b50505050508152602001600382018054611b2590615724565b80601f0160208091040260200160405190810160405280929190818152602001828054611b5190615724565b8015611b9e5780601f10611b7357610100808354040283529160200191611b9e565b820191906000526020600020905b815481529060010190602001808311611b8157829003601f168201915b5050505050815260200160048201548152602001600582018054611bc190615724565b80601f0160208091040260200160405190810160405280929190818152602001828054611bed90615724565b8015611c3a5780601f10611c0f57610100808354040283529160200191611c3a565b820191906000526020600020905b815481529060010190602001808311611c1d57829003601f168201915b50505050508152602001600682018054611c5390615724565b80601f0160208091040260200160405190810160405280929190818152602001828054611c7f90615724565b8015611ccc5780601f10611ca157610100808354040283529160200191611ccc565b820191906000526020600020905b815481529060010190602001808311611caf57829003601f168201915b505050505081526020016007820160009054906101000a900460ff161515151581526020016007820160019054906101000a900473ffffffffffffffffffffffffffffffffffffffff1673ffffffffffffffffffffffffffffffffffffffff1673ffffffffffffffffffffffffffffffffffffffff1681525050915050919050565b600454811115611d93576040517f08c379a0000000000000000000000000000000000000000000000000000000008152600401611d8a90615c57565b60405180910390fd5b6000600260008381526020019081526020016000206040518061012001604052908160008201548152602001600182018054611dce90615724565b80601f0160208091040260200160405190810160405280929190818152602001828054611dfa90615724565b8015611e475780601f10611e1c57610100808354040283529160200191611e47565b820191906000526020600020905b815481529060010190602001808311611e2a57829003601f168201915b50505050508152602001600282018054611e6090615724565b80601f0160208091040260200160405190810160405280929190818152602001828054611e8c90615724565b8015611ed95780601f10611eae57610100808354040283529160200191611ed9565b820191906000526020600020905b815481529060010190602001808311611ebc57829003601f168201915b50505050508152602001600382018054611ef290615724565b80601f0160208091040260200160405190810160405280929190818152602001828054611f1e90615724565b8015611f6b5780601f10611f4057610100808354040283529160200191611f6b565b820191906000526020600020905b815481529060010190602001808311611f4e57829003601f168201915b5050505050815260200160048201548152602001600582018054611f8e90615724565b80601f0160208091040260200160405190810160405280929190818152602001828054611fba90615724565b80156120075780601f10611fdc57610100808354040283529160200191612007565b820191906000526020600020905b815481529060010190602001808311611fea57829003601f168201915b5050505050815260200160068201805461202090615724565b80601f016020809104026020016040519081016040528092919081815260200182805461204c90615724565b80156120995780601f1061206e57610100808354040283529160200191612099565b820191906000526020600020905b81548152906001019060200180831161207c57829003601f168201915b505050505081526020016007820160009054906101000a900460ff161515151581526020016007820160019054906101000a900473ffffffffffffffffffffffffffffffffffffffff1673ffffffffffffffffffffffffffffffffffffffff1673ffffffffffffffffffffffffffffffffffffffff168152505090508060e001511561215a576040517f08c379a000000000000000000000000000000000000000000000000000000000815260040161215190615d55565b60405180910390fd5b8273ffffffffffffffffffffffffffffffffffffffff1681610100015173ffffffffffffffffffffffffffffffffffffffff16146121cd576040517f08c379a00000000000000000000000000000000000000000000000000000000081526004016121c490615dc1565b60405180910390fd5b60016002600084815260200190815260200160002060070160006101000a81548160ff021916908315150217905550505050565b60606000825167ffffffffffffffff8111156122205761221f614537565b5b60405190808252806020026020018201604052801561225957816020015b6122466142f9565b81526020019060019003908161223e5790505b50905060005b83518110156126965760045484828151811061227e5761227d615de1565b5b602002602001015111156122c7576040517f08c379a00000000000000000000000000000000000000000000000000000000081526004016122be90615c57565b60405180910390fd5b6000600260008684815181106122e0576122df615de1565b5b60200260200101518152602001908152602001600020905080604051806101200160405290816000820154815260200160018201805461231f90615724565b80601f016020809104026020016040519081016040528092919081815260200182805461234b90615724565b80156123985780601f1061236d57610100808354040283529160200191612398565b820191906000526020600020905b81548152906001019060200180831161237b57829003601f168201915b505050505081526020016002820180546123b190615724565b80601f01602080910402602001604051908101604052809291908181526020018280546123dd90615724565b801561242a5780601f106123ff5761010080835404028352916020019161242a565b820191906000526020600020905b81548152906001019060200180831161240d57829003601f168201915b5050505050815260200160038201805461244390615724565b80601f016020809104026020016040519081016040528092919081815260200182805461246f90615724565b80156124bc5780601f10612491576101008083540402835291602001916124bc565b820191906000526020600020905b81548152906001019060200180831161249f57829003601f168201915b50505050508152602001600482015481526020016005820180546124df90615724565b80601f016020809104026020016040519081016040528092919081815260200182805461250b90615724565b80156125585780601f1061252d57610100808354040283529160200191612558565b820191906000526020600020905b81548152906001019060200180831161253b57829003601f168201915b5050505050815260200160068201805461257190615724565b80601f016020809104026020016040519081016040528092919081815260200182805461259d90615724565b80156125ea5780601f106125bf576101008083540402835291602001916125ea565b820191906000526020600020905b8154815290600101906020018083116125cd57829003601f168201915b505050505081526020016007820160009054906101000a900460ff161515151581526020016007820160019054906101000a900473ffffffffffffffffffffffffffffffffffffffff1673ffffffffffffffffffffffffffffffffffffffff1673ffffffffffffffffffffffffffffffffffffffff168152505083838151811061267757612676615de1565b5b602002602001018190525050808061268e90615784565b91505061225f565b5080915050919050565b60606000600160008473ffffffffffffffffffffffffffffffffffffffff1673ffffffffffffffffffffffffffffffffffffffff16815260200190815260200160002054905060008167ffffffffffffffff81111561270257612701614537565b5b60405190808252806020026020018201604052801561273b57816020015b61272861435d565b8152602001906001900390816127205790505b50905060005b82811015612914576000808673ffffffffffffffffffffffffffffffffffffffff1673ffffffffffffffffffffffffffffffffffffffff16815260200190815260200160002060008281526020019081526020016000206040518060e0016040529081600082015481526020016001820160009054906101000a900473ffffffffffffffffffffffffffffffffffffffff1673ffffffffffffffffffffffffffffffffffffffff1673ffffffffffffffffffffffffffffffffffffffff1681526020016002820160009054906101000a900473ffffffffffffffffffffffffffffffffffffffff1673ffffffffffffffffffffffffffffffffffffffff1673ffffffffffffffffffffffffffffffffffffffff16815260200160038201548152602001600482015481526020016005820160009054906101000a900460ff16600281111561289257612891614f37565b5b60028111156128a4576128a3614f37565b5b81526020016005820160019054906101000a900460ff1660038111156128cd576128cc614f37565b5b60038111156128df576128de614f37565b5b815250508282815181106128f6576128f5615de1565b5b6020026020010181905250808061290c90615784565b915050612741565b508092505050919050565b60045481600001511115612968576040517f08c379a000000000000000000000000000000000000000000000000000000000815260040161295f90615c57565b60405180910390fd5b80600260008360000151815260200190815260200160002060008201518160000155602082015181600101908161299f9190615978565b5060408201518160020190816129b59190615978565b5060608201518160030190816129cb9190615978565b506080820151816004015560a08201518160050190816129eb9190615978565b5060c0820151816006019081612a019190615978565b5060e08201518160070160006101000a81548160ff0219169083151502179055506101008201518160070160016101000a81548173ffffffffffffffffffffffffffffffffffffffff021916908373ffffffffffffffffffffffffffffffffffffffff1602179055509050506003600082610100015173ffffffffffffffffffffffffffffffffffffffff1673ffffffffffffffffffffffffffffffffffffffff168152602001908152602001600020600454908060018154018082558091505060019003906000526020600020016000909190919091505550565b612ae561435d565b6000600160008573ffffffffffffffffffffffffffffffffffffffff1673ffffffffffffffffffffffffffffffffffffffff16815260200190815260200160002054905080831115612b6c576040517f08c379a0000000000000000000000000000000000000000000000000000000008152600401612b6390615c57565b60405180910390fd5b6000808573ffffffffffffffffffffffffffffffffffffffff1673ffffffffffffffffffffffffffffffffffffffff16815260200190815260200160002060008481526020019081526020016000206040518060e0016040529081600082015481526020016001820160009054906101000a900473ffffffffffffffffffffffffffffffffffffffff1673ffffffffffffffffffffffffffffffffffffffff1673ffffffffffffffffffffffffffffffffffffffff1681526020016002820160009054906101000a900473ffffffffffffffffffffffffffffffffffffffff1673ffffffffffffffffffffffffffffffffffffffff1673ffffffffffffffffffffffffffffffffffffffff16815260200160038201548152602001600482015481526020016005820160009054906101000a900460ff166002811115612cb557612cb4614f37565b5b6002811115612cc757612cc6614f37565b5b81526020016005820160019054906101000a900460ff166003811115612cf057612cef614f37565b5b6003811115612d0257612d01614f37565b5b8152505091505092915050565b600047821115612d54576040517f08c379a0000000000000000000000000000000000000000000000000000000008152600401612d4b90615aa7565b60405180910390fd5b6000612d633386856001613f52565b90506000600260008681526020019081526020016000206040518061012001604052908160008201548152602001600182018054612da090615724565b80601f0160208091040260200160405190810160405280929190818152602001828054612dcc90615724565b8015612e195780601f10612dee57610100808354040283529160200191612e19565b820191906000526020600020905b815481529060010190602001808311612dfc57829003601f168201915b50505050508152602001600282018054612e3290615724565b80601f0160208091040260200160405190810160405280929190818152602001828054612e5e90615724565b8015612eab5780601f10612e8057610100808354040283529160200191612eab565b820191906000526020600020905b815481529060010190602001808311612e8e57829003601f168201915b50505050508152602001600382018054612ec490615724565b80601f0160208091040260200160405190810160405280929190818152602001828054612ef090615724565b8015612f3d5780601f10612f1257610100808354040283529160200191612f3d565b820191906000526020600020905b815481529060010190602001808311612f2057829003601f168201915b5050505050815260200160048201548152602001600582018054612f6090615724565b80601f0160208091040260200160405190810160405280929190818152602001828054612f8c90615724565b8015612fd95780601f10612fae57610100808354040283529160200191612fd9565b820191906000526020600020905b815481529060010190602001808311612fbc57829003601f168201915b50505050508152602001600682018054612ff290615724565b80601f016020809104026020016040519081016040528092919081815260200182805461301e90615724565b801561306b5780601f106130405761010080835404028352916020019161306b565b820191906000526020600020905b81548152906001019060200180831161304e57829003601f168201915b505050505081526020016007820160009054906101000a900460ff161515151581526020016007820160019054906101000a900473ffffffffffffffffffffffffffffffffffffffff1673ffffffffffffffffffffffffffffffffffffffff1673ffffffffffffffffffffffffffffffffffffffff16815250509050806080015184101561312e576040517f08c379a000000000000000000000000000000000000000000000000000000000815260040161312590615e5c565b60405180910390fd5b8060e0015115613173576040517f08c379a000000000000000000000000000000000000000000000000000000000815260040161316a90615e5c565b60405180910390fd5b8573ffffffffffffffffffffffffffffffffffffffff1681610100015173ffffffffffffffffffffffffffffffffffffffff16146131e6576040517f08c379a00000000000000000000000000000000000000000000000000000000081526004016131dd90615eee565b60405180910390fd5b600560003373ffffffffffffffffffffffffffffffffffffffff1673ffffffffffffffffffffffffffffffffffffffff168152602001908152602001600020600086815260200190815260200160002060009054906101000a900460ff1615613284576040517f08c379a000000000000000000000000000000000000000000000000000000000815260040161327b90615f80565b60405180910390fd5b60008673ffffffffffffffffffffffffffffffffffffffff16856040516132aa90615af8565b60006040518083038185875af1925050503d80600081146132e7576040519150601f19603f3d011682016040523d82523d6000602084013e6132ec565b606091505b505090508061333d576133023388856001614199565b6040517f08c379a000000000000000000000000000000000000000000000000000000000815260040161333490615b59565b60405180910390fd5b61334a3388856002614199565b6001600560003373ffffffffffffffffffffffffffffffffffffffff1673ffffffffffffffffffffffffffffffffffffffff168152602001908152602001600020600088815260200190815260200160002060006101000a81548160ff0219169083151502179055508293505050509392505050565b6133c86143ea565b60085482111561340d576040517f08c379a000000000000000000000000000000000000000000000000000000000815260040161340490615c57565b60405180910390fd5b600060066000848152602001908152602001600020604051806101200160405290816000820154815260200160018201805461344890615724565b80601f016020809104026020016040519081016040528092919081815260200182805461347490615724565b80156134c15780601f10613496576101008083540402835291602001916134c1565b820191906000526020600020905b8154815290600101906020018083116134a457829003601f168201915b505050505081526020016002820180546134da90615724565b80601f016020809104026020016040519081016040528092919081815260200182805461350690615724565b80156135535780601f1061352857610100808354040283529160200191613553565b820191906000526020600020905b81548152906001019060200180831161353657829003601f168201915b5050505050815260200160038201805461356c90615724565b80601f016020809104026020016040519081016040528092919081815260200182805461359890615724565b80156135e55780601f106135ba576101008083540402835291602001916135e5565b820191906000526020600020905b8154815290600101906020018083116135c857829003601f168201915b50505050508152602001600482015481526020016005820154815260200160068201805461361290615724565b80601f016020809104026020016040519081016040528092919081815260200182805461363e90615724565b801561368b5780601f106136605761010080835404028352916020019161368b565b820191906000526020600020905b81548152906001019060200180831161366e57829003601f168201915b505050505081526020016007820160009054906101000a900460ff161515151581526020016007820160019054906101000a900473ffffffffffffffffffffffffffffffffffffffff1673ffffffffffffffffffffffffffffffffffffffff1673ffffffffffffffffffffffffffffffffffffffff1681525050905080915050919050565b60606000825167ffffffffffffffff81111561372f5761372e614537565b5b60405190808252806020026020018201604052801561376857816020015b6137556143ea565b81526020019060019003908161374d5790505b50905060005b8351811015613b1d5760085484828151811061378d5761378c615de1565b5b602002602001015111156137d6576040517f08c379a00000000000000000000000000000000000000000000000000000000081526004016137cd90615c57565b60405180910390fd5b6000600660008684815181106137ef576137ee615de1565b5b60200260200101518152602001908152602001600020905080604051806101200160405290816000820154815260200160018201805461382e90615724565b80601f016020809104026020016040519081016040528092919081815260200182805461385a90615724565b80156138a75780601f1061387c576101008083540402835291602001916138a7565b820191906000526020600020905b81548152906001019060200180831161388a57829003601f168201915b505050505081526020016002820180546138c090615724565b80601f01602080910402602001604051908101604052809291908181526020018280546138ec90615724565b80156139395780601f1061390e57610100808354040283529160200191613939565b820191906000526020600020905b81548152906001019060200180831161391c57829003601f168201915b5050505050815260200160038201805461395290615724565b80601f016020809104026020016040519081016040528092919081815260200182805461397e90615724565b80156139cb5780601f106139a0576101008083540402835291602001916139cb565b820191906000526020600020905b8154815290600101906020018083116139ae57829003601f168201915b5050505050815260200160048201548152602001600582015481526020016006820180546139f890615724565b80601f0160208091040260200160405190810160405280929190818152602001828054613a2490615724565b8015613a715780601f10613a4657610100808354040283529160200191613a71565b820191906000526020600020905b815481529060010190602001808311613a5457829003601f168201915b505050505081526020016007820160009054906101000a900460ff161515151581526020016007820160019054906101000a900473ffffffffffffffffffffffffffffffffffffffff1673ffffffffffffffffffffffffffffffffffffffff1673ffffffffffffffffffffffffffffffffffffffff1681525050838381518110613afe57613afd615de1565b5b6020026020010181905250508080613b1590615784565b91505061376e565b5080915050919050565b600854811115613b6c576040517f08c379a0000000000000000000000000000000000000000000000000000000008152600401613b6390615c57565b60405180910390fd5b6000600660008381526020019081526020016000206040518061012001604052908160008201548152602001600182018054613ba790615724565b80601f0160208091040260200160405190810160405280929190818152602001828054613bd390615724565b8015613c205780601f10613bf557610100808354040283529160200191613c20565b820191906000526020600020905b815481529060010190602001808311613c0357829003601f168201915b50505050508152602001600282018054613c3990615724565b80601f0160208091040260200160405190810160405280929190818152602001828054613c6590615724565b8015613cb25780601f10613c8757610100808354040283529160200191613cb2565b820191906000526020600020905b815481529060010190602001808311613c9557829003601f168201915b50505050508152602001600382018054613ccb90615724565b80601f0160208091040260200160405190810160405280929190818152602001828054613cf790615724565b8015613d445780601f10613d1957610100808354040283529160200191613d44565b820191906000526020600020905b815481529060010190602001808311613d2757829003601f168201915b505050505081526020016004820154815260200160058201548152602001600682018054613d7190615724565b80601f0160208091040260200160405190810160405280929190818152602001828054613d9d90615724565b8015613dea5780601f10613dbf57610100808354040283529160200191613dea565b820191906000526020600020905b815481529060010190602001808311613dcd57829003601f168201915b505050505081526020016007820160009054906101000a900460ff161515151581526020016007820160019054906101000a900473ffffffffffffffffffffffffffffffffffffffff1673ffffffffffffffffffffffffffffffffffffffff1673ffffffffffffffffffffffffffffffffffffffff168152505090508060e0015115613eab576040517f08c379a0000000000000000000000000000000000000000000000000000000008152600401613ea290615fec565b60405180910390fd5b8273ffffffffffffffffffffffffffffffffffffffff1681610100015173ffffffffffffffffffffffffffffffffffffffff1614613f1e576040517f08c379a0000000000000000000000000000000000000000000000000000000008152600401613f1590615ce9565b60405180910390fd5b60016006600084815260200190815260200160002060070160006101000a81548160ff021916908315150217905550505050565b600080600160008673ffffffffffffffffffffffffffffffffffffffff1673ffffffffffffffffffffffffffffffffffffffff1681526020019081526020016000206000815480929190613fa590615784565b9190505590506040518060e001604052808281526020018773ffffffffffffffffffffffffffffffffffffffff1681526020018673ffffffffffffffffffffffffffffffffffffffff16815260200185815260200142815260200184600281111561401357614012614f37565b5b81526020016000600381111561402c5761402b614f37565b5b8152506000808773ffffffffffffffffffffffffffffffffffffffff1673ffffffffffffffffffffffffffffffffffffffff16815260200190815260200160002060008381526020019081526020016000206000820151816000015560208201518160010160006101000a81548173ffffffffffffffffffffffffffffffffffffffff021916908373ffffffffffffffffffffffffffffffffffffffff16021790555060408201518160020160006101000a81548173ffffffffffffffffffffffffffffffffffffffff021916908373ffffffffffffffffffffffffffffffffffffffff160217905550606082015181600301556080820151816004015560a08201518160050160006101000a81548160ff0219169083600281111561415557614154614f37565b5b021790555060c08201518160050160016101000a81548160ff0219169083600381111561418557614184614f37565b5b021790555090505080915050949350505050565b8373ffffffffffffffffffffffffffffffffffffffff166000808573ffffffffffffffffffffffffffffffffffffffff1673ffffffffffffffffffffffffffffffffffffffff168152602001908152602001600020600084815260200190815260200160002060010160009054906101000a900473ffffffffffffffffffffffffffffffffffffffff1673ffffffffffffffffffffffffffffffffffffffff1614614279576040517f08c379a000000000000000000000000000000000000000000000000000000000815260040161427090616058565b60405180910390fd5b806000808573ffffffffffffffffffffffffffffffffffffffff1673ffffffffffffffffffffffffffffffffffffffff168152602001908152602001600020600084815260200190815260200160002060050160016101000a81548160ff021916908360038111156142ee576142ed614f37565b5b021790555050505050565b60405180610120016040528060008152602001606081526020016060815260200160608152602001600081526020016060815260200160608152602001600015158152602001600073ffffffffffffffffffffffffffffffffffffffff1681525090565b6040518060e0016040528060008152602001600073ffffffffffffffffffffffffffffffffffffffff168152602001600073ffffffffffffffffffffffffffffffffffffffff1681526020016000815260200160008152602001600060028111156143cb576143ca614f37565b5b8152602001600060038111156143e4576143e3614f37565b5b81525090565b60405180610120016040528060008152602001606081526020016060815260200160608152602001600081526020016000815260200160608152602001600015158152602001600073ffffffffffffffffffffffffffffffffffffffff1681525090565b6000604051905090565b600080fd5b600080fd5b600073ffffffffffffffffffffffffffffffffffffffff82169050919050565b600061448d82614462565b9050919050565b61449d81614482565b81146144a857600080fd5b50565b6000813590506144ba81614494565b92915050565b6000602082840312156144d6576144d5614458565b5b60006144e4848285016144ab565b91505092915050565b6000819050919050565b614500816144ed565b82525050565b600060208201905061451b60008301846144f7565b92915050565b600080fd5b6000601f19601f8301169050919050565b7f4e487b7100000000000000000000000000000000000000000000000000000000600052604160045260246000fd5b61456f82614526565b810181811067ffffffffffffffff8211171561458e5761458d614537565b5b80604052505050565b60006145a161444e565b90506145ad8282614566565b919050565b600080fd5b6145c0816144ed565b81146145cb57600080fd5b50565b6000813590506145dd816145b7565b92915050565b600080fd5b600080fd5b600067ffffffffffffffff82111561460857614607614537565b5b61461182614526565b9050602081019050919050565b82818337600083830152505050565b600061464061463b846145ed565b614597565b90508281526020810184848401111561465c5761465b6145e8565b5b61466784828561461e565b509392505050565b600082601f830112614684576146836145e3565b5b813561469484826020860161462d565b91505092915050565b60008115159050919050565b6146b28161469d565b81146146bd57600080fd5b50565b6000813590506146cf816146a9565b92915050565b600061012082840312156146ec576146eb614521565b5b6146f7610120614597565b90506000614707848285016145ce565b600083015250602082013567ffffffffffffffff81111561472b5761472a6145b2565b5b6147378482850161466f565b602083015250604082013567ffffffffffffffff81111561475b5761475a6145b2565b5b6147678482850161466f565b604083015250606082013567ffffffffffffffff81111561478b5761478a6145b2565b5b6147978482850161466f565b60608301525060806147ab848285016145ce565b60808301525060a06147bf848285016145ce565b60a08301525060c082013567ffffffffffffffff8111156147e3576147e26145b2565b5b6147ef8482850161466f565b60c08301525060e0614803848285016146c0565b60e083015250610100614818848285016144ab565b6101008301525092915050565b60006020828403121561483b5761483a614458565b5b600082013567ffffffffffffffff8111156148595761485861445d565b5b614865848285016146d5565b91505092915050565b600061487982614462565b9050919050565b6148898161486e565b811461489457600080fd5b50565b6000813590506148a681614880565b92915050565b6000602082840312156148c2576148c1614458565b5b60006148d084828501614897565b91505092915050565b600080604083850312156148f0576148ef614458565b5b60006148fe85828601614897565b925050602061490f858286016145ce565b9150509250929050565b600061012082840312156149305761492f614521565b5b61493b610120614597565b9050600061494b848285016145ce565b600083015250602082013567ffffffffffffffff81111561496f5761496e6145b2565b5b61497b8482850161466f565b602083015250604082013567ffffffffffffffff81111561499f5761499e6145b2565b5b6149ab8482850161466f565b604083015250606082013567ffffffffffffffff8111156149cf576149ce6145b2565b5b6149db8482850161466f565b60608301525060806149ef848285016145ce565b60808301525060a082013567ffffffffffffffff811115614a1357614a126145b2565b5b614a1f8482850161466f565b60a08301525060c082013567ffffffffffffffff811115614a4357614a426145b2565b5b614a4f8482850161466f565b60c08301525060e0614a63848285016146c0565b60e083015250610100614a78848285016144ab565b6101008301525092915050565b600060208284031215614a9b57614a9a614458565b5b600082013567ffffffffffffffff811115614ab957614ab861445d565b5b614ac584828501614919565b91505092915050565b60008060408385031215614ae557614ae4614458565b5b6000614af3858286016144ab565b925050602083013567ffffffffffffffff811115614b1457614b1361445d565b5b614b20858286016146d5565b9150509250929050565b600060208284031215614b4057614b3f614458565b5b6000614b4e848285016145ce565b91505092915050565b614b60816144ed565b82525050565b600081519050919050565b600082825260208201905092915050565b60005b83811015614ba0578082015181840152602081019050614b85565b60008484015250505050565b6000614bb782614b66565b614bc18185614b71565b9350614bd1818560208601614b82565b614bda81614526565b840191505092915050565b614bee8161469d565b82525050565b614bfd81614482565b82525050565b600061012083016000830151614c1c6000860182614b57565b5060208301518482036020860152614c348282614bac565b91505060408301518482036040860152614c4e8282614bac565b91505060608301518482036060860152614c688282614bac565b9150506080830151614c7d6080860182614b57565b5060a083015184820360a0860152614c958282614bac565b91505060c083015184820360c0860152614caf8282614bac565b91505060e0830151614cc460e0860182614be5565b50610100830151614cd9610100860182614bf4565b508091505092915050565b60006020820190508181036000830152614cfe8184614c03565b905092915050565b60008060408385031215614d1d57614d1c614458565b5b6000614d2b858286016144ab565b9250506020614d3c858286016145ce565b9150509250929050565b600081519050919050565b600082825260208201905092915050565b6000819050602082019050919050565b600061012083016000830151614d8b6000860182614b57565b5060208301518482036020860152614da38282614bac565b91505060408301518482036040860152614dbd8282614bac565b91505060608301518482036060860152614dd78282614bac565b9150506080830151614dec6080860182614b57565b5060a083015184820360a0860152614e048282614bac565b91505060c083015184820360c0860152614e1e8282614bac565b91505060e0830151614e3360e0860182614be5565b50610100830151614e48610100860182614bf4565b508091505092915050565b6000614e5f8383614d72565b905092915050565b6000602082019050919050565b6000614e7f82614d46565b614e898185614d51565b935083602082028501614e9b85614d62565b8060005b85811015614ed75784840389528151614eb88582614e53565b9450614ec383614e67565b925060208a01995050600181019050614e9f565b50829750879550505050505092915050565b60006020820190508181036000830152614f038184614e74565b905092915050565b600081519050919050565b600082825260208201905092915050565b6000819050602082019050919050565b7f4e487b7100000000000000000000000000000000000000000000000000000000600052602160045260246000fd5b60038110614f7757614f76614f37565b5b50565b6000819050614f8882614f66565b919050565b6000614f9882614f7a565b9050919050565b614fa881614f8d565b82525050565b60048110614fbf57614fbe614f37565b5b50565b6000819050614fd082614fae565b919050565b6000614fe082614fc2565b9050919050565b614ff081614fd5565b82525050565b60e08201600082015161500c6000850182614b57565b50602082015161501f6020850182614bf4565b5060408201516150326040850182614bf4565b5060608201516150456060850182614b57565b5060808201516150586080850182614b57565b5060a082015161506b60a0850182614f9f565b5060c082015161507e60c0850182614fe7565b50505050565b60006150908383614ff6565b60e08301905092915050565b6000602082019050919050565b60006150b482614f0b565b6150be8185614f16565b93506150c983614f27565b8060005b838110156150fa5781516150e18882615084565b97506150ec8361509c565b9250506001810190506150cd565b5085935050505092915050565b6000602082019050818103600083015261512181846150a9565b905092915050565b600082825260208201905092915050565b600061514582614b66565b61514f8185615129565b935061515f818560208601614b82565b61516881614526565b840191505092915050565b61517c8161469d565b82525050565b61518b81614482565b82525050565b6000610120820190506151a7600083018c6144f7565b81810360208301526151b9818b61513a565b905081810360408301526151cd818a61513a565b905081810360608301526151e1818961513a565b90506151f060808301886144f7565b6151fd60a08301876144f7565b81810360c083015261520f818661513a565b905061521e60e0830185615173565b61522c610100830184615182565b9a9950505050505050505050565b60e0820160008201516152506000850182614b57565b5060208201516152636020850182614bf4565b5060408201516152766040850182614bf4565b5060608201516152896060850182614b57565b50608082015161529c6080850182614b57565b5060a08201516152af60a0850182614f9f565b5060c08201516152c260c0850182614fe7565b50505050565b600060e0820190506152dd600083018461523a565b92915050565b6000610120820190506152f9600083018c6144f7565b818103602083015261530b818b61513a565b9050818103604083015261531f818a61513a565b90508181036060830152615333818961513a565b905061534260808301886144f7565b81810360a0830152615354818761513a565b905081810360c0830152615368818661513a565b905061537760e0830185615173565b615385610100830184615182565b9a9950505050505050505050565b60006020820190506153a86000830184615173565b92915050565b6000610120830160008301516153c76000860182614b57565b50602083015184820360208601526153df8282614bac565b915050604083015184820360408601526153f98282614bac565b915050606083015184820360608601526154138282614bac565b91505060808301516154286080860182614b57565b5060a083015161543b60a0860182614b57565b5060c083015184820360c08601526154538282614bac565b91505060e083015161546860e0860182614be5565b5061010083015161547d610100860182614bf4565b508091505092915050565b600060208201905081810360008301526154a281846153ae565b905092915050565b6154b381614f8d565b82525050565b6154c281614fd5565b82525050565b600060e0820190506154dd600083018a6144f7565b6154ea6020830189615182565b6154f76040830188615182565b61550460608301876144f7565b61551160808301866144f7565b61551e60a08301856154aa565b61552b60c08301846154b9565b98975050505050505050565b600081519050919050565b600082825260208201905092915050565b6000819050602082019050919050565b60006101208301600083015161557c6000860182614b57565b50602083015184820360208601526155948282614bac565b915050604083015184820360408601526155ae8282614bac565b915050606083015184820360608601526155c88282614bac565b91505060808301516155dd6080860182614b57565b5060a08301516155f060a0860182614b57565b5060c083015184820360c08601526156088282614bac565b91505060e083015161561d60e0860182614be5565b50610100830151615632610100860182614bf4565b508091505092915050565b60006156498383615563565b905092915050565b6000602082019050919050565b600061566982615537565b6156738185615542565b93508360208202850161568585615553565b8060005b858110156156c157848403895281516156a2858261563d565b94506156ad83615651565b925060208a01995050600181019050615689565b50829750879550505050505092915050565b600060208201905081810360008301526156ed818461565e565b905092915050565b7f4e487b7100000000000000000000000000000000000000000000000000000000600052602260045260246000fd5b6000600282049050600182168061573c57607f821691505b60208210810361574f5761574e6156f5565b5b50919050565b7f4e487b7100000000000000000000000000000000000000000000000000000000600052601160045260246000fd5b600061578f826144ed565b91507fffffffffffffffffffffffffffffffffffffffffffffffffffffffffffffffff82036157c1576157c0615755565b5b600182019050919050565b60008190508160005260206000209050919050565b60006020601f8301049050919050565b600082821b905092915050565b60006008830261582e7fffffffffffffffffffffffffffffffffffffffffffffffffffffffffffffffff826157f1565b61583886836157f1565b95508019841693508086168417925050509392505050565b6000819050919050565b600061587561587061586b846144ed565b615850565b6144ed565b9050919050565b6000819050919050565b61588f8361585a565b6158a361589b8261587c565b8484546157fe565b825550505050565b600090565b6158b86158ab565b6158c3818484615886565b505050565b5b818110156158e7576158dc6000826158b0565b6001810190506158c9565b5050565b601f82111561592c576158fd816157cc565b615906846157e1565b81016020851015615915578190505b615929615921856157e1565b8301826158c8565b50505b505050565b600082821c905092915050565b600061594f60001984600802615931565b1980831691505092915050565b6000615968838361593e565b9150826002028217905092915050565b61598182614b66565b67ffffffffffffffff81111561599a57615999614537565b5b6159a48254615724565b6159af8282856158eb565b600060209050601f8311600181146159e257600084156159d0578287015190505b6159da858261595c565b865550615a42565b601f1984166159f0866157cc565b60005b82811015615a18578489015182556001820191506020850194506020810190506159f3565b86831015615a355784890151615a31601f89168261593e565b8355505b6001600288020188555050505b505050505050565b600082825260208201905092915050565b7f496e73756666696369656e742062616c616e6365000000000000000000000000600082015250565b6000615a91601483615a4a565b9150615a9c82615a5b565b602082019050919050565b60006020820190508181036000830152615ac081615a84565b9050919050565b600081905092915050565b50565b6000615ae2600083615ac7565b9150615aed82615ad2565b600082019050919050565b6000615b0382615ad5565b9150819050919050565b7f5472616e7366657220746f20776973686c6973744f776e6572206661696c6564600082015250565b6000615b43602083615a4a565b9150615b4e82615b0d565b602082019050919050565b60006020820190508181036000830152615b7281615b36565b9050919050565b7f546869732066756e6472616973696e672063616d706169676e20666f7220746860008201527f6520776973686c6973742068617320636c6f7365642e00000000000000000000602082015250565b6000615bd5603683615a4a565b9150615be082615b79565b604082019050919050565b60006020820190508181036000830152615c0481615bc8565b9050919050565b7f496e76616c696420696e64657800000000000000000000000000000000000000600082015250565b6000615c41600d83615a4a565b9150615c4c82615c0b565b602082019050919050565b60006020820190508181036000830152615c7081615c34565b9050919050565b7f596f7520646f206e6f7420686176652074686520617574686f7269747920746f60008201527f20636c6f73652074686520776973686c69737400000000000000000000000000602082015250565b6000615cd3603383615a4a565b9150615cde82615c77565b604082019050919050565b60006020820190508181036000830152615d0281615cc6565b9050919050565b7f4974656d20646f6573206e6f7420657869737400000000000000000000000000600082015250565b6000615d3f601383615a4a565b9150615d4a82615d09565b602082019050919050565b60006020820190508181036000830152615d6e81615d32565b9050919050565b7f596f7520617265206e6f742073656c6c65720000000000000000000000000000600082015250565b6000615dab601283615a4a565b9150615db682615d75565b602082019050919050565b60006020820190508181036000830152615dda81615d9e565b9050919050565b7f4e487b7100000000000000000000000000000000000000000000000000000000600052603260045260246000fd5b7f496e73756666696369656e74207061796d656e74000000000000000000000000600082015250565b6000615e46601483615a4a565b9150615e5182615e10565b602082019050919050565b60006020820190508181036000830152615e7581615e39565b9050919050565b7f546869732061646472657373206973206e6f7420746865206974656d2773207360008201527f656c6c65722e0000000000000000000000000000000000000000000000000000602082015250565b6000615ed8602683615a4a565b9150615ee382615e7c565b604082019050919050565b60006020820190508181036000830152615f0781615ecb565b9050919050565b7f54686973206974656d2068617320616c7265616479206265656e20707572636860008201527f617365642e000000000000000000000000000000000000000000000000000000602082015250565b6000615f6a602583615a4a565b9150615f7582615f0e565b604082019050919050565b60006020820190508181036000830152615f9981615f5d565b9050919050565b7f54686520776973686c6973742068617320616c726561647920636c6f73656400600082015250565b6000615fd6601f83615a4a565b9150615fe182615fa0565b602082019050919050565b6000602082019050818103600083015261600581615fc9565b9050919050565b7f49742773204e6f7420796f757220737570706f727420686973746f7279000000600082015250565b6000616042601d83615a4a565b915061604d8261600c565b602082019050919050565b6000602082019050818103600083015261607181616035565b905091905056fea2646970667358221220a47ebc0bd9ab91af9fb65b1923f6119fa99c1a7559139331cc6ef33c49b5dc9e64736f6c63430008120033",
  "immutableReferences": {},
  "source": "// SPDX-License-Identifier: MIT\r\npragma solidity >= 0.6.0 <0.9.0;\r\n\r\nimport \"./ItemDonation.sol\";\r\nimport \"./BasicDonation.sol\";\r\nimport \"./WishlistDonation.sol\";\r\n\r\ncontract ApplicationHandler is ItemDonation, BasicDonation, WishlistDonation {\r\n  address owner;\r\n\r\n  constructor(){\r\n    owner = msg.sender;\r\n  }\r\n\r\n  // ================= Frontend Call =================\r\n  //   \r\n  function callBasicDonation(address payable _to) external payable returns(uint256) {\r\n    return _transfer(_to, msg.value);\r\n  }\r\n  //  \r\n  function buyItemDonation(address payable _to, uint256 _itemId) external payable returns(uint256) {\r\n    return _buyItem(_to, _itemId, msg.value);\r\n  }\r\n  //   \r\n  function buyWishilistDonation(address payable _to, uint256 _wishlistId) external payable returns(uint256) {\r\n    return _buyWishlist(_to, _wishlistId, msg.value);\r\n  }\r\n\r\n  // ================= Backend Call =================\r\n  //      \r\n  function getMemberItemList(address _address) external view returns(Item[] memory){\r\n    return _getItemList(myItems[_address]);\r\n  }\r\n\r\n  //    \r\n  function getItemDetail(uint256 _id) external view returns(Item memory){\r\n    return _getItemDetail(_id);\r\n  }\r\n\r\n  //   \r\n  function addMemberItem(Item memory _item) external{\r\n    _createItem(_item);\r\n  }\r\n\r\n  //   \r\n  function deleteMemberItem(address _address, uint256 _id) external {\r\n    _deleteItem(_address, _id);\r\n  }\r\n\r\n  //   \r\n  function updateMemberItem(Item memory _item) external {\r\n    _updateItem(_item);\r\n  }\r\n\r\n  //    \r\n  function getMemberWishLists(address _address) external view returns(Wishlist[] memory){\r\n    return _getWishlists(myWishlists[_address]);\r\n  }\r\n\r\n  //    \r\n  function getMemberWishListDetail(uint256 _id) external view returns(Wishlist memory){\r\n    return _getWishlistDetail(_id);\r\n  }\r\n\r\n  //   \r\n  function addMemberWishList(Wishlist memory _wishlist) external{\r\n    _createWishlist(_wishlist);\r\n  }\r\n\r\n  //   \r\n  function deleteMemberWishlist(address _address, uint256 _id) external {\r\n    _deleteWishlist(_address, _id);\r\n  }\r\n\r\n  //   \r\n  function updateMemberWishlist(address _address, Wishlist memory _wishlist) external {\r\n    _updateWishlist(_address, _wishlist);\r\n  }\r\n\r\n  //    \r\n  function getSupportDetail(address _address, uint256 _id) external view returns(Support memory){\r\n    return _getSupportDetail(_address, _id);\r\n  }\r\n\r\n  //    \r\n  function getSupportList(address _address) external view returns(Support[] memory){\r\n    return _getSupportList(_address);\r\n  }\r\n\r\n}",
  "sourcePath": "C:\\Users\\SSAFY\\Desktop\\S08P22A209\\contract\\contracts\\ApplicationHandler.sol",
  "compiler": {
    "name": "solc",
    "version": "0.8.18+commit.87f61d96.Emscripten.clang"
  },
  "schemaVersion": "3.4.13",
  "updatedAt": "2023-03-20T07:52:01.340Z",
  "devdoc": {
    "kind": "dev",
    "methods": {},
    "version": 1
  },
  "userdoc": {
    "kind": "user",
    "methods": {},
    "version": 1
  }
}