{
  "contractName": "ApplicationHandler",
  "abi": [
    {
      "inputs": [],
      "stateMutability": "nonpayable",
      "type": "constructor"
    },
    {
      "inputs": [
        {
          "internalType": "uint256",
          "name": "",
          "type": "uint256"
        }
      ],
      "name": "items",
      "outputs": [
        {
          "internalType": "uint256",
          "name": "id",
          "type": "uint256"
        },
        {
          "internalType": "bytes",
          "name": "title",
          "type": "bytes"
        },
        {
          "internalType": "bytes",
          "name": "imgPath",
          "type": "bytes"
        },
        {
          "internalType": "bytes",
          "name": "description",
          "type": "bytes"
        },
        {
          "internalType": "uint256",
          "name": "price",
          "type": "uint256"
        },
        {
          "internalType": "bytes",
          "name": "message",
          "type": "bytes"
        },
        {
          "internalType": "bytes",
          "name": "filePath",
          "type": "bytes"
        },
        {
          "internalType": "bool",
          "name": "isDeleted",
          "type": "bool"
        },
        {
          "internalType": "address",
          "name": "seller",
          "type": "address"
        }
      ],
      "stateMutability": "view",
      "type": "function"
    },
    {
      "inputs": [
        {
          "internalType": "address",
          "name": "",
          "type": "address"
        },
        {
          "internalType": "uint256",
          "name": "",
          "type": "uint256"
        }
      ],
      "name": "myItems",
      "outputs": [
        {
          "internalType": "uint256",
          "name": "",
          "type": "uint256"
        }
      ],
      "stateMutability": "view",
      "type": "function"
    },
    {
      "inputs": [
        {
          "internalType": "address",
          "name": "",
          "type": "address"
        },
        {
          "internalType": "uint256",
          "name": "",
          "type": "uint256"
        }
      ],
      "name": "myWishlists",
      "outputs": [
        {
          "internalType": "uint256",
          "name": "",
          "type": "uint256"
        }
      ],
      "stateMutability": "view",
      "type": "function"
    },
    {
      "inputs": [
        {
          "internalType": "address",
          "name": "",
          "type": "address"
        },
        {
          "internalType": "uint256",
          "name": "",
          "type": "uint256"
        }
      ],
      "name": "purchasedItems",
      "outputs": [
        {
          "internalType": "bool",
          "name": "",
          "type": "bool"
        }
      ],
      "stateMutability": "view",
      "type": "function"
    },
    {
      "inputs": [
        {
          "internalType": "address",
          "name": "",
          "type": "address"
        }
      ],
      "name": "supportCount",
      "outputs": [
        {
          "internalType": "uint256",
          "name": "",
          "type": "uint256"
        }
      ],
      "stateMutability": "view",
      "type": "function"
    },
    {
      "inputs": [
        {
          "internalType": "address",
          "name": "",
          "type": "address"
        },
        {
          "internalType": "uint256",
          "name": "",
          "type": "uint256"
        }
      ],
      "name": "supportList",
      "outputs": [
        {
          "internalType": "uint256",
          "name": "id",
          "type": "uint256"
        },
        {
          "internalType": "address",
          "name": "from",
          "type": "address"
        },
        {
          "internalType": "address",
          "name": "to",
          "type": "address"
        },
        {
          "internalType": "uint256",
          "name": "amount",
          "type": "uint256"
        },
        {
          "internalType": "uint256",
          "name": "sendTimestamp",
          "type": "uint256"
        },
        {
          "internalType": "enum SupportHistory.SupportType",
          "name": "supportType",
          "type": "uint8"
        },
        {
          "internalType": "enum SupportHistory.SupportStatus",
          "name": "supportStatus",
          "type": "uint8"
        }
      ],
      "stateMutability": "view",
      "type": "function"
    },
    {
      "inputs": [
        {
          "internalType": "uint256",
          "name": "",
          "type": "uint256"
        }
      ],
      "name": "wishlists",
      "outputs": [
        {
          "internalType": "uint256",
          "name": "id",
          "type": "uint256"
        },
        {
          "internalType": "bytes",
          "name": "imgPath",
          "type": "bytes"
        },
        {
          "internalType": "bytes",
          "name": "title",
          "type": "bytes"
        },
        {
          "internalType": "bytes",
          "name": "description",
          "type": "bytes"
        },
        {
          "internalType": "uint256",
          "name": "collectedAmount",
          "type": "uint256"
        },
        {
          "internalType": "uint256",
          "name": "targetAmount",
          "type": "uint256"
        },
        {
          "internalType": "bytes",
          "name": "message",
          "type": "bytes"
        },
        {
          "internalType": "bool",
          "name": "isClosed",
          "type": "bool"
        },
        {
          "internalType": "address",
          "name": "seller",
          "type": "address"
        }
      ],
      "stateMutability": "view",
      "type": "function"
    },
    {
      "inputs": [
        {
          "internalType": "address payable",
          "name": "_to",
          "type": "address"
        }
      ],
      "name": "callBasicDonation",
      "outputs": [
        {
          "internalType": "uint256",
          "name": "",
          "type": "uint256"
        }
      ],
      "stateMutability": "payable",
      "type": "function"
    },
    {
      "inputs": [
        {
          "internalType": "address payable",
          "name": "_to",
          "type": "address"
        },
        {
          "internalType": "uint256",
          "name": "_itemId",
          "type": "uint256"
        }
      ],
      "name": "buyItemDonation",
      "outputs": [
        {
          "internalType": "uint256",
          "name": "",
          "type": "uint256"
        }
      ],
      "stateMutability": "payable",
      "type": "function"
    },
    {
      "inputs": [
        {
          "internalType": "address payable",
          "name": "_to",
          "type": "address"
        },
        {
          "internalType": "uint256",
          "name": "_wishlistId",
          "type": "uint256"
        }
      ],
      "name": "buyWishilistDonation",
      "outputs": [
        {
          "internalType": "uint256",
          "name": "",
          "type": "uint256"
        }
      ],
      "stateMutability": "payable",
      "type": "function"
    },
    {
      "inputs": [
        {
          "internalType": "address",
          "name": "_address",
          "type": "address"
        }
      ],
      "name": "getMemberItemList",
      "outputs": [
        {
          "components": [
            {
              "internalType": "uint256",
              "name": "id",
              "type": "uint256"
            },
            {
              "internalType": "bytes",
              "name": "title",
              "type": "bytes"
            },
            {
              "internalType": "bytes",
              "name": "imgPath",
              "type": "bytes"
            },
            {
              "internalType": "bytes",
              "name": "description",
              "type": "bytes"
            },
            {
              "internalType": "uint256",
              "name": "price",
              "type": "uint256"
            },
            {
              "internalType": "bytes",
              "name": "message",
              "type": "bytes"
            },
            {
              "internalType": "bytes",
              "name": "filePath",
              "type": "bytes"
            },
            {
              "internalType": "bool",
              "name": "isDeleted",
              "type": "bool"
            },
            {
              "internalType": "address",
              "name": "seller",
              "type": "address"
            }
          ],
          "internalType": "struct ItemDonation.ItemSol[]",
          "name": "",
          "type": "tuple[]"
        }
      ],
      "stateMutability": "view",
      "type": "function"
    },
    {
      "inputs": [
        {
          "internalType": "uint256",
          "name": "_id",
          "type": "uint256"
        }
      ],
      "name": "getItemDetail",
      "outputs": [
        {
          "components": [
            {
              "internalType": "uint256",
              "name": "id",
              "type": "uint256"
            },
            {
              "internalType": "bytes",
              "name": "title",
              "type": "bytes"
            },
            {
              "internalType": "bytes",
              "name": "imgPath",
              "type": "bytes"
            },
            {
              "internalType": "bytes",
              "name": "description",
              "type": "bytes"
            },
            {
              "internalType": "uint256",
              "name": "price",
              "type": "uint256"
            },
            {
              "internalType": "bytes",
              "name": "message",
              "type": "bytes"
            },
            {
              "internalType": "bytes",
              "name": "filePath",
              "type": "bytes"
            },
            {
              "internalType": "bool",
              "name": "isDeleted",
              "type": "bool"
            },
            {
              "internalType": "address",
              "name": "seller",
              "type": "address"
            }
          ],
          "internalType": "struct ItemDonation.ItemSol",
          "name": "",
          "type": "tuple"
        }
      ],
      "stateMutability": "view",
      "type": "function"
    },
    {
      "inputs": [
        {
          "components": [
            {
              "internalType": "uint256",
              "name": "id",
              "type": "uint256"
            },
            {
              "internalType": "bytes",
              "name": "title",
              "type": "bytes"
            },
            {
              "internalType": "bytes",
              "name": "imgPath",
              "type": "bytes"
            },
            {
              "internalType": "bytes",
              "name": "description",
              "type": "bytes"
            },
            {
              "internalType": "uint256",
              "name": "price",
              "type": "uint256"
            },
            {
              "internalType": "bytes",
              "name": "message",
              "type": "bytes"
            },
            {
              "internalType": "bytes",
              "name": "filePath",
              "type": "bytes"
            },
            {
              "internalType": "bool",
              "name": "isDeleted",
              "type": "bool"
            },
            {
              "internalType": "address",
              "name": "seller",
              "type": "address"
            }
          ],
          "internalType": "struct ItemDonation.ItemSol",
          "name": "_item",
          "type": "tuple"
        }
      ],
      "name": "addMemberItem",
      "outputs": [],
      "stateMutability": "nonpayable",
      "type": "function"
    },
    {
      "inputs": [
        {
          "internalType": "address",
          "name": "_address",
          "type": "address"
        },
        {
          "internalType": "uint256",
          "name": "_id",
          "type": "uint256"
        }
      ],
      "name": "deleteMemberItem",
      "outputs": [],
      "stateMutability": "nonpayable",
      "type": "function"
    },
    {
      "inputs": [
        {
          "components": [
            {
              "internalType": "uint256",
              "name": "id",
              "type": "uint256"
            },
            {
              "internalType": "bytes",
              "name": "title",
              "type": "bytes"
            },
            {
              "internalType": "bytes",
              "name": "imgPath",
              "type": "bytes"
            },
            {
              "internalType": "bytes",
              "name": "description",
              "type": "bytes"
            },
            {
              "internalType": "uint256",
              "name": "price",
              "type": "uint256"
            },
            {
              "internalType": "bytes",
              "name": "message",
              "type": "bytes"
            },
            {
              "internalType": "bytes",
              "name": "filePath",
              "type": "bytes"
            },
            {
              "internalType": "bool",
              "name": "isDeleted",
              "type": "bool"
            },
            {
              "internalType": "address",
              "name": "seller",
              "type": "address"
            }
          ],
          "internalType": "struct ItemDonation.ItemSol",
          "name": "_item",
          "type": "tuple"
        }
      ],
      "name": "updateMemberItem",
      "outputs": [],
      "stateMutability": "nonpayable",
      "type": "function"
    },
    {
      "inputs": [
        {
          "internalType": "address",
          "name": "_address",
          "type": "address"
        }
      ],
      "name": "getMemberWishLists",
      "outputs": [
        {
          "components": [
            {
              "internalType": "uint256",
              "name": "id",
              "type": "uint256"
            },
            {
              "internalType": "bytes",
              "name": "imgPath",
              "type": "bytes"
            },
            {
              "internalType": "bytes",
              "name": "title",
              "type": "bytes"
            },
            {
              "internalType": "bytes",
              "name": "description",
              "type": "bytes"
            },
            {
              "internalType": "uint256",
              "name": "collectedAmount",
              "type": "uint256"
            },
            {
              "internalType": "uint256",
              "name": "targetAmount",
              "type": "uint256"
            },
            {
              "internalType": "bytes",
              "name": "message",
              "type": "bytes"
            },
            {
              "internalType": "bool",
              "name": "isClosed",
              "type": "bool"
            },
            {
              "internalType": "address",
              "name": "seller",
              "type": "address"
            }
          ],
          "internalType": "struct WishlistDonation.WishlistSol[]",
          "name": "",
          "type": "tuple[]"
        }
      ],
      "stateMutability": "view",
      "type": "function"
    },
    {
      "inputs": [
        {
          "internalType": "uint256",
          "name": "_id",
          "type": "uint256"
        }
      ],
      "name": "getMemberWishListDetail",
      "outputs": [
        {
          "components": [
            {
              "internalType": "uint256",
              "name": "id",
              "type": "uint256"
            },
            {
              "internalType": "bytes",
              "name": "imgPath",
              "type": "bytes"
            },
            {
              "internalType": "bytes",
              "name": "title",
              "type": "bytes"
            },
            {
              "internalType": "bytes",
              "name": "description",
              "type": "bytes"
            },
            {
              "internalType": "uint256",
              "name": "collectedAmount",
              "type": "uint256"
            },
            {
              "internalType": "uint256",
              "name": "targetAmount",
              "type": "uint256"
            },
            {
              "internalType": "bytes",
              "name": "message",
              "type": "bytes"
            },
            {
              "internalType": "bool",
              "name": "isClosed",
              "type": "bool"
            },
            {
              "internalType": "address",
              "name": "seller",
              "type": "address"
            }
          ],
          "internalType": "struct WishlistDonation.WishlistSol",
          "name": "",
          "type": "tuple"
        }
      ],
      "stateMutability": "view",
      "type": "function"
    },
    {
      "inputs": [
        {
          "components": [
            {
              "internalType": "uint256",
              "name": "id",
              "type": "uint256"
            },
            {
              "internalType": "bytes",
              "name": "imgPath",
              "type": "bytes"
            },
            {
              "internalType": "bytes",
              "name": "title",
              "type": "bytes"
            },
            {
              "internalType": "bytes",
              "name": "description",
              "type": "bytes"
            },
            {
              "internalType": "uint256",
              "name": "collectedAmount",
              "type": "uint256"
            },
            {
              "internalType": "uint256",
              "name": "targetAmount",
              "type": "uint256"
            },
            {
              "internalType": "bytes",
              "name": "message",
              "type": "bytes"
            },
            {
              "internalType": "bool",
              "name": "isClosed",
              "type": "bool"
            },
            {
              "internalType": "address",
              "name": "seller",
              "type": "address"
            }
          ],
          "internalType": "struct WishlistDonation.WishlistSol",
          "name": "_wishlist",
          "type": "tuple"
        }
      ],
      "name": "addMemberWishList",
      "outputs": [],
      "stateMutability": "nonpayable",
      "type": "function"
    },
    {
      "inputs": [
        {
          "internalType": "address",
          "name": "_address",
          "type": "address"
        },
        {
          "internalType": "uint256",
          "name": "_id",
          "type": "uint256"
        }
      ],
      "name": "deleteMemberWishlist",
      "outputs": [],
      "stateMutability": "nonpayable",
      "type": "function"
    },
    {
      "inputs": [
        {
          "components": [
            {
              "internalType": "uint256",
              "name": "id",
              "type": "uint256"
            },
            {
              "internalType": "bytes",
              "name": "imgPath",
              "type": "bytes"
            },
            {
              "internalType": "bytes",
              "name": "title",
              "type": "bytes"
            },
            {
              "internalType": "bytes",
              "name": "description",
              "type": "bytes"
            },
            {
              "internalType": "uint256",
              "name": "collectedAmount",
              "type": "uint256"
            },
            {
              "internalType": "uint256",
              "name": "targetAmount",
              "type": "uint256"
            },
            {
              "internalType": "bytes",
              "name": "message",
              "type": "bytes"
            },
            {
              "internalType": "bool",
              "name": "isClosed",
              "type": "bool"
            },
            {
              "internalType": "address",
              "name": "seller",
              "type": "address"
            }
          ],
          "internalType": "struct WishlistDonation.WishlistSol",
          "name": "_wishlist",
          "type": "tuple"
        }
      ],
      "name": "updateMemberWishlist",
      "outputs": [],
      "stateMutability": "nonpayable",
      "type": "function"
    },
    {
      "inputs": [
        {
          "internalType": "address",
          "name": "_address",
          "type": "address"
        },
        {
          "internalType": "uint256",
          "name": "_id",
          "type": "uint256"
        }
      ],
      "name": "getSupportDetail",
      "outputs": [
        {
          "components": [
            {
              "internalType": "uint256",
              "name": "id",
              "type": "uint256"
            },
            {
              "internalType": "address",
              "name": "from",
              "type": "address"
            },
            {
              "internalType": "address",
              "name": "to",
              "type": "address"
            },
            {
              "internalType": "uint256",
              "name": "amount",
              "type": "uint256"
            },
            {
              "internalType": "uint256",
              "name": "sendTimestamp",
              "type": "uint256"
            },
            {
              "internalType": "enum SupportHistory.SupportType",
              "name": "supportType",
              "type": "uint8"
            },
            {
              "internalType": "enum SupportHistory.SupportStatus",
              "name": "supportStatus",
              "type": "uint8"
            }
          ],
          "internalType": "struct SupportHistory.SupportSol",
          "name": "",
          "type": "tuple"
        }
      ],
      "stateMutability": "view",
      "type": "function"
    },
    {
      "inputs": [
        {
          "internalType": "address",
          "name": "_address",
          "type": "address"
        }
      ],
      "name": "getSupportList",
      "outputs": [
        {
          "components": [
            {
              "internalType": "uint256",
              "name": "id",
              "type": "uint256"
            },
            {
              "internalType": "address",
              "name": "from",
              "type": "address"
            },
            {
              "internalType": "address",
              "name": "to",
              "type": "address"
            },
            {
              "internalType": "uint256",
              "name": "amount",
              "type": "uint256"
            },
            {
              "internalType": "uint256",
              "name": "sendTimestamp",
              "type": "uint256"
            },
            {
              "internalType": "enum SupportHistory.SupportType",
              "name": "supportType",
              "type": "uint8"
            },
            {
              "internalType": "enum SupportHistory.SupportStatus",
              "name": "supportStatus",
              "type": "uint8"
            }
          ],
          "internalType": "struct SupportHistory.SupportSol[]",
          "name": "",
          "type": "tuple[]"
        }
      ],
      "stateMutability": "view",
      "type": "function"
    },
    {
      "inputs": [
        {
          "internalType": "address",
          "name": "_address",
          "type": "address"
        },
        {
          "internalType": "uint256",
          "name": "_id",
          "type": "uint256"
        }
      ],
      "name": "getSupportSendTime",
      "outputs": [
        {
          "internalType": "uint256",
          "name": "",
          "type": "uint256"
        }
      ],
      "stateMutability": "view",
      "type": "function"
    }
  ],
  "bytecode": "0x608060405234801561001057600080fd5b5033600960006101000a81548173ffffffffffffffffffffffffffffffffffffffff021916908373ffffffffffffffffffffffffffffffffffffffff16021790555061606d80620000626000396000f3fe6080604052600436106101405760003560e01c8063b569d7df116100b6578063c1bfde801161006f578063c1bfde80146104eb578063ccc933f914610514578063d18ef25914610551578063d83b8fd21461058e578063dc83f47c146105d1578063f84f8ea31461060e57610140565b8063b569d7df14610382578063b9a44c2e146103bf578063bde4472a146103fc578063be7dfa0414610439578063bfb231d214610476578063c15c8212146104bb57610140565b80635164b3b8116101085780635164b3b814610234578063692c95891461027157806396e685cf1461029a5780639d27b357146102d7578063a9afa55b14610314578063ace4bf1b1461035957610140565b80630c1fa1ef146101455780630d08685a14610182578063271df4c1146101ab5780632ad17189146101db57806334435c8f1461020b575b600080fd5b34801561015157600080fd5b5061016c600480360381019061016791906144db565b610637565b6040516101799190614521565b60405180910390f35b34801561018e57600080fd5b506101a960048036038101906101a49190614840565b61064f565b005b6101c560048036038101906101c091906148c7565b61065b565b6040516101d29190614521565b60405180910390f35b6101f560048036038101906101f091906148f4565b61066e565b6040516102029190614521565b60405180910390f35b34801561021757600080fd5b50610232600480360381019061022d9190614aa0565b610683565b005b34801561024057600080fd5b5061025b60048036038101906102569190614ae9565b61068f565b6040516102689190614ca3565b60405180910390f35b34801561027d57600080fd5b5061029860048036038101906102939190614cc5565b6106a7565b005b3480156102a657600080fd5b506102c160048036038101906102bc91906144db565b6106b5565b6040516102ce9190614ea8565b60405180910390f35b3480156102e357600080fd5b506102fe60048036038101906102f991906144db565b610754565b60405161030b91906150c6565b60405180910390f35b34801561032057600080fd5b5061033b60048036038101906103369190614ae9565b610766565b60405161035099989796959493929190615150565b60405180910390f35b34801561036557600080fd5b50610380600480360381019061037b9190614aa0565b610a01565b005b34801561038e57600080fd5b506103a960048036038101906103a49190614cc5565b610a0d565b6040516103b69190614521565b60405180910390f35b3480156103cb57600080fd5b506103e660048036038101906103e19190614cc5565b610a25565b6040516103f39190614521565b60405180910390f35b34801561040857600080fd5b50610423600480360381019061041e9190614cc5565b610a56565b6040516104309190615287565b60405180910390f35b34801561044557600080fd5b50610460600480360381019061045b9190614cc5565b610a70565b60405161046d9190614521565b60405180910390f35b34801561048257600080fd5b5061049d60048036038101906104989190614ae9565b610aa1565b6040516104b2999897969594939291906152a2565b60405180910390f35b6104d560048036038101906104d091906148f4565b610dc4565b6040516104e29190614521565b60405180910390f35b3480156104f757600080fd5b50610512600480360381019061050d9190614840565b610dd9565b005b34801561052057600080fd5b5061053b60048036038101906105369190614cc5565b610de5565b6040516105489190615352565b60405180910390f35b34801561055d57600080fd5b5061057860048036038101906105739190614ae9565b610e14565b6040516105859190615447565b60405180910390f35b34801561059a57600080fd5b506105b560048036038101906105b09190614cc5565b610e2c565b6040516105c89796959493929190615487565b60405180910390f35b3480156105dd57600080fd5b506105f860048036038101906105f391906144db565b610ed5565b6040516106059190615692565b60405180910390f35b34801561061a57600080fd5b5061063560048036038101906106309190614cc5565b610f74565b005b60016020528060005260406000206000915090505481565b61065881610f82565b50565b6000610667823461110d565b9050919050565b600061067b838334611234565b905092915050565b61068c8161169c565b50565b610697614314565b6106a082611833565b9050919050565b6106b18282611c4e565b5050565b606061074d600360008473ffffffffffffffffffffffffffffffffffffffff1673ffffffffffffffffffffffffffffffffffffffff16815260200190815260200160002080548060200260200160405190810160405280929190818152602001828054801561074357602002820191906000526020600020905b81548152602001906001019080831161072f575b5050505050612101565b9050919050565b606061075f826125a0565b9050919050565b600660205280600052604060002060009150905080600001549080600101805461078f906156e3565b80601f01602080910402602001604051908101604052809291908181526020018280546107bb906156e3565b80156108085780601f106107dd57610100808354040283529160200191610808565b820191906000526020600020905b8154815290600101906020018083116107eb57829003601f168201915b50505050509080600201805461081d906156e3565b80601f0160208091040260200160405190810160405280929190818152602001828054610849906156e3565b80156108965780601f1061086b57610100808354040283529160200191610896565b820191906000526020600020905b81548152906001019060200180831161087957829003601f168201915b5050505050908060030180546108ab906156e3565b80601f01602080910402602001604051908101604052809291908181526020018280546108d7906156e3565b80156109245780601f106108f957610100808354040283529160200191610924565b820191906000526020600020905b81548152906001019060200180831161090757829003601f168201915b505050505090806004015490806005015490806006018054610945906156e3565b80601f0160208091040260200160405190810160405280929190818152602001828054610971906156e3565b80156109be5780601f10610993576101008083540402835291602001916109be565b820191906000526020600020905b8154815290600101906020018083116109a157829003601f168201915b5050505050908060070160009054906101000a900460ff16908060070160019054906101000a900473ffffffffffffffffffffffffffffffffffffffff16905089565b610a0a8161281f565b50565b6000610a198383612970565b60800151905092915050565b60076020528160005260406000208181548110610a4157600080fd5b90600052602060002001600091509150505481565b610a5e614378565b610a688383612970565b905092915050565b60036020528160005260406000208181548110610a8c57600080fd5b90600052602060002001600091509150505481565b6002602052806000526040600020600091509050806000015490806001018054610aca906156e3565b80601f0160208091040260200160405190810160405280929190818152602001828054610af6906156e3565b8015610b435780601f10610b1857610100808354040283529160200191610b43565b820191906000526020600020905b815481529060010190602001808311610b2657829003601f168201915b505050505090806002018054610b58906156e3565b80601f0160208091040260200160405190810160405280929190818152602001828054610b84906156e3565b8015610bd15780601f10610ba657610100808354040283529160200191610bd1565b820191906000526020600020905b815481529060010190602001808311610bb457829003601f168201915b505050505090806003018054610be6906156e3565b80601f0160208091040260200160405190810160405280929190818152602001828054610c12906156e3565b8015610c5f5780601f10610c3457610100808354040283529160200191610c5f565b820191906000526020600020905b815481529060010190602001808311610c4257829003601f168201915b505050505090806004015490806005018054610c7a906156e3565b80601f0160208091040260200160405190810160405280929190818152602001828054610ca6906156e3565b8015610cf35780601f10610cc857610100808354040283529160200191610cf3565b820191906000526020600020905b815481529060010190602001808311610cd657829003601f168201915b505050505090806006018054610d08906156e3565b80601f0160208091040260200160405190810160405280929190818152602001828054610d34906156e3565b8015610d815780601f10610d5657610100808354040283529160200191610d81565b820191906000526020600020905b815481529060010190602001808311610d6457829003601f168201915b5050505050908060070160009054906101000a900460ff16908060070160019054906101000a900473ffffffffffffffffffffffffffffffffffffffff16905089565b6000610dd1838334612ba2565b905092915050565b610de281613253565b50565b60056020528160005260406000206020528060005260406000206000915091509054906101000a900460ff1681565b610e1c614405565b610e2582613398565b9050919050565b6000602052816000526040600020602052806000526040600020600091509150508060000154908060010160009054906101000a900473ffffffffffffffffffffffffffffffffffffffff16908060020160009054906101000a900473ffffffffffffffffffffffffffffffffffffffff16908060030154908060040154908060050160009054906101000a900460ff16908060050160019054906101000a900460ff16905087565b6060610f6d600760008473ffffffffffffffffffffffffffffffffffffffff1673ffffffffffffffffffffffffffffffffffffffff168152602001908152602001600020805480602002602001604051908101604052809291908181526020018280548015610f6357602002820191906000526020600020905b815481526020019060010190808311610f4f575b505050505061372b565b9050919050565b610f7e8282613b42565b5050565b60086000815480929190610f9590615743565b919050555060085481600001818152505080600660006008548152602001908152602001600020600082015181600001556020820151816001019081610fdb9190615937565b506040820151816002019081610ff19190615937565b5060608201518160030190816110079190615937565b506080820151816004015560a0820151816005015560c08201518160060190816110319190615937565b5060e08201518160070160006101000a81548160ff0219169083151502179055506101008201518160070160016101000a81548173ffffffffffffffffffffffffffffffffffffffff021916908373ffffffffffffffffffffffffffffffffffffffff1602179055509050506007600082610100015173ffffffffffffffffffffffffffffffffffffffff1673ffffffffffffffffffffffffffffffffffffffff168152602001908152602001600020600854908060018154018082558091505060019003906000526020600020016000909190919091505550565b600047821115611152576040517f08c379a000000000000000000000000000000000000000000000000000000000815260040161114990615a66565b60405180910390fd5b60006111613385856000613f6d565b905060008473ffffffffffffffffffffffffffffffffffffffff168460405161118990615ab7565b60006040518083038185875af1925050503d80600081146111c6576040519150601f19603f3d011682016040523d82523d6000602084013e6111cb565b606091505b505090508061121c576111e133868460016141b4565b6040517f08c379a000000000000000000000000000000000000000000000000000000000815260040161121390615b18565b60405180910390fd5b61122933868460026141b4565b819250505092915050565b600047821115611279576040517f08c379a000000000000000000000000000000000000000000000000000000000815260040161127090615a66565b60405180910390fd5b60006112883386856002613f6d565b905060006006600086815260200190815260200160002060405180610120016040529081600082015481526020016001820180546112c5906156e3565b80601f01602080910402602001604051908101604052809291908181526020018280546112f1906156e3565b801561133e5780601f106113135761010080835404028352916020019161133e565b820191906000526020600020905b81548152906001019060200180831161132157829003601f168201915b50505050508152602001600282018054611357906156e3565b80601f0160208091040260200160405190810160405280929190818152602001828054611383906156e3565b80156113d05780601f106113a5576101008083540402835291602001916113d0565b820191906000526020600020905b8154815290600101906020018083116113b357829003601f168201915b505050505081526020016003820180546113e9906156e3565b80601f0160208091040260200160405190810160405280929190818152602001828054611415906156e3565b80156114625780601f1061143757610100808354040283529160200191611462565b820191906000526020600020905b81548152906001019060200180831161144557829003601f168201915b50505050508152602001600482015481526020016005820154815260200160068201805461148f906156e3565b80601f01602080910402602001604051908101604052809291908181526020018280546114bb906156e3565b80156115085780601f106114dd57610100808354040283529160200191611508565b820191906000526020600020905b8154815290600101906020018083116114eb57829003601f168201915b505050505081526020016007820160009054906101000a900460ff161515151581526020016007820160019054906101000a900473ffffffffffffffffffffffffffffffffffffffff1673ffffffffffffffffffffffffffffffffffffffff1673ffffffffffffffffffffffffffffffffffffffff168152505090508060e00151156115c9576040517f08c379a00000000000000000000000000000000000000000000000000000000081526004016115c090615baa565b60405180910390fd5b60008673ffffffffffffffffffffffffffffffffffffffff16856040516115ef90615ab7565b60006040518083038185875af1925050503d806000811461162c576040519150601f19603f3d011682016040523d82523d6000602084013e611631565b606091505b50509050806116825761164733888560016141b4565b6040517f08c379a000000000000000000000000000000000000000000000000000000000815260040161167990615b18565b60405180910390fd5b61168f33888560026141b4565b8293505050509392505050565b600460008154809291906116af90615743565b9190505550600454816000018181525050806002600060045481526020019081526020016000206000820151816000015560208201518160010190816116f59190615937565b50604082015181600201908161170b9190615937565b5060608201518160030190816117219190615937565b506080820151816004015560a08201518160050190816117419190615937565b5060c08201518160060190816117579190615937565b5060e08201518160070160006101000a81548160ff0219169083151502179055506101008201518160070160016101000a81548173ffffffffffffffffffffffffffffffffffffffff021916908373ffffffffffffffffffffffffffffffffffffffff1602179055509050506003600082610100015173ffffffffffffffffffffffffffffffffffffffff1673ffffffffffffffffffffffffffffffffffffffff168152602001908152602001600020600454908060018154018082558091505060019003906000526020600020016000909190919091505550565b61183b614314565b600454821115611880576040517f08c379a000000000000000000000000000000000000000000000000000000000815260040161187790615c16565b60405180910390fd5b600082036118c3576040517f08c379a00000000000000000000000000000000000000000000000000000000081526004016118ba90615c16565b60405180910390fd5b6000600260008481526020019081526020016000209050806040518061012001604052908160008201548152602001600182018054611901906156e3565b80601f016020809104026020016040519081016040528092919081815260200182805461192d906156e3565b801561197a5780601f1061194f5761010080835404028352916020019161197a565b820191906000526020600020905b81548152906001019060200180831161195d57829003601f168201915b50505050508152602001600282018054611993906156e3565b80601f01602080910402602001604051908101604052809291908181526020018280546119bf906156e3565b8015611a0c5780601f106119e157610100808354040283529160200191611a0c565b820191906000526020600020905b8154815290600101906020018083116119ef57829003601f168201915b50505050508152602001600382018054611a25906156e3565b80601f0160208091040260200160405190810160405280929190818152602001828054611a51906156e3565b8015611a9e5780601f10611a7357610100808354040283529160200191611a9e565b820191906000526020600020905b815481529060010190602001808311611a8157829003601f168201915b5050505050815260200160048201548152602001600582018054611ac1906156e3565b80601f0160208091040260200160405190810160405280929190818152602001828054611aed906156e3565b8015611b3a5780601f10611b0f57610100808354040283529160200191611b3a565b820191906000526020600020905b815481529060010190602001808311611b1d57829003601f168201915b50505050508152602001600682018054611b53906156e3565b80601f0160208091040260200160405190810160405280929190818152602001828054611b7f906156e3565b8015611bcc5780601f10611ba157610100808354040283529160200191611bcc565b820191906000526020600020905b815481529060010190602001808311611baf57829003601f168201915b505050505081526020016007820160009054906101000a900460ff161515151581526020016007820160019054906101000a900473ffffffffffffffffffffffffffffffffffffffff1673ffffffffffffffffffffffffffffffffffffffff1673ffffffffffffffffffffffffffffffffffffffff1681525050915050919050565b600454811115611c93576040517f08c379a0000000000000000000000000000000000000000000000000000000008152600401611c8a90615c16565b60405180910390fd5b6000600260008381526020019081526020016000206040518061012001604052908160008201548152602001600182018054611cce906156e3565b80601f0160208091040260200160405190810160405280929190818152602001828054611cfa906156e3565b8015611d475780601f10611d1c57610100808354040283529160200191611d47565b820191906000526020600020905b815481529060010190602001808311611d2a57829003601f168201915b50505050508152602001600282018054611d60906156e3565b80601f0160208091040260200160405190810160405280929190818152602001828054611d8c906156e3565b8015611dd95780601f10611dae57610100808354040283529160200191611dd9565b820191906000526020600020905b815481529060010190602001808311611dbc57829003601f168201915b50505050508152602001600382018054611df2906156e3565b80601f0160208091040260200160405190810160405280929190818152602001828054611e1e906156e3565b8015611e6b5780601f10611e4057610100808354040283529160200191611e6b565b820191906000526020600020905b815481529060010190602001808311611e4e57829003601f168201915b5050505050815260200160048201548152602001600582018054611e8e906156e3565b80601f0160208091040260200160405190810160405280929190818152602001828054611eba906156e3565b8015611f075780601f10611edc57610100808354040283529160200191611f07565b820191906000526020600020905b815481529060010190602001808311611eea57829003601f168201915b50505050508152602001600682018054611f20906156e3565b80601f0160208091040260200160405190810160405280929190818152602001828054611f4c906156e3565b8015611f995780601f10611f6e57610100808354040283529160200191611f99565b820191906000526020600020905b815481529060010190602001808311611f7c57829003601f168201915b505050505081526020016007820160009054906101000a900460ff161515151581526020016007820160019054906101000a900473ffffffffffffffffffffffffffffffffffffffff1673ffffffffffffffffffffffffffffffffffffffff1673ffffffffffffffffffffffffffffffffffffffff168152505090508060e001511561205a576040517f08c379a000000000000000000000000000000000000000000000000000000000815260040161205190615c82565b60405180910390fd5b8273ffffffffffffffffffffffffffffffffffffffff1681610100015173ffffffffffffffffffffffffffffffffffffffff16146120cd576040517f08c379a00000000000000000000000000000000000000000000000000000000081526004016120c490615cee565b60405180910390fd5b60016002600084815260200190815260200160002060070160006101000a81548160ff021916908315150217905550505050565b60606000825167ffffffffffffffff8111156121205761211f614552565b5b60405190808252806020026020018201604052801561215957816020015b612146614314565b81526020019060019003908161213e5790505b50905060005b83518110156125965760045484828151811061217e5761217d615d0e565b5b602002602001015111156121c7576040517f08c379a00000000000000000000000000000000000000000000000000000000081526004016121be90615c16565b60405180910390fd5b6000600260008684815181106121e0576121df615d0e565b5b60200260200101518152602001908152602001600020905080604051806101200160405290816000820154815260200160018201805461221f906156e3565b80601f016020809104026020016040519081016040528092919081815260200182805461224b906156e3565b80156122985780601f1061226d57610100808354040283529160200191612298565b820191906000526020600020905b81548152906001019060200180831161227b57829003601f168201915b505050505081526020016002820180546122b1906156e3565b80601f01602080910402602001604051908101604052809291908181526020018280546122dd906156e3565b801561232a5780601f106122ff5761010080835404028352916020019161232a565b820191906000526020600020905b81548152906001019060200180831161230d57829003601f168201915b50505050508152602001600382018054612343906156e3565b80601f016020809104026020016040519081016040528092919081815260200182805461236f906156e3565b80156123bc5780601f10612391576101008083540402835291602001916123bc565b820191906000526020600020905b81548152906001019060200180831161239f57829003601f168201915b50505050508152602001600482015481526020016005820180546123df906156e3565b80601f016020809104026020016040519081016040528092919081815260200182805461240b906156e3565b80156124585780601f1061242d57610100808354040283529160200191612458565b820191906000526020600020905b81548152906001019060200180831161243b57829003601f168201915b50505050508152602001600682018054612471906156e3565b80601f016020809104026020016040519081016040528092919081815260200182805461249d906156e3565b80156124ea5780601f106124bf576101008083540402835291602001916124ea565b820191906000526020600020905b8154815290600101906020018083116124cd57829003601f168201915b505050505081526020016007820160009054906101000a900460ff161515151581526020016007820160019054906101000a900473ffffffffffffffffffffffffffffffffffffffff1673ffffffffffffffffffffffffffffffffffffffff1673ffffffffffffffffffffffffffffffffffffffff168152505083838151811061257757612576615d0e565b5b602002602001018190525050808061258e90615743565b91505061215f565b5080915050919050565b60606000600160008473ffffffffffffffffffffffffffffffffffffffff1673ffffffffffffffffffffffffffffffffffffffff16815260200190815260200160002054905060008167ffffffffffffffff81111561260257612601614552565b5b60405190808252806020026020018201604052801561263b57816020015b612628614378565b8152602001906001900390816126205790505b50905060005b82811015612814576000808673ffffffffffffffffffffffffffffffffffffffff1673ffffffffffffffffffffffffffffffffffffffff16815260200190815260200160002060008281526020019081526020016000206040518060e0016040529081600082015481526020016001820160009054906101000a900473ffffffffffffffffffffffffffffffffffffffff1673ffffffffffffffffffffffffffffffffffffffff1673ffffffffffffffffffffffffffffffffffffffff1681526020016002820160009054906101000a900473ffffffffffffffffffffffffffffffffffffffff1673ffffffffffffffffffffffffffffffffffffffff1673ffffffffffffffffffffffffffffffffffffffff16815260200160038201548152602001600482015481526020016005820160009054906101000a900460ff16600281111561279257612791614ef6565b5b60028111156127a4576127a3614ef6565b5b81526020016005820160019054906101000a900460ff1660038111156127cd576127cc614ef6565b5b60038111156127df576127de614ef6565b5b815250508282815181106127f6576127f5615d0e565b5b6020026020010181905250808061280c90615743565b915050612641565b508092505050919050565b60045481600001511115612868576040517f08c379a000000000000000000000000000000000000000000000000000000000815260040161285f90615c16565b60405180910390fd5b80600260008360000151815260200190815260200160002060008201518160000155602082015181600101908161289f9190615937565b5060408201518160020190816128b59190615937565b5060608201518160030190816128cb9190615937565b506080820151816004015560a08201518160050190816128eb9190615937565b5060c08201518160060190816129019190615937565b5060e08201518160070160006101000a81548160ff0219169083151502179055506101008201518160070160016101000a81548173ffffffffffffffffffffffffffffffffffffffff021916908373ffffffffffffffffffffffffffffffffffffffff16021790555090505050565b612978614378565b6000600160008573ffffffffffffffffffffffffffffffffffffffff1673ffffffffffffffffffffffffffffffffffffffff168152602001908152602001600020549050808311156129ff576040517f08c379a00000000000000000000000000000000000000000000000000000000081526004016129f690615c16565b60405180910390fd5b6000808573ffffffffffffffffffffffffffffffffffffffff1673ffffffffffffffffffffffffffffffffffffffff16815260200190815260200160002060008481526020019081526020016000206040518060e0016040529081600082015481526020016001820160009054906101000a900473ffffffffffffffffffffffffffffffffffffffff1673ffffffffffffffffffffffffffffffffffffffff1673ffffffffffffffffffffffffffffffffffffffff1681526020016002820160009054906101000a900473ffffffffffffffffffffffffffffffffffffffff1673ffffffffffffffffffffffffffffffffffffffff1673ffffffffffffffffffffffffffffffffffffffff16815260200160038201548152602001600482015481526020016005820160009054906101000a900460ff166002811115612b4857612b47614ef6565b5b6002811115612b5a57612b59614ef6565b5b81526020016005820160019054906101000a900460ff166003811115612b8357612b82614ef6565b5b6003811115612b9557612b94614ef6565b5b8152505091505092915050565b600047821115612be7576040517f08c379a0000000000000000000000000000000000000000000000000000000008152600401612bde90615a66565b60405180910390fd5b6000612bf63386856001613f6d565b90506000600260008681526020019081526020016000206040518061012001604052908160008201548152602001600182018054612c33906156e3565b80601f0160208091040260200160405190810160405280929190818152602001828054612c5f906156e3565b8015612cac5780601f10612c8157610100808354040283529160200191612cac565b820191906000526020600020905b815481529060010190602001808311612c8f57829003601f168201915b50505050508152602001600282018054612cc5906156e3565b80601f0160208091040260200160405190810160405280929190818152602001828054612cf1906156e3565b8015612d3e5780601f10612d1357610100808354040283529160200191612d3e565b820191906000526020600020905b815481529060010190602001808311612d2157829003601f168201915b50505050508152602001600382018054612d57906156e3565b80601f0160208091040260200160405190810160405280929190818152602001828054612d83906156e3565b8015612dd05780601f10612da557610100808354040283529160200191612dd0565b820191906000526020600020905b815481529060010190602001808311612db357829003601f168201915b5050505050815260200160048201548152602001600582018054612df3906156e3565b80601f0160208091040260200160405190810160405280929190818152602001828054612e1f906156e3565b8015612e6c5780601f10612e4157610100808354040283529160200191612e6c565b820191906000526020600020905b815481529060010190602001808311612e4f57829003601f168201915b50505050508152602001600682018054612e85906156e3565b80601f0160208091040260200160405190810160405280929190818152602001828054612eb1906156e3565b8015612efe5780601f10612ed357610100808354040283529160200191612efe565b820191906000526020600020905b815481529060010190602001808311612ee157829003601f168201915b505050505081526020016007820160009054906101000a900460ff161515151581526020016007820160019054906101000a900473ffffffffffffffffffffffffffffffffffffffff1673ffffffffffffffffffffffffffffffffffffffff1673ffffffffffffffffffffffffffffffffffffffff168152505090508060800151841015612fc1576040517f08c379a0000000000000000000000000000000000000000000000000000000008152600401612fb890615d89565b60405180910390fd5b8060e0015115613006576040517f08c379a0000000000000000000000000000000000000000000000000000000008152600401612ffd90615d89565b60405180910390fd5b8573ffffffffffffffffffffffffffffffffffffffff1681610100015173ffffffffffffffffffffffffffffffffffffffff1614613079576040517f08c379a000000000000000000000000000000000000000000000000000000000815260040161307090615e1b565b60405180910390fd5b600560003373ffffffffffffffffffffffffffffffffffffffff1673ffffffffffffffffffffffffffffffffffffffff168152602001908152602001600020600086815260200190815260200160002060009054906101000a900460ff1615613117576040517f08c379a000000000000000000000000000000000000000000000000000000000815260040161310e90615ead565b60405180910390fd5b60008673ffffffffffffffffffffffffffffffffffffffff168560405161313d90615ab7565b60006040518083038185875af1925050503d806000811461317a576040519150601f19603f3d011682016040523d82523d6000602084013e61317f565b606091505b50509050806131d05761319533888560016141b4565b6040517f08c379a00000000000000000000000000000000000000000000000000000000081526004016131c790615b18565b60405180910390fd5b6131dd33888560026141b4565b6001600560003373ffffffffffffffffffffffffffffffffffffffff1673ffffffffffffffffffffffffffffffffffffffff168152602001908152602001600020600088815260200190815260200160002060006101000a81548160ff0219169083151502179055508293505050509392505050565b6008548160000151111561329c576040517f08c379a000000000000000000000000000000000000000000000000000000000815260040161329390615c16565b60405180910390fd5b8060066000836000015181526020019081526020016000206000820151816000015560208201518160010190816132d39190615937565b5060408201518160020190816132e99190615937565b5060608201518160030190816132ff9190615937565b506080820151816004015560a0820151816005015560c08201518160060190816133299190615937565b5060e08201518160070160006101000a81548160ff0219169083151502179055506101008201518160070160016101000a81548173ffffffffffffffffffffffffffffffffffffffff021916908373ffffffffffffffffffffffffffffffffffffffff16021790555090505050565b6133a0614405565b6008548211156133e5576040517f08c379a00000000000000000000000000000000000000000000000000000000081526004016133dc90615c16565b60405180910390fd5b60008203613428576040517f08c379a000000000000000000000000000000000000000000000000000000000815260040161341f90615c16565b60405180910390fd5b6000600660008481526020019081526020016000206040518061012001604052908160008201548152602001600182018054613463906156e3565b80601f016020809104026020016040519081016040528092919081815260200182805461348f906156e3565b80156134dc5780601f106134b1576101008083540402835291602001916134dc565b820191906000526020600020905b8154815290600101906020018083116134bf57829003601f168201915b505050505081526020016002820180546134f5906156e3565b80601f0160208091040260200160405190810160405280929190818152602001828054613521906156e3565b801561356e5780601f106135435761010080835404028352916020019161356e565b820191906000526020600020905b81548152906001019060200180831161355157829003601f168201915b50505050508152602001600382018054613587906156e3565b80601f01602080910402602001604051908101604052809291908181526020018280546135b3906156e3565b80156136005780601f106135d557610100808354040283529160200191613600565b820191906000526020600020905b8154815290600101906020018083116135e357829003601f168201915b50505050508152602001600482015481526020016005820154815260200160068201805461362d906156e3565b80601f0160208091040260200160405190810160405280929190818152602001828054613659906156e3565b80156136a65780601f1061367b576101008083540402835291602001916136a6565b820191906000526020600020905b81548152906001019060200180831161368957829003601f168201915b505050505081526020016007820160009054906101000a900460ff161515151581526020016007820160019054906101000a900473ffffffffffffffffffffffffffffffffffffffff1673ffffffffffffffffffffffffffffffffffffffff1673ffffffffffffffffffffffffffffffffffffffff1681525050905080915050919050565b60606000825167ffffffffffffffff81111561374a57613749614552565b5b60405190808252806020026020018201604052801561378357816020015b613770614405565b8152602001906001900390816137685790505b50905060005b8351811015613b38576008548482815181106137a8576137a7615d0e565b5b602002602001015111156137f1576040517f08c379a00000000000000000000000000000000000000000000000000000000081526004016137e890615c16565b60405180910390fd5b60006006600086848151811061380a57613809615d0e565b5b602002602001015181526020019081526020016000206040518061012001604052908160008201548152602001600182018054613846906156e3565b80601f0160208091040260200160405190810160405280929190818152602001828054613872906156e3565b80156138bf5780601f10613894576101008083540402835291602001916138bf565b820191906000526020600020905b8154815290600101906020018083116138a257829003601f168201915b505050505081526020016002820180546138d8906156e3565b80601f0160208091040260200160405190810160405280929190818152602001828054613904906156e3565b80156139515780601f1061392657610100808354040283529160200191613951565b820191906000526020600020905b81548152906001019060200180831161393457829003601f168201915b5050505050815260200160038201805461396a906156e3565b80601f0160208091040260200160405190810160405280929190818152602001828054613996906156e3565b80156139e35780601f106139b8576101008083540402835291602001916139e3565b820191906000526020600020905b8154815290600101906020018083116139c657829003601f168201915b505050505081526020016004820154815260200160058201548152602001600682018054613a10906156e3565b80601f0160208091040260200160405190810160405280929190818152602001828054613a3c906156e3565b8015613a895780601f10613a5e57610100808354040283529160200191613a89565b820191906000526020600020905b815481529060010190602001808311613a6c57829003601f168201915b505050505081526020016007820160009054906101000a900460ff161515151581526020016007820160019054906101000a900473ffffffffffffffffffffffffffffffffffffffff1673ffffffffffffffffffffffffffffffffffffffff1673ffffffffffffffffffffffffffffffffffffffff1681525050905080838381518110613b1957613b18615d0e565b5b6020026020010181905250508080613b3090615743565b915050613789565b5080915050919050565b600854811115613b87576040517f08c379a0000000000000000000000000000000000000000000000000000000008152600401613b7e90615c16565b60405180910390fd5b6000600660008381526020019081526020016000206040518061012001604052908160008201548152602001600182018054613bc2906156e3565b80601f0160208091040260200160405190810160405280929190818152602001828054613bee906156e3565b8015613c3b5780601f10613c1057610100808354040283529160200191613c3b565b820191906000526020600020905b815481529060010190602001808311613c1e57829003601f168201915b50505050508152602001600282018054613c54906156e3565b80601f0160208091040260200160405190810160405280929190818152602001828054613c80906156e3565b8015613ccd5780601f10613ca257610100808354040283529160200191613ccd565b820191906000526020600020905b815481529060010190602001808311613cb057829003601f168201915b50505050508152602001600382018054613ce6906156e3565b80601f0160208091040260200160405190810160405280929190818152602001828054613d12906156e3565b8015613d5f5780601f10613d3457610100808354040283529160200191613d5f565b820191906000526020600020905b815481529060010190602001808311613d4257829003601f168201915b505050505081526020016004820154815260200160058201548152602001600682018054613d8c906156e3565b80601f0160208091040260200160405190810160405280929190818152602001828054613db8906156e3565b8015613e055780601f10613dda57610100808354040283529160200191613e05565b820191906000526020600020905b815481529060010190602001808311613de857829003601f168201915b505050505081526020016007820160009054906101000a900460ff161515151581526020016007820160019054906101000a900473ffffffffffffffffffffffffffffffffffffffff1673ffffffffffffffffffffffffffffffffffffffff1673ffffffffffffffffffffffffffffffffffffffff168152505090508060e0015115613ec6576040517f08c379a0000000000000000000000000000000000000000000000000000000008152600401613ebd90615f19565b60405180910390fd5b8273ffffffffffffffffffffffffffffffffffffffff1681610100015173ffffffffffffffffffffffffffffffffffffffff1614613f39576040517f08c379a0000000000000000000000000000000000000000000000000000000008152600401613f3090615fab565b60405180910390fd5b60016006600084815260200190815260200160002060070160006101000a81548160ff021916908315150217905550505050565b600080600160008673ffffffffffffffffffffffffffffffffffffffff1673ffffffffffffffffffffffffffffffffffffffff1681526020019081526020016000206000815480929190613fc090615743565b9190505590506040518060e001604052808281526020018773ffffffffffffffffffffffffffffffffffffffff1681526020018673ffffffffffffffffffffffffffffffffffffffff16815260200185815260200142815260200184600281111561402e5761402d614ef6565b5b81526020016000600381111561404757614046614ef6565b5b8152506000808773ffffffffffffffffffffffffffffffffffffffff1673ffffffffffffffffffffffffffffffffffffffff16815260200190815260200160002060008381526020019081526020016000206000820151816000015560208201518160010160006101000a81548173ffffffffffffffffffffffffffffffffffffffff021916908373ffffffffffffffffffffffffffffffffffffffff16021790555060408201518160020160006101000a81548173ffffffffffffffffffffffffffffffffffffffff021916908373ffffffffffffffffffffffffffffffffffffffff160217905550606082015181600301556080820151816004015560a08201518160050160006101000a81548160ff021916908360028111156141705761416f614ef6565b5b021790555060c08201518160050160016101000a81548160ff021916908360038111156141a05761419f614ef6565b5b021790555090505080915050949350505050565b8373ffffffffffffffffffffffffffffffffffffffff166000808573ffffffffffffffffffffffffffffffffffffffff1673ffffffffffffffffffffffffffffffffffffffff168152602001908152602001600020600084815260200190815260200160002060010160009054906101000a900473ffffffffffffffffffffffffffffffffffffffff1673ffffffffffffffffffffffffffffffffffffffff1614614294576040517f08c379a000000000000000000000000000000000000000000000000000000000815260040161428b90616017565b60405180910390fd5b806000808573ffffffffffffffffffffffffffffffffffffffff1673ffffffffffffffffffffffffffffffffffffffff168152602001908152602001600020600084815260200190815260200160002060050160016101000a81548160ff0219169083600381111561430957614308614ef6565b5b021790555050505050565b60405180610120016040528060008152602001606081526020016060815260200160608152602001600081526020016060815260200160608152602001600015158152602001600073ffffffffffffffffffffffffffffffffffffffff1681525090565b6040518060e0016040528060008152602001600073ffffffffffffffffffffffffffffffffffffffff168152602001600073ffffffffffffffffffffffffffffffffffffffff1681526020016000815260200160008152602001600060028111156143e6576143e5614ef6565b5b8152602001600060038111156143ff576143fe614ef6565b5b81525090565b60405180610120016040528060008152602001606081526020016060815260200160608152602001600081526020016000815260200160608152602001600015158152602001600073ffffffffffffffffffffffffffffffffffffffff1681525090565b6000604051905090565b600080fd5b600080fd5b600073ffffffffffffffffffffffffffffffffffffffff82169050919050565b60006144a88261447d565b9050919050565b6144b88161449d565b81146144c357600080fd5b50565b6000813590506144d5816144af565b92915050565b6000602082840312156144f1576144f0614473565b5b60006144ff848285016144c6565b91505092915050565b6000819050919050565b61451b81614508565b82525050565b60006020820190506145366000830184614512565b92915050565b600080fd5b6000601f19601f8301169050919050565b7f4e487b7100000000000000000000000000000000000000000000000000000000600052604160045260246000fd5b61458a82614541565b810181811067ffffffffffffffff821117156145a9576145a8614552565b5b80604052505050565b60006145bc614469565b90506145c88282614581565b919050565b600080fd5b6145db81614508565b81146145e657600080fd5b50565b6000813590506145f8816145d2565b92915050565b600080fd5b600080fd5b600067ffffffffffffffff82111561462357614622614552565b5b61462c82614541565b9050602081019050919050565b82818337600083830152505050565b600061465b61465684614608565b6145b2565b90508281526020810184848401111561467757614676614603565b5b614682848285614639565b509392505050565b600082601f83011261469f5761469e6145fe565b5b81356146af848260208601614648565b91505092915050565b60008115159050919050565b6146cd816146b8565b81146146d857600080fd5b50565b6000813590506146ea816146c4565b92915050565b600061012082840312156147075761470661453c565b5b6147126101206145b2565b90506000614722848285016145e9565b600083015250602082013567ffffffffffffffff811115614746576147456145cd565b5b6147528482850161468a565b602083015250604082013567ffffffffffffffff811115614776576147756145cd565b5b6147828482850161468a565b604083015250606082013567ffffffffffffffff8111156147a6576147a56145cd565b5b6147b28482850161468a565b60608301525060806147c6848285016145e9565b60808301525060a06147da848285016145e9565b60a08301525060c082013567ffffffffffffffff8111156147fe576147fd6145cd565b5b61480a8482850161468a565b60c08301525060e061481e848285016146db565b60e083015250610100614833848285016144c6565b6101008301525092915050565b60006020828403121561485657614855614473565b5b600082013567ffffffffffffffff81111561487457614873614478565b5b614880848285016146f0565b91505092915050565b60006148948261447d565b9050919050565b6148a481614889565b81146148af57600080fd5b50565b6000813590506148c18161489b565b92915050565b6000602082840312156148dd576148dc614473565b5b60006148eb848285016148b2565b91505092915050565b6000806040838503121561490b5761490a614473565b5b6000614919858286016148b2565b925050602061492a858286016145e9565b9150509250929050565b6000610120828403121561494b5761494a61453c565b5b6149566101206145b2565b90506000614966848285016145e9565b600083015250602082013567ffffffffffffffff81111561498a576149896145cd565b5b6149968482850161468a565b602083015250604082013567ffffffffffffffff8111156149ba576149b96145cd565b5b6149c68482850161468a565b604083015250606082013567ffffffffffffffff8111156149ea576149e96145cd565b5b6149f68482850161468a565b6060830152506080614a0a848285016145e9565b60808301525060a082013567ffffffffffffffff811115614a2e57614a2d6145cd565b5b614a3a8482850161468a565b60a08301525060c082013567ffffffffffffffff811115614a5e57614a5d6145cd565b5b614a6a8482850161468a565b60c08301525060e0614a7e848285016146db565b60e083015250610100614a93848285016144c6565b6101008301525092915050565b600060208284031215614ab657614ab5614473565b5b600082013567ffffffffffffffff811115614ad457614ad3614478565b5b614ae084828501614934565b91505092915050565b600060208284031215614aff57614afe614473565b5b6000614b0d848285016145e9565b91505092915050565b614b1f81614508565b82525050565b600081519050919050565b600082825260208201905092915050565b60005b83811015614b5f578082015181840152602081019050614b44565b60008484015250505050565b6000614b7682614b25565b614b808185614b30565b9350614b90818560208601614b41565b614b9981614541565b840191505092915050565b614bad816146b8565b82525050565b614bbc8161449d565b82525050565b600061012083016000830151614bdb6000860182614b16565b5060208301518482036020860152614bf38282614b6b565b91505060408301518482036040860152614c0d8282614b6b565b91505060608301518482036060860152614c278282614b6b565b9150506080830151614c3c6080860182614b16565b5060a083015184820360a0860152614c548282614b6b565b91505060c083015184820360c0860152614c6e8282614b6b565b91505060e0830151614c8360e0860182614ba4565b50610100830151614c98610100860182614bb3565b508091505092915050565b60006020820190508181036000830152614cbd8184614bc2565b905092915050565b60008060408385031215614cdc57614cdb614473565b5b6000614cea858286016144c6565b9250506020614cfb858286016145e9565b9150509250929050565b600081519050919050565b600082825260208201905092915050565b6000819050602082019050919050565b600061012083016000830151614d4a6000860182614b16565b5060208301518482036020860152614d628282614b6b565b91505060408301518482036040860152614d7c8282614b6b565b91505060608301518482036060860152614d968282614b6b565b9150506080830151614dab6080860182614b16565b5060a083015184820360a0860152614dc38282614b6b565b91505060c083015184820360c0860152614ddd8282614b6b565b91505060e0830151614df260e0860182614ba4565b50610100830151614e07610100860182614bb3565b508091505092915050565b6000614e1e8383614d31565b905092915050565b6000602082019050919050565b6000614e3e82614d05565b614e488185614d10565b935083602082028501614e5a85614d21565b8060005b85811015614e965784840389528151614e778582614e12565b9450614e8283614e26565b925060208a01995050600181019050614e5e565b50829750879550505050505092915050565b60006020820190508181036000830152614ec28184614e33565b905092915050565b600081519050919050565b600082825260208201905092915050565b6000819050602082019050919050565b7f4e487b7100000000000000000000000000000000000000000000000000000000600052602160045260246000fd5b60038110614f3657614f35614ef6565b5b50565b6000819050614f4782614f25565b919050565b6000614f5782614f39565b9050919050565b614f6781614f4c565b82525050565b60048110614f7e57614f7d614ef6565b5b50565b6000819050614f8f82614f6d565b919050565b6000614f9f82614f81565b9050919050565b614faf81614f94565b82525050565b60e082016000820151614fcb6000850182614b16565b506020820151614fde6020850182614bb3565b506040820151614ff16040850182614bb3565b5060608201516150046060850182614b16565b5060808201516150176080850182614b16565b5060a082015161502a60a0850182614f5e565b5060c082015161503d60c0850182614fa6565b50505050565b600061504f8383614fb5565b60e08301905092915050565b6000602082019050919050565b600061507382614eca565b61507d8185614ed5565b935061508883614ee6565b8060005b838110156150b95781516150a08882615043565b97506150ab8361505b565b92505060018101905061508c565b5085935050505092915050565b600060208201905081810360008301526150e08184615068565b905092915050565b600082825260208201905092915050565b600061510482614b25565b61510e81856150e8565b935061511e818560208601614b41565b61512781614541565b840191505092915050565b61513b816146b8565b82525050565b61514a8161449d565b82525050565b600061012082019050615166600083018c614512565b8181036020830152615178818b6150f9565b9050818103604083015261518c818a6150f9565b905081810360608301526151a081896150f9565b90506151af6080830188614512565b6151bc60a0830187614512565b81810360c08301526151ce81866150f9565b90506151dd60e0830185615132565b6151eb610100830184615141565b9a9950505050505050505050565b60e08201600082015161520f6000850182614b16565b5060208201516152226020850182614bb3565b5060408201516152356040850182614bb3565b5060608201516152486060850182614b16565b50608082015161525b6080850182614b16565b5060a082015161526e60a0850182614f5e565b5060c082015161528160c0850182614fa6565b50505050565b600060e08201905061529c60008301846151f9565b92915050565b6000610120820190506152b8600083018c614512565b81810360208301526152ca818b6150f9565b905081810360408301526152de818a6150f9565b905081810360608301526152f281896150f9565b90506153016080830188614512565b81810360a083015261531381876150f9565b905081810360c083015261532781866150f9565b905061533660e0830185615132565b615344610100830184615141565b9a9950505050505050505050565b60006020820190506153676000830184615132565b92915050565b6000610120830160008301516153866000860182614b16565b506020830151848203602086015261539e8282614b6b565b915050604083015184820360408601526153b88282614b6b565b915050606083015184820360608601526153d28282614b6b565b91505060808301516153e76080860182614b16565b5060a08301516153fa60a0860182614b16565b5060c083015184820360c08601526154128282614b6b565b91505060e083015161542760e0860182614ba4565b5061010083015161543c610100860182614bb3565b508091505092915050565b60006020820190508181036000830152615461818461536d565b905092915050565b61547281614f4c565b82525050565b61548181614f94565b82525050565b600060e08201905061549c600083018a614512565b6154a96020830189615141565b6154b66040830188615141565b6154c36060830187614512565b6154d06080830186614512565b6154dd60a0830185615469565b6154ea60c0830184615478565b98975050505050505050565b600081519050919050565b600082825260208201905092915050565b6000819050602082019050919050565b60006101208301600083015161553b6000860182614b16565b50602083015184820360208601526155538282614b6b565b9150506040830151848203604086015261556d8282614b6b565b915050606083015184820360608601526155878282614b6b565b915050608083015161559c6080860182614b16565b5060a08301516155af60a0860182614b16565b5060c083015184820360c08601526155c78282614b6b565b91505060e08301516155dc60e0860182614ba4565b506101008301516155f1610100860182614bb3565b508091505092915050565b60006156088383615522565b905092915050565b6000602082019050919050565b6000615628826154f6565b6156328185615501565b93508360208202850161564485615512565b8060005b85811015615680578484038952815161566185826155fc565b945061566c83615610565b925060208a01995050600181019050615648565b50829750879550505050505092915050565b600060208201905081810360008301526156ac818461561d565b905092915050565b7f4e487b7100000000000000000000000000000000000000000000000000000000600052602260045260246000fd5b600060028204905060018216806156fb57607f821691505b60208210810361570e5761570d6156b4565b5b50919050565b7f4e487b7100000000000000000000000000000000000000000000000000000000600052601160045260246000fd5b600061574e82614508565b91507fffffffffffffffffffffffffffffffffffffffffffffffffffffffffffffffff82036157805761577f615714565b5b600182019050919050565b60008190508160005260206000209050919050565b60006020601f8301049050919050565b600082821b905092915050565b6000600883026157ed7fffffffffffffffffffffffffffffffffffffffffffffffffffffffffffffffff826157b0565b6157f786836157b0565b95508019841693508086168417925050509392505050565b6000819050919050565b600061583461582f61582a84614508565b61580f565b614508565b9050919050565b6000819050919050565b61584e83615819565b61586261585a8261583b565b8484546157bd565b825550505050565b600090565b61587761586a565b615882818484615845565b505050565b5b818110156158a65761589b60008261586f565b600181019050615888565b5050565b601f8211156158eb576158bc8161578b565b6158c5846157a0565b810160208510156158d4578190505b6158e86158e0856157a0565b830182615887565b50505b505050565b600082821c905092915050565b600061590e600019846008026158f0565b1980831691505092915050565b600061592783836158fd565b9150826002028217905092915050565b61594082614b25565b67ffffffffffffffff81111561595957615958614552565b5b61596382546156e3565b61596e8282856158aa565b600060209050601f8311600181146159a1576000841561598f578287015190505b615999858261591b565b865550615a01565b601f1984166159af8661578b565b60005b828110156159d7578489015182556001820191506020850194506020810190506159b2565b868310156159f457848901516159f0601f8916826158fd565b8355505b6001600288020188555050505b505050505050565b600082825260208201905092915050565b7f496e73756666696369656e742062616c616e6365000000000000000000000000600082015250565b6000615a50601483615a09565b9150615a5b82615a1a565b602082019050919050565b60006020820190508181036000830152615a7f81615a43565b9050919050565b600081905092915050565b50565b6000615aa1600083615a86565b9150615aac82615a91565b600082019050919050565b6000615ac282615a94565b9150819050919050565b7f5472616e7366657220746f20776973686c6973744f776e6572206661696c6564600082015250565b6000615b02602083615a09565b9150615b0d82615acc565b602082019050919050565b60006020820190508181036000830152615b3181615af5565b9050919050565b7f546869732066756e6472616973696e672063616d706169676e20666f7220746860008201527f6520776973686c6973742068617320636c6f7365642e00000000000000000000602082015250565b6000615b94603683615a09565b9150615b9f82615b38565b604082019050919050565b60006020820190508181036000830152615bc381615b87565b9050919050565b7f496e76616c696420696e64657800000000000000000000000000000000000000600082015250565b6000615c00600d83615a09565b9150615c0b82615bca565b602082019050919050565b60006020820190508181036000830152615c2f81615bf3565b9050919050565b7f4974656d20646f6573206e6f7420657869737400000000000000000000000000600082015250565b6000615c6c601383615a09565b9150615c7782615c36565b602082019050919050565b60006020820190508181036000830152615c9b81615c5f565b9050919050565b7f596f7520617265206e6f742073656c6c65720000000000000000000000000000600082015250565b6000615cd8601283615a09565b9150615ce382615ca2565b602082019050919050565b60006020820190508181036000830152615d0781615ccb565b9050919050565b7f4e487b7100000000000000000000000000000000000000000000000000000000600052603260045260246000fd5b7f496e73756666696369656e74207061796d656e74000000000000000000000000600082015250565b6000615d73601483615a09565b9150615d7e82615d3d565b602082019050919050565b60006020820190508181036000830152615da281615d66565b9050919050565b7f546869732061646472657373206973206e6f7420746865206974656d2773207360008201527f656c6c65722e0000000000000000000000000000000000000000000000000000602082015250565b6000615e05602683615a09565b9150615e1082615da9565b604082019050919050565b60006020820190508181036000830152615e3481615df8565b9050919050565b7f54686973206974656d2068617320616c7265616479206265656e20707572636860008201527f617365642e000000000000000000000000000000000000000000000000000000602082015250565b6000615e97602583615a09565b9150615ea282615e3b565b604082019050919050565b60006020820190508181036000830152615ec681615e8a565b9050919050565b7f54686520776973686c6973742068617320616c726561647920636c6f73656400600082015250565b6000615f03601f83615a09565b9150615f0e82615ecd565b602082019050919050565b60006020820190508181036000830152615f3281615ef6565b9050919050565b7f596f7520646f206e6f7420686176652074686520617574686f7269747920746f60008201527f20636c6f73652074686520776973686c69737400000000000000000000000000602082015250565b6000615f95603383615a09565b9150615fa082615f39565b604082019050919050565b60006020820190508181036000830152615fc481615f88565b9050919050565b7f49742773204e6f7420796f757220737570706f727420686973746f7279000000600082015250565b6000616001601d83615a09565b915061600c82615fcb565b602082019050919050565b6000602082019050818103600083015261603081615ff4565b905091905056fea26469706673582212201fb3339cba0b0859a5d1c5c25c9854557bd5465267fbdfad084076665837fd1264736f6c63430008120033",
  "immutableReferences": {},
  "source": "// SPDX-License-Identifier: MIT\r\npragma solidity >= 0.6.0 <0.9.0;\r\n\r\nimport \"./ItemDonation.sol\";\r\nimport \"./BasicDonation.sol\";\r\nimport \"./WishlistDonation.sol\";\r\n\r\ncontract ApplicationHandler is ItemDonation, BasicDonation, WishlistDonation {\r\n  address owner;\r\n\r\n  constructor(){\r\n    owner = msg.sender;\r\n  }\r\n\r\n  // ================= Frontend Call =================\r\n  //   \r\n  function callBasicDonation(address payable _to) external payable returns(uint256) {\r\n    return _transfer(_to, msg.value);\r\n  }\r\n  //  \r\n  function buyItemDonation(address payable _to, uint256 _itemId) external payable returns(uint256) {\r\n    return _buyItem(_to, _itemId, msg.value);\r\n  }\r\n  //   \r\n  function buyWishilistDonation(address payable _to, uint256 _wishlistId) external payable returns(uint256) {\r\n    return _buyWishlist(_to, _wishlistId, msg.value);\r\n  }\r\n\r\n  // ================= Backend Call =================\r\n  //      \r\n  function getMemberItemList(address _address) external view returns(ItemSol[] memory){\r\n    return _getItemList(myItems[_address]);\r\n  }\r\n\r\n  //    \r\n  function getItemDetail(uint256 _id) external view returns(ItemSol memory){\r\n    return _getItemDetail(_id);\r\n  }\r\n\r\n  //   \r\n  function addMemberItem(ItemSol memory _item) external{\r\n    _createItem(_item);\r\n  }\r\n\r\n  //   \r\n  function deleteMemberItem(address _address, uint256 _id) external {\r\n    _deleteItem(_address, _id);\r\n  }\r\n\r\n  //   \r\n  function updateMemberItem(ItemSol memory _item) external {\r\n    _updateItem(_item);\r\n  }\r\n\r\n  //    \r\n  function getMemberWishLists(address _address) external view returns(WishlistSol[] memory){\r\n    return _getWishlists(myWishlists[_address]);\r\n  }\r\n\r\n  //    \r\n  function getMemberWishListDetail(uint256 _id) external view returns(WishlistSol memory){\r\n    return _getWishlistDetail(_id);\r\n  }\r\n\r\n  //   \r\n  function addMemberWishList(WishlistSol memory _wishlist) external{\r\n    _createWishlist(_wishlist);\r\n  }\r\n\r\n  //   \r\n  function deleteMemberWishlist(address _address, uint256 _id) external {\r\n    _deleteWishlist(_address, _id);\r\n  }\r\n\r\n  //   \r\n  function updateMemberWishlist(WishlistSol memory _wishlist) external {\r\n    _updateWishlist(_wishlist);\r\n  }\r\n\r\n  //    \r\n  function getSupportDetail(address _address, uint256 _id) external view returns(SupportSol memory){\r\n    return _getSupportDetail(_address, _id);\r\n  }\r\n\r\n  //    \r\n  function getSupportList(address _address) external view returns(SupportSol[] memory){\r\n    return _getSupportList(_address);\r\n  }\r\n\r\n  //    \r\n  function getSupportSendTime(address _address, uint256 _id) external view returns(uint256){\r\n    return _getSupportDetail(_address, _id).sendTimestamp;\r\n  }\r\n}",
  "sourcePath": "C:\\Users\\SSAFY\\Desktop\\S08P22A209\\contract\\contracts\\ApplicationHandler.sol",
  "compiler": {
    "name": "solc",
    "version": "0.8.18+commit.87f61d96.Emscripten.clang"
  },
  "schemaVersion": "3.4.13",
  "updatedAt": "2023-03-23T00:57:57.818Z",
  "devdoc": {
    "kind": "dev",
    "methods": {},
    "version": 1
  },
  "userdoc": {
    "kind": "user",
    "methods": {},
    "version": 1
  }
}