{
  "contractName": "ApplicationHandler",
  "abi": [
    {
      "inputs": [],
      "stateMutability": "nonpayable",
      "type": "constructor"
    },
    {
      "anonymous": false,
      "inputs": [
        {
          "indexed": false,
          "internalType": "uint64",
          "name": "value",
          "type": "uint64"
        }
      ],
      "name": "SupportEvent",
      "type": "event"
    },
    {
      "inputs": [
        {
          "internalType": "uint64",
          "name": "",
          "type": "uint64"
        }
      ],
      "name": "items",
      "outputs": [
        {
          "internalType": "uint64",
          "name": "id",
          "type": "uint64"
        },
        {
          "internalType": "bytes",
          "name": "title",
          "type": "bytes"
        },
        {
          "internalType": "bytes",
          "name": "imgPath",
          "type": "bytes"
        },
        {
          "internalType": "bytes",
          "name": "description",
          "type": "bytes"
        },
        {
          "internalType": "uint256",
          "name": "price",
          "type": "uint256"
        },
        {
          "internalType": "uint64",
          "name": "salesCount",
          "type": "uint64"
        },
        {
          "internalType": "bytes",
          "name": "message",
          "type": "bytes"
        },
        {
          "internalType": "bytes",
          "name": "filePath",
          "type": "bytes"
        },
        {
          "internalType": "bool",
          "name": "isDeleted",
          "type": "bool"
        },
        {
          "internalType": "address",
          "name": "seller",
          "type": "address"
        }
      ],
      "stateMutability": "view",
      "type": "function"
    },
    {
      "inputs": [
        {
          "internalType": "address",
          "name": "",
          "type": "address"
        },
        {
          "internalType": "uint256",
          "name": "",
          "type": "uint256"
        }
      ],
      "name": "myItems",
      "outputs": [
        {
          "internalType": "uint64",
          "name": "",
          "type": "uint64"
        }
      ],
      "stateMutability": "view",
      "type": "function"
    },
    {
      "inputs": [
        {
          "internalType": "address",
          "name": "",
          "type": "address"
        },
        {
          "internalType": "uint256",
          "name": "",
          "type": "uint256"
        }
      ],
      "name": "myWishlists",
      "outputs": [
        {
          "internalType": "uint64",
          "name": "",
          "type": "uint64"
        }
      ],
      "stateMutability": "view",
      "type": "function"
    },
    {
      "inputs": [],
      "name": "owner",
      "outputs": [
        {
          "internalType": "address payable",
          "name": "",
          "type": "address"
        }
      ],
      "stateMutability": "view",
      "type": "function"
    },
    {
      "inputs": [
        {
          "internalType": "address",
          "name": "",
          "type": "address"
        },
        {
          "internalType": "uint64",
          "name": "",
          "type": "uint64"
        }
      ],
      "name": "purchasedItems",
      "outputs": [
        {
          "internalType": "bool",
          "name": "",
          "type": "bool"
        }
      ],
      "stateMutability": "view",
      "type": "function"
    },
    {
      "inputs": [
        {
          "internalType": "address",
          "name": "",
          "type": "address"
        }
      ],
      "name": "supportCount",
      "outputs": [
        {
          "internalType": "uint64",
          "name": "",
          "type": "uint64"
        }
      ],
      "stateMutability": "view",
      "type": "function"
    },
    {
      "inputs": [
        {
          "internalType": "address",
          "name": "",
          "type": "address"
        },
        {
          "internalType": "uint64",
          "name": "",
          "type": "uint64"
        }
      ],
      "name": "supportList",
      "outputs": [
        {
          "internalType": "uint64",
          "name": "id",
          "type": "uint64"
        },
        {
          "internalType": "address",
          "name": "from",
          "type": "address"
        },
        {
          "internalType": "address",
          "name": "to",
          "type": "address"
        },
        {
          "internalType": "uint256",
          "name": "amount",
          "type": "uint256"
        },
        {
          "internalType": "uint256",
          "name": "sendTimestamp",
          "type": "uint256"
        },
        {
          "internalType": "enum SupportHistory.SupportType",
          "name": "supportType",
          "type": "uint8"
        }
      ],
      "stateMutability": "view",
      "type": "function"
    },
    {
      "inputs": [
        {
          "internalType": "uint256",
          "name": "",
          "type": "uint256"
        }
      ],
      "name": "wishlists",
      "outputs": [
        {
          "internalType": "uint64",
          "name": "id",
          "type": "uint64"
        },
        {
          "internalType": "bytes",
          "name": "imgPath",
          "type": "bytes"
        },
        {
          "internalType": "bytes",
          "name": "title",
          "type": "bytes"
        },
        {
          "internalType": "bytes",
          "name": "description",
          "type": "bytes"
        },
        {
          "internalType": "uint256",
          "name": "collectedAmount",
          "type": "uint256"
        },
        {
          "internalType": "uint256",
          "name": "targetAmount",
          "type": "uint256"
        },
        {
          "internalType": "bytes",
          "name": "message",
          "type": "bytes"
        },
        {
          "internalType": "bool",
          "name": "isClosed",
          "type": "bool"
        },
        {
          "internalType": "address",
          "name": "seller",
          "type": "address"
        }
      ],
      "stateMutability": "view",
      "type": "function"
    },
    {
      "inputs": [
        {
          "internalType": "address payable",
          "name": "_to",
          "type": "address"
        }
      ],
      "name": "callBasicDonation",
      "outputs": [
        {
          "internalType": "uint64",
          "name": "",
          "type": "uint64"
        }
      ],
      "stateMutability": "payable",
      "type": "function"
    },
    {
      "inputs": [
        {
          "internalType": "address payable",
          "name": "_to",
          "type": "address"
        },
        {
          "internalType": "uint64",
          "name": "_itemId",
          "type": "uint64"
        }
      ],
      "name": "buyItemDonation",
      "outputs": [
        {
          "internalType": "uint64",
          "name": "",
          "type": "uint64"
        }
      ],
      "stateMutability": "payable",
      "type": "function"
    },
    {
      "inputs": [
        {
          "internalType": "address payable",
          "name": "_to",
          "type": "address"
        },
        {
          "internalType": "uint64",
          "name": "_wishlistId",
          "type": "uint64"
        }
      ],
      "name": "buyWishlistDonation",
      "outputs": [
        {
          "internalType": "uint64",
          "name": "",
          "type": "uint64"
        }
      ],
      "stateMutability": "payable",
      "type": "function"
    },
    {
      "inputs": [
        {
          "internalType": "address",
          "name": "_address",
          "type": "address"
        }
      ],
      "name": "getMemberItemList",
      "outputs": [
        {
          "components": [
            {
              "internalType": "uint64",
              "name": "id",
              "type": "uint64"
            },
            {
              "internalType": "bytes",
              "name": "title",
              "type": "bytes"
            },
            {
              "internalType": "bytes",
              "name": "imgPath",
              "type": "bytes"
            },
            {
              "internalType": "bytes",
              "name": "description",
              "type": "bytes"
            },
            {
              "internalType": "uint256",
              "name": "price",
              "type": "uint256"
            },
            {
              "internalType": "uint64",
              "name": "salesCount",
              "type": "uint64"
            },
            {
              "internalType": "bytes",
              "name": "message",
              "type": "bytes"
            },
            {
              "internalType": "bytes",
              "name": "filePath",
              "type": "bytes"
            },
            {
              "internalType": "bool",
              "name": "isDeleted",
              "type": "bool"
            },
            {
              "internalType": "address",
              "name": "seller",
              "type": "address"
            }
          ],
          "internalType": "struct ItemDonation.ItemSol[]",
          "name": "",
          "type": "tuple[]"
        }
      ],
      "stateMutability": "view",
      "type": "function"
    },
    {
      "inputs": [
        {
          "internalType": "uint64",
          "name": "_id",
          "type": "uint64"
        }
      ],
      "name": "getItemDetail",
      "outputs": [
        {
          "components": [
            {
              "internalType": "uint64",
              "name": "id",
              "type": "uint64"
            },
            {
              "internalType": "bytes",
              "name": "title",
              "type": "bytes"
            },
            {
              "internalType": "bytes",
              "name": "imgPath",
              "type": "bytes"
            },
            {
              "internalType": "bytes",
              "name": "description",
              "type": "bytes"
            },
            {
              "internalType": "uint256",
              "name": "price",
              "type": "uint256"
            },
            {
              "internalType": "uint64",
              "name": "salesCount",
              "type": "uint64"
            },
            {
              "internalType": "bytes",
              "name": "message",
              "type": "bytes"
            },
            {
              "internalType": "bytes",
              "name": "filePath",
              "type": "bytes"
            },
            {
              "internalType": "bool",
              "name": "isDeleted",
              "type": "bool"
            },
            {
              "internalType": "address",
              "name": "seller",
              "type": "address"
            }
          ],
          "internalType": "struct ItemDonation.ItemSol",
          "name": "",
          "type": "tuple"
        }
      ],
      "stateMutability": "view",
      "type": "function"
    },
    {
      "inputs": [
        {
          "components": [
            {
              "internalType": "uint64",
              "name": "id",
              "type": "uint64"
            },
            {
              "internalType": "bytes",
              "name": "title",
              "type": "bytes"
            },
            {
              "internalType": "bytes",
              "name": "imgPath",
              "type": "bytes"
            },
            {
              "internalType": "bytes",
              "name": "description",
              "type": "bytes"
            },
            {
              "internalType": "uint256",
              "name": "price",
              "type": "uint256"
            },
            {
              "internalType": "uint64",
              "name": "salesCount",
              "type": "uint64"
            },
            {
              "internalType": "bytes",
              "name": "message",
              "type": "bytes"
            },
            {
              "internalType": "bytes",
              "name": "filePath",
              "type": "bytes"
            },
            {
              "internalType": "bool",
              "name": "isDeleted",
              "type": "bool"
            },
            {
              "internalType": "address",
              "name": "seller",
              "type": "address"
            }
          ],
          "internalType": "struct ItemDonation.ItemSol",
          "name": "_item",
          "type": "tuple"
        }
      ],
      "name": "addMemberItem",
      "outputs": [],
      "stateMutability": "nonpayable",
      "type": "function"
    },
    {
      "inputs": [
        {
          "internalType": "address",
          "name": "_address",
          "type": "address"
        },
        {
          "internalType": "uint64",
          "name": "_id",
          "type": "uint64"
        }
      ],
      "name": "deleteMemberItem",
      "outputs": [],
      "stateMutability": "nonpayable",
      "type": "function"
    },
    {
      "inputs": [
        {
          "components": [
            {
              "internalType": "uint64",
              "name": "id",
              "type": "uint64"
            },
            {
              "internalType": "bytes",
              "name": "title",
              "type": "bytes"
            },
            {
              "internalType": "bytes",
              "name": "imgPath",
              "type": "bytes"
            },
            {
              "internalType": "bytes",
              "name": "description",
              "type": "bytes"
            },
            {
              "internalType": "uint256",
              "name": "price",
              "type": "uint256"
            },
            {
              "internalType": "uint64",
              "name": "salesCount",
              "type": "uint64"
            },
            {
              "internalType": "bytes",
              "name": "message",
              "type": "bytes"
            },
            {
              "internalType": "bytes",
              "name": "filePath",
              "type": "bytes"
            },
            {
              "internalType": "bool",
              "name": "isDeleted",
              "type": "bool"
            },
            {
              "internalType": "address",
              "name": "seller",
              "type": "address"
            }
          ],
          "internalType": "struct ItemDonation.ItemSol",
          "name": "_item",
          "type": "tuple"
        }
      ],
      "name": "updateMemberItem",
      "outputs": [],
      "stateMutability": "nonpayable",
      "type": "function"
    },
    {
      "inputs": [
        {
          "internalType": "address",
          "name": "_address",
          "type": "address"
        }
      ],
      "name": "getMemberWishLists",
      "outputs": [
        {
          "components": [
            {
              "internalType": "uint64",
              "name": "id",
              "type": "uint64"
            },
            {
              "internalType": "bytes",
              "name": "imgPath",
              "type": "bytes"
            },
            {
              "internalType": "bytes",
              "name": "title",
              "type": "bytes"
            },
            {
              "internalType": "bytes",
              "name": "description",
              "type": "bytes"
            },
            {
              "internalType": "uint256",
              "name": "collectedAmount",
              "type": "uint256"
            },
            {
              "internalType": "uint256",
              "name": "targetAmount",
              "type": "uint256"
            },
            {
              "internalType": "bytes",
              "name": "message",
              "type": "bytes"
            },
            {
              "internalType": "bool",
              "name": "isClosed",
              "type": "bool"
            },
            {
              "internalType": "address",
              "name": "seller",
              "type": "address"
            }
          ],
          "internalType": "struct WishlistDonation.WishlistSol[]",
          "name": "",
          "type": "tuple[]"
        }
      ],
      "stateMutability": "view",
      "type": "function"
    },
    {
      "inputs": [
        {
          "internalType": "uint64",
          "name": "_id",
          "type": "uint64"
        }
      ],
      "name": "getMemberWishListDetail",
      "outputs": [
        {
          "components": [
            {
              "internalType": "uint64",
              "name": "id",
              "type": "uint64"
            },
            {
              "internalType": "bytes",
              "name": "imgPath",
              "type": "bytes"
            },
            {
              "internalType": "bytes",
              "name": "title",
              "type": "bytes"
            },
            {
              "internalType": "bytes",
              "name": "description",
              "type": "bytes"
            },
            {
              "internalType": "uint256",
              "name": "collectedAmount",
              "type": "uint256"
            },
            {
              "internalType": "uint256",
              "name": "targetAmount",
              "type": "uint256"
            },
            {
              "internalType": "bytes",
              "name": "message",
              "type": "bytes"
            },
            {
              "internalType": "bool",
              "name": "isClosed",
              "type": "bool"
            },
            {
              "internalType": "address",
              "name": "seller",
              "type": "address"
            }
          ],
          "internalType": "struct WishlistDonation.WishlistSol",
          "name": "",
          "type": "tuple"
        }
      ],
      "stateMutability": "view",
      "type": "function"
    },
    {
      "inputs": [
        {
          "components": [
            {
              "internalType": "uint64",
              "name": "id",
              "type": "uint64"
            },
            {
              "internalType": "bytes",
              "name": "imgPath",
              "type": "bytes"
            },
            {
              "internalType": "bytes",
              "name": "title",
              "type": "bytes"
            },
            {
              "internalType": "bytes",
              "name": "description",
              "type": "bytes"
            },
            {
              "internalType": "uint256",
              "name": "collectedAmount",
              "type": "uint256"
            },
            {
              "internalType": "uint256",
              "name": "targetAmount",
              "type": "uint256"
            },
            {
              "internalType": "bytes",
              "name": "message",
              "type": "bytes"
            },
            {
              "internalType": "bool",
              "name": "isClosed",
              "type": "bool"
            },
            {
              "internalType": "address",
              "name": "seller",
              "type": "address"
            }
          ],
          "internalType": "struct WishlistDonation.WishlistSol",
          "name": "_wishlist",
          "type": "tuple"
        }
      ],
      "name": "addMemberWishList",
      "outputs": [],
      "stateMutability": "nonpayable",
      "type": "function"
    },
    {
      "inputs": [
        {
          "internalType": "address",
          "name": "_address",
          "type": "address"
        },
        {
          "internalType": "uint64",
          "name": "_id",
          "type": "uint64"
        }
      ],
      "name": "deleteMemberWishlist",
      "outputs": [],
      "stateMutability": "nonpayable",
      "type": "function"
    },
    {
      "inputs": [
        {
          "components": [
            {
              "internalType": "uint64",
              "name": "id",
              "type": "uint64"
            },
            {
              "internalType": "bytes",
              "name": "imgPath",
              "type": "bytes"
            },
            {
              "internalType": "bytes",
              "name": "title",
              "type": "bytes"
            },
            {
              "internalType": "bytes",
              "name": "description",
              "type": "bytes"
            },
            {
              "internalType": "uint256",
              "name": "collectedAmount",
              "type": "uint256"
            },
            {
              "internalType": "uint256",
              "name": "targetAmount",
              "type": "uint256"
            },
            {
              "internalType": "bytes",
              "name": "message",
              "type": "bytes"
            },
            {
              "internalType": "bool",
              "name": "isClosed",
              "type": "bool"
            },
            {
              "internalType": "address",
              "name": "seller",
              "type": "address"
            }
          ],
          "internalType": "struct WishlistDonation.WishlistSol",
          "name": "_wishlist",
          "type": "tuple"
        }
      ],
      "name": "updateMemberWishlist",
      "outputs": [],
      "stateMutability": "nonpayable",
      "type": "function"
    },
    {
      "inputs": [
        {
          "internalType": "address",
          "name": "_address",
          "type": "address"
        },
        {
          "internalType": "uint64",
          "name": "_id",
          "type": "uint64"
        }
      ],
      "name": "getSupportDetail",
      "outputs": [
        {
          "components": [
            {
              "internalType": "uint64",
              "name": "id",
              "type": "uint64"
            },
            {
              "internalType": "address",
              "name": "from",
              "type": "address"
            },
            {
              "internalType": "address",
              "name": "to",
              "type": "address"
            },
            {
              "internalType": "uint256",
              "name": "amount",
              "type": "uint256"
            },
            {
              "internalType": "uint256",
              "name": "sendTimestamp",
              "type": "uint256"
            },
            {
              "internalType": "enum SupportHistory.SupportType",
              "name": "supportType",
              "type": "uint8"
            }
          ],
          "internalType": "struct SupportHistory.SupportSol",
          "name": "",
          "type": "tuple"
        }
      ],
      "stateMutability": "view",
      "type": "function"
    },
    {
      "inputs": [
        {
          "internalType": "address",
          "name": "_address",
          "type": "address"
        }
      ],
      "name": "getSupportList",
      "outputs": [
        {
          "components": [
            {
              "internalType": "uint64",
              "name": "id",
              "type": "uint64"
            },
            {
              "internalType": "address",
              "name": "from",
              "type": "address"
            },
            {
              "internalType": "address",
              "name": "to",
              "type": "address"
            },
            {
              "internalType": "uint256",
              "name": "amount",
              "type": "uint256"
            },
            {
              "internalType": "uint256",
              "name": "sendTimestamp",
              "type": "uint256"
            },
            {
              "internalType": "enum SupportHistory.SupportType",
              "name": "supportType",
              "type": "uint8"
            }
          ],
          "internalType": "struct SupportHistory.SupportSol[]",
          "name": "",
          "type": "tuple[]"
        }
      ],
      "stateMutability": "view",
      "type": "function"
    },
    {
      "inputs": [
        {
          "internalType": "address",
          "name": "_address",
          "type": "address"
        },
        {
          "internalType": "uint64",
          "name": "_id",
          "type": "uint64"
        }
      ],
      "name": "getSupportSendTime",
      "outputs": [
        {
          "internalType": "uint256",
          "name": "",
          "type": "uint256"
        }
      ],
      "stateMutability": "view",
      "type": "function"
    }
  ],
  "bytecode": "0x608060405234801561001057600080fd5b50336008806101000a81548173ffffffffffffffffffffffffffffffffffffffff021916908373ffffffffffffffffffffffffffffffffffffffff1602179055506168d180620000616000396000f3fe60806040526004361061014b5760003560e01c80638da5cb5b116100b6578063aed3b4a61161006f578063aed3b4a614610513578063b9a44c2e14610550578063be7dfa041461058d578063cb0fce8d146105ca578063dc83f47c14610607578063f3a037c0146106445761014b565b80638da5cb5b146103d757806396e685cf146104025780639d27b3571461043f578063a52c5dca1461047c578063a8f5e3c9146104a5578063a9afa55b146104ce5761014b565b806341368a071161010857806341368a07146102a25780635be5bc15146102cb57806367bfa83014610311578063746ef109146103415780637a29813b1461037e57806389da115a146103ae5761014b565b806308c914ef14610150578063098ed1b0146101795780630c1fa1ef146101b657806321f3d128146101f3578063234c921814610230578063271df4c114610272575b600080fd5b34801561015c57600080fd5b5061017760048036038101906101729190614c87565b61066d565b005b34801561018557600080fd5b506101a0600480360381019061019b9190614cc7565b610685565b6040516101ad9190614eb0565b60405180910390f35b3480156101c257600080fd5b506101dd60048036038101906101d89190614ed2565b61069d565b6040516101ea9190614f0e565b60405180910390f35b3480156101ff57600080fd5b5061021a60048036038101906102159190614c87565b6106c4565b6040516102279190614f38565b60405180910390f35b34801561023c57600080fd5b5061025760048036038101906102529190614c87565b6106f3565b60405161026996959493929190614fe8565b60405180910390f35b61028c60048036038101906102879190615087565b61079d565b6040516102999190614f0e565b60405180910390f35b3480156102ae57600080fd5b506102c960048036038101906102c4919061539b565b61080f565b005b3480156102d757600080fd5b506102f260048036038101906102ed9190614cc7565b61081b565b6040516103089a9998979695949392919061542e565b60405180910390f35b61032b600480360381019061032691906154ed565b610b6c565b6040516103389190614f0e565b60405180910390f35b34801561034d57600080fd5b5061036860048036038101906103639190614cc7565b610bde565b6040516103759190615623565b60405180910390f35b610398600480360381019061039391906154ed565b610bf6565b6040516103a59190614f0e565b60405180910390f35b3480156103ba57600080fd5b506103d560048036038101906103d09190614c87565b610c68565b005b3480156103e357600080fd5b506103ec610c76565b6040516103f99190615654565b60405180910390f35b34801561040e57600080fd5b5061042960048036038101906104249190614ed2565b610c9a565b6040516104369190615827565b60405180910390f35b34801561044b57600080fd5b5061046660048036038101906104619190614ed2565b610d6d565b6040516104739190615982565b60405180910390f35b34801561048857600080fd5b506104a3600480360381019061049e919061539b565b610d7f565b005b3480156104b157600080fd5b506104cc60048036038101906104c79190615b26565b610d8b565b005b3480156104da57600080fd5b506104f560048036038101906104f09190615b6f565b610d97565b60405161050a99989796959493929190615b9c565b60405180910390f35b34801561051f57600080fd5b5061053a60048036038101906105359190614c87565b611046565b6040516105479190615cc0565b60405180910390f35b34801561055c57600080fd5b5061057760048036038101906105729190615cdb565b611060565b6040516105849190614f0e565b60405180910390f35b34801561059957600080fd5b506105b460048036038101906105af9190615cdb565b6110ad565b6040516105c19190614f0e565b60405180910390f35b3480156105d657600080fd5b506105f160048036038101906105ec9190614c87565b6110fa565b6040516105fe9190615d1b565b60405180910390f35b34801561061357600080fd5b5061062e60048036038101906106299190614ed2565b611112565b60405161063b9190615ed2565b60405180910390f35b34801561065057600080fd5b5061066b60048036038101906106669190615b26565b6111e5565b005b610681828267ffffffffffffffff166111f1565b5050565b61068d614a6a565b61069682611662565b9050919050565b60016020528060005260406000206000915054906101000a900467ffffffffffffffff1681565b60056020528160005260406000206020528060005260406000206000915091509054906101000a900460ff1681565b6000602052816000526040600020602052806000526040600020600091509150508060000160009054906101000a900467ffffffffffffffff16908060000160089054906101000a900473ffffffffffffffffffffffffffffffffffffffff16908060010160009054906101000a900473ffffffffffffffffffffffffffffffffffffffff16908060020154908060030154908060040160009054906101000a900460ff16905086565b6000806107cd8334600060088054906101000a900473ffffffffffffffffffffffffffffffffffffffff16611a59565b90507fff07fa36636b28fb2ea9e53e46f195c2f746140d9ff9663c3eed380a5f5cb5ee816040516107fe9190614f0e565b60405180910390a180915050919050565b61081881611b78565b50565b60026020528060005260406000206000915090508060000160009054906101000a900467ffffffffffffffff169080600101805461085890615f23565b80601f016020809104026020016040519081016040528092919081815260200182805461088490615f23565b80156108d15780601f106108a6576101008083540402835291602001916108d1565b820191906000526020600020905b8154815290600101906020018083116108b457829003601f168201915b5050505050908060020180546108e690615f23565b80601f016020809104026020016040519081016040528092919081815260200182805461091290615f23565b801561095f5780601f106109345761010080835404028352916020019161095f565b820191906000526020600020905b81548152906001019060200180831161094257829003601f168201915b50505050509080600301805461097490615f23565b80601f01602080910402602001604051908101604052809291908181526020018280546109a090615f23565b80156109ed5780601f106109c2576101008083540402835291602001916109ed565b820191906000526020600020905b8154815290600101906020018083116109d057829003601f168201915b5050505050908060040154908060050160009054906101000a900467ffffffffffffffff1690806006018054610a2290615f23565b80601f0160208091040260200160405190810160405280929190818152602001828054610a4e90615f23565b8015610a9b5780601f10610a7057610100808354040283529160200191610a9b565b820191906000526020600020905b815481529060010190602001808311610a7e57829003601f168201915b505050505090806007018054610ab090615f23565b80601f0160208091040260200160405190810160405280929190818152602001828054610adc90615f23565b8015610b295780601f10610afe57610100808354040283529160200191610b29565b820191906000526020600020905b815481529060010190602001808311610b0c57829003601f168201915b5050505050908060080160009054906101000a900460ff16908060080160019054906101000a900473ffffffffffffffffffffffffffffffffffffffff1690508a565b600080610b9b84843460088054906101000a900473ffffffffffffffffffffffffffffffffffffffff16611de6565b90507fff07fa36636b28fb2ea9e53e46f195c2f746140d9ff9663c3eed380a5f5cb5ee81604051610bcc9190614f0e565b60405180910390a18091505092915050565b610be6614ad8565b610bef826121ba565b9050919050565b600080610c2584843460088054906101000a900473ffffffffffffffffffffffffffffffffffffffff166126bb565b90507fff07fa36636b28fb2ea9e53e46f195c2f746140d9ff9663c3eed380a5f5cb5ee81604051610c569190614f0e565b60405180910390a18091505092915050565b610c728282612db1565b5050565b60088054906101000a900473ffffffffffffffffffffffffffffffffffffffff1681565b6060610d66600360008473ffffffffffffffffffffffffffffffffffffffff1673ffffffffffffffffffffffffffffffffffffffff168152602001908152602001600020805480602002602001604051908101604052809291908181526020018280548015610d5c57602002820191906000526020600020906000905b82829054906101000a900467ffffffffffffffff1667ffffffffffffffff1681526020019060080190602082600701049283019260010382029150808411610d175790505b505050505061330f565b9050919050565b6060610d7882613844565b9050919050565b610d8881613af6565b50565b610d9481613c92565b50565b60066020528060005260406000206000915090508060000160009054906101000a900467ffffffffffffffff1690806001018054610dd490615f23565b80601f0160208091040260200160405190810160405280929190818152602001828054610e0090615f23565b8015610e4d5780601f10610e2257610100808354040283529160200191610e4d565b820191906000526020600020905b815481529060010190602001808311610e3057829003601f168201915b505050505090806002018054610e6290615f23565b80601f0160208091040260200160405190810160405280929190818152602001828054610e8e90615f23565b8015610edb5780601f10610eb057610100808354040283529160200191610edb565b820191906000526020600020905b815481529060010190602001808311610ebe57829003601f168201915b505050505090806003018054610ef090615f23565b80601f0160208091040260200160405190810160405280929190818152602001828054610f1c90615f23565b8015610f695780601f10610f3e57610100808354040283529160200191610f69565b820191906000526020600020905b815481529060010190602001808311610f4c57829003601f168201915b505050505090806004015490806005015490806006018054610f8a90615f23565b80601f0160208091040260200160405190810160405280929190818152602001828054610fb690615f23565b80156110035780601f10610fd857610100808354040283529160200191611003565b820191906000526020600020905b815481529060010190602001808311610fe657829003601f168201915b5050505050908060070160009054906101000a900460ff16908060070160019054906101000a900473ffffffffffffffffffffffffffffffffffffffff16905089565b61104e614b57565b6110588383613e74565b905092915050565b6007602052816000526040600020818154811061107c57600080fd5b9060005260206000209060049182820401919006600802915091509054906101000a900467ffffffffffffffff1681565b600360205281600052604060002081815481106110c957600080fd5b9060005260206000209060049182820401919006600802915091509054906101000a900467ffffffffffffffff1681565b60006111068383613e74565b60800151905092915050565b60606111de600760008473ffffffffffffffffffffffffffffffffffffffff1673ffffffffffffffffffffffffffffffffffffffff1681526020019081526020016000208054806020026020016040519081016040528092919081815260200182805480156111d457602002820191906000526020600020906000905b82829054906101000a900467ffffffffffffffff1667ffffffffffffffff168152602001906008019060208260070104928301926001038202915080841161118f5790505b50505050506140cf565b9050919050565b6111ee81614540565b50565b600860009054906101000a900467ffffffffffffffff1667ffffffffffffffff16811115611254576040517f08c379a000000000000000000000000000000000000000000000000000000000815260040161124b90615fb1565b60405180910390fd5b600060066000838152602001908152602001600020604051806101200160405290816000820160009054906101000a900467ffffffffffffffff1667ffffffffffffffff1667ffffffffffffffff1681526020016001820180546112b790615f23565b80601f01602080910402602001604051908101604052809291908181526020018280546112e390615f23565b80156113305780601f1061130557610100808354040283529160200191611330565b820191906000526020600020905b81548152906001019060200180831161131357829003601f168201915b5050505050815260200160028201805461134990615f23565b80601f016020809104026020016040519081016040528092919081815260200182805461137590615f23565b80156113c25780601f10611397576101008083540402835291602001916113c2565b820191906000526020600020905b8154815290600101906020018083116113a557829003601f168201915b505050505081526020016003820180546113db90615f23565b80601f016020809104026020016040519081016040528092919081815260200182805461140790615f23565b80156114545780601f1061142957610100808354040283529160200191611454565b820191906000526020600020905b81548152906001019060200180831161143757829003601f168201915b50505050508152602001600482015481526020016005820154815260200160068201805461148190615f23565b80601f01602080910402602001604051908101604052809291908181526020018280546114ad90615f23565b80156114fa5780601f106114cf576101008083540402835291602001916114fa565b820191906000526020600020905b8154815290600101906020018083116114dd57829003601f168201915b505050505081526020016007820160009054906101000a900460ff161515151581526020016007820160019054906101000a900473ffffffffffffffffffffffffffffffffffffffff1673ffffffffffffffffffffffffffffffffffffffff1673ffffffffffffffffffffffffffffffffffffffff168152505090508060e00151156115bb576040517f08c379a00000000000000000000000000000000000000000000000000000000081526004016115b29061601d565b60405180910390fd5b8273ffffffffffffffffffffffffffffffffffffffff1681610100015173ffffffffffffffffffffffffffffffffffffffff161461162e576040517f08c379a0000000000000000000000000000000000000000000000000000000008152600401611625906160af565b60405180910390fd5b60016006600084815260200190815260200160002060070160006101000a81548160ff021916908315150217905550505050565b61166a614a6a565b600860009054906101000a900467ffffffffffffffff1667ffffffffffffffff168267ffffffffffffffff1611156116d7576040517f08c379a00000000000000000000000000000000000000000000000000000000081526004016116ce90615fb1565b60405180910390fd5b60008267ffffffffffffffff1603611724576040517f08c379a000000000000000000000000000000000000000000000000000000000815260040161171b90615fb1565b60405180910390fd5b6000600660008467ffffffffffffffff168152602001908152602001600020604051806101200160405290816000820160009054906101000a900467ffffffffffffffff1667ffffffffffffffff1667ffffffffffffffff16815260200160018201805461179190615f23565b80601f01602080910402602001604051908101604052809291908181526020018280546117bd90615f23565b801561180a5780601f106117df5761010080835404028352916020019161180a565b820191906000526020600020905b8154815290600101906020018083116117ed57829003601f168201915b5050505050815260200160028201805461182390615f23565b80601f016020809104026020016040519081016040528092919081815260200182805461184f90615f23565b801561189c5780601f106118715761010080835404028352916020019161189c565b820191906000526020600020905b81548152906001019060200180831161187f57829003601f168201915b505050505081526020016003820180546118b590615f23565b80601f01602080910402602001604051908101604052809291908181526020018280546118e190615f23565b801561192e5780601f106119035761010080835404028352916020019161192e565b820191906000526020600020905b81548152906001019060200180831161191157829003601f168201915b50505050508152602001600482015481526020016005820154815260200160068201805461195b90615f23565b80601f016020809104026020016040519081016040528092919081815260200182805461198790615f23565b80156119d45780601f106119a9576101008083540402835291602001916119d4565b820191906000526020600020905b8154815290600101906020018083116119b757829003601f168201915b505050505081526020016007820160009054906101000a900460ff161515151581526020016007820160019054906101000a900473ffffffffffffffffffffffffffffffffffffffff1673ffffffffffffffffffffffffffffffffffffffff1673ffffffffffffffffffffffffffffffffffffffff1681525050905080915050919050565b600047841115611a9e576040517f08c379a0000000000000000000000000000000000000000000000000000000008152600401611a959061611b565b60405180910390fd5b6000611aac338787876147f4565b905060006103e8600587611ac0919061616a565b611aca91906161db565b905060008187611ada919061620c565b90508473ffffffffffffffffffffffffffffffffffffffff166108fc839081150290604051600060405180830381858888f19350505050158015611b22573d6000803e3d6000fd5b508773ffffffffffffffffffffffffffffffffffffffff166108fc829081150290604051600060405180830381858888f19350505050158015611b69573d6000803e3d6000fd5b50829350505050949350505050565b6008600081819054906101000a900467ffffffffffffffff1680929190611b9e90616240565b91906101000a81548167ffffffffffffffff021916908367ffffffffffffffff16021790555050600860009054906101000a900467ffffffffffffffff16816000019067ffffffffffffffff16908167ffffffffffffffff16815250508060066000600860009054906101000a900467ffffffffffffffff1667ffffffffffffffff16815260200190815260200160002060008201518160000160006101000a81548167ffffffffffffffff021916908367ffffffffffffffff1602179055506020820151816001019081611c73919061641c565b506040820151816002019081611c89919061641c565b506060820151816003019081611c9f919061641c565b506080820151816004015560a0820151816005015560c0820151816006019081611cc9919061641c565b5060e08201518160070160006101000a81548160ff0219169083151502179055506101008201518160070160016101000a81548173ffffffffffffffffffffffffffffffffffffffff021916908373ffffffffffffffffffffffffffffffffffffffff1602179055509050506007600082610100015173ffffffffffffffffffffffffffffffffffffffff1673ffffffffffffffffffffffffffffffffffffffff168152602001908152602001600020600860009054906101000a900467ffffffffffffffff1690806001815401808255809150506001900390600052602060002090600491828204019190066008029091909190916101000a81548167ffffffffffffffff021916908367ffffffffffffffff16021790555050565b600047831115611e2b576040517f08c379a0000000000000000000000000000000000000000000000000000000008152600401611e229061611b565b60405180910390fd5b6000600660008667ffffffffffffffff168152602001908152602001600020604051806101200160405290816000820160009054906101000a900467ffffffffffffffff1667ffffffffffffffff1667ffffffffffffffff168152602001600182018054611e9890615f23565b80601f0160208091040260200160405190810160405280929190818152602001828054611ec490615f23565b8015611f115780601f10611ee657610100808354040283529160200191611f11565b820191906000526020600020905b815481529060010190602001808311611ef457829003601f168201915b50505050508152602001600282018054611f2a90615f23565b80601f0160208091040260200160405190810160405280929190818152602001828054611f5690615f23565b8015611fa35780601f10611f7857610100808354040283529160200191611fa3565b820191906000526020600020905b815481529060010190602001808311611f8657829003601f168201915b50505050508152602001600382018054611fbc90615f23565b80601f0160208091040260200160405190810160405280929190818152602001828054611fe890615f23565b80156120355780601f1061200a57610100808354040283529160200191612035565b820191906000526020600020905b81548152906001019060200180831161201857829003601f168201915b50505050508152602001600482015481526020016005820154815260200160068201805461206290615f23565b80601f016020809104026020016040519081016040528092919081815260200182805461208e90615f23565b80156120db5780601f106120b0576101008083540402835291602001916120db565b820191906000526020600020905b8154815290600101906020018083116120be57829003601f168201915b505050505081526020016007820160009054906101000a900460ff161515151581526020016007820160019054906101000a900473ffffffffffffffffffffffffffffffffffffffff1673ffffffffffffffffffffffffffffffffffffffff1673ffffffffffffffffffffffffffffffffffffffff168152505090508060e001511561219c576040517f08c379a000000000000000000000000000000000000000000000000000000000815260040161219390616560565b60405180910390fd5b60006121ab8786600287611a59565b90508092505050949350505050565b6121c2614ad8565b600460009054906101000a900467ffffffffffffffff1667ffffffffffffffff168267ffffffffffffffff16111561222f576040517f08c379a000000000000000000000000000000000000000000000000000000000815260040161222690615fb1565b60405180910390fd5b60008267ffffffffffffffff160361227c576040517f08c379a000000000000000000000000000000000000000000000000000000000815260040161227390615fb1565b60405180910390fd5b6000600260008467ffffffffffffffff1667ffffffffffffffff168152602001908152602001600020604051806101400160405290816000820160009054906101000a900467ffffffffffffffff1667ffffffffffffffff1667ffffffffffffffff1681526020016001820180546122f390615f23565b80601f016020809104026020016040519081016040528092919081815260200182805461231f90615f23565b801561236c5780601f106123415761010080835404028352916020019161236c565b820191906000526020600020905b81548152906001019060200180831161234f57829003601f168201915b5050505050815260200160028201805461238590615f23565b80601f01602080910402602001604051908101604052809291908181526020018280546123b190615f23565b80156123fe5780601f106123d3576101008083540402835291602001916123fe565b820191906000526020600020905b8154815290600101906020018083116123e157829003601f168201915b5050505050815260200160038201805461241790615f23565b80601f016020809104026020016040519081016040528092919081815260200182805461244390615f23565b80156124905780601f1061246557610100808354040283529160200191612490565b820191906000526020600020905b81548152906001019060200180831161247357829003601f168201915b50505050508152602001600482015481526020016005820160009054906101000a900467ffffffffffffffff1667ffffffffffffffff1667ffffffffffffffff1681526020016006820180546124e590615f23565b80601f016020809104026020016040519081016040528092919081815260200182805461251190615f23565b801561255e5780601f106125335761010080835404028352916020019161255e565b820191906000526020600020905b81548152906001019060200180831161254157829003601f168201915b5050505050815260200160078201805461257790615f23565b80601f01602080910402602001604051908101604052809291908181526020018280546125a390615f23565b80156125f05780601f106125c5576101008083540402835291602001916125f0565b820191906000526020600020905b8154815290600101906020018083116125d357829003601f168201915b505050505081526020016008820160009054906101000a900460ff161515151581526020016008820160019054906101000a900473ffffffffffffffffffffffffffffffffffffffff1673ffffffffffffffffffffffffffffffffffffffff1673ffffffffffffffffffffffffffffffffffffffff16815250509050806101000151156126b2576040517f08c379a00000000000000000000000000000000000000000000000000000000081526004016126a9906165cc565b60405180910390fd5b80915050919050565b600047831115612700576040517f08c379a00000000000000000000000000000000000000000000000000000000081526004016126f79061611b565b60405180910390fd5b6000600260008667ffffffffffffffff1667ffffffffffffffff168152602001908152602001600020604051806101400160405290816000820160009054906101000a900467ffffffffffffffff1667ffffffffffffffff1667ffffffffffffffff16815260200160018201805461277790615f23565b80601f01602080910402602001604051908101604052809291908181526020018280546127a390615f23565b80156127f05780601f106127c5576101008083540402835291602001916127f0565b820191906000526020600020905b8154815290600101906020018083116127d357829003601f168201915b5050505050815260200160028201805461280990615f23565b80601f016020809104026020016040519081016040528092919081815260200182805461283590615f23565b80156128825780601f1061285757610100808354040283529160200191612882565b820191906000526020600020905b81548152906001019060200180831161286557829003601f168201915b5050505050815260200160038201805461289b90615f23565b80601f01602080910402602001604051908101604052809291908181526020018280546128c790615f23565b80156129145780601f106128e957610100808354040283529160200191612914565b820191906000526020600020905b8154815290600101906020018083116128f757829003601f168201915b50505050508152602001600482015481526020016005820160009054906101000a900467ffffffffffffffff1667ffffffffffffffff1667ffffffffffffffff16815260200160068201805461296990615f23565b80601f016020809104026020016040519081016040528092919081815260200182805461299590615f23565b80156129e25780601f106129b7576101008083540402835291602001916129e2565b820191906000526020600020905b8154815290600101906020018083116129c557829003601f168201915b505050505081526020016007820180546129fb90615f23565b80601f0160208091040260200160405190810160405280929190818152602001828054612a2790615f23565b8015612a745780601f10612a4957610100808354040283529160200191612a74565b820191906000526020600020905b815481529060010190602001808311612a5757829003601f168201915b505050505081526020016008820160009054906101000a900460ff161515151581526020016008820160019054906101000a900473ffffffffffffffffffffffffffffffffffffffff1673ffffffffffffffffffffffffffffffffffffffff1673ffffffffffffffffffffffffffffffffffffffff168152505090508060800151841015612b37576040517f08c379a0000000000000000000000000000000000000000000000000000000008152600401612b2e90616638565b60405180910390fd5b80610100015115612b7d576040517f08c379a0000000000000000000000000000000000000000000000000000000008152600401612b7490616638565b60405180910390fd5b8573ffffffffffffffffffffffffffffffffffffffff1681610120015173ffffffffffffffffffffffffffffffffffffffff1614612bf0576040517f08c379a0000000000000000000000000000000000000000000000000000000008152600401612be7906166ca565b60405180910390fd5b600560003373ffffffffffffffffffffffffffffffffffffffff1673ffffffffffffffffffffffffffffffffffffffff16815260200190815260200160002060008667ffffffffffffffff1667ffffffffffffffff16815260200190815260200160002060009054906101000a900460ff1615612ca2576040517f08c379a0000000000000000000000000000000000000000000000000000000008152600401612c999061675c565b60405180910390fd5b6000612cb18786600187611a59565b90506001600560003373ffffffffffffffffffffffffffffffffffffffff1673ffffffffffffffffffffffffffffffffffffffff16815260200190815260200160002060008867ffffffffffffffff1667ffffffffffffffff16815260200190815260200160002060006101000a81548160ff0219169083151502179055506001600260008867ffffffffffffffff1667ffffffffffffffff16815260200190815260200160002060050160008282829054906101000a900467ffffffffffffffff16612d7e919061677c565b92506101000a81548167ffffffffffffffff021916908367ffffffffffffffff1602179055508092505050949350505050565b600460009054906101000a900467ffffffffffffffff1667ffffffffffffffff168167ffffffffffffffff161115612e1e576040517f08c379a0000000000000000000000000000000000000000000000000000000008152600401612e1590615fb1565b60405180910390fd5b6000600260008367ffffffffffffffff1667ffffffffffffffff168152602001908152602001600020604051806101400160405290816000820160009054906101000a900467ffffffffffffffff1667ffffffffffffffff1667ffffffffffffffff168152602001600182018054612e9590615f23565b80601f0160208091040260200160405190810160405280929190818152602001828054612ec190615f23565b8015612f0e5780601f10612ee357610100808354040283529160200191612f0e565b820191906000526020600020905b815481529060010190602001808311612ef157829003601f168201915b50505050508152602001600282018054612f2790615f23565b80601f0160208091040260200160405190810160405280929190818152602001828054612f5390615f23565b8015612fa05780601f10612f7557610100808354040283529160200191612fa0565b820191906000526020600020905b815481529060010190602001808311612f8357829003601f168201915b50505050508152602001600382018054612fb990615f23565b80601f0160208091040260200160405190810160405280929190818152602001828054612fe590615f23565b80156130325780601f1061300757610100808354040283529160200191613032565b820191906000526020600020905b81548152906001019060200180831161301557829003601f168201915b50505050508152602001600482015481526020016005820160009054906101000a900467ffffffffffffffff1667ffffffffffffffff1667ffffffffffffffff16815260200160068201805461308790615f23565b80601f01602080910402602001604051908101604052809291908181526020018280546130b390615f23565b80156131005780601f106130d557610100808354040283529160200191613100565b820191906000526020600020905b8154815290600101906020018083116130e357829003601f168201915b5050505050815260200160078201805461311990615f23565b80601f016020809104026020016040519081016040528092919081815260200182805461314590615f23565b80156131925780601f1061316757610100808354040283529160200191613192565b820191906000526020600020905b81548152906001019060200180831161317557829003601f168201915b505050505081526020016008820160009054906101000a900460ff161515151581526020016008820160019054906101000a900473ffffffffffffffffffffffffffffffffffffffff1673ffffffffffffffffffffffffffffffffffffffff1673ffffffffffffffffffffffffffffffffffffffff1681525050905080610100015115613254576040517f08c379a000000000000000000000000000000000000000000000000000000000815260040161324b906165cc565b60405180910390fd5b8273ffffffffffffffffffffffffffffffffffffffff1681610120015173ffffffffffffffffffffffffffffffffffffffff16146132c7576040517f08c379a00000000000000000000000000000000000000000000000000000000081526004016132be90616804565b60405180910390fd5b6001600260008467ffffffffffffffff1667ffffffffffffffff16815260200190815260200160002060080160006101000a81548160ff021916908315150217905550505050565b60606000825167ffffffffffffffff81111561332e5761332d6150b9565b5b60405190808252806020026020018201604052801561336757816020015b613354614ad8565b81526020019060019003908161334c5790505b50905060005b835181101561383a57600460009054906101000a900467ffffffffffffffff1667ffffffffffffffff168482815181106133aa576133a9616824565b5b602002602001015167ffffffffffffffff1611156133fd576040517f08c379a00000000000000000000000000000000000000000000000000000000081526004016133f490615fb1565b60405180910390fd5b60006002600086848151811061341657613415616824565b5b602002602001015167ffffffffffffffff1667ffffffffffffffff168152602001908152602001600020905080604051806101400160405290816000820160009054906101000a900467ffffffffffffffff1667ffffffffffffffff1667ffffffffffffffff16815260200160018201805461349190615f23565b80601f01602080910402602001604051908101604052809291908181526020018280546134bd90615f23565b801561350a5780601f106134df5761010080835404028352916020019161350a565b820191906000526020600020905b8154815290600101906020018083116134ed57829003601f168201915b5050505050815260200160028201805461352390615f23565b80601f016020809104026020016040519081016040528092919081815260200182805461354f90615f23565b801561359c5780601f106135715761010080835404028352916020019161359c565b820191906000526020600020905b81548152906001019060200180831161357f57829003601f168201915b505050505081526020016003820180546135b590615f23565b80601f01602080910402602001604051908101604052809291908181526020018280546135e190615f23565b801561362e5780601f106136035761010080835404028352916020019161362e565b820191906000526020600020905b81548152906001019060200180831161361157829003601f168201915b50505050508152602001600482015481526020016005820160009054906101000a900467ffffffffffffffff1667ffffffffffffffff1667ffffffffffffffff16815260200160068201805461368390615f23565b80601f01602080910402602001604051908101604052809291908181526020018280546136af90615f23565b80156136fc5780601f106136d1576101008083540402835291602001916136fc565b820191906000526020600020905b8154815290600101906020018083116136df57829003601f168201915b5050505050815260200160078201805461371590615f23565b80601f016020809104026020016040519081016040528092919081815260200182805461374190615f23565b801561378e5780601f106137635761010080835404028352916020019161378e565b820191906000526020600020905b81548152906001019060200180831161377157829003601f168201915b505050505081526020016008820160009054906101000a900460ff161515151581526020016008820160019054906101000a900473ffffffffffffffffffffffffffffffffffffffff1673ffffffffffffffffffffffffffffffffffffffff1673ffffffffffffffffffffffffffffffffffffffff168152505083838151811061381b5761381a616824565b5b602002602001018190525050808061383290616853565b91505061336d565b5080915050919050565b60606000600160008473ffffffffffffffffffffffffffffffffffffffff1673ffffffffffffffffffffffffffffffffffffffff16815260200190815260200160002060009054906101000a900467ffffffffffffffff1667ffffffffffffffff16905060008167ffffffffffffffff8111156138c4576138c36150b9565b5b6040519080825280602002602001820160405280156138fd57816020015b6138ea614b57565b8152602001906001900390816138e25790505b50905060005b828167ffffffffffffffff161015613aeb576000808673ffffffffffffffffffffffffffffffffffffffff1673ffffffffffffffffffffffffffffffffffffffff16815260200190815260200160002060008267ffffffffffffffff1667ffffffffffffffff1681526020019081526020016000206040518060c00160405290816000820160009054906101000a900467ffffffffffffffff1667ffffffffffffffff1667ffffffffffffffff1681526020016000820160089054906101000a900473ffffffffffffffffffffffffffffffffffffffff1673ffffffffffffffffffffffffffffffffffffffff1673ffffffffffffffffffffffffffffffffffffffff1681526020016001820160009054906101000a900473ffffffffffffffffffffffffffffffffffffffff1673ffffffffffffffffffffffffffffffffffffffff1673ffffffffffffffffffffffffffffffffffffffff16815260200160028201548152602001600382015481526020016004820160009054906101000a900460ff166002811115613a9a57613a99614f71565b5b6002811115613aac57613aab614f71565b5b81525050828267ffffffffffffffff1681518110613acd57613acc616824565b5b60200260200101819052508080613ae390616240565b915050613903565b508092505050919050565b600860009054906101000a900467ffffffffffffffff1667ffffffffffffffff16816000015167ffffffffffffffff161115613b67576040517f08c379a0000000000000000000000000000000000000000000000000000000008152600401613b5e90615fb1565b60405180910390fd5b8060066000836000015167ffffffffffffffff16815260200190815260200160002060008201518160000160006101000a81548167ffffffffffffffff021916908367ffffffffffffffff1602179055506020820151816001019081613bcd919061641c565b506040820151816002019081613be3919061641c565b506060820151816003019081613bf9919061641c565b506080820151816004015560a0820151816005015560c0820151816006019081613c23919061641c565b5060e08201518160070160006101000a81548160ff0219169083151502179055506101008201518160070160016101000a81548173ffffffffffffffffffffffffffffffffffffffff021916908373ffffffffffffffffffffffffffffffffffffffff16021790555090505050565b600460009054906101000a900467ffffffffffffffff1667ffffffffffffffff16816000015167ffffffffffffffff161115613d03576040517f08c379a0000000000000000000000000000000000000000000000000000000008152600401613cfa90615fb1565b60405180910390fd5b8060026000836000015167ffffffffffffffff1667ffffffffffffffff16815260200190815260200160002060008201518160000160006101000a81548167ffffffffffffffff021916908367ffffffffffffffff1602179055506020820151816001019081613d73919061641c565b506040820151816002019081613d89919061641c565b506060820151816003019081613d9f919061641c565b506080820151816004015560a08201518160050160006101000a81548167ffffffffffffffff021916908367ffffffffffffffff16021790555060c0820151816006019081613dee919061641c565b5060e0820151816007019081613e04919061641c565b506101008201518160080160006101000a81548160ff0219169083151502179055506101208201518160080160016101000a81548173ffffffffffffffffffffffffffffffffffffffff021916908373ffffffffffffffffffffffffffffffffffffffff16021790555090505050565b613e7c614b57565b6000600160008573ffffffffffffffffffffffffffffffffffffffff1673ffffffffffffffffffffffffffffffffffffffff16815260200190815260200160002060009054906101000a900467ffffffffffffffff1690508067ffffffffffffffff168367ffffffffffffffff161115613f2b576040517f08c379a0000000000000000000000000000000000000000000000000000000008152600401613f2290615fb1565b60405180910390fd5b6000808573ffffffffffffffffffffffffffffffffffffffff1673ffffffffffffffffffffffffffffffffffffffff16815260200190815260200160002060008467ffffffffffffffff1667ffffffffffffffff1681526020019081526020016000206040518060c00160405290816000820160009054906101000a900467ffffffffffffffff1667ffffffffffffffff1667ffffffffffffffff1681526020016000820160089054906101000a900473ffffffffffffffffffffffffffffffffffffffff1673ffffffffffffffffffffffffffffffffffffffff1673ffffffffffffffffffffffffffffffffffffffff1681526020016001820160009054906101000a900473ffffffffffffffffffffffffffffffffffffffff1673ffffffffffffffffffffffffffffffffffffffff1673ffffffffffffffffffffffffffffffffffffffff16815260200160028201548152602001600382015481526020016004820160009054906101000a900460ff1660028111156140b0576140af614f71565b5b60028111156140c2576140c1614f71565b5b8152505091505092915050565b60606000825167ffffffffffffffff8111156140ee576140ed6150b9565b5b60405190808252806020026020018201604052801561412757816020015b614114614a6a565b81526020019060019003908161410c5790505b50905060005b835181101561453657600860009054906101000a900467ffffffffffffffff1667ffffffffffffffff1684828151811061416a57614169616824565b5b602002602001015167ffffffffffffffff1611156141bd576040517f08c379a00000000000000000000000000000000000000000000000000000000081526004016141b490615fb1565b60405180910390fd5b6000600660008684815181106141d6576141d5616824565b5b602002602001015167ffffffffffffffff168152602001908152602001600020604051806101200160405290816000820160009054906101000a900467ffffffffffffffff1667ffffffffffffffff1667ffffffffffffffff16815260200160018201805461424490615f23565b80601f016020809104026020016040519081016040528092919081815260200182805461427090615f23565b80156142bd5780601f10614292576101008083540402835291602001916142bd565b820191906000526020600020905b8154815290600101906020018083116142a057829003601f168201915b505050505081526020016002820180546142d690615f23565b80601f016020809104026020016040519081016040528092919081815260200182805461430290615f23565b801561434f5780601f106143245761010080835404028352916020019161434f565b820191906000526020600020905b81548152906001019060200180831161433257829003601f168201915b5050505050815260200160038201805461436890615f23565b80601f016020809104026020016040519081016040528092919081815260200182805461439490615f23565b80156143e15780601f106143b6576101008083540402835291602001916143e1565b820191906000526020600020905b8154815290600101906020018083116143c457829003601f168201915b50505050508152602001600482015481526020016005820154815260200160068201805461440e90615f23565b80601f016020809104026020016040519081016040528092919081815260200182805461443a90615f23565b80156144875780601f1061445c57610100808354040283529160200191614487565b820191906000526020600020905b81548152906001019060200180831161446a57829003601f168201915b505050505081526020016007820160009054906101000a900460ff161515151581526020016007820160019054906101000a900473ffffffffffffffffffffffffffffffffffffffff1673ffffffffffffffffffffffffffffffffffffffff1673ffffffffffffffffffffffffffffffffffffffff168152505090508083838151811061451757614516616824565b5b602002602001018190525050808061452e90616853565b91505061412d565b5080915050919050565b6004600081819054906101000a900467ffffffffffffffff168092919061456690616240565b91906101000a81548167ffffffffffffffff021916908367ffffffffffffffff16021790555050600460009054906101000a900467ffffffffffffffff16816000019067ffffffffffffffff16908167ffffffffffffffff16815250508060026000600460009054906101000a900467ffffffffffffffff1667ffffffffffffffff1667ffffffffffffffff16815260200190815260200160002060008201518160000160006101000a81548167ffffffffffffffff021916908367ffffffffffffffff1602179055506020820151816001019081614645919061641c565b50604082015181600201908161465b919061641c565b506060820151816003019081614671919061641c565b506080820151816004015560a08201518160050160006101000a81548167ffffffffffffffff021916908367ffffffffffffffff16021790555060c08201518160060190816146c0919061641c565b5060e08201518160070190816146d6919061641c565b506101008201518160080160006101000a81548160ff0219169083151502179055506101208201518160080160016101000a81548173ffffffffffffffffffffffffffffffffffffffff021916908373ffffffffffffffffffffffffffffffffffffffff1602179055509050506003600082610120015173ffffffffffffffffffffffffffffffffffffffff1673ffffffffffffffffffffffffffffffffffffffff168152602001908152602001600020600460009054906101000a900467ffffffffffffffff1690806001815401808255809150506001900390600052602060002090600491828204019190066008029091909190916101000a81548167ffffffffffffffff021916908367ffffffffffffffff16021790555050565b600080600160008673ffffffffffffffffffffffffffffffffffffffff1673ffffffffffffffffffffffffffffffffffffffff168152602001908152602001600020600081819054906101000a900467ffffffffffffffff168092919061485a90616240565b91906101000a81548167ffffffffffffffff021916908367ffffffffffffffff16021790555090506040518060c001604052808267ffffffffffffffff1681526020018773ffffffffffffffffffffffffffffffffffffffff1681526020018673ffffffffffffffffffffffffffffffffffffffff1681526020018581526020014281526020018460028111156148f4576148f3614f71565b5b8152506000808773ffffffffffffffffffffffffffffffffffffffff1673ffffffffffffffffffffffffffffffffffffffff16815260200190815260200160002060008367ffffffffffffffff1667ffffffffffffffff16815260200190815260200160002060008201518160000160006101000a81548167ffffffffffffffff021916908367ffffffffffffffff16021790555060208201518160000160086101000a81548173ffffffffffffffffffffffffffffffffffffffff021916908373ffffffffffffffffffffffffffffffffffffffff16021790555060408201518160010160006101000a81548173ffffffffffffffffffffffffffffffffffffffff021916908373ffffffffffffffffffffffffffffffffffffffff160217905550606082015181600201556080820151816003015560a08201518160040160006101000a81548160ff02191690836002811115614a5657614a55614f71565b5b021790555090505080915050949350505050565b604051806101200160405280600067ffffffffffffffff168152602001606081526020016060815260200160608152602001600081526020016000815260200160608152602001600015158152602001600073ffffffffffffffffffffffffffffffffffffffff1681525090565b604051806101400160405280600067ffffffffffffffff16815260200160608152602001606081526020016060815260200160008152602001600067ffffffffffffffff1681526020016060815260200160608152602001600015158152602001600073ffffffffffffffffffffffffffffffffffffffff1681525090565b6040518060c00160405280600067ffffffffffffffff168152602001600073ffffffffffffffffffffffffffffffffffffffff168152602001600073ffffffffffffffffffffffffffffffffffffffff168152602001600081526020016000815260200160006002811115614bcf57614bce614f71565b5b81525090565b6000604051905090565b600080fd5b600080fd5b600073ffffffffffffffffffffffffffffffffffffffff82169050919050565b6000614c1482614be9565b9050919050565b614c2481614c09565b8114614c2f57600080fd5b50565b600081359050614c4181614c1b565b92915050565b600067ffffffffffffffff82169050919050565b614c6481614c47565b8114614c6f57600080fd5b50565b600081359050614c8181614c5b565b92915050565b60008060408385031215614c9e57614c9d614bdf565b5b6000614cac85828601614c32565b9250506020614cbd85828601614c72565b9150509250929050565b600060208284031215614cdd57614cdc614bdf565b5b6000614ceb84828501614c72565b91505092915050565b614cfd81614c47565b82525050565b600081519050919050565b600082825260208201905092915050565b60005b83811015614d3d578082015181840152602081019050614d22565b60008484015250505050565b6000601f19601f8301169050919050565b6000614d6582614d03565b614d6f8185614d0e565b9350614d7f818560208601614d1f565b614d8881614d49565b840191505092915050565b6000819050919050565b614da681614d93565b82525050565b60008115159050919050565b614dc181614dac565b82525050565b614dd081614c09565b82525050565b600061012083016000830151614def6000860182614cf4565b5060208301518482036020860152614e078282614d5a565b91505060408301518482036040860152614e218282614d5a565b91505060608301518482036060860152614e3b8282614d5a565b9150506080830151614e506080860182614d9d565b5060a0830151614e6360a0860182614d9d565b5060c083015184820360c0860152614e7b8282614d5a565b91505060e0830151614e9060e0860182614db8565b50610100830151614ea5610100860182614dc7565b508091505092915050565b60006020820190508181036000830152614eca8184614dd6565b905092915050565b600060208284031215614ee857614ee7614bdf565b5b6000614ef684828501614c32565b91505092915050565b614f0881614c47565b82525050565b6000602082019050614f236000830184614eff565b92915050565b614f3281614dac565b82525050565b6000602082019050614f4d6000830184614f29565b92915050565b614f5c81614c09565b82525050565b614f6b81614d93565b82525050565b7f4e487b7100000000000000000000000000000000000000000000000000000000600052602160045260246000fd5b60038110614fb157614fb0614f71565b5b50565b6000819050614fc282614fa0565b919050565b6000614fd282614fb4565b9050919050565b614fe281614fc7565b82525050565b600060c082019050614ffd6000830189614eff565b61500a6020830188614f53565b6150176040830187614f53565b6150246060830186614f62565b6150316080830185614f62565b61503e60a0830184614fd9565b979650505050505050565b600061505482614be9565b9050919050565b61506481615049565b811461506f57600080fd5b50565b6000813590506150818161505b565b92915050565b60006020828403121561509d5761509c614bdf565b5b60006150ab84828501615072565b91505092915050565b600080fd5b7f4e487b7100000000000000000000000000000000000000000000000000000000600052604160045260246000fd5b6150f182614d49565b810181811067ffffffffffffffff821117156151105761510f6150b9565b5b80604052505050565b6000615123614bd5565b905061512f82826150e8565b919050565b600080fd5b600080fd5b600080fd5b600067ffffffffffffffff82111561515e5761515d6150b9565b5b61516782614d49565b9050602081019050919050565b82818337600083830152505050565b600061519661519184615143565b615119565b9050828152602081018484840111156151b2576151b161513e565b5b6151bd848285615174565b509392505050565b600082601f8301126151da576151d9615139565b5b81356151ea848260208601615183565b91505092915050565b6151fc81614d93565b811461520757600080fd5b50565b600081359050615219816151f3565b92915050565b61522881614dac565b811461523357600080fd5b50565b6000813590506152458161521f565b92915050565b60006101208284031215615262576152616150b4565b5b61526d610120615119565b9050600061527d84828501614c72565b600083015250602082013567ffffffffffffffff8111156152a1576152a0615134565b5b6152ad848285016151c5565b602083015250604082013567ffffffffffffffff8111156152d1576152d0615134565b5b6152dd848285016151c5565b604083015250606082013567ffffffffffffffff81111561530157615300615134565b5b61530d848285016151c5565b60608301525060806153218482850161520a565b60808301525060a06153358482850161520a565b60a08301525060c082013567ffffffffffffffff81111561535957615358615134565b5b615365848285016151c5565b60c08301525060e061537984828501615236565b60e08301525061010061538e84828501614c32565b6101008301525092915050565b6000602082840312156153b1576153b0614bdf565b5b600082013567ffffffffffffffff8111156153cf576153ce614be4565b5b6153db8482850161524b565b91505092915050565b600082825260208201905092915050565b600061540082614d03565b61540a81856153e4565b935061541a818560208601614d1f565b61542381614d49565b840191505092915050565b600061014082019050615444600083018d614eff565b8181036020830152615456818c6153f5565b9050818103604083015261546a818b6153f5565b9050818103606083015261547e818a6153f5565b905061548d6080830189614f62565b61549a60a0830188614eff565b81810360c08301526154ac81876153f5565b905081810360e08301526154c081866153f5565b90506154d0610100830185614f29565b6154de610120830184614f53565b9b9a5050505050505050505050565b6000806040838503121561550457615503614bdf565b5b600061551285828601615072565b925050602061552385828601614c72565b9150509250929050565b6000610140830160008301516155466000860182614cf4565b506020830151848203602086015261555e8282614d5a565b915050604083015184820360408601526155788282614d5a565b915050606083015184820360608601526155928282614d5a565b91505060808301516155a76080860182614d9d565b5060a08301516155ba60a0860182614cf4565b5060c083015184820360c08601526155d28282614d5a565b91505060e083015184820360e08601526155ec8282614d5a565b915050610100830151615603610100860182614db8565b50610120830151615618610120860182614dc7565b508091505092915050565b6000602082019050818103600083015261563d818461552d565b905092915050565b61564e81615049565b82525050565b60006020820190506156696000830184615645565b92915050565b600081519050919050565b600082825260208201905092915050565b6000819050602082019050919050565b6000610140830160008301516156b46000860182614cf4565b50602083015184820360208601526156cc8282614d5a565b915050604083015184820360408601526156e68282614d5a565b915050606083015184820360608601526157008282614d5a565b91505060808301516157156080860182614d9d565b5060a083015161572860a0860182614cf4565b5060c083015184820360c08601526157408282614d5a565b91505060e083015184820360e086015261575a8282614d5a565b915050610100830151615771610100860182614db8565b50610120830151615786610120860182614dc7565b508091505092915050565b600061579d838361569b565b905092915050565b6000602082019050919050565b60006157bd8261566f565b6157c7818561567a565b9350836020820285016157d98561568b565b8060005b8581101561581557848403895281516157f68582615791565b9450615801836157a5565b925060208a019950506001810190506157dd565b50829750879550505050505092915050565b6000602082019050818103600083015261584181846157b2565b905092915050565b600081519050919050565b600082825260208201905092915050565b6000819050602082019050919050565b61587e81614fc7565b82525050565b60c08201600082015161589a6000850182614cf4565b5060208201516158ad6020850182614dc7565b5060408201516158c06040850182614dc7565b5060608201516158d36060850182614d9d565b5060808201516158e66080850182614d9d565b5060a08201516158f960a0850182615875565b50505050565b600061590b8383615884565b60c08301905092915050565b6000602082019050919050565b600061592f82615849565b6159398185615854565b935061594483615865565b8060005b8381101561597557815161595c88826158ff565b975061596783615917565b925050600181019050615948565b5085935050505092915050565b6000602082019050818103600083015261599c8184615924565b905092915050565b600061014082840312156159bb576159ba6150b4565b5b6159c6610140615119565b905060006159d684828501614c72565b600083015250602082013567ffffffffffffffff8111156159fa576159f9615134565b5b615a06848285016151c5565b602083015250604082013567ffffffffffffffff811115615a2a57615a29615134565b5b615a36848285016151c5565b604083015250606082013567ffffffffffffffff811115615a5a57615a59615134565b5b615a66848285016151c5565b6060830152506080615a7a8482850161520a565b60808301525060a0615a8e84828501614c72565b60a08301525060c082013567ffffffffffffffff811115615ab257615ab1615134565b5b615abe848285016151c5565b60c08301525060e082013567ffffffffffffffff811115615ae257615ae1615134565b5b615aee848285016151c5565b60e083015250610100615b0384828501615236565b61010083015250610120615b1984828501614c32565b6101208301525092915050565b600060208284031215615b3c57615b3b614bdf565b5b600082013567ffffffffffffffff811115615b5a57615b59614be4565b5b615b66848285016159a4565b91505092915050565b600060208284031215615b8557615b84614bdf565b5b6000615b938482850161520a565b91505092915050565b600061012082019050615bb2600083018c614eff565b8181036020830152615bc4818b6153f5565b90508181036040830152615bd8818a6153f5565b90508181036060830152615bec81896153f5565b9050615bfb6080830188614f62565b615c0860a0830187614f62565b81810360c0830152615c1a81866153f5565b9050615c2960e0830185614f29565b615c37610100830184614f53565b9a9950505050505050505050565b60c082016000820151615c5b6000850182614cf4565b506020820151615c6e6020850182614dc7565b506040820151615c816040850182614dc7565b506060820151615c946060850182614d9d565b506080820151615ca76080850182614d9d565b5060a0820151615cba60a0850182615875565b50505050565b600060c082019050615cd56000830184615c45565b92915050565b60008060408385031215615cf257615cf1614bdf565b5b6000615d0085828601614c32565b9250506020615d118582860161520a565b9150509250929050565b6000602082019050615d306000830184614f62565b92915050565b600081519050919050565b600082825260208201905092915050565b6000819050602082019050919050565b600061012083016000830151615d7b6000860182614cf4565b5060208301518482036020860152615d938282614d5a565b91505060408301518482036040860152615dad8282614d5a565b91505060608301518482036060860152615dc78282614d5a565b9150506080830151615ddc6080860182614d9d565b5060a0830151615def60a0860182614d9d565b5060c083015184820360c0860152615e078282614d5a565b91505060e0830151615e1c60e0860182614db8565b50610100830151615e31610100860182614dc7565b508091505092915050565b6000615e488383615d62565b905092915050565b6000602082019050919050565b6000615e6882615d36565b615e728185615d41565b935083602082028501615e8485615d52565b8060005b85811015615ec05784840389528151615ea18582615e3c565b9450615eac83615e50565b925060208a01995050600181019050615e88565b50829750879550505050505092915050565b60006020820190508181036000830152615eec8184615e5d565b905092915050565b7f4e487b7100000000000000000000000000000000000000000000000000000000600052602260045260246000fd5b60006002820490506001821680615f3b57607f821691505b602082108103615f4e57615f4d615ef4565b5b50919050565b600082825260208201905092915050565b7f496e76616c696420696e64657800000000000000000000000000000000000000600082015250565b6000615f9b600d83615f54565b9150615fa682615f65565b602082019050919050565b60006020820190508181036000830152615fca81615f8e565b9050919050565b7f54686520776973686c6973742068617320616c726561647920636c6f73656400600082015250565b6000616007601f83615f54565b915061601282615fd1565b602082019050919050565b6000602082019050818103600083015261603681615ffa565b9050919050565b7f596f7520646f206e6f7420686176652074686520617574686f7269747920746f60008201527f20636c6f73652074686520776973686c69737400000000000000000000000000602082015250565b6000616099603383615f54565b91506160a48261603d565b604082019050919050565b600060208201905081810360008301526160c88161608c565b9050919050565b7f496e73756666696369656e742062616c616e6365000000000000000000000000600082015250565b6000616105601483615f54565b9150616110826160cf565b602082019050919050565b60006020820190508181036000830152616134816160f8565b9050919050565b7f4e487b7100000000000000000000000000000000000000000000000000000000600052601160045260246000fd5b600061617582614d93565b915061618083614d93565b925082820261618e81614d93565b915082820484148315176161a5576161a461613b565b5b5092915050565b7f4e487b7100000000000000000000000000000000000000000000000000000000600052601260045260246000fd5b60006161e682614d93565b91506161f183614d93565b925082616201576162006161ac565b5b828204905092915050565b600061621782614d93565b915061622283614d93565b925082820390508181111561623a5761623961613b565b5b92915050565b600061624b82614c47565b915067ffffffffffffffff82036162655761626461613b565b5b600182019050919050565b60008190508160005260206000209050919050565b60006020601f8301049050919050565b600082821b905092915050565b6000600883026162d27fffffffffffffffffffffffffffffffffffffffffffffffffffffffffffffffff82616295565b6162dc8683616295565b95508019841693508086168417925050509392505050565b6000819050919050565b600061631961631461630f84614d93565b6162f4565b614d93565b9050919050565b6000819050919050565b616333836162fe565b61634761633f82616320565b8484546162a2565b825550505050565b600090565b61635c61634f565b61636781848461632a565b505050565b5b8181101561638b57616380600082616354565b60018101905061636d565b5050565b601f8211156163d0576163a181616270565b6163aa84616285565b810160208510156163b9578190505b6163cd6163c585616285565b83018261636c565b50505b505050565b600082821c905092915050565b60006163f3600019846008026163d5565b1980831691505092915050565b600061640c83836163e2565b9150826002028217905092915050565b61642582614d03565b67ffffffffffffffff81111561643e5761643d6150b9565b5b6164488254615f23565b61645382828561638f565b600060209050601f8311600181146164865760008415616474578287015190505b61647e8582616400565b8655506164e6565b601f19841661649486616270565b60005b828110156164bc57848901518255600182019150602085019450602081019050616497565b868310156164d957848901516164d5601f8916826163e2565b8355505b6001600288020188555050505b505050505050565b7f546869732066756e6472616973696e672063616d706169676e20666f7220746860008201527f6520776973686c6973742068617320636c6f7365642e00000000000000000000602082015250565b600061654a603683615f54565b9150616555826164ee565b604082019050919050565b600060208201905081810360008301526165798161653d565b9050919050565b7f4974656d20646f6573206e6f7420657869737400000000000000000000000000600082015250565b60006165b6601383615f54565b91506165c182616580565b602082019050919050565b600060208201905081810360008301526165e5816165a9565b9050919050565b7f496e73756666696369656e74207061796d656e74000000000000000000000000600082015250565b6000616622601483615f54565b915061662d826165ec565b602082019050919050565b6000602082019050818103600083015261665181616615565b9050919050565b7f546869732061646472657373206973206e6f7420746865206974656d2773207360008201527f656c6c65722e0000000000000000000000000000000000000000000000000000602082015250565b60006166b4602683615f54565b91506166bf82616658565b604082019050919050565b600060208201905081810360008301526166e3816166a7565b9050919050565b7f54686973206974656d2068617320616c7265616479206265656e20707572636860008201527f617365642e000000000000000000000000000000000000000000000000000000602082015250565b6000616746602583615f54565b9150616751826166ea565b604082019050919050565b6000602082019050818103600083015261677581616739565b9050919050565b600061678782614c47565b915061679283614c47565b9250828201905067ffffffffffffffff8111156167b2576167b161613b565b5b92915050565b7f596f7520617265206e6f742073656c6c65720000000000000000000000000000600082015250565b60006167ee601283615f54565b91506167f9826167b8565b602082019050919050565b6000602082019050818103600083015261681d816167e1565b9050919050565b7f4e487b7100000000000000000000000000000000000000000000000000000000600052603260045260246000fd5b600061685e82614d93565b91507fffffffffffffffffffffffffffffffffffffffffffffffffffffffffffffffff82036168905761688f61613b565b5b60018201905091905056fea2646970667358221220fbdfa1e3a0fbe54afc1c84f0382bf5382c3050f0796aad6f01f9da3fe67fbc6164736f6c63430008120033",
  "immutableReferences": {},
  "source": "// SPDX-License-Identifier: MIT\r\npragma solidity >= 0.6.0 <0.9.0;\r\n\r\nimport \"./ItemDonation.sol\";\r\nimport \"./WishlistDonation.sol\";\r\n\r\ncontract ApplicationHandler is ItemDonation, WishlistDonation {\r\n  address payable public owner;\r\n  event SupportEvent(uint64 value);\r\n\r\n  constructor(){\r\n    owner = payable(msg.sender);\r\n  }\r\n\r\n  // ================= Frontend Call =================\r\n  //   \r\n  function callBasicDonation(address payable _to) external payable returns(uint64) {\r\n    uint64 _val = _transfer(_to, msg.value, SupportType.Donation, owner);\r\n    emit SupportEvent(_val);\r\n    return _val;\r\n  }\r\n  //  \r\n  function buyItemDonation(address payable _to, uint64 _itemId) external payable returns(uint64) {\r\n    uint64 _val = _buyItem(_to, _itemId, msg.value, owner);\r\n    emit SupportEvent(_val);\r\n    return _val;\r\n  }\r\n  //   \r\n  function buyWishlistDonation(address payable _to, uint64 _wishlistId) external payable returns(uint64) {\r\n    uint64 _val = _buyWishlist(_to, _wishlistId, msg.value, owner);\r\n    emit SupportEvent(_val);\r\n    return _val;\r\n  }\r\n\r\n  // ================= Backend Call =================\r\n  //      \r\n  function getMemberItemList(address _address) external view returns(ItemSol[] memory){\r\n    return _getItemList(myItems[_address]);\r\n  }\r\n\r\n  //    \r\n  function getItemDetail(uint64 _id) external view returns(ItemSol memory){\r\n    return _getItemDetail(_id);\r\n  }\r\n\r\n  //   \r\n  function addMemberItem(ItemSol memory _item) external{\r\n    _createItem(_item);\r\n  }\r\n\r\n  //   \r\n  function deleteMemberItem(address _address, uint64 _id) external {\r\n    _deleteItem(_address, _id);\r\n  }\r\n\r\n  //   \r\n  function updateMemberItem(ItemSol memory _item) external {\r\n    _updateItem(_item);\r\n  }\r\n\r\n  //    \r\n  function getMemberWishLists(address _address) external view returns(WishlistSol[] memory){\r\n    return _getWishlists(myWishlists[_address]);\r\n  }\r\n\r\n  //    \r\n  function getMemberWishListDetail(uint64 _id) external view returns(WishlistSol memory){\r\n    return _getWishlistDetail(_id);\r\n  }\r\n\r\n  //   \r\n  function addMemberWishList(WishlistSol memory _wishlist) external{\r\n    _createWishlist(_wishlist);\r\n  }\r\n\r\n  //   \r\n  function deleteMemberWishlist(address _address, uint64 _id) external {\r\n    _deleteWishlist(_address, _id);\r\n  }\r\n\r\n  //   \r\n  function updateMemberWishlist(WishlistSol memory _wishlist) external {\r\n    _updateWishlist(_wishlist);\r\n  }\r\n\r\n  //    \r\n  function getSupportDetail(address _address, uint64 _id) external view returns(SupportSol memory){\r\n    return _getSupportDetail(_address, _id);\r\n  }\r\n\r\n  //    \r\n  function getSupportList(address _address) external view returns(SupportSol[] memory){\r\n    return _getSupportList(_address);\r\n  }\r\n\r\n  //    \r\n  function getSupportSendTime(address _address, uint64 _id) external view returns(uint256){\r\n    return _getSupportDetail(_address, _id).sendTimestamp;\r\n  }\r\n}",
  "sourcePath": "C:\\Users\\SSAFY\\Desktop\\S08P22A209\\contract\\contracts\\ApplicationHandler.sol",
  "compiler": {
    "name": "solc",
    "version": "0.8.18+commit.87f61d96.Emscripten.clang"
  },
  "schemaVersion": "3.4.13",
  "updatedAt": "2023-03-29T07:38:34.254Z",
  "devdoc": {
    "kind": "dev",
    "methods": {},
    "version": 1
  },
  "userdoc": {
    "kind": "user",
    "methods": {},
    "version": 1
  }
}