{
  "contractName": "BasicDonation",
  "abi": [
    {
      "inputs": [
        {
          "internalType": "address",
          "name": "",
          "type": "address"
        }
      ],
      "name": "supportCount",
      "outputs": [
        {
          "internalType": "uint256",
          "name": "",
          "type": "uint256"
        }
      ],
      "stateMutability": "view",
      "type": "function"
    },
    {
      "inputs": [
        {
          "internalType": "address",
          "name": "",
          "type": "address"
        },
        {
          "internalType": "uint256",
          "name": "",
          "type": "uint256"
        }
      ],
      "name": "supportList",
      "outputs": [
        {
          "internalType": "uint256",
          "name": "id",
          "type": "uint256"
        },
        {
          "internalType": "address",
          "name": "from",
          "type": "address"
        },
        {
          "internalType": "address",
          "name": "to",
          "type": "address"
        },
        {
          "internalType": "uint256",
          "name": "amount",
          "type": "uint256"
        },
        {
          "internalType": "uint256",
          "name": "sendTimestamp",
          "type": "uint256"
        },
        {
          "internalType": "enum SupportHistory.SupportType",
          "name": "supportType",
          "type": "uint8"
        },
        {
          "internalType": "enum SupportHistory.SupportStatus",
          "name": "supportStatus",
          "type": "uint8"
        }
      ],
      "stateMutability": "view",
      "type": "function"
    }
  ],
  "bytecode": "0x608060405234801561001057600080fd5b50610405806100206000396000f3fe608060405234801561001057600080fd5b50600436106100365760003560e01c80630c1fa1ef1461003b578063d83b8fd21461006b575b600080fd5b610055600480360381019061005091906101c5565b6100a1565b604051610062919061020b565b60405180910390f35b61008560048036038101906100809190610252565b6100b9565b6040516100989796959493929190610360565b60405180910390f35b60016020528060005260406000206000915090505481565b6000602052816000526040600020602052806000526040600020600091509150508060000154908060010160009054906101000a900473ffffffffffffffffffffffffffffffffffffffff16908060020160009054906101000a900473ffffffffffffffffffffffffffffffffffffffff16908060030154908060040154908060050160009054906101000a900460ff16908060050160019054906101000a900460ff16905087565b600080fd5b600073ffffffffffffffffffffffffffffffffffffffff82169050919050565b600061019282610167565b9050919050565b6101a281610187565b81146101ad57600080fd5b50565b6000813590506101bf81610199565b92915050565b6000602082840312156101db576101da610162565b5b60006101e9848285016101b0565b91505092915050565b6000819050919050565b610205816101f2565b82525050565b600060208201905061022060008301846101fc565b92915050565b61022f816101f2565b811461023a57600080fd5b50565b60008135905061024c81610226565b92915050565b6000806040838503121561026957610268610162565b5b6000610277858286016101b0565b92505060206102888582860161023d565b9150509250929050565b61029b81610187565b82525050565b7f4e487b7100000000000000000000000000000000000000000000000000000000600052602160045260246000fd5b600381106102e1576102e06102a1565b5b50565b60008190506102f2826102d0565b919050565b6000610302826102e4565b9050919050565b610312816102f7565b82525050565b60048110610329576103286102a1565b5b50565b600081905061033a82610318565b919050565b600061034a8261032c565b9050919050565b61035a8161033f565b82525050565b600060e082019050610375600083018a6101fc565b6103826020830189610292565b61038f6040830188610292565b61039c60608301876101fc565b6103a960808301866101fc565b6103b660a0830185610309565b6103c360c0830184610351565b9897505050505050505056fea264697066735822122088f0c529a2d5f02ddd2beba166aee416b8d448e6af5ebc22de1e4e6f5940e42764736f6c63430008120033",
  "immutableReferences": {},
  "source": "// SPDX-License-Identifier: MIT\r\npragma solidity >= 0.6.0 <0.9.0;\r\n\r\nimport \"./SupportHistory.sol\";\r\n\r\ncontract BasicDonation is SupportHistory {\r\n    function _transfer(address payable to, uint256 value) internal returns(uint256) {\r\n        require(value <= address(this).balance, \"Insufficient balance\");\r\n        //   .\r\n        uint256 _id = recordSupport(msg.sender, to, value, SupportType.Donation);\r\n\r\n        (bool success, ) = to.call{value: value}(\"\");\r\n        if (!success) {\r\n            updateSupportStatus(msg.sender, to, _id, SupportStatus.Failed);\r\n            revert(\"Transfer to wishlistOwner failed\");\r\n        }\r\n        updateSupportStatus(msg.sender, to, _id, SupportStatus.Success);\r\n        return _id;\r\n    }\r\n}",
  "sourcePath": "C:\\Users\\SSAFY\\Desktop\\S08P22A209\\contract\\contracts\\BasicDonation.sol",
  "compiler": {
    "name": "solc",
    "version": "0.8.18+commit.87f61d96.Emscripten.clang"
  },
  "schemaVersion": "3.4.13",
  "updatedAt": "2023-03-20T07:52:01.353Z",
  "devdoc": {
    "kind": "dev",
    "methods": {},
    "version": 1
  },
  "userdoc": {
    "kind": "user",
    "methods": {},
    "version": 1
  }
}