{
  "contractName": "ItemManager",
  "abi": [
    {
      "anonymous": false,
      "inputs": [
        {
          "indexed": false,
          "internalType": "uint256",
          "name": "_itemIndex",
          "type": "uint256"
        },
        {
          "indexed": false,
          "internalType": "uint256",
          "name": "_step",
          "type": "uint256"
        },
        {
          "indexed": false,
          "internalType": "address",
          "name": "_address",
          "type": "address"
        }
      ],
      "name": "SupplyChainStep",
      "type": "event"
    },
    {
      "inputs": [],
      "name": "_owner",
      "outputs": [
        {
          "internalType": "address",
          "name": "",
          "type": "address"
        }
      ],
      "stateMutability": "view",
      "type": "function"
    },
    {
      "inputs": [],
      "name": "isOwner",
      "outputs": [
        {
          "internalType": "bool",
          "name": "",
          "type": "bool"
        }
      ],
      "stateMutability": "view",
      "type": "function"
    },
    {
      "inputs": [
        {
          "internalType": "uint256",
          "name": "",
          "type": "uint256"
        }
      ],
      "name": "items",
      "outputs": [
        {
          "internalType": "contract Item",
          "name": "_item",
          "type": "address"
        },
        {
          "internalType": "enum ItemManager.SupplyChainSteps",
          "name": "_step",
          "type": "uint8"
        },
        {
          "internalType": "string",
          "name": "_identifier",
          "type": "string"
        }
      ],
      "stateMutability": "view",
      "type": "function"
    },
    {
      "inputs": [
        {
          "internalType": "string",
          "name": "_identifier",
          "type": "string"
        },
        {
          "internalType": "uint256",
          "name": "_priceInWei",
          "type": "uint256"
        }
      ],
      "name": "createitem",
      "outputs": [],
      "stateMutability": "nonpayable",
      "type": "function"
    },
    {
      "inputs": [
        {
          "internalType": "uint256",
          "name": "_index",
          "type": "uint256"
        }
      ],
      "name": "triggerPayment",
      "outputs": [],
      "stateMutability": "payable",
      "type": "function"
    },
    {
      "inputs": [
        {
          "internalType": "uint256",
          "name": "_index",
          "type": "uint256"
        }
      ],
      "name": "triggerDelivery",
      "outputs": [],
      "stateMutability": "nonpayable",
      "type": "function"
    }
  ],
  "bytecode": "0x608060405234801561001057600080fd5b50336000806101000a81548173ffffffffffffffffffffffffffffffffffffffff021916908373ffffffffffffffffffffffffffffffffffffffff160217905550611c27806100606000396000f3fe6080604052600436106200005c5760003560e01c8063800fb83f14620000615780638f32d59b1462000081578063b19871bd14620000b1578063b2bdfa7b14620000df578063bfb231d2146200010f578063cd31831e1462000155575b600080fd5b6200007f6004803603810190620000799190620009ac565b62000183565b005b3480156200008e57600080fd5b506200009962000434565b604051620000a89190620009fb565b60405180910390f35b348015620000be57600080fd5b50620000dd6004803603810190620000d7919062000b7a565b6200048b565b005b348015620000ec57600080fd5b50620000f762000675565b60405162000106919062000c25565b60405180910390f35b3480156200011c57600080fd5b506200013b6004803603810190620001359190620009ac565b62000699565b6040516200014c9392919062000db6565b60405180910390f35b3480156200016257600080fd5b506200018160048036038101906200017b9190620009ac565b62000780565b005b60006001600083815260200190815260200160002060000160009054906101000a900473ffffffffffffffffffffffffffffffffffffffff1690503373ffffffffffffffffffffffffffffffffffffffff168173ffffffffffffffffffffffffffffffffffffffff16146200022f576040517f08c379a0000000000000000000000000000000000000000000000000000000008152600401620002269062000e70565b60405180910390fd5b348173ffffffffffffffffffffffffffffffffffffffff16633c8da5886040518163ffffffff1660e01b8152600401602060405180830381865afa1580156200027c573d6000803e3d6000fd5b505050506040513d601f19601f82011682018060405250810190620002a2919062000ea9565b14620002e5576040517f08c379a0000000000000000000000000000000000000000000000000000000008152600401620002dc9062000f2b565b60405180910390fd5b60006002811115620002fc57620002fb62000cad565b5b60016000600254815260200190815260200160002060000160149054906101000a900460ff16600281111562000337576200033662000cad565b5b146200037a576040517f08c379a0000000000000000000000000000000000000000000000000000000008152600401620003719062000fc3565b60405180910390fd5b600180600084815260200190815260200160002060000160146101000a81548160ff02191690836002811115620003b657620003b562000cad565b5b02179055507fa4035636e99f06b7651a604c1019fa4e8779fe68ef27eeb74dff2de348f6199b826001600085815260200190815260200160002060000160149054906101000a900460ff16600281111562000416576200041562000cad565b5b83604051620004289392919062000ff6565b60405180910390a15050565b60008060009054906101000a900473ffffffffffffffffffffffffffffffffffffffff1673ffffffffffffffffffffffffffffffffffffffff163373ffffffffffffffffffffffffffffffffffffffff1614905090565b6200049562000434565b620004d7576040517f08c379a0000000000000000000000000000000000000000000000000000000008152600401620004ce9062001083565b60405180910390fd5b60003082600254604051620004ec906200094f565b620004fa93929190620010de565b604051809103906000f08015801562000517573d6000803e3d6000fd5b5090508060016000600254815260200190815260200160002060000160006101000a81548173ffffffffffffffffffffffffffffffffffffffff021916908373ffffffffffffffffffffffffffffffffffffffff160217905550600060016000600254815260200190815260200160002060000160146101000a81548160ff02191690836002811115620005b057620005af62000cad565b5b0217905550826001600060025481526020019081526020016000206001019081620005dc919062001347565b507fa4035636e99f06b7651a604c1019fa4e8779fe68ef27eeb74dff2de348f6199b60025460016000600254815260200190815260200160002060000160149054906101000a900460ff1660028111156200063c576200063b62000cad565b5b836040516200064e9392919062000ff6565b60405180910390a1600260008154809291906200066b906200145d565b9190505550505050565b60008054906101000a900473ffffffffffffffffffffffffffffffffffffffff1681565b60016020528060005260406000206000915090508060000160009054906101000a900473ffffffffffffffffffffffffffffffffffffffff16908060000160149054906101000a900460ff1690806001018054620006f7906200114a565b80601f016020809104026020016040519081016040528092919081815260200182805462000725906200114a565b8015620007765780601f106200074a5761010080835404028352916020019162000776565b820191906000526020600020905b8154815290600101906020018083116200075857829003601f168201915b5050505050905083565b6200078a62000434565b620007cc576040517f08c379a0000000000000000000000000000000000000000000000000000000008152600401620007c39062001083565b60405180910390fd5b60016002811115620007e357620007e262000cad565b5b6001600083815260200190815260200160002060000160149054906101000a900460ff1660028111156200081c576200081b62000cad565b5b146200085f576040517f08c379a0000000000000000000000000000000000000000000000000000000008152600401620008569062000fc3565b60405180910390fd5b60026001600083815260200190815260200160002060000160146101000a81548160ff021916908360028111156200089c576200089b62000cad565b5b02179055507fa4035636e99f06b7651a604c1019fa4e8779fe68ef27eeb74dff2de348f6199b816001600084815260200190815260200160002060000160149054906101000a900460ff166002811115620008fc57620008fb62000cad565b5b6001600085815260200190815260200160002060000160009054906101000a900473ffffffffffffffffffffffffffffffffffffffff16604051620009449392919062000ff6565b60405180910390a150565b61074780620014ab83390190565b6000604051905090565b600080fd5b600080fd5b6000819050919050565b620009868162000971565b81146200099257600080fd5b50565b600081359050620009a6816200097b565b92915050565b600060208284031215620009c557620009c462000967565b5b6000620009d58482850162000995565b91505092915050565b60008115159050919050565b620009f581620009de565b82525050565b600060208201905062000a126000830184620009ea565b92915050565b600080fd5b600080fd5b6000601f19601f8301169050919050565b7f4e487b7100000000000000000000000000000000000000000000000000000000600052604160045260246000fd5b62000a6d8262000a22565b810181811067ffffffffffffffff8211171562000a8f5762000a8e62000a33565b5b80604052505050565b600062000aa46200095d565b905062000ab2828262000a62565b919050565b600067ffffffffffffffff82111562000ad55762000ad462000a33565b5b62000ae08262000a22565b9050602081019050919050565b82818337600083830152505050565b600062000b1362000b0d8462000ab7565b62000a98565b90508281526020810184848401111562000b325762000b3162000a1d565b5b62000b3f84828562000aed565b509392505050565b600082601f83011262000b5f5762000b5e62000a18565b5b813562000b7184826020860162000afc565b91505092915050565b6000806040838503121562000b945762000b9362000967565b5b600083013567ffffffffffffffff81111562000bb55762000bb46200096c565b5b62000bc38582860162000b47565b925050602062000bd68582860162000995565b9150509250929050565b600073ffffffffffffffffffffffffffffffffffffffff82169050919050565b600062000c0d8262000be0565b9050919050565b62000c1f8162000c00565b82525050565b600060208201905062000c3c600083018462000c14565b92915050565b6000819050919050565b600062000c6d62000c6762000c618462000be0565b62000c42565b62000be0565b9050919050565b600062000c818262000c4c565b9050919050565b600062000c958262000c74565b9050919050565b62000ca78162000c88565b82525050565b7f4e487b7100000000000000000000000000000000000000000000000000000000600052602160045260246000fd5b6003811062000cf05762000cef62000cad565b5b50565b600081905062000d038262000cdc565b919050565b600062000d158262000cf3565b9050919050565b62000d278162000d08565b82525050565b600081519050919050565b600082825260208201905092915050565b60005b8381101562000d6957808201518184015260208101905062000d4c565b60008484015250505050565b600062000d828262000d2d565b62000d8e818562000d38565b935062000da081856020860162000d49565b62000dab8162000a22565b840191505092915050565b600060608201905062000dcd600083018662000c9c565b62000ddc602083018562000d1c565b818103604083015262000df0818462000d75565b9050949350505050565b7f4f6e6c79206974656d732061726520616c6c6f77656420746f2075706461746560008201527f207468656d73656c766573000000000000000000000000000000000000000000602082015250565b600062000e58602b8362000d38565b915062000e658262000dfa565b604082019050919050565b6000602082019050818103600083015262000e8b8162000e49565b9050919050565b60008151905062000ea3816200097b565b92915050565b60006020828403121562000ec25762000ec162000967565b5b600062000ed28482850162000e92565b91505092915050565b7f4e6f742066756c6c792070616964207965740000000000000000000000000000600082015250565b600062000f1360128362000d38565b915062000f208262000edb565b602082019050919050565b6000602082019050818103600083015262000f468162000f04565b9050919050565b7f4974656d206973206675727468657220696e2074686520737570706c7920636860008201527f61696e0000000000000000000000000000000000000000000000000000000000602082015250565b600062000fab60238362000d38565b915062000fb88262000f4d565b604082019050919050565b6000602082019050818103600083015262000fde8162000f9c565b9050919050565b62000ff08162000971565b82525050565b60006060820190506200100d600083018662000fe5565b6200101c602083018562000fe5565b6200102b604083018462000c14565b949350505050565b7f4f776e61626c653a2063616c6c6572206973206e6f7420746865206f776e6572600082015250565b60006200106b60208362000d38565b9150620010788262001033565b602082019050919050565b600060208201905081810360008301526200109e816200105c565b9050919050565b6000620010b28262000c4c565b9050919050565b6000620010c682620010a5565b9050919050565b620010d881620010b9565b82525050565b6000606082019050620010f56000830186620010cd565b62001104602083018562000fe5565b62001113604083018462000fe5565b949350505050565b7f4e487b7100000000000000000000000000000000000000000000000000000000600052602260045260246000fd5b600060028204905060018216806200116357607f821691505b6020821081036200117957620011786200111b565b5b50919050565b60008190508160005260206000209050919050565b60006020601f8301049050919050565b600082821b905092915050565b600060088302620011e37fffffffffffffffffffffffffffffffffffffffffffffffffffffffffffffffff82620011a4565b620011ef8683620011a4565b95508019841693508086168417925050509392505050565b600062001228620012226200121c8462000971565b62000c42565b62000971565b9050919050565b6000819050919050565b620012448362001207565b6200125c62001253826200122f565b848454620011b1565b825550505050565b600090565b6200127362001264565b6200128081848462001239565b505050565b5b81811015620012a8576200129c60008262001269565b60018101905062001286565b5050565b601f821115620012f757620012c1816200117f565b620012cc8462001194565b81016020851015620012dc578190505b620012f4620012eb8562001194565b83018262001285565b50505b505050565b600082821c905092915050565b60006200131c60001984600802620012fc565b1980831691505092915050565b600062001337838362001309565b9150826002028217905092915050565b620013528262000d2d565b67ffffffffffffffff8111156200136e576200136d62000a33565b5b6200137a82546200114a565b62001387828285620012ac565b600060209050601f831160018114620013bf5760008415620013aa578287015190505b620013b6858262001329565b86555062001426565b601f198416620013cf866200117f565b60005b82811015620013f957848901518255600182019150602085019450602081019050620013d2565b8683101562001419578489015162001415601f89168262001309565b8355505b6001600288020188555050505b505050505050565b7f4e487b7100000000000000000000000000000000000000000000000000000000600052601160045260246000fd5b60006200146a8262000971565b91507fffffffffffffffffffffffffffffffffffffffffffffffffffffffffffffffff82036200149f576200149e6200142e565b5b60018201905091905056fe608060405234801561001057600080fd5b5060405161074738038061074783398181016040528101906100329190610134565b816000819055508060028190555082600360006101000a81548173ffffffffffffffffffffffffffffffffffffffff021916908373ffffffffffffffffffffffffffffffffffffffff160217905550505050610187565b600080fd5b600073ffffffffffffffffffffffffffffffffffffffff82169050919050565b60006100b98261008e565b9050919050565b60006100cb826100ae565b9050919050565b6100db816100c0565b81146100e657600080fd5b50565b6000815190506100f8816100d2565b92915050565b6000819050919050565b610111816100fe565b811461011c57600080fd5b50565b60008151905061012e81610108565b92915050565b60008060006060848603121561014d5761014c610089565b5b600061015b868287016100e9565b935050602061016c8682870161011f565b925050604061017d8682870161011f565b9150509250925092565b6105b1806101966000396000f3fe6080604052600436106100385760003560e01c80632986c0e51461024e5780633c8da5881461027957806383d12eef146102a457610240565b36610240576000543414610081576040517f08c379a000000000000000000000000000000000000000000000000000000000815260040161007890610364565b60405180910390fd5b6000600154146100c6576040517f08c379a00000000000000000000000000000000000000000000000000000000081526004016100bd906103d0565b60405180910390fd5b34600160008282546100d89190610429565b925050819055506000600360009054906101000a900473ffffffffffffffffffffffffffffffffffffffff1673ffffffffffffffffffffffffffffffffffffffff163460025460405160240161012e919061046c565b6040516020818303038152906040527f800fb83f000000000000000000000000000000000000000000000000000000007bffffffffffffffffffffffffffffffffffffffffffffffffffffffff19166020820180517bffffffffffffffffffffffffffffffffffffffffffffffffffffffff83818316178352505050506040516101b891906104f8565b60006040518083038185875af1925050503d80600081146101f5576040519150601f19603f3d011682016040523d82523d6000602084013e6101fa565b606091505b505090508061023e576040517f08c379a00000000000000000000000000000000000000000000000000000000081526004016102359061055b565b60405180910390fd5b005b34801561024c57600080fd5b005b34801561025a57600080fd5b506102636102cf565b604051610270919061046c565b60405180910390f35b34801561028557600080fd5b5061028e6102d5565b60405161029b919061046c565b60405180910390f35b3480156102b057600080fd5b506102b96102db565b6040516102c6919061046c565b60405180910390f35b60025481565b60005481565b60015481565b600082825260208201905092915050565b7f576520646f6e277420737570706f7274207061727469616c207061796d656e7460008201527f7300000000000000000000000000000000000000000000000000000000000000602082015250565b600061034e6021836102e1565b9150610359826102f2565b604082019050919050565b6000602082019050818103600083015261037d81610341565b9050919050565b7f4974656d20697320616c72656164792070616964210000000000000000000000600082015250565b60006103ba6015836102e1565b91506103c582610384565b602082019050919050565b600060208201905081810360008301526103e9816103ad565b9050919050565b6000819050919050565b7f4e487b7100000000000000000000000000000000000000000000000000000000600052601160045260246000fd5b6000610434826103f0565b915061043f836103f0565b9250828201905080821115610457576104566103fa565b5b92915050565b610466816103f0565b82525050565b6000602082019050610481600083018461045d565b92915050565b600081519050919050565b600081905092915050565b60005b838110156104bb5780820151818401526020810190506104a0565b60008484015250505050565b60006104d282610487565b6104dc8185610492565b93506104ec81856020860161049d565b80840191505092915050565b600061050482846104c7565b915081905092915050565b7f44656c697665727920646964206e6f7420776f726b0000000000000000000000600082015250565b60006105456015836102e1565b91506105508261050f565b602082019050919050565b6000602082019050818103600083015261057481610538565b905091905056fea2646970667358221220b9f3d64dc58a2ad23c0fc7d079ac5f443d84ce235514ec132cc6fe4f06fdca8a64736f6c63430008120033a26469706673582212209e12b270c2053c8ae26c7b0ea96dcd8993fd8775472d557adc1c9896a0f1fcba64736f6c63430008120033",
  "immutableReferences": {},
  "source": "// SPDX-License-Identifier: MIT\r\npragma solidity >= 0.6.0 < 0.9.0;\r\n\r\nimport \"./Item.sol\";\r\nimport \"./Ownable.sol\";\r\n\r\ncontract ItemManager is Ownable {\r\n\r\n\r\n  struct S_Item {\r\n    Item _item;\r\n    ItemManager.SupplyChainSteps _step;\r\n    string _identifier;\r\n  }\r\n\r\n  mapping(uint => S_Item) public items;\r\n  uint index;\r\n\r\n  enum SupplyChainSteps{Created, Paid, Delivered}\r\n  \r\n  event SupplyChainStep(uint _itemIndex, uint _step, address _address);\r\n\r\n  function createitem(string memory _identifier, uint _priceInWei) public onlyOwner {\r\n    Item item = new Item(this, _priceInWei, index);\r\n    items[index]._item = item;\r\n    items[index]._step = SupplyChainSteps.Created;\r\n    items[index]._identifier = _identifier;\r\n    emit SupplyChainStep(index, uint(items[index]._step), address(item));\r\n    index++;\r\n  }\r\n\r\n  function triggerPayment(uint _index) public payable {\r\n    Item item = items[_index]._item;\r\n    require(address(item) == msg.sender, \"Only items are allowed to update themselves\");\r\n    require(item.priceInWei() == msg.value, \"Not fully paid yet\");\r\n    require(items[index]._step == SupplyChainSteps.Created, \"Item is further in the supply chain\");\r\n    items[_index]._step = SupplyChainSteps.Paid;\r\n    emit SupplyChainStep(_index, uint(items[_index]._step), address(item));\r\n  }\r\n\r\n  function triggerDelivery(uint _index) public onlyOwner {\r\n    require(items[_index]._step == SupplyChainSteps.Paid, \"Item is further in the supply chain\");\r\n    items[_index]._step = SupplyChainSteps.Delivered;\r\n    emit SupplyChainStep(_index, uint(items[_index]._step), address(items[_index]._item));\r\n  }\r\n\r\n}",
  "sourcePath": "C:\\Users\\SSAFY\\Desktop\\S08P22A209\\contract\\contracts\\ItemManager.sol",
  "compiler": {
    "name": "solc",
    "version": "0.8.18+commit.87f61d96.Emscripten.clang"
  },
  "schemaVersion": "3.4.13",
  "updatedAt": "2023-03-10T04:49:18.093Z",
  "devdoc": {
    "kind": "dev",
    "methods": {
      "isOwner()": {
        "details": "Returns true if the caller is the current owner."
      }
    },
    "version": 1
  },
  "userdoc": {
    "kind": "user",
    "methods": {},
    "version": 1
  }
}