{
  "contractName": "ItemDonation",
  "abi": [
    {
      "inputs": [
        {
          "internalType": "uint256",
          "name": "",
          "type": "uint256"
        }
      ],
      "name": "items",
      "outputs": [
        {
          "internalType": "uint256",
          "name": "id",
          "type": "uint256"
        },
        {
          "internalType": "bytes",
          "name": "title",
          "type": "bytes"
        },
        {
          "internalType": "bytes",
          "name": "imgPath",
          "type": "bytes"
        },
        {
          "internalType": "bytes",
          "name": "description",
          "type": "bytes"
        },
        {
          "internalType": "uint256",
          "name": "price",
          "type": "uint256"
        },
        {
          "internalType": "bytes",
          "name": "message",
          "type": "bytes"
        },
        {
          "internalType": "bytes",
          "name": "filePath",
          "type": "bytes"
        },
        {
          "internalType": "bool",
          "name": "isDeleted",
          "type": "bool"
        },
        {
          "internalType": "address",
          "name": "seller",
          "type": "address"
        }
      ],
      "stateMutability": "view",
      "type": "function"
    },
    {
      "inputs": [
        {
          "internalType": "address",
          "name": "",
          "type": "address"
        },
        {
          "internalType": "uint256",
          "name": "",
          "type": "uint256"
        }
      ],
      "name": "myItems",
      "outputs": [
        {
          "internalType": "uint256",
          "name": "",
          "type": "uint256"
        }
      ],
      "stateMutability": "view",
      "type": "function"
    },
    {
      "inputs": [
        {
          "internalType": "address",
          "name": "",
          "type": "address"
        },
        {
          "internalType": "uint256",
          "name": "",
          "type": "uint256"
        }
      ],
      "name": "purchasedItems",
      "outputs": [
        {
          "internalType": "bool",
          "name": "",
          "type": "bool"
        }
      ],
      "stateMutability": "view",
      "type": "function"
    },
    {
      "inputs": [
        {
          "internalType": "address",
          "name": "",
          "type": "address"
        }
      ],
      "name": "supportCount",
      "outputs": [
        {
          "internalType": "uint256",
          "name": "",
          "type": "uint256"
        }
      ],
      "stateMutability": "view",
      "type": "function"
    },
    {
      "inputs": [
        {
          "internalType": "address",
          "name": "",
          "type": "address"
        },
        {
          "internalType": "uint256",
          "name": "",
          "type": "uint256"
        }
      ],
      "name": "supportList",
      "outputs": [
        {
          "internalType": "uint256",
          "name": "id",
          "type": "uint256"
        },
        {
          "internalType": "address",
          "name": "from",
          "type": "address"
        },
        {
          "internalType": "address",
          "name": "to",
          "type": "address"
        },
        {
          "internalType": "uint256",
          "name": "amount",
          "type": "uint256"
        },
        {
          "internalType": "uint256",
          "name": "sendTimestamp",
          "type": "uint256"
        },
        {
          "internalType": "enum SupportHistory.SupportType",
          "name": "supportType",
          "type": "uint8"
        },
        {
          "internalType": "enum SupportHistory.SupportStatus",
          "name": "supportStatus",
          "type": "uint8"
        }
      ],
      "stateMutability": "view",
      "type": "function"
    }
  ],
  "bytecode": "0x608060405234801561001057600080fd5b50610a44806100206000396000f3fe608060405234801561001057600080fd5b50600436106100575760003560e01c80630c1fa1ef1461005c578063be7dfa041461008c578063bfb231d2146100bc578063ccc933f9146100f4578063d83b8fd214610124575b600080fd5b61007660048036038101906100719190610601565b61015a565b6040516100839190610647565b60405180910390f35b6100a660048036038101906100a1919061068e565b610172565b6040516100b39190610647565b60405180910390f35b6100d660048036038101906100d191906106ce565b6101a3565b6040516100eb999897969594939291906107b5565b60405180910390f35b61010e6004803603810190610109919061068e565b6104c6565b60405161011b9190610865565b60405180910390f35b61013e6004803603810190610139919061068e565b6104f5565b604051610151979695949392919061093f565b60405180910390f35b60016020528060005260406000206000915090505481565b6003602052816000526040600020818154811061018e57600080fd5b90600052602060002001600091509150505481565b60026020528060005260406000206000915090508060000154908060010180546101cc906109dd565b80601f01602080910402602001604051908101604052809291908181526020018280546101f8906109dd565b80156102455780601f1061021a57610100808354040283529160200191610245565b820191906000526020600020905b81548152906001019060200180831161022857829003601f168201915b50505050509080600201805461025a906109dd565b80601f0160208091040260200160405190810160405280929190818152602001828054610286906109dd565b80156102d35780601f106102a8576101008083540402835291602001916102d3565b820191906000526020600020905b8154815290600101906020018083116102b657829003601f168201915b5050505050908060030180546102e8906109dd565b80601f0160208091040260200160405190810160405280929190818152602001828054610314906109dd565b80156103615780601f1061033657610100808354040283529160200191610361565b820191906000526020600020905b81548152906001019060200180831161034457829003601f168201915b50505050509080600401549080600501805461037c906109dd565b80601f01602080910402602001604051908101604052809291908181526020018280546103a8906109dd565b80156103f55780601f106103ca576101008083540402835291602001916103f5565b820191906000526020600020905b8154815290600101906020018083116103d857829003601f168201915b50505050509080600601805461040a906109dd565b80601f0160208091040260200160405190810160405280929190818152602001828054610436906109dd565b80156104835780601f1061045857610100808354040283529160200191610483565b820191906000526020600020905b81548152906001019060200180831161046657829003601f168201915b5050505050908060070160009054906101000a900460ff16908060070160019054906101000a900473ffffffffffffffffffffffffffffffffffffffff16905089565b60056020528160005260406000206020528060005260406000206000915091509054906101000a900460ff1681565b6000602052816000526040600020602052806000526040600020600091509150508060000154908060010160009054906101000a900473ffffffffffffffffffffffffffffffffffffffff16908060020160009054906101000a900473ffffffffffffffffffffffffffffffffffffffff16908060030154908060040154908060050160009054906101000a900460ff16908060050160019054906101000a900460ff16905087565b600080fd5b600073ffffffffffffffffffffffffffffffffffffffff82169050919050565b60006105ce826105a3565b9050919050565b6105de816105c3565b81146105e957600080fd5b50565b6000813590506105fb816105d5565b92915050565b6000602082840312156106175761061661059e565b5b6000610625848285016105ec565b91505092915050565b6000819050919050565b6106418161062e565b82525050565b600060208201905061065c6000830184610638565b92915050565b61066b8161062e565b811461067657600080fd5b50565b60008135905061068881610662565b92915050565b600080604083850312156106a5576106a461059e565b5b60006106b3858286016105ec565b92505060206106c485828601610679565b9150509250929050565b6000602082840312156106e4576106e361059e565b5b60006106f284828501610679565b91505092915050565b600081519050919050565b600082825260208201905092915050565b60005b8381101561073557808201518184015260208101905061071a565b60008484015250505050565b6000601f19601f8301169050919050565b600061075d826106fb565b6107678185610706565b9350610777818560208601610717565b61078081610741565b840191505092915050565b60008115159050919050565b6107a08161078b565b82525050565b6107af816105c3565b82525050565b6000610120820190506107cb600083018c610638565b81810360208301526107dd818b610752565b905081810360408301526107f1818a610752565b905081810360608301526108058189610752565b90506108146080830188610638565b81810360a08301526108268187610752565b905081810360c083015261083a8186610752565b905061084960e0830185610797565b6108576101008301846107a6565b9a9950505050505050505050565b600060208201905061087a6000830184610797565b92915050565b7f4e487b7100000000000000000000000000000000000000000000000000000000600052602160045260246000fd5b600381106108c0576108bf610880565b5b50565b60008190506108d1826108af565b919050565b60006108e1826108c3565b9050919050565b6108f1816108d6565b82525050565b6004811061090857610907610880565b5b50565b6000819050610919826108f7565b919050565b60006109298261090b565b9050919050565b6109398161091e565b82525050565b600060e082019050610954600083018a610638565b61096160208301896107a6565b61096e60408301886107a6565b61097b6060830187610638565b6109886080830186610638565b61099560a08301856108e8565b6109a260c0830184610930565b98975050505050505050565b7f4e487b7100000000000000000000000000000000000000000000000000000000600052602260045260246000fd5b600060028204905060018216806109f557607f821691505b602082108103610a0857610a076109ae565b5b5091905056fea2646970667358221220138f222b295fe58394e001ed6463d53de3fa1b3b1e32561efc8debfe67ad54c464736f6c63430008120033",
  "immutableReferences": {},
  "source": "// SPDX-License-Identifier: MIT\r\npragma solidity >= 0.6.0 <0.9.0;\r\n\r\nimport \"./SupportHistory.sol\";\r\n\r\ncontract ItemDonation is SupportHistory {\r\n    struct Item {\r\n        uint256 id;\r\n        bytes title;\r\n        bytes imgPath;\r\n        bytes description;\r\n        uint price; // wei\r\n        bytes message;\r\n        bytes filePath;\r\n        bool isDeleted;\r\n        address seller;\r\n    }\r\n\r\n    mapping(uint256 => Item) public items;\r\n    mapping(address => uint256[]) public myItems;\r\n    uint256 internal itemCount;\r\n    mapping(address => mapping(uint256 => bool)) public purchasedItems;\r\n\r\n    // event ItemPurchased(address indexed buyer, address indexed seller, uint256 itemId);\r\n\r\n    function _buyItem(address _address, uint256 _itemId, uint256 _value) internal returns(uint256){\r\n        require(_value <= address(this).balance, \"Insufficient balance\");\r\n        //   .\r\n        uint256 _id = recordSupport(msg.sender, _address, _value, SupportType.Item);\r\n\r\n        Item memory item = items[_itemId];\r\n        \r\n        require(_value >= item.price, \"Insufficient payment\");\r\n        require(!item.isDeleted, \"Insufficient payment\");\r\n        require(item.seller == _address, \"This address is not the item's seller.\");\r\n        require(!purchasedItems[msg.sender][_itemId], \"This item has already been purchased.\");\r\n        // emit ItemPurchased(msg.sender, item.seller, _itemId);\r\n\r\n        (bool success, ) = _address.call{value: _value}(\"\");\r\n\r\n        if (!success) {\r\n            updateSupportStatus(msg.sender, _address, _id, SupportStatus.Failed);\r\n            revert(\"Transfer to wishlistOwner failed\");\r\n        }\r\n        updateSupportStatus(msg.sender, _address, _id, SupportStatus.Success);\r\n        purchasedItems[msg.sender][_itemId] = true;\r\n        return _id;\r\n    }\r\n\r\n    function _createItem(Item memory _item) internal {\r\n        itemCount++;\r\n        items[itemCount] = _item;\r\n        myItems[_item.seller].push(itemCount);\r\n    }\r\n    function _getItemList(uint256[] memory indexes) internal view returns (Item[] memory) {\r\n        Item[] memory result = new Item[](indexes.length);\r\n        for (uint i = 0; i < indexes.length; i++) {\r\n            require(indexes[i] <= itemCount, \"Invalid index\");\r\n            Item storage item = items[indexes[i]];\r\n            result[i] = item;\r\n        }\r\n        return result;\r\n    }\r\n\r\n    function _getItemDetail(uint256 id) internal view returns (Item memory) {\r\n        require(id <= itemCount, \"Invalid index\");\r\n        Item storage item = items[id];\r\n        // require(!item.isDeleted, \"Item does not exist\");\r\n        return item;\r\n    }\r\n\r\n    function _deleteItem(address _address, uint256 id) internal {\r\n        require(id <= itemCount, \"Invalid index\");\r\n        Item memory item = items[id];\r\n        require(!item.isDeleted, \"Item does not exist\");\r\n        require(item.seller == _address, \"You are not seller\");\r\n        items[id].isDeleted = true;\r\n    }\r\n\r\n    function _updateItem(Item memory _item) internal {\r\n        require(_item.id <= itemCount, \"Invalid index\");\r\n        items[_item.id] = _item;\r\n        myItems[_item.seller].push(itemCount);\r\n    }\r\n}",
  "sourcePath": "C:\\Users\\SSAFY\\Desktop\\S08P22A209\\contract\\contracts\\ItemDonation.sol",
  "compiler": {
    "name": "solc",
    "version": "0.8.18+commit.87f61d96.Emscripten.clang"
  },
  "schemaVersion": "3.4.13",
  "updatedAt": "2023-03-20T07:52:01.360Z",
  "devdoc": {
    "kind": "dev",
    "methods": {},
    "version": 1
  },
  "userdoc": {
    "kind": "user",
    "methods": {},
    "version": 1
  }
}