{
  "contractName": "ItemDonation",
  "abi": [
    {
      "inputs": [
        {
          "internalType": "uint64",
          "name": "",
          "type": "uint64"
        }
      ],
      "name": "items",
      "outputs": [
        {
          "internalType": "uint64",
          "name": "id",
          "type": "uint64"
        },
        {
          "internalType": "bytes",
          "name": "title",
          "type": "bytes"
        },
        {
          "internalType": "bytes",
          "name": "imgPath",
          "type": "bytes"
        },
        {
          "internalType": "bytes",
          "name": "description",
          "type": "bytes"
        },
        {
          "internalType": "uint256",
          "name": "price",
          "type": "uint256"
        },
        {
          "internalType": "uint64",
          "name": "salesCount",
          "type": "uint64"
        },
        {
          "internalType": "bytes",
          "name": "message",
          "type": "bytes"
        },
        {
          "internalType": "bytes",
          "name": "filePath",
          "type": "bytes"
        },
        {
          "internalType": "bool",
          "name": "isDeleted",
          "type": "bool"
        },
        {
          "internalType": "address",
          "name": "seller",
          "type": "address"
        }
      ],
      "stateMutability": "view",
      "type": "function"
    },
    {
      "inputs": [
        {
          "internalType": "address",
          "name": "",
          "type": "address"
        },
        {
          "internalType": "uint256",
          "name": "",
          "type": "uint256"
        }
      ],
      "name": "myItems",
      "outputs": [
        {
          "internalType": "uint64",
          "name": "",
          "type": "uint64"
        }
      ],
      "stateMutability": "view",
      "type": "function"
    },
    {
      "inputs": [
        {
          "internalType": "address",
          "name": "",
          "type": "address"
        },
        {
          "internalType": "uint64",
          "name": "",
          "type": "uint64"
        }
      ],
      "name": "purchasedItems",
      "outputs": [
        {
          "internalType": "bool",
          "name": "",
          "type": "bool"
        }
      ],
      "stateMutability": "view",
      "type": "function"
    },
    {
      "inputs": [
        {
          "internalType": "address",
          "name": "",
          "type": "address"
        }
      ],
      "name": "supportCount",
      "outputs": [
        {
          "internalType": "uint64",
          "name": "",
          "type": "uint64"
        }
      ],
      "stateMutability": "view",
      "type": "function"
    },
    {
      "inputs": [
        {
          "internalType": "address",
          "name": "",
          "type": "address"
        },
        {
          "internalType": "uint64",
          "name": "",
          "type": "uint64"
        }
      ],
      "name": "supportList",
      "outputs": [
        {
          "internalType": "uint64",
          "name": "id",
          "type": "uint64"
        },
        {
          "internalType": "address",
          "name": "from",
          "type": "address"
        },
        {
          "internalType": "address",
          "name": "to",
          "type": "address"
        },
        {
          "internalType": "uint256",
          "name": "amount",
          "type": "uint256"
        },
        {
          "internalType": "uint256",
          "name": "arriveTime",
          "type": "uint256"
        },
        {
          "internalType": "enum SupportHistory.SupportType",
          "name": "supportType",
          "type": "uint8"
        }
      ],
      "stateMutability": "view",
      "type": "function"
    }
  ],
  "bytecode": "0x608060405234801561001057600080fd5b50610ae6806100206000396000f3fe608060405234801561001057600080fd5b50600436106100575760003560e01c80630c1fa1ef1461005c57806321f3d1281461008c578063234c9218146100bc5780635be5bc15146100f1578063be7dfa041461012a575b600080fd5b6100766004803603810190610071919061065b565b61015a565b60405161008391906106ab565b60405180910390f35b6100a660048036038101906100a191906106f2565b610181565b6040516100b3919061074d565b60405180910390f35b6100d660048036038101906100d191906106f2565b6101b0565b6040516100e896959493929190610807565b60405180910390f35b61010b60048036038101906101069190610868565b61025a565b6040516101219a99989796959493929190610925565b60405180910390f35b610144600480360381019061013f9190610a10565b6105ab565b60405161015191906106ab565b60405180910390f35b60016020528060005260406000206000915054906101000a900467ffffffffffffffff1681565b60056020528160005260406000206020528060005260406000206000915091509054906101000a900460ff1681565b6000602052816000526040600020602052806000526040600020600091509150508060000160009054906101000a900467ffffffffffffffff16908060000160089054906101000a900473ffffffffffffffffffffffffffffffffffffffff16908060010160009054906101000a900473ffffffffffffffffffffffffffffffffffffffff16908060020154908060030154908060040160009054906101000a900460ff16905086565b60026020528060005260406000206000915090508060000160009054906101000a900467ffffffffffffffff169080600101805461029790610a7f565b80601f01602080910402602001604051908101604052809291908181526020018280546102c390610a7f565b80156103105780601f106102e557610100808354040283529160200191610310565b820191906000526020600020905b8154815290600101906020018083116102f357829003601f168201915b50505050509080600201805461032590610a7f565b80601f016020809104026020016040519081016040528092919081815260200182805461035190610a7f565b801561039e5780601f106103735761010080835404028352916020019161039e565b820191906000526020600020905b81548152906001019060200180831161038157829003601f168201915b5050505050908060030180546103b390610a7f565b80601f01602080910402602001604051908101604052809291908181526020018280546103df90610a7f565b801561042c5780601f106104015761010080835404028352916020019161042c565b820191906000526020600020905b81548152906001019060200180831161040f57829003601f168201915b5050505050908060040154908060050160009054906101000a900467ffffffffffffffff169080600601805461046190610a7f565b80601f016020809104026020016040519081016040528092919081815260200182805461048d90610a7f565b80156104da5780601f106104af576101008083540402835291602001916104da565b820191906000526020600020905b8154815290600101906020018083116104bd57829003601f168201915b5050505050908060070180546104ef90610a7f565b80601f016020809104026020016040519081016040528092919081815260200182805461051b90610a7f565b80156105685780601f1061053d57610100808354040283529160200191610568565b820191906000526020600020905b81548152906001019060200180831161054b57829003601f168201915b5050505050908060080160009054906101000a900460ff16908060080160019054906101000a900473ffffffffffffffffffffffffffffffffffffffff1690508a565b600360205281600052604060002081815481106105c757600080fd5b9060005260206000209060049182820401919006600802915091509054906101000a900467ffffffffffffffff1681565b600080fd5b600073ffffffffffffffffffffffffffffffffffffffff82169050919050565b6000610628826105fd565b9050919050565b6106388161061d565b811461064357600080fd5b50565b6000813590506106558161062f565b92915050565b600060208284031215610671576106706105f8565b5b600061067f84828501610646565b91505092915050565b600067ffffffffffffffff82169050919050565b6106a581610688565b82525050565b60006020820190506106c0600083018461069c565b92915050565b6106cf81610688565b81146106da57600080fd5b50565b6000813590506106ec816106c6565b92915050565b60008060408385031215610709576107086105f8565b5b600061071785828601610646565b9250506020610728858286016106dd565b9150509250929050565b60008115159050919050565b61074781610732565b82525050565b6000602082019050610762600083018461073e565b92915050565b6107718161061d565b82525050565b6000819050919050565b61078a81610777565b82525050565b7f4e487b7100000000000000000000000000000000000000000000000000000000600052602160045260246000fd5b600381106107d0576107cf610790565b5b50565b60008190506107e1826107bf565b919050565b60006107f1826107d3565b9050919050565b610801816107e6565b82525050565b600060c08201905061081c600083018961069c565b6108296020830188610768565b6108366040830187610768565b6108436060830186610781565b6108506080830185610781565b61085d60a08301846107f8565b979650505050505050565b60006020828403121561087e5761087d6105f8565b5b600061088c848285016106dd565b91505092915050565b600081519050919050565b600082825260208201905092915050565b60005b838110156108cf5780820151818401526020810190506108b4565b60008484015250505050565b6000601f19601f8301169050919050565b60006108f782610895565b61090181856108a0565b93506109118185602086016108b1565b61091a816108db565b840191505092915050565b60006101408201905061093b600083018d61069c565b818103602083015261094d818c6108ec565b90508181036040830152610961818b6108ec565b90508181036060830152610975818a6108ec565b90506109846080830189610781565b61099160a083018861069c565b81810360c08301526109a381876108ec565b905081810360e08301526109b781866108ec565b90506109c761010083018561073e565b6109d5610120830184610768565b9b9a5050505050505050505050565b6109ed81610777565b81146109f857600080fd5b50565b600081359050610a0a816109e4565b92915050565b60008060408385031215610a2757610a266105f8565b5b6000610a3585828601610646565b9250506020610a46858286016109fb565b9150509250929050565b7f4e487b7100000000000000000000000000000000000000000000000000000000600052602260045260246000fd5b60006002820490506001821680610a9757607f821691505b602082108103610aaa57610aa9610a50565b5b5091905056fea264697066735822122033536726a4aecee41de7aeb519907eee142e5827697ff9e938ba4b4c413e14b864736f6c63430008120033",
  "immutableReferences": {},
  "source": "// SPDX-License-Identifier: MIT\r\npragma solidity >= 0.6.0 <0.9.0;\r\n\r\nimport \"./SupportHistory.sol\";\r\nimport \"./BasicDonation.sol\";\r\n\r\ncontract ItemDonation is SupportHistory, BasicDonation {\r\n    struct ItemSol {\r\n        uint64 id;\r\n        bytes title;\r\n        bytes imgPath;\r\n        bytes description;\r\n        uint256 price; // wei\r\n        uint64 salesCount;\r\n        bytes message;\r\n        bytes filePath;\r\n        bool isDeleted;\r\n        address seller;\r\n    }\r\n\r\n    mapping(uint64 => ItemSol) public items;\r\n    mapping(address => uint64[]) public myItems;\r\n    uint64 internal itemCount;\r\n    mapping(address => mapping(uint64 => bool)) public purchasedItems;\r\n\r\n    // event ItemPurchased(address indexed buyer, address indexed seller, uint256 itemId);\r\n\r\n    function _buyItem(address payable _seller, uint64 _itemId, uint256 _value, address payable _owner) internal returns(uint64){\r\n        require(_value <= address(this).balance, \"Insufficient balance\");\r\n        ItemSol memory item = items[_itemId];\r\n        require(_value >= item.price, \"Insufficient payment\");\r\n        require(!item.isDeleted, \"Insufficient payment\");\r\n        require(item.seller == _seller, \"This address is not the item's seller.\");\r\n        require(!purchasedItems[msg.sender][_itemId], \"This item has already been purchased.\");\r\n\r\n        uint64 supportId = _transfer(_seller, _value, SupportType.Item, _owner);\r\n\r\n        purchasedItems[msg.sender][_itemId] = true;\r\n        items[_itemId].salesCount += 1;\r\n        return supportId;\r\n    }\r\n\r\n    function _createItem(ItemSol memory _item) internal {\r\n        itemCount++;\r\n        _item.id = itemCount;\r\n        items[itemCount] = _item;\r\n        myItems[_item.seller].push(itemCount);\r\n    }\r\n    function _getItemList(uint64[] memory indexes) internal view returns (ItemSol[] memory) {\r\n        ItemSol[] memory result = new ItemSol[](indexes.length);\r\n        for (uint i = 0; i < indexes.length; i++) {\r\n            require(indexes[i] <= itemCount, \"Invalid index\");\r\n            ItemSol storage item = items[indexes[i]];\r\n            result[i] = item;\r\n        }\r\n        return result;\r\n    }\r\n\r\n    function _getItemDetail(uint64 id) internal view returns (ItemSol memory) {\r\n        require(id <= itemCount, \"Invalid index\");\r\n        require(id != 0, \"Invalid index\");\r\n        ItemSol memory item = items[id];\r\n        require(!item.isDeleted, \"Item does not exist\");\r\n        return item;\r\n    }\r\n\r\n    function _deleteItem(address _address, uint64 id) internal {\r\n        require(id <= itemCount, \"Invalid index\");\r\n        ItemSol memory item = items[id];\r\n        require(!item.isDeleted, \"Item does not exist\");\r\n        require(item.seller == _address, \"You are not seller\");\r\n        items[id].isDeleted = true;\r\n    }\r\n\r\n    function _updateItem(ItemSol memory _item) internal {\r\n        require(_item.id <= itemCount, \"Invalid index\");\r\n        items[_item.id] = _item;\r\n    }\r\n}",
  "sourcePath": "C:\\Users\\SSAFY\\Desktop\\S08P22A209\\contract\\contracts\\ItemDonation.sol",
  "compiler": {
    "name": "solc",
    "version": "0.8.18+commit.87f61d96.Emscripten.clang"
  },
  "schemaVersion": "3.4.13",
  "updatedAt": "2023-04-04T07:54:13.803Z",
  "devdoc": {
    "kind": "dev",
    "methods": {},
    "version": 1
  },
  "userdoc": {
    "kind": "user",
    "methods": {},
    "version": 1
  }
}