{
  "contractName": "SupportHistory",
  "abi": [
    {
      "inputs": [
        {
          "internalType": "address",
          "name": "",
          "type": "address"
        }
      ],
      "name": "supportCount",
      "outputs": [
        {
          "internalType": "uint64",
          "name": "",
          "type": "uint64"
        }
      ],
      "stateMutability": "view",
      "type": "function"
    },
    {
      "inputs": [
        {
          "internalType": "address",
          "name": "",
          "type": "address"
        },
        {
          "internalType": "uint64",
          "name": "",
          "type": "uint64"
        }
      ],
      "name": "supportList",
      "outputs": [
        {
          "internalType": "uint64",
          "name": "id",
          "type": "uint64"
        },
        {
          "internalType": "address",
          "name": "from",
          "type": "address"
        },
        {
          "internalType": "address",
          "name": "to",
          "type": "address"
        },
        {
          "internalType": "uint256",
          "name": "amount",
          "type": "uint256"
        },
        {
          "internalType": "uint256",
          "name": "arriveTime",
          "type": "uint256"
        },
        {
          "internalType": "enum SupportHistory.SupportType",
          "name": "supportType",
          "type": "uint8"
        }
      ],
      "stateMutability": "view",
      "type": "function"
    }
  ],
  "bytecode": "0x608060405234801561001057600080fd5b506103e1806100206000396000f3fe608060405234801561001057600080fd5b50600436106100365760003560e01c80630c1fa1ef1461003b578063234c92181461006b575b600080fd5b610055600480360381019061005091906101d4565b6100a0565b6040516100629190610224565b60405180910390f35b6100856004803603810190610080919061026b565b6100c7565b6040516100979695949392919061034a565b60405180910390f35b60016020528060005260406000206000915054906101000a900467ffffffffffffffff1681565b6000602052816000526040600020602052806000526040600020600091509150508060000160009054906101000a900467ffffffffffffffff16908060000160089054906101000a900473ffffffffffffffffffffffffffffffffffffffff16908060010160009054906101000a900473ffffffffffffffffffffffffffffffffffffffff16908060020154908060030154908060040160009054906101000a900460ff16905086565b600080fd5b600073ffffffffffffffffffffffffffffffffffffffff82169050919050565b60006101a182610176565b9050919050565b6101b181610196565b81146101bc57600080fd5b50565b6000813590506101ce816101a8565b92915050565b6000602082840312156101ea576101e9610171565b5b60006101f8848285016101bf565b91505092915050565b600067ffffffffffffffff82169050919050565b61021e81610201565b82525050565b60006020820190506102396000830184610215565b92915050565b61024881610201565b811461025357600080fd5b50565b6000813590506102658161023f565b92915050565b6000806040838503121561028257610281610171565b5b6000610290858286016101bf565b92505060206102a185828601610256565b9150509250929050565b6102b481610196565b82525050565b6000819050919050565b6102cd816102ba565b82525050565b7f4e487b7100000000000000000000000000000000000000000000000000000000600052602160045260246000fd5b60038110610313576103126102d3565b5b50565b600081905061032482610302565b919050565b600061033482610316565b9050919050565b61034481610329565b82525050565b600060c08201905061035f6000830189610215565b61036c60208301886102ab565b61037960408301876102ab565b61038660608301866102c4565b61039360808301856102c4565b6103a060a083018461033b565b97965050505050505056fea2646970667358221220bbeb2e58e0d3080cfc490a087885562935cee98ca8ba1a175baded35ca063d9f64736f6c63430008120033",
  "immutableReferences": {},
  "source": "// SPDX-License-Identifier: MIT\r\npragma solidity >= 0.6.0 <0.9.0;\r\n\r\ncontract SupportHistory {\r\n    enum SupportType { Donation, Item, Wishlist }\r\n\r\n    struct SupportSol{\r\n        uint64 id;\r\n        address from;\r\n        address to;\r\n        uint256 amount;\r\n        uint256 arriveTime;\r\n        SupportType supportType;\r\n    }\r\n\r\n    mapping(address => mapping(uint64 => SupportSol)) public supportList;\r\n    mapping(address => uint64) public supportCount;\r\n\r\n    //  .\r\n    function recordSupport(address _from, address _to, uint256 _amount, SupportType _supportType) internal returns (uint64) {\r\n        uint64 _id = ++supportCount[_to];\r\n        supportList[_to][_id] = SupportSol({\r\n        id: _id,\r\n        from: _from,\r\n        to: _to,\r\n        amount: _amount,\r\n        arriveTime: block.timestamp,\r\n        supportType: _supportType\r\n        });\r\n        return _id;\r\n    }\r\n\r\n    function getSupportListCount(address _address) internal view returns (uint64){\r\n        return supportCount[_address];\r\n    }\r\n\r\n    function _getSupportList(address _address) internal view returns (SupportSol[] memory){\r\n        uint64 count = supportCount[_address];\r\n        SupportSol[] memory mySupport = new SupportSol[](count);\r\n\r\n        for (uint64 i = 0; i < count; i++) {\r\n            mySupport[i] = supportList[_address][i+1];\r\n        }\r\n\r\n        return mySupport;\r\n    }\r\n\r\n    function _getSupportDetail(address _address, uint64 _id) internal view returns(SupportSol memory){\r\n        uint64 count = supportCount[_address];\r\n        require(_id != 0, \"Invalid index\");\r\n        require(_id <= count, \"Invalid index\");\r\n        return supportList[_address][_id];\r\n    }\r\n\r\n}",
  "sourcePath": "C:\\Users\\SSAFY\\Desktop\\S08P22A209\\contract\\contracts\\SupportHistory.sol",
  "compiler": {
    "name": "solc",
    "version": "0.8.18+commit.87f61d96.Emscripten.clang"
  },
  "schemaVersion": "3.4.13",
  "updatedAt": "2023-04-04T07:54:13.808Z",
  "devdoc": {
    "kind": "dev",
    "methods": {},
    "version": 1
  },
  "userdoc": {
    "kind": "user",
    "methods": {},
    "version": 1
  }
}