{
  "contractName": "WishlistDonation",
  "abi": [
    {
      "inputs": [
        {
          "internalType": "address",
          "name": "",
          "type": "address"
        },
        {
          "internalType": "uint256",
          "name": "",
          "type": "uint256"
        }
      ],
      "name": "myWishlists",
      "outputs": [
        {
          "internalType": "uint256",
          "name": "",
          "type": "uint256"
        }
      ],
      "stateMutability": "view",
      "type": "function"
    },
    {
      "inputs": [
        {
          "internalType": "address",
          "name": "",
          "type": "address"
        }
      ],
      "name": "supportCount",
      "outputs": [
        {
          "internalType": "uint256",
          "name": "",
          "type": "uint256"
        }
      ],
      "stateMutability": "view",
      "type": "function"
    },
    {
      "inputs": [
        {
          "internalType": "address",
          "name": "",
          "type": "address"
        },
        {
          "internalType": "uint256",
          "name": "",
          "type": "uint256"
        }
      ],
      "name": "supportList",
      "outputs": [
        {
          "internalType": "uint256",
          "name": "id",
          "type": "uint256"
        },
        {
          "internalType": "address",
          "name": "from",
          "type": "address"
        },
        {
          "internalType": "address",
          "name": "to",
          "type": "address"
        },
        {
          "internalType": "uint256",
          "name": "amount",
          "type": "uint256"
        },
        {
          "internalType": "uint256",
          "name": "sendTimestamp",
          "type": "uint256"
        },
        {
          "internalType": "enum SupportHistory.SupportType",
          "name": "supportType",
          "type": "uint8"
        },
        {
          "internalType": "enum SupportHistory.SupportStatus",
          "name": "supportStatus",
          "type": "uint8"
        }
      ],
      "stateMutability": "view",
      "type": "function"
    },
    {
      "inputs": [
        {
          "internalType": "uint256",
          "name": "",
          "type": "uint256"
        }
      ],
      "name": "wishlists",
      "outputs": [
        {
          "internalType": "uint256",
          "name": "id",
          "type": "uint256"
        },
        {
          "internalType": "bytes",
          "name": "imgPath",
          "type": "bytes"
        },
        {
          "internalType": "bytes",
          "name": "title",
          "type": "bytes"
        },
        {
          "internalType": "bytes",
          "name": "description",
          "type": "bytes"
        },
        {
          "internalType": "uint256",
          "name": "collectedAmount",
          "type": "uint256"
        },
        {
          "internalType": "uint256",
          "name": "targetAmount",
          "type": "uint256"
        },
        {
          "internalType": "bytes",
          "name": "message",
          "type": "bytes"
        },
        {
          "internalType": "bool",
          "name": "isClosed",
          "type": "bool"
        },
        {
          "internalType": "address",
          "name": "seller",
          "type": "address"
        }
      ],
      "stateMutability": "view",
      "type": "function"
    }
  ],
  "bytecode": "0x608060405234801561001057600080fd5b50610930806100206000396000f3fe608060405234801561001057600080fd5b506004361061004c5760003560e01c80630c1fa1ef14610051578063a9afa55b14610081578063b9a44c2e146100b9578063d83b8fd2146100e9575b600080fd5b61006b6004803603810190610066919061050f565b61011f565b6040516100789190610555565b60405180910390f35b61009b6004803603810190610096919061059c565b610137565b6040516100b099989796959493929190610683565b60405180910390f35b6100d360048036038101906100ce919061072c565b6103d2565b6040516100e09190610555565b60405180910390f35b61010360048036038101906100fe919061072c565b610403565b604051610116979695949392919061082b565b60405180910390f35b60016020528060005260406000206000915090505481565b6002602052806000526040600020600091509050806000015490806001018054610160906108c9565b80601f016020809104026020016040519081016040528092919081815260200182805461018c906108c9565b80156101d95780601f106101ae576101008083540402835291602001916101d9565b820191906000526020600020905b8154815290600101906020018083116101bc57829003601f168201915b5050505050908060020180546101ee906108c9565b80601f016020809104026020016040519081016040528092919081815260200182805461021a906108c9565b80156102675780601f1061023c57610100808354040283529160200191610267565b820191906000526020600020905b81548152906001019060200180831161024a57829003601f168201915b50505050509080600301805461027c906108c9565b80601f01602080910402602001604051908101604052809291908181526020018280546102a8906108c9565b80156102f55780601f106102ca576101008083540402835291602001916102f5565b820191906000526020600020905b8154815290600101906020018083116102d857829003601f168201915b505050505090806004015490806005015490806006018054610316906108c9565b80601f0160208091040260200160405190810160405280929190818152602001828054610342906108c9565b801561038f5780601f106103645761010080835404028352916020019161038f565b820191906000526020600020905b81548152906001019060200180831161037257829003601f168201915b5050505050908060070160009054906101000a900460ff16908060070160019054906101000a900473ffffffffffffffffffffffffffffffffffffffff16905089565b600360205281600052604060002081815481106103ee57600080fd5b90600052602060002001600091509150505481565b6000602052816000526040600020602052806000526040600020600091509150508060000154908060010160009054906101000a900473ffffffffffffffffffffffffffffffffffffffff16908060020160009054906101000a900473ffffffffffffffffffffffffffffffffffffffff16908060030154908060040154908060050160009054906101000a900460ff16908060050160019054906101000a900460ff16905087565b600080fd5b600073ffffffffffffffffffffffffffffffffffffffff82169050919050565b60006104dc826104b1565b9050919050565b6104ec816104d1565b81146104f757600080fd5b50565b600081359050610509816104e3565b92915050565b600060208284031215610525576105246104ac565b5b6000610533848285016104fa565b91505092915050565b6000819050919050565b61054f8161053c565b82525050565b600060208201905061056a6000830184610546565b92915050565b6105798161053c565b811461058457600080fd5b50565b60008135905061059681610570565b92915050565b6000602082840312156105b2576105b16104ac565b5b60006105c084828501610587565b91505092915050565b600081519050919050565b600082825260208201905092915050565b60005b838110156106035780820151818401526020810190506105e8565b60008484015250505050565b6000601f19601f8301169050919050565b600061062b826105c9565b61063581856105d4565b93506106458185602086016105e5565b61064e8161060f565b840191505092915050565b60008115159050919050565b61066e81610659565b82525050565b61067d816104d1565b82525050565b600061012082019050610699600083018c610546565b81810360208301526106ab818b610620565b905081810360408301526106bf818a610620565b905081810360608301526106d38189610620565b90506106e26080830188610546565b6106ef60a0830187610546565b81810360c08301526107018186610620565b905061071060e0830185610665565b61071e610100830184610674565b9a9950505050505050505050565b60008060408385031215610743576107426104ac565b5b6000610751858286016104fa565b925050602061076285828601610587565b9150509250929050565b7f4e487b7100000000000000000000000000000000000000000000000000000000600052602160045260246000fd5b600381106107ac576107ab61076c565b5b50565b60008190506107bd8261079b565b919050565b60006107cd826107af565b9050919050565b6107dd816107c2565b82525050565b600481106107f4576107f361076c565b5b50565b6000819050610805826107e3565b919050565b6000610815826107f7565b9050919050565b6108258161080a565b82525050565b600060e082019050610840600083018a610546565b61084d6020830189610674565b61085a6040830188610674565b6108676060830187610546565b6108746080830186610546565b61088160a08301856107d4565b61088e60c083018461081c565b98975050505050505050565b7f4e487b7100000000000000000000000000000000000000000000000000000000600052602260045260246000fd5b600060028204905060018216806108e157607f821691505b6020821081036108f4576108f361089a565b5b5091905056fea2646970667358221220dba299de74312b89c55963d71eb5309144f917e9c33b88eeab53165fa73805b864736f6c63430008120033",
  "immutableReferences": {},
  "source": "// SPDX-License-Identifier: MIT\r\npragma solidity >= 0.6.0 <0.9.0;\r\n\r\nimport \"./SupportHistory.sol\";\r\n\r\ncontract WishlistDonation is SupportHistory {\r\n    enum wishlistStatus { complete, Deleted}\r\n\r\n    struct Wishlist {\r\n        uint256 id;\r\n        bytes imgPath;\r\n        bytes title;\r\n        bytes description;\r\n        uint256 collectedAmount;\r\n        uint256 targetAmount;\r\n        bytes message;\r\n        bool isClosed;\r\n        address seller;\r\n    }\r\n\r\n    mapping(uint =>  Wishlist) public wishlists;\r\n    mapping(address => uint256[]) public myWishlists;\r\n    uint256 internal wishlistCount;\r\n\r\n    // event WishlistCreated(address indexed creator, uint256 wishlistId);\r\n\r\n    function _buyWishlist(address _address, uint256 _wishlistId, uint256 _value) internal returns(uint256){\r\n        require(_value <= address(this).balance, \"Insufficient balance\");\r\n        //   .\r\n        uint256 _id = recordSupport(msg.sender, _address, _value, SupportType.Wishlist);\r\n\r\n        Wishlist memory wishlist = wishlists[_wishlistId];\r\n        \r\n        require(!wishlist.isClosed, \"This fundraising campaign for the wishlist has closed.\");\r\n        // require(!purchasedItems[msg.sender][_wishlistId], \"This address is not the item's seller.\");\r\n        // emit ItemPurchased(msg.sender, item.seller, _itemId);\r\n\r\n        (bool success, ) = _address.call{value: _value}(\"\");\r\n\r\n        if (!success) {\r\n            updateSupportStatus(msg.sender, _address, _id, SupportStatus.Failed);\r\n            revert(\"Transfer to wishlistOwner failed\");\r\n        }\r\n        updateSupportStatus(msg.sender, _address, _id, SupportStatus.Success);\r\n        \r\n        return _id;\r\n    }\r\n\r\n    function _createWishlist(Wishlist memory _wishlist) internal {\r\n        wishlistCount++;\r\n        wishlists[wishlistCount] = _wishlist;\r\n        myWishlists[_wishlist.seller].push(wishlistCount);\r\n    }\r\n\r\n    function _getWishlists(uint256[] memory indexes) internal view returns (Wishlist[] memory) {\r\n        Wishlist[] memory result = new Wishlist[](indexes.length);\r\n        for (uint i = 0; i < indexes.length; i++) {\r\n            require(indexes[i] <= wishlistCount, \"Invalid index\");\r\n            Wishlist storage wishlist = wishlists[indexes[i]];\r\n            result[i] = wishlist;\r\n        }\r\n        return result;\r\n    }\r\n\r\n    function _getWishlistDetail(uint256 id) internal view returns (Wishlist memory) {\r\n        require(id <= wishlistCount, \"Invalid index\");\r\n        Wishlist memory wishlist = wishlists[id];\r\n        // require(!wishlist.isClosed, \"Item does not exist\"); //  \r\n        return wishlist;\r\n    }\r\n\r\n    function _deleteWishlist(address _address, uint256 id) internal {\r\n        require(id <= wishlistCount, \"Invalid index\");\r\n        Wishlist memory wishlist = wishlists[id];\r\n        require(!wishlist.isClosed, \"The wishlist has already closed\");\r\n        require(wishlist.seller == _address, \"You do not have the authority to close the wishlist\");\r\n        wishlists[id].isClosed = true;\r\n    }\r\n\r\n    function _updateWishlist(address _address, Wishlist memory _wishlist) internal {\r\n        require(_wishlist.id <= wishlistCount, \"Invalid index\");\r\n        require(_wishlist.seller == _address, \"You do not have the authority to close the wishlist\");\r\n        wishlists[_wishlist.id] = _wishlist;\r\n    }\r\n}",
  "sourcePath": "C:\\Users\\SSAFY\\Desktop\\S08P22A209\\contract\\contracts\\WishlistDonation.sol",
  "compiler": {
    "name": "solc",
    "version": "0.8.18+commit.87f61d96.Emscripten.clang"
  },
  "schemaVersion": "3.4.13",
  "updatedAt": "2023-03-20T07:52:01.371Z",
  "devdoc": {
    "kind": "dev",
    "methods": {},
    "version": 1
  },
  "userdoc": {
    "kind": "user",
    "methods": {},
    "version": 1
  }
}