{
  "contractName": "WishlistDonation",
  "abi": [
    {
      "inputs": [
        {
          "internalType": "address",
          "name": "",
          "type": "address"
        },
        {
          "internalType": "uint256",
          "name": "",
          "type": "uint256"
        }
      ],
      "name": "myWishlists",
      "outputs": [
        {
          "internalType": "uint64",
          "name": "",
          "type": "uint64"
        }
      ],
      "stateMutability": "view",
      "type": "function"
    },
    {
      "inputs": [
        {
          "internalType": "address",
          "name": "",
          "type": "address"
        }
      ],
      "name": "supportCount",
      "outputs": [
        {
          "internalType": "uint64",
          "name": "",
          "type": "uint64"
        }
      ],
      "stateMutability": "view",
      "type": "function"
    },
    {
      "inputs": [
        {
          "internalType": "address",
          "name": "",
          "type": "address"
        },
        {
          "internalType": "uint64",
          "name": "",
          "type": "uint64"
        }
      ],
      "name": "supportList",
      "outputs": [
        {
          "internalType": "uint64",
          "name": "id",
          "type": "uint64"
        },
        {
          "internalType": "address",
          "name": "from",
          "type": "address"
        },
        {
          "internalType": "address",
          "name": "to",
          "type": "address"
        },
        {
          "internalType": "uint256",
          "name": "amount",
          "type": "uint256"
        },
        {
          "internalType": "uint256",
          "name": "arriveTime",
          "type": "uint256"
        },
        {
          "internalType": "enum SupportHistory.SupportType",
          "name": "supportType",
          "type": "uint8"
        }
      ],
      "stateMutability": "view",
      "type": "function"
    },
    {
      "inputs": [
        {
          "internalType": "uint256",
          "name": "",
          "type": "uint256"
        }
      ],
      "name": "wishlists",
      "outputs": [
        {
          "internalType": "uint64",
          "name": "id",
          "type": "uint64"
        },
        {
          "internalType": "bytes",
          "name": "imgPath",
          "type": "bytes"
        },
        {
          "internalType": "bytes",
          "name": "title",
          "type": "bytes"
        },
        {
          "internalType": "bytes",
          "name": "description",
          "type": "bytes"
        },
        {
          "internalType": "uint256",
          "name": "collectedAmount",
          "type": "uint256"
        },
        {
          "internalType": "uint256",
          "name": "targetAmount",
          "type": "uint256"
        },
        {
          "internalType": "bytes",
          "name": "message",
          "type": "bytes"
        },
        {
          "internalType": "bool",
          "name": "isClosed",
          "type": "bool"
        },
        {
          "internalType": "address",
          "name": "seller",
          "type": "address"
        }
      ],
      "stateMutability": "view",
      "type": "function"
    }
  ],
  "bytecode": "0x608060405234801561001057600080fd5b506109a8806100206000396000f3fe608060405234801561001057600080fd5b506004361061004c5760003560e01c80630c1fa1ef14610051578063234c921814610081578063a9afa55b146100b6578063b9a44c2e146100ee575b600080fd5b61006b6004803603810190610066919061054e565b61011e565b604051610078919061059e565b60405180910390f35b61009b600480360381019061009691906105e5565b610145565b6040516100ad969594939291906106c4565b60405180910390f35b6100d060048036038101906100cb9190610751565b6101ef565b6040516100e599989796959493929190610829565b60405180910390f35b610108600480360381019061010391906108d2565b61049e565b604051610115919061059e565b60405180910390f35b60016020528060005260406000206000915054906101000a900467ffffffffffffffff1681565b6000602052816000526040600020602052806000526040600020600091509150508060000160009054906101000a900467ffffffffffffffff16908060000160089054906101000a900473ffffffffffffffffffffffffffffffffffffffff16908060010160009054906101000a900473ffffffffffffffffffffffffffffffffffffffff16908060020154908060030154908060040160009054906101000a900460ff16905086565b60026020528060005260406000206000915090508060000160009054906101000a900467ffffffffffffffff169080600101805461022c90610941565b80601f016020809104026020016040519081016040528092919081815260200182805461025890610941565b80156102a55780601f1061027a576101008083540402835291602001916102a5565b820191906000526020600020905b81548152906001019060200180831161028857829003601f168201915b5050505050908060020180546102ba90610941565b80601f01602080910402602001604051908101604052809291908181526020018280546102e690610941565b80156103335780601f1061030857610100808354040283529160200191610333565b820191906000526020600020905b81548152906001019060200180831161031657829003601f168201915b50505050509080600301805461034890610941565b80601f016020809104026020016040519081016040528092919081815260200182805461037490610941565b80156103c15780601f10610396576101008083540402835291602001916103c1565b820191906000526020600020905b8154815290600101906020018083116103a457829003601f168201915b5050505050908060040154908060050154908060060180546103e290610941565b80601f016020809104026020016040519081016040528092919081815260200182805461040e90610941565b801561045b5780601f106104305761010080835404028352916020019161045b565b820191906000526020600020905b81548152906001019060200180831161043e57829003601f168201915b5050505050908060070160009054906101000a900460ff16908060070160019054906101000a900473ffffffffffffffffffffffffffffffffffffffff16905089565b600360205281600052604060002081815481106104ba57600080fd5b9060005260206000209060049182820401919006600802915091509054906101000a900467ffffffffffffffff1681565b600080fd5b600073ffffffffffffffffffffffffffffffffffffffff82169050919050565b600061051b826104f0565b9050919050565b61052b81610510565b811461053657600080fd5b50565b60008135905061054881610522565b92915050565b600060208284031215610564576105636104eb565b5b600061057284828501610539565b91505092915050565b600067ffffffffffffffff82169050919050565b6105988161057b565b82525050565b60006020820190506105b3600083018461058f565b92915050565b6105c28161057b565b81146105cd57600080fd5b50565b6000813590506105df816105b9565b92915050565b600080604083850312156105fc576105fb6104eb565b5b600061060a85828601610539565b925050602061061b858286016105d0565b9150509250929050565b61062e81610510565b82525050565b6000819050919050565b61064781610634565b82525050565b7f4e487b7100000000000000000000000000000000000000000000000000000000600052602160045260246000fd5b6003811061068d5761068c61064d565b5b50565b600081905061069e8261067c565b919050565b60006106ae82610690565b9050919050565b6106be816106a3565b82525050565b600060c0820190506106d9600083018961058f565b6106e66020830188610625565b6106f36040830187610625565b610700606083018661063e565b61070d608083018561063e565b61071a60a08301846106b5565b979650505050505050565b61072e81610634565b811461073957600080fd5b50565b60008135905061074b81610725565b92915050565b600060208284031215610767576107666104eb565b5b60006107758482850161073c565b91505092915050565b600081519050919050565b600082825260208201905092915050565b60005b838110156107b857808201518184015260208101905061079d565b60008484015250505050565b6000601f19601f8301169050919050565b60006107e08261077e565b6107ea8185610789565b93506107fa81856020860161079a565b610803816107c4565b840191505092915050565b60008115159050919050565b6108238161080e565b82525050565b60006101208201905061083f600083018c61058f565b8181036020830152610851818b6107d5565b90508181036040830152610865818a6107d5565b9050818103606083015261087981896107d5565b9050610888608083018861063e565b61089560a083018761063e565b81810360c08301526108a781866107d5565b90506108b660e083018561081a565b6108c4610100830184610625565b9a9950505050505050505050565b600080604083850312156108e9576108e86104eb565b5b60006108f785828601610539565b92505060206109088582860161073c565b9150509250929050565b7f4e487b7100000000000000000000000000000000000000000000000000000000600052602260045260246000fd5b6000600282049050600182168061095957607f821691505b60208210810361096c5761096b610912565b5b5091905056fea2646970667358221220ed1903d44b6a7132778cdfa8e9f748df7d606e5ba9d61e17da2158076dbfd74764736f6c63430008120033",
  "immutableReferences": {},
  "source": "// SPDX-License-Identifier: MIT\r\npragma solidity >= 0.6.0 <0.9.0;\r\n\r\nimport \"./SupportHistory.sol\";\r\nimport \"./BasicDonation.sol\";\r\n\r\ncontract WishlistDonation is SupportHistory, BasicDonation {\r\n\r\n    struct WishlistSol {\r\n        uint64 id;\r\n        bytes imgPath;\r\n        bytes title;\r\n        bytes description;\r\n        uint256 collectedAmount;\r\n        uint256 targetAmount;\r\n        bytes message;\r\n        bool isClosed;\r\n        address seller;\r\n    }\r\n\r\n    mapping(uint =>  WishlistSol) public wishlists;\r\n    mapping(address => uint64[]) public myWishlists;\r\n    uint64 internal wishlistCount;\r\n\r\n    // event WishlistCreated(address indexed creator, uint256 wishlistId);\r\n\r\n    function _buyWishlist(address payable _to, uint64 _wishlistId, uint256 _value, address payable _owner) internal returns(uint64){\r\n        require(_value <= address(this).balance, \"Insufficient balance\");\r\n        WishlistSol memory wishlist = wishlists[_wishlistId];\r\n        require(!wishlist.isClosed, \"This fundraising campaign for the wishlist has closed.\");\r\n\r\n        uint64 supportId = _transfer(_to, _value, SupportType.Wishlist, _owner);\r\n        wishlists[_wishlistId].collectedAmount += _value;\r\n        if(wishlists[_wishlistId].collectedAmount >= wishlists[_wishlistId].targetAmount){\r\n            wishlists[_wishlistId].isClosed = true;\r\n        }\r\n        return supportId;\r\n    }\r\n\r\n    function _createWishlist(WishlistSol memory _wishlist) internal {\r\n        wishlistCount++;\r\n        _wishlist.id = wishlistCount;\r\n        wishlists[wishlistCount] = _wishlist;\r\n        myWishlists[_wishlist.seller].push(wishlistCount);\r\n    }\r\n\r\n    function _getWishlists(uint64[] memory indexes) internal view returns (WishlistSol[] memory) {\r\n        WishlistSol[] memory result = new WishlistSol[](indexes.length);\r\n        for (uint i = 0; i < indexes.length; i++) {\r\n            require(indexes[i] <= wishlistCount, \"Invalid index\");\r\n            WishlistSol memory wishlist = wishlists[indexes[i]];\r\n            result[i] = wishlist;\r\n        }\r\n        return result;\r\n    }\r\n\r\n    function _getWishlistDetail(uint64 id) internal view returns (WishlistSol memory) {\r\n        require(id <= wishlistCount, \"Invalid index\");\r\n        require(id != 0, \"Invalid index\");\r\n        WishlistSol memory wishlist = wishlists[id];\r\n        // require(!wishlist.isClosed, \"Item does not exist\"); //  \r\n        return wishlist;\r\n    }\r\n\r\n    function _deleteWishlist(address _address, uint256 id) internal {\r\n        require(id <= wishlistCount, \"Invalid index\");\r\n        WishlistSol memory wishlist = wishlists[id];\r\n        require(!wishlist.isClosed, \"The wishlist has already closed\");\r\n        require(wishlist.seller == _address, \"You do not have the authority to close the wishlist\");\r\n        wishlists[id].isClosed = true;\r\n    }\r\n\r\n    function _updateWishlist(WishlistSol memory _wishlist) internal {\r\n        require(_wishlist.id <= wishlistCount, \"Invalid index\");\r\n        wishlists[_wishlist.id] = _wishlist;\r\n    }\r\n}",
  "sourcePath": "C:\\Users\\SSAFY\\Desktop\\S08P22A209\\contract\\contracts\\WishlistDonation.sol",
  "compiler": {
    "name": "solc",
    "version": "0.8.18+commit.87f61d96.Emscripten.clang"
  },
  "schemaVersion": "3.4.13",
  "updatedAt": "2023-04-04T07:54:13.814Z",
  "devdoc": {
    "kind": "dev",
    "methods": {},
    "version": 1
  },
  "userdoc": {
    "kind": "user",
    "methods": {},
    "version": 1
  }
}